:020000040800F2
:1000000000000220E97A0008317B0008317B0008FB
:10001000317B0008317B0008317B000800000000C4
:10002000000000000000000000000000E9040008DB
:10003000317B0008000000000D020008911000084C
:10004000327B0008327B0008327B0008327B0008DC
:10005000327B0008327B0008327B0008327B0008CC
:10006000327B0008327B0008327B0008327B0008BC
:10007000327B0008327B0008327B0008327B0008AC
:10008000327B0008327B0008327B0008327B00089C
:10009000327B0008327B0008327B0008327B00088C
:1000A000327B0008327B0008327B0008327B00087C
:1000B000327B0008327B0008327B0008327B00086C
:1000C000327B0008327B0008327B0008327B00085C
:1000D000327B0008327B0008327B0008327B00084C
:1000E000327B0008327B0008327B0008327B00083C
:1000F000327B0008327B0008327B0008327B00082C
:10010000327B0008327B0008327B0008327B00081B
:10011000327B0008327B0008327B0008327B00080B
:10012000327B0008327B0008327B0008327B0008FB
:10013000327B0008327B0008327B0008327B0008EB
:10014000327B0008327B0008327B0008327B0008DB
:10015000327B0008327B0008327B0008327B0008CB
:10016000327B0008327B0008327B0008327B0008BB
:10017000327B0008327B0008327B0008327B0008AB
:04018000327B0008C6
:100184000348044B834202D0034B03B11847704722
:10019400300A0020300A0020000000000548064B09
:1001A4001B1AD90F01EBA301491002D0034B03B171
:1001B40018477047300A0020300A00200000000071
:1001C40010B5064C237843B9FFF7DAFF044B13B19B
:1001D4000448AFF300800123237010BD300A0020CF
:1001E40000000000547B000808B5044B1BB104490F
:1001F4000448AFF30080BDE80840CFE700000000EA
:10020400340A0020547B000800B5EFF3098020E98C
:10021400F00F05F083FFB0E8F00F80F309885DF874
:1002240004EB7047EFF3088080F30988EFF3148040
:1002340040F0020080F31488EFF3148040F00100D2
:1002440080F314887047BFF34F8F03484FF08051F9
:10025400BFF36F8F0160704704ED00E00023014697
:100264001A46184600F014B838B5074D074C2C1B35
:10027400A41005D0013C55F8043D9847002CF9D151
:10028400BDE8384007F06ABC509100084C91000862
:1002940070B4164D2C681CB365681F2D23DC38B967
:1002A400AB1C0135656044F82310002070BC704716
:1002B40004EB850C0228CCF88820D4F888614FF030
:1002C400010202FA05F246EA0206C4F88861CCF893
:1002D4000831E5D1D4F88C311343C4F88C31DFE70D
:1002E400034C2C60D8E74FF0FF30DFE74C0A0020C6
:1002F400500A002010B54FEAD20C034623E091F8CF
:1003040000E083F800E091F801E083F801E091F85F
:1003140002E083F802E091F803E083F803E091F847
:1003240004E083F804E091F805E083F805E091F82F
:1003340006E083F806E091F807E083F807E00CF1A3
:10034400FF3C08310833BCF1000FD8DC12F0040F75
:1003540009D00C781C704C785C708C789C70CC78CC
:10036400DC700431043312F0020F09D08E461EF8FB
:10037400024B9C460CF8024B49785970714663460F
:1003840012F0010F01D00A781A7010BD034600E084
:1003940001331A78002AFBD1181A7047034601E08A
:1003A400013311464A1E11B119780029F8D1181ADF
:1003B4007047034602440020934206D213F8010B0F
:1003C40011F801CBB0EB0C00F6D0704784469CF8D2
:1003D40000200CF1010C0B780131D01A01D1002A54
:1003E400F5D170471346013A73B100B5CBB28446D8
:1003F4001CF801EB734505D060461346013A002B07
:10040400F4D100205DF804FB002070470378CAB2E1
:10041400934204D00130002BF8D10020704770477C
:100424000346002001E0013332B11A785FFA81FCFF
:100434006245F8D11846F6E77047034602E003F830
:10044400011B624602F1FF3C002AF8D1704700000C
:100454000146E0B1036D23F00703403B4FF0807287
:10046400DA63426D9A630A4A5A6300221A63DA62B3
:100474009A626FF002005862886D1862DA619A61BC
:100484005A611A61DA609A605A601B608B64704723
:10049400456200080020704710B485B00446084641
:1004A40011461A46069B0093079B0193089B0293EF
:1004B40003946B4600DF05B05DF8044B704710B53C
:1004C40084B00446C368D8681A6859689B68029364
:1004D40001910092A3686268216805F035FF2060ED
:1004E40004B010BD1EF0040F0CBFEFF30880EFF34F
:1004F4000980FFF7E4BF70472A4A136843F00103F9
:100504001360284B1B6813F0020FFAD0264B1A68AD
:1005140042F005021A601A6842F480721A601A687E
:1005240042F400721A601A6842F480621A601D4A2A
:10053400136823F0807313601A4B1B6813F0007F59
:10054400FAD1184B194A5A601A6842F080721A603C
:10055400144B1B6813F0007FFAD0124B9A6822F0F8
:10056400F0029A609A6822F4E0529A609A6842F41F
:10057400A0529A609A6822F460429A609A6842F49F
:1005840000429A609A6822F003029A609A6842F0E4
:1005940002029A60034B9B6803F00C03082BF9D109
:1005A400704700BF00380240003C0240105400076E
:1005B400034B1B6813F0800FFAD0014B586070474F
:1005C400001001400020704770B50D461646002407
:1005D40000E00134B44209D2285DFFF7E9FF2B5D46
:1005E4000A2BF6D10D20FFF7E3FFF2E7304670BD8A
:1005F4000020704748B330B583B015461C463AB363
:10060400002B28DD01AB0A464168006806F05FFB59
:10061400844618B3019BB3EB840F22DB00200FE068
:100624005CF82030C3F30721090441EA0361C3F3F2
:10063400074241EA022141EA136145F820100130E2
:10064400A042EDDB002003B030BD6FF01500704711
:100654006FF01500F7E76FF01500F4E76FF0150081
:10066400F1E76FF01500EEE7E8B110B582B014467B
:10067400E2B101AB0A464168006806F028FBC0B14C
:10068400019B032B18DD0268C2F307231B0443EA12
:100694000263C2F3074143EA012343EA126323607E
:1006A400002002B010BD6FF0150070476FF0150008
:1006B400F7E76FF01500F4E76FF01500F1E70000BD
:1006C40038B51546C8B14468002221460D4806F0E5
:1006D400C4F8041E14DB00230B4A2146094806F023
:1006E400F6FA0028F0D02946FFF770FE0028EBD177
:1006F4000648044B0360446003E04FF0FF34E3E733
:10070400002038BDB09B0008447E0008E80B0020A0
:1007140008B50146054806F05BFB031E04DB0448EC
:10072400024A0260436008BD0020FCE7B09B000859
:10073400E00B002010B584B0002001904FF4E133A9
:100744000093444A0146FFF7BBFF0446002873D0D8
:10075400022302AA40492046FFF74CFF002872D129
:100764006A463E492046FFF77FFF029A3C49D1F88A
:10077400303843F00103C1F830383A4B186820F49C
:1007840070101860186840F420101860586A20F43B
:100794007F605862586A40F4EE605862986840F48A
:1007A40070109860D86820F47010D860D86840F44D
:1007B400A010D860586820F4C0605860D1F844385C
:1007C40043F01003C1F844380023D3600099264B4A
:1007D40003EB5103B3FBF1F39360D36843F00C03D1
:1007E400D360D36843F40053D360D36843F0200349
:1007F400D360019B1F2B0BD84FF0E020D0F80021D1
:1008040003F01F03012101FA03F31343C0F800317D
:10081400019BA3F12402032A0CD84FF0E020D0F866
:100824002425DB00A3F58D73032101FA03F313439D
:10083400C0F8243504B010BD0C48FFF769FF044626
:10084400002885D1F6E7012301AA09492046FFF7CC
:10085400D1FE85E7507E0008787E0008887E000877
:10086400003002400000024000BD0105607E000827
:100874007C7E000808B5FFF75DFF08BD0FB410B516
:10088400C2B044AB53F8042B01934FF4807102A817
:1008940006F056FF002400E0013402AB185D48B1B5
:1008A400FFF786FE02AB1B5D0A2BF5D10D20FFF787
:1008B4007FFEF1E742B0BDE8104004B0704700236A
:1008C40000E0013341FA03FCBCF1010FF9D1072B1D
:1008D4000ED8016A9B004FF00F0C0CFA03FC21EABE
:1008E4000C010162016A02FA03F30B4303627047CD
:1008F400416A083B9B004FF00F0C0CFA03FC21EA01
:100904000C014162416A9A400A4342627047F8B559
:1009140005460E4600240CE0EA681040E860EA68E8
:10092400308900FA01F10A43EA607288022A2FD062
:1009340001340F2C32D80123A340328833EA020257
:10094400F6D12F68610003228A40D04327EA0202CD
:100954002A602A68B6F802C00CFA01FC42EA0C02CA
:100964002A607288013A92B2012AD5D86A6822EACA
:1009740003026A606A68F788A7403A436A60AA6813
:100984000240AA60AA68B7888F403A43AA60C3E7C6
:10099400B27A99B22846FFF792FFC9E7F8BD8161A0
:1009A40070470904816170470369194214BF01202B
:1009B4000020704731B1074AD2F830380343C2F8F7
:1009C40030387047034AD2F8303823EA0003C2F8BB
:1009D400303870470030024000F00F00014B33F80C
:1009E40010007047149100080309AF2803D8034A84
:1009F40052F8230070470020704700BFE8900008B9
:100A0400234B98422AD003F58063984228D003F5FB
:100A14008063984226D003F58063984224D003F57E
:100A24008063984222D003F58063984220D003F576
:100A3400806398421ED003F5806398421CD003F56E
:100A4400806398421AD003F58063984219D003F565
:100A54008063984218D04FF0FF30704701207047F0
:100A64000220704704207047082070471020704708
:100A74002020704740207047802070474FF48070DA
:100A840070474FF4007070474FF48060704700BFA8
:100A940000000240002300E0013341FA03F2012A7E
:100AA400FAD1072B05D8006A9B00D84000F00F004C
:100AB4007047406A083B9B00D84000F00F00704725
:100AC40010B514460A78836A19884FF6FF7081427C
:100AD40008D0302A0CD0312A0ED15868FFF75FFFB6
:100AE400204610BD074806F0FFFB6FF01500F8E73D
:100AF4005868FFF756FFF3E7034806F0F5FB6FF07D
:100B04001500EEE7F87E0008247F000808B5886A1F
:100B140005F004FA002008BD38B50D464FF44C61C9
:100B2400142005F0F1F950B14FF6FF720280002451
:100B34004460A862034806F0D7FB204638BD6FF036
:100B44000B00FBE7347F000838B50D46836A19882B
:100B54004FF6FF7C61450BD014465868FFF724FF1D
:100B640060B930232B70084806F0BEFB204638BD20
:100B7400064806F0B9FB6FF01500F8E731232B7037
:100B8400034806F0B1FBF1E7487F0008F87E00084F
:100B9400607F000800B583B0431E13F4004F1ED1DC
:100BA400002301E00133DBB24008FBD100220092B4
:100BB4008DF80420092B0BD830338DF800300B4B03
:100BC4006A460B490B4806F08FFB03B05DF804FB43
:100BD40031228DF8002026338DF80130EFE7034AE7
:100BE4000146054806F080FBEFE700BFCC90000803
:100BF400D0900008D47F0008DC7F000808B500F11D
:100C04003F4000F57E00B0F5205F0AD8C0F387208E
:100C140000F14102054BD2B20549064806F064FBD7
:100C240008BD0249044806F05FFBF9E7B4900008E8
:100C3400B8900008F47F0008FC7F00082DE9F84311
:100C44000C461546876A402904D03A884FF6FF734C
:100C54009A4226D0AEB23046FFF7BEFE80463046FA
:100C6400FFF7C2FE0646FFF7CBFE8146202C1ED8B6
:100C7400002C00F09B80013C1F2C00F29A80DFE8DE
:100C840004F05E6698759898986F989898989898D4
:100C9400984C98989898989898989898989898981C
:100CA4009855484806F020FB6FF0150483E0B4F52E
:100CB400807F61D040F201139C426DD0402C7DD1E5
:100CC400FEB1B0F1FF3F22D04046FFF763FF30464C
:100CD400FFF794FF01214846FFF76CFEA7F8008058
:100CE4007E60A7F8088001237B810024FC81022315
:100CF400BB813C82BC7407F108013046FFF707FE54
:100D040059E0314806F0F0FA6FF0150453E02F482B
:100D140006F0EAFA6FF015044DE001233B8207F177
:100D240008013046FFF7F3FD002444E002233B8230
:100D340007F108013046FFF7EAFD00243BE00024F8
:100D44007C8107F108013046FFF7E1FD33E0012320
:100D54007B8107F108013046FFF7D9FD00242AE022
:100D640041463046FFF71BFE002424E0414630464E
:100D7400FFF717FE00241EE0C5F3034502237B8121
:100D8400BD7407F108013046FFF7C1FD294610483C
:100D940006F0AAFA00240EE041463046FFF77AFE38
:100DA400014604460B4806F09FFA04E06FF0150470
:100DB40001E06FF015042046BDE8F8836FF01504D8
:100DC400F9E700BF10800008308000084C8000085C
:100DD4006C80000880800008284AD2F8303843F03C
:100DE4000103C2F83038264B196821F47C4119609C
:100DF400196841F428411960596821F0E0015960EB
:100E0400996841F47C419960D96821F47C41D960A6
:100E1400196AC1F313011962196A41F0AA4141F434
:100E2400A0011962D2F8443843F48053C2F844381C
:100E3400D2F8243843F48053C2F82438D2F8243842
:100E440023F48053C2F824380E4B00221A601A6827
:100E540042F004021A601A6842F002021A601A6828
:100E640042F001021A601A6842F440721A601A6869
:100E74001A601A6842F040021A607047003002405B
:100E84000000024000300140044B1A6822F038028E
:100E94001A601A6842EAC0021A60704700300140C2
:100EA400074B9B6813F0020FFAD0054BD860044B34
:100EB4009B6813F0010FFAD0014BD868C0B2704799
:100EC40000300140F8B50E46154618B1074671B119
:100ED400002408E0F1B146B1002418E0385DFFF7C2
:100EE400DFFF30550134AC42F8DB2846F8BD00285A
:100EF400F1D0002403E0385DFFF7D2FF0134AC42A7
:100F0400F9DBF2E7FF20FFF7CBFF30550134AC42A9
:100F1400F8DBEAE74FF0FF35E7E7000008B50248E1
:100F240006F0E2F9002008BD9880000830B583B0CF
:100F3400FFF752FF164C174B009323464FF4807271
:100F44000021084602F0D8FE05460146124806F084
:100F5400CBF92146002000F09DF8044610F5805F8F
:100F64000DD80B4B009300232A461946204600F067
:100F7400B7F810F5805F06D8002003B030BD0748ED
:100F840006F0B2F9EDE7064806F0AEF9F4E700BF63
:100F9400A880000814010020B0800008C880000860
:100FA400E4800008124B984213D8124B984212D88E
:100FB400114B984211D2114B984210D8104B9842C1
:100FC4000FD8104B98420ED80F4B98420DD80720DB
:100FD40070470020704701207047022070470320AB
:100FE400704704207047052070470620704700BFF3
:100FF4007FDE80023F6F4001A037A000CF1B50006E
:10100400E70D2800F306140079030A0010B572B145
:101014001446012911D1D068FFF7C4FFC0B2FFF70D
:1010240033FFA26861682068FFF74CFF10BD0448D5
:1010340006F05AF96FF01500F8E76FF01500F5E7C0
:10104400008100084FF0E02300221A610C4B1B685A
:1010540003B9FEE70B4AA2FB03239B09013BB3F14F
:10106400807F01D36FF07F434FF0E0225361002370
:10107400054981F82330936107231361704700BF4A
:10108400000000201F85EB5100ED00E008B506F0DC
:101094006FF908BDF8B505460C46104806F024F96A
:1010A4004FF44C61082004F02FFF88B10646204617
:1010B400FFF76CF94FF44C61013004F025FF07464B
:1010C40048B1214605F042FF776035603046F8BDEF
:1010D4006FF00B06FAE76FF00B06F7E70C810008D8
:1010E4002DE9F041C2B006460F46154648AB53F809
:1010F400042B2193802122A806F022FB22AB164A5E
:10110400802101A806F0E0FC01A9144806F0ECF8DF
:1011140048F2ED1101A803F06EFB044610F5805F60
:1011240015D84FF44C610C2004F0EEFE804680B1DB
:10113400076046600021284602F0B2FC02462946B8
:10114400A06C00F035FF404642B0BDE8F081804617
:10115400F9E76FF00B08F6E72C81000834810008EA
:101164000CB430B5B3B005460C46369A0AB337AB67
:101174000193402122A806F0E3FA22AB0F4A802112
:1011840002A806F0A1FC02A90D4806F0ADF848F249
:10119400ED1102A803F02FFB10F5805F04D822683C
:1011A4002946806C00F01CFF33B0BDE8304002B02B
:1011B40070470C3122A805F0C9FEDEE72C81000837
:1011C4005C81000808B140687047704710B582B070
:1011D4000446436B984706238DF80730E36A0122DF
:1011E4000DF1070120469847A36B2046984702B0AB
:1011F40010BD10B582B00446436B98474FF6057393
:10120400ADF80430FF238DF80530E36A022201A90A
:1012140020469847236B022201A9204698479DF84F
:10122400053013F0010FEDD1A36B2046984702B0AF
:1012340010BD30B583B004460D03FFF7C7FF636BE1
:101244002046984720238DF804302B0C8DF8053068
:101254002B0A8DF806308DF80750E36A04220DEB53
:10126400020120469847A36B2046984703B030BD3F
:10127400F0B583B004460E4615461F46FFF7B9FF86
:101284002046FFF7A3FF636B2046984702238DF89F
:1012940004302B0C8DF805302B0A8DF806308DF8B0
:1012A4000750E36A04220DEB020120469847E36AE3
:1012B4003A46314620469847A36B2046984703B0E8
:1012C400F0BDF0B583B004460E4615461F46FFF741
:1012D40090FF636B2046984703238DF804302B0C52
:1012E4008DF805302B0A8DF806308DF80750E36A27
:1012F40004220DEB020120469847236B3A463146FF
:1013040020469847A36B2046984703B0F0BD2DE9CB
:10131400F8430746884691461D461946FFF789FF5C
:101324004E46B9F1000F03DB36122D0300240DE005
:1013340009F1FF06F8E74FF480732A4608EB04210D
:101344003846FFF795FF05F580750134B442F2DBAA
:101354004846BDE8F88310B514461A46A3B25202B3
:10136400FFF7AFFF204610BD01230B70002048603B
:10137400034B1B689B6A5B0A4B704880704700BF35
:10138400100C002030B585B004469F238DF80F3033
:101394000025ADF80C508DF80E50436B9847E36A66
:1013A40001220DF10F0120469847236B032203A964
:1013B40020469847A36B20469847A5629DF80E30B7
:1013C400A3F11002D2B2152A02D801229A40A262D5
:1013D400A26A110D0191920A00929DF80D209DF8C8
:1013E4000C100C4805F080FF90230293636B204699
:1013F4009847E36A042202A920469847236B0222F5
:1014040004F1240120469847A36B20469847002006
:1014140005B030BD8481000808B5024805F064FFBA
:1014240008BD00BFD081000808B5024805F05CFF84
:10143400002008BDF081000808B5002301220549F9
:10144400806803F0F3F8002800DB08BD024805F0CB
:101454004BFFFAE7108200081482000808B5002345
:1014640001220549806803F0E1F8002800DB08BD8B
:10147400024805F039FFFAE79C7E0008288200083C
:1014840008B50023C3600161426100F10C0201212F
:10149400406803F00FF908BD08B5C160002303617B
:1014A400426100F10C020121406803F003F908BD18
:1014B40070B5B2F1FF3F2CD006460846154600220F
:1014C400022103F01FFA0446B06010F5805F94BF58
:1014D400002401248CB929460F4805F005FF2A464B
:1014E4004021B06803F0E6F800280CDB002202215A
:1014F400B06803F0DFF8204670BD084805F0F4FE3C
:101504004FF0FF34F7E7064805F0EEFE4FF0FF34E6
:10151400F1E70024EFE700BF508200083C82000896
:101524006882000838B504461546002202210B489B
:1015340003F0E8F9606010F5805F09D8A561012324
:1015440063610023A3830822A27784F8233038BD83
:10155400034805F0C9FE4FF0FF30F8E78082000829
:101564003C82000838B504460D460649FFF7A0FF43
:101574002070054A29462046FFF7D4FF207000203A
:1015840038BD00BF9082000840420F0008B503F048
:10159400D3FA08BD70B110B50446826940F2D24353
:1015A4009A4203D0204604F0B9FC10BD406804F010
:1015B400B5FCF7E7704708B5024658B100F11C03C3
:1015C40053E8001FA1F1010143E8001090F0000F5F
:1015D400F6D119B1D369002B04DB08BD1046FFF71F
:1015E400D9FFFAE700211046FFF7D4FFF5E7000022
:1015F400002800F0BA802DE9F04F85B0C36901934B
:10160400D0F820A00027D346824697E04246019FA7
:101614003946564805F068FE3B4642463146544832
:101624000068FFF798FE07462068FFF7C4FF0135FE
:10163400DBF83C4005EB450304EB8304BBF8343092
:10164400AB4275DDD4F804802068FFF7BBFDA368C6
:10165400C618DAF8043013F00103D7D0002BE3D016
:10166400019BDA08009203F00709424619464148F3
:1016740005F03AFEB9F1000F02D1B8F5805F4ED003
:101684004FEA4923029308EB49230393009B4FF449
:1016940080523949096836480068FFF75CFE071E26
:1016A40046DBC9F108034FEA4329B8EB432F00D2C4
:1016B400C146314B1F684A46314602983844FEF70A
:1016C40019FE009B4FF48052394629480068FFF701
:1016D4001EFE071E2CDB039BB3F5805FA4DD009B7D
:1016E400013300934FF4805223490968204800686D
:1016F400FFF731FE071E1BDB1F4B1F68A8EB090217
:1017040006EB09013846FEF7F5FD009B4FF48052C5
:10171400394617480068FFF7FAFD074684E7009B3F
:101724004246314612480068FFF7F1FD07467BE761
:10173400DAF82030D3F800B0CAF820B0DAF8203054
:101744001BB1DBF83C40002578E7002F07DB51464E
:10175400DAF8000003F079FF05B0BDE8F08F5146D8
:10176400DAF8000003F071FFF6E770479C82000886
:10177400100C0020BC8200080C0C002010B504469C
:1017840003F07CFF04E0FFF733FF204603F076FF0D
:101794000028F8D110BD08B503F0C6FF08BD08B590
:1017A40003F064FB08BD000070B506460D464FF417
:1017B4004C613C2004F0A8FB044688B10A4BC36288
:1017C4000A4B03630A4B43630A4B83632A4631463D
:1017D400FFF7C8FE20702046FFF7D4FD204670BDF9
:1017E400054805F081FDF9E79D14000885140008FB
:1017F400611400083D140008DC8200080023036023
:10180400704700230360704708B5FFF7F7FF08BD72
:1018140008B5FFF7F6FF08BD064B0B6000204860D3
:1018240001238B60C860086180234B617F238B6137
:10183400704700BF4E61BC0011B110B141657047E3
:10184400084670474B6D92889B685A600020704729
:1018540008B502F0E6FC08BD08B50248FFF70EF82B
:10186400002008BD7883000808B50248FFF706F891
:10187400002008BD8C83000808B50248FEF7FEFF6F
:10188400002008BDA083000808B50248FEF7F6FF53
:10189400002008BDB483000838B5044604F080FB7A
:1018A40023682BB90125256004F074FB284638BD54
:1018B40004F070FB0020FAE738B5044606E004F0B3
:1018C4005BFB206038BD052004F082FB2046FFF757
:1018D400E3FF0128F3D0256804F04EFB8542F2D1E2
:1018E400F0E70000F8B50F4669B3054616464FF415
:1018F4004C613C2004F008FB044610B3134B036016
:1019040086600761856348F2ED1343600023C3607A
:101914002430FFF779FF04F114066661A66104F12F
:101924001C03E36123622F1D3846FFF7C5FF05F151
:101934001802AB695E606361A261AE613846FFF76D
:1019440067FF2046F8BD0C46FBE700BF4E61BC00B4
:1019540010B5044658B1084602F00EFC38B163686D
:1019640003802369C367024B0361C0F8844010BD40
:101974000802002038B54B685B6D002B31D014464B
:101984009B688BB35A68A2809A681205E261A361CE
:10199400DB68A36000220023C4E90C2305F0E2FC09
:1019A400134D2B68B0FBF3F0E06305F0DBFC2B6810
:1019B400B0FBF3F203FB1200A06304F1400204F154
:1019C400380393E8030082E8030004F1480293E833
:1019D400030082E803004FF48053E3600020A06515
:1019E40038BD6FF00100FBE76FF00100F8E700BFBE
:1019F4002C0A0020F8B5054620B30E46436803F4CC
:101A04007043B3F5804F1FD100F124073846FFF728
:101A140053FFEC690C3C04F10C0305F11C029342E6
:101A24000BD031466068FEF7D1FC10B1E4680C3C81
:101A3400F1E73846FFF7ECFE07E03846FFF7E8FE2B
:101A4400002402E0044600E000242046F8BD70B5FE
:101A540006460D468969D0F88400FFF7CBFF04469B
:101A640078B101462846FFF7E7FE60B17169A068C6
:101A7400FFF76EFF044620B10146284602F068FADB
:101A84000446204670BD0446FBE7000010B504463A
:101A940040B1002002F0AAFB20B10463024B0367AB
:101AA400024B036110BD00BF800200200003002030
:101AB40038B54FF44C61202004F026FA044620B3D4
:101AC400154B40F8043BFFF79FFE04F11803A36194
:101AD400E361002211492046FFF704FF0546B0B137
:101AE40044F2ED13436060610C4B036100F10C039D
:101AF40053E8002F02F1010243E8002191F0000FA6
:101B0400F6D100F11C03C3610362204638BD2046B0
:101B140004F004FA2C46F8E74E61BC005C03002094
:101B240018B108B504F0FAF908BD704761B338B5C7
:101B34000D468B6893B1041D2046FFF7BDFEAB68CC
:101B44000C3353E8002FA2F1010243E8002191F085
:101B5400000FF6D14AB12046FFF75AFE686804F038
:101B6400DDF9284604F0DAF938BDAB689A69596999
:101B74004A6011604FF480725A614FF491729A6115
:101B8400A868FFF7CDFFE6E7704708B5416D8B689D
:101B9400986BFFF7CBFF08BD38B505460C460846E1
:101BA400FFF7F3FF2146284602F012FA38BD70B55C
:101BB400054614460E4619B101F12400FFF77CFED8
:101BC400A268536803F47043B3F5804F13D02369BC
:101BD400E26853601A604FF48073E3604FF49173CA
:101BE40023611EB106F12400FFF712FE21462846A8
:101BF400FFF79CFF70BD02F11C01D3699942E6D046
:101C0400002EF7D006F12400FFF702FEF2E708B534
:101C1400D0F884304A6D1946986BFFF7C8FF00204E
:101C240008BD00002DE9F0418046002847D00E464B
:101C34001546002A45D0002945D04FF44C611420A4
:101C440004F062F9044690B3204B03600023436020
:101C54002846FEF79BFB4FF44C61013004F054F925
:101C64000746606030B3294605F070F9A66004F1B8
:101C74000C05E560256106F10C0151E8003F03F114
:101C8400010341E8003292F0000FF6D108F1240676
:101C94003046FFF711FE08F11C02D8F81C305D60D5
:101CA400E3602261C8F81C503046FFF7B1FD2046BE
:101CB400BDE8F081204604F031F93C46F7E70446DC
:101CC400F5E71446F3E70C46F1E700BF4E61BC00AC
:101CD40070B506460C4611461A46FFF703FE054644
:101CE400E8B1049A01462046FFF79CFF044608B178
:101CF400204670BD04363046FFF7DEFDAB696A69E5
:101D040053601A604FF480736B614FF49173AB614D
:101D14003046FFF77DFD2846FFF702FFE8E704465B
:101D2400E6E7000000B583B000920023054AFFF700
:101D3400CFFF18B1836844F2ED125A6003B05DF826
:101D440004FB00BF5C0300202DE9F0410D4614465E
:101D54009846104602F036F80646D5F884700146D7
:101D64003846FFF747FE0146A8B18A68C8F308035E
:101D740043F4004353602046FFF75EFDB0B1696948
:101D84003846FFF7E5FD014698B1204602F0E0F839
:101D94000020BDE8F08132463946B86BFFF7C2FF38
:101DA40001460028E1D14FF0FF30F2E74FF0FF3059
:101DB400EFE74FF0FF30ECE710B582B0049C0094DD
:101DC400FFF786FF02B010BD2DE9F04383B00D4646
:101DD40014469946104601F0F5FF0646D5F884707E
:101DE40001463846FFF706FE8046C8B1D8F80820F9
:101DF400C9F3080343F40043536041462046FFF708
:101E04001BFDD0B16969D8F80800FFF7A1FD0146B0
:101E1400B0B1204602F09CF8002003B0BDE8F08386
:101E2400B86B00960A23084A3946FFF7C5FF804677
:101E34000028DBD14FF0FF30EFE74FF0FF30ECE745
:101E44004FF0FF30E9E700BF5C03002038B50D46D2
:101E54001446836C9269D3F88410D5F88400FFF794
:101E6400E1FE58B101462046FFF7E6FC6B692365A5
:101E7400A16C204602F06CF8002038BD6FF00B0016
:101E8400FBE780B108B5D0F8840058B18369426992
:101E940053601A604FF4807343614FF4917383610C
:101EA40004F03CF808BD704738B50446006B02687E
:101EB4000B4B9A420ED10A220A49FFF713FD05463D
:101EC40058B12146FFF744FD044620B9284604F0E2
:101ED40025F800E00024204638BD0446FBE700BF97
:101EE4004E61BC005C03002050B110B5044640694B
:101EF40018B1204604F012F810BD04F00FF8F8E70A
:101F040070470000F8B5FFF7D3FD002849D0064616
:101F14002549002001F0B8FF0446D8B14FF44C61C4
:101F2400142003F0F1FF0546D0B10021416073692C
:101F340083601E4B036060658068FFF709FD0746F8
:101F4400A0B1A0643046FFF7A1FDD8B1846120653B
:101F54002046F8BD3046FFF7C7FF6FF00B04F7E7E4
:101F6400204603F0DBFF6FF00B04F1E7284603F093
:101F7400D5FF3046FFF7B8FF204603F0CFFF6FF0E0
:101F84000B04E5E7204603F0C9FF284603F0C6FF2B
:101F9400384602F00FF93046FFF7A6FF6FF00B0446
:101FA400D6E76FF00B04D3E7C88300084E61BC008A
:101FB40030B4D0F88430094C1D68A5420BD11A61A5
:101FC40099605968C1F3080141F400515960C2672E
:101FD400002030BC70474FF0FF30FAE74E61BC0080
:101FE40010B4D0F8843009481C6884420BD19A603C
:101FF40059635A68C2F3080242F4C0425A6000208E
:102004005DF8044B70474FF0FF30F9E74E61BC00B8
:10201400D0F88420536803F47043B3F5C04F01D162
:10202400506B704700207047002303607047002303
:102034000360704708B5FFF7F7FF08BD08B5FFF761
:10204400F6FF08BD064B0B600020486001238B603F
:10205400C860086180234B617F238B61704700BF98
:102064004E61BC0011B110B141657047084670471C
:102074004B6D92889B685A600020704738B50446BF
:1020840003F08EFF23682BB90125256003F082FF3E
:10209400284638BD03F07EFF0020FAE738B5044631
:1020A40006E003F069FF206038BD052003F090FFCF
:1020B4002046FFF7E3FF0128F3D0256803F05CFF17
:1020C4008542F2D1F0E708B502F0ABF808BD000094
:1020D40008B5024805F008F9002008BDD8830008B7
:1020E40010B5D0F88440A36B0BB1002010BD4FF4A1
:1020F4004C6140F21C4003F007FFA06308B10020CC
:10210400F4E74FF0FF30F1E7F8B50F4671B3054639
:1021140016464FF44C613C2003F0F6FE044618B317
:10212400134B036086600761456348F2ED13436017
:102134000027C7602430FFF77DFF04F114066661B1
:10214400A66104F11C03E3612362A7632F1D3846D3
:10215400FFF7A4FF05F11802AB695E606361A26139
:10216400AE613846FFF76AFF2046F8BD0C46FBE730
:102174004E61BC0010B5044658B1084601F0FCFF9E
:1021840038B1636803802369C367024B0361C0F8F5
:10219400844010BD0804002038B54B685B6D002BEB
:1021A40031D014469B688BB35A68A2809A68120592
:1021B400E261A361DB68A36000220023C4E90C236D
:1021C40005F0D0F8134D2B68B0FBF3F0E06305F095
:1021D400C9F82B68B0FBF3F203FB1200A06304F10F
:1021E400400204F1380393E8030082E8030004F199
:1021F400480293E8030082E803004FF48053E3604D
:102204000020A06538BD6FF00100FBE76FF001000E
:10221400F8E700BF2C0A0020F8B5054620B30E46A7
:10222400436803F47043B3F5804F1FD100F12407D2
:102234003846FFF733FFEC690C3C04F10C0305F15D
:102244001C0293420BD031466068FEF7BFF810B110
:10225400E4680C3CF1E73846FFF7F0FE07E0384647
:10226400FFF7ECFE002402E0044600E000242046D0
:10227400F8BD70B506460D468969D0F88400FFF7AD
:10228400CBFF044678B101462846FFF7EBFE60B168
:102294007169A068FFF76EFF044620B10146284625
:1022A40001F056FE0446204670BD0446FBE70000DC
:1022B40010B5044640B1002001F098FF20B104633A
:1022C400024B0367024B036110BD00BF8004002072
:1022D4000005002038B54FF44C61202003F014FEB3
:1022E400044620B3154B40F8043BFFF7A3FE04F16A
:1022F4001803A361E361002211492046FFF704FF9C
:102304000546B0B144F2ED13436060610C4B0361C8
:1023140000F10C0353E8002F02F1010243E800210D
:1023240091F0000FF6D100F11C03C3610362204653
:1023340038BD204603F0F2FD2C46F8E74E61BC00A0
:102344005C05002048B110B50446806B08B103F069
:10235400E5FD204603F0E2FD10BD704761B338B5DA
:102364000D468B6893B1041D2046FFF797FEAB68BA
:102374000C3353E8002FA2F1010243E8002191F04D
:10238400000FF6D14AB12046FFF758FE686803F003
:10239400C5FD284603F0C2FD38BDAB689A6959698A
:1023A4004A6011604FF480725A614FF491729A61DD
:1023B400A868FFF7C7FFE6E7704708B5416D8B686B
:1023C400586BFFF7CBFF08BD38B505460C460846E9
:1023D400FFF7F3FF2146284601F0FAFD38BD70B53A
:1023E400054614460E4619B101F12400FFF756FEC6
:1023F400A268536803F47043B3F5804F13D0236984
:10240400E26853601A604FF48073E3604FF4917391
:1024140023611EB106F12400FFF710FE2146284671
:10242400FFF79CFF70BD02F11C01D3699942E6D00D
:10243400002EF7D006F12400FFF700FEF2E708B5FE
:10244400D0F884304A6D1946586BFFF7C8FF002056
:1024540008BD00002DE9F0418046002847D00E4613
:102464001546002A45D0002945D04FF44C6114206C
:1024740003F04AFD044690B3204B036000234360FD
:102484002846FDF783FF4FF44C61013003F03CFD17
:102494000746606030B3294604F058FDA66004F195
:1024A4000C05E560256106F10C0151E8003F03F1DC
:1024B400010341E8003292F0000FF6D108F124063E
:1024C4003046FFF7EBFD08F11C02D8F81C305D60C4
:1024D400E3602261C8F81C503046FFF7AFFD204688
:1024E400BDE8F081204603F019FD3C46F7E70446B9
:1024F400F5E71446F3E70C46F1E700BF4E61BC0074
:1025040070B506460C4611461A46FFF7FDFD054612
:10251400E8B1049A01462046FFF79CFF044608B13F
:10252400204670BD04363046FFF7B8FDAB696A69D2
:1025340053601A604FF480736B614FF49173AB6115
:102544003046FFF77BFD2846FFF7FCFEE8E704462C
:10255400E6E7000000B583B000920023054AFFF7C8
:10256400CFFF18B1836844F2ED125A6003B05DF8EE
:1025740004FB00BF5C0500202DE9F0410D46144624
:102584009846104601F01EFC0646D5F884700146B4
:102594003846FFF741FE0146A8B18A68C8F308032C
:1025A40043F4004353602046FFF75CFDB0B1696912
:1025B4003846FFF7DFFD014698B1204601F0C8FC1C
:1025C4000020BDE8F08132463946786BFFF7C2FF40
:1025D40001460028E1D14FF0FF30F2E74FF0FF3021
:1025E400EFE74FF0FF30ECE710B582B0049C0094A5
:1025F400FFF786FF02B010BD2DE9F04383B00D460E
:1026040014469946104601F0DDFB0646D5F8847061
:1026140001463846FFF700FE8046C8B1D8F80820C6
:10262400C9F3080343F40043536041462046FFF7CF
:1026340019FDD0B16969D8F80800FFF79BFD014680
:10264400B0B1204601F084FC002003B0BDE8F08363
:10265400786B00960A23084A3946FFF7C5FF80467F
:102664000028DBD14FF0FF30EFE74FF0FF30ECE70D
:102674004FF0FF30E9E700BF5C05002038B50D4698
:102684001446836C9269D3F88410D5F88400FFF75C
:10269400E1FE58B101462046FFF7E4FC6B6923656F
:1026A400A16C204601F054FC002038BD6FF00B00F3
:1026B400FBE780B108B5D0F8840058B1836942695A
:1026C40053601A604FF4807343614FF491738361D4
:1026D40003F024FC08BD704738B50446006B02685B
:1026E4000B4B9A420ED10A220A49FFF70DFD05460B
:1026F40058B12146FFF73EFD044620B9284603F0B1
:102704000DFC00E00024204638BD0446FBE700BF72
:102714004E61BC005C05002050B110B50446406910
:1027240018B1204603F0FAFB10BD03F0F7FBF8E7FD
:1027340070470000F8B5FFF7CDFD002849D00646E4
:102744002549002001F0A0FB0446D8B14FF44C61A8
:10275400142003F0D9FB0546D0B100214160736910
:1027640083601E4B036060658068FFF703FD0746C6
:10277400A0B1A0643046FFF79BFDD8B18461206509
:102784002046F8BD3046FFF7C7FF6FF00B04F7E7AC
:10279400204603F0C3FB6FF00B04F1E7284603F077
:1027A400BDFB3046FFF7B8FF204603F0B7FB6FF0E0
:1027B4000B04E5E7204603F0B1FB284603F0AEFB2B
:1027C400384601F0F7FC3046FFF7A6FF6FF00B0424
:1027D400D6E76FF00B04D3E7C88300084E61BC0052
:1027E40070B504460D4600F20C463046FFF756FC21
:1027F400D4F80424D4F808349A4211D0E35C2B7042
:10280400D4F808340133D4F80024B3FBF2F102FB0A
:102814001133C4F808343046FFF710FC002070BDB3
:102824003046FFF70BFC4FF0FF30F8E72DE9F0419D
:1028340006460D46904600270CE0012003F0C8FB35
:10284400F36AD3F884302919986BFFF7C9FF00287D
:10285400F3DB01373C464745F2D30020BDE8F08165
:1028640070B504460D4600F20C463046FFF716FCE0
:10287400D4F804144B1CD4F80024B3FBF2F002FB8C
:102884001033D4F80824934207D06554C4F80434B0
:102894003046FFF7D3FB002070BD3046FFF7CEFB78
:1028A4004FF0FF30F8E72DE9F04106460D4690461B
:1028B40000270CE0012003F08BFBF36AD3F884308B
:1028C400295D986BFFF7CCFF0028F3DB01373C460A
:1028D4004745F2D30020BDE8F08100230360704730
:1028E40000230360704708B5FFF7F7FF08BD08B57C
:1028F400FFF7F6FF08BD08B1406870477047002035
:102904007047002070470000064B0B6000204860B1
:1029140001238B60C860086180234B617F238B6136
:10292400704700BF4E61BC0011B110B141657047E2
:10293400084670474B6D92889B685A600020704728
:1029440008B501F06EFC08BD2DE9F0411D46C36ACF
:10295400D3F88430D86BF8B10F4614462E686B68F0
:10296400B11843F1000341F20102914273F10003F3
:1029740014DAFFF7C0FF014690B1224631443846CD
:10298400FDF7B8FC2B686A68E31842F100022B607B
:102994006A602046BDE8F0810020FBE70020F9E7EB
:1029A4006FF00B00F6E738B5044603F0F9FA236834
:1029B4002BB90125256003F0EDFA284638BD03F054
:1029C400E9FA0020FAE738B5044606E003F0D4FA41
:1029D400206038BD052003F0FBFA2046FFF7E3FF33
:1029E4000128F3D0256803F0C7FA8542F2D1F0E755
:1029F40008B50146202003F087FA034620B10022DF
:102A040002608261C2614260184608BDF8B50F4693
:102A140071B3054616464FF44C61402003F074FA36
:102A2400044618B3134B036086600761856348F25C
:102A3400ED1343600023C363C3602430FFF753FFE7
:102A440004F114066661A66104F11C03E3612362C8
:102A54002F1D3846FFF7B7FF05F11802AB695E601A
:102A64006361A261AE613846FFF741FF2046F8BDBD
:102A74000C46FBE74E61BC0010B5044658B108464D
:102A840001F07AFB38B1636803802369C367024BA2
:102A94000361C0F8844010BD0806002038B54B68B7
:102AA4005B6D002B31D014469B688BB35A68A280AF
:102AB4009A681205E261A361DB68A3600022002327
:102AC400C4E90C2304F04EFC134D2B68B0FBF3F067
:102AD400E06304F047FC2B68B0FBF3F203FB120045
:102AE400A06304F1400204F1380393E8030082E890
:102AF400030004F1480293E8030082E803004FF462
:102B04008053E3600020A06538BD6FF00100FBE74F
:102B14006FF00100F8E700BF2C0A0020F8B5054665
:102B240020B30E46436803F47043B3F5804F1FD1BE
:102B340000F124073846FFF746FFEC690C3C04F12A
:102B44000C0305F11C0293420BD031466068FDF77B
:102B54003DFC10B1E4680C3CF1E73846FFF7C7FED2
:102B640007E03846FFF7C3FE002402E0044600E015
:102B740000242046F8BD70B506460D468969D0F894
:102B84008400FFF7CBFF044678B101462846FFF7DF
:102B9400CBFE60B17169A068FFF76EFF044620B1F7
:102BA4000146284601F0D4F90446204670BD044687
:102BB400FBE7000010B5044640B1002001F016FB0D
:102BC40020B10463024B0367024B036110BD00BFD5
:102BD400800600200007002038B54FF44C61202007
:102BE40003F092F9044620B3154B40F8043BFFF779
:102BF4007AFE04F11803A361E3610022114920461F
:102C0400FFF704FF0546B0B144F2ED134360606181
:102C14000C4B036100F10C0353E8002F02F1010295
:102C240043E8002191F0000FF6D100F11C03C361C9
:102C34000362204638BD204603F070F92C46F8E7BD
:102C44004E61BC005C07002038B50446FFF7D0FE97
:102C540090B1054621464FF4805003F055F928B150
:102C640040F2D242AA616860284638BD284603F083
:102C740055F96FF00B05F7E76FF00B05F4E72DE955
:102C8400F8430F4614461D46C36AD3F88490D9F816
:102C94003C306BB12E686B68311943F1000341F28B
:102CA4000102914273F1000327DB0020BDE8F883A1
:102CB400064600214FF44C60FFF7C6FFC9F83C00FC
:102CC40010F5805F13D8F36A4FF48052A3F84020C4
:102CD400D9F83C30002BDDD01C3353E8002F02F12F
:102CE400010243E8002191F0000FF6D1D2E700235E
:102CF400C9F83C306FF00B00D8E7D9F83C00FFF777
:102D0400FAFD224639463044FDF7F4FA2B686A6826
:102D1400E31842F100022B606A602046C6E770B1F6
:102D240010B50446826940F2D2439A4203D0204649
:102D340003F0F4F810BD406803F0F0F8F7E77047CB
:102D440008B5024658B100F11C0353E8001FA1F175
:102D5400010143E8001090F0000FF6D119B1D369D6
:102D6400002B04DB08BD1046FFF7D9FFFAE700216A
:102D74001046FFF7D4FFF5E748B110B50446C06B21
:102D840008B1FFF7DDFF204603F0C8F810BD704717
:102D940061B338B50D468B6893B1041D2046FFF727
:102DA40012FEAB680C3353E8002FA2F1010243E892
:102DB400002191F0000FF6D14AB12046FFF797FDAC
:102DC400686803F0ABF8284603F0A8F838BDAB6890
:102DD4009A6959694A6011604FF480725A614FF4DC
:102DE40091729A61A868FFF7C7FFE6E7704708B5D4
:102DF400416D8B68986BFFF7CBFF08BD38B505466E
:102E04000C460846FFF7F3FF2146284601F0E0F898
:102E140038BD70B5054614460E4619B101F12400BB
:102E2400FFF7D1FDA268536803F47043B3F5804FF4
:102E340013D02369E26853601A604FF48073E3602F
:102E44004FF4917323611EB106F12400FFF74FFD87
:102E540021462846FFF79CFF70BD02F11C01D3698F
:102E64009942E6D0002EF7D006F12400FFF73FFD8B
:102E7400F2E708B5D0F884304A6D1946986BFFF72D
:102E8400C8FF002008BD00002DE9F041804600285D
:102E940047D00E461546002A45D0002945D04FF4A8
:102EA4004C61142003F030F8044690B3204B0360C7
:102EB400002343602846FDF769FA4FF44C61013062
:102EC40003F022F80746606030B3294604F03EF868
:102ED400A66004F10C05E560256106F10C0151E8DA
:102EE400003F03F1010341E8003292F0000FF6D1F4
:102EF40008F124063046FFF766FD08F11C02D8F8F5
:102F04001C305D60E3602261C8F81C503046FFF756
:102F1400EEFC2046BDE8F081204602F0FFFF3C466F
:102F2400F7E70446F5E71446F3E70C46F1E700BF7C
:102F34004E61BC0070B506460C4611461A46FFF7B2
:102F440065FD0546E8B1049A01462046FFF79CFF5B
:102F5400044608B1204670BD04363046FFF733FD01
:102F6400AB696A6953601A604FF480736B614FF404
:102F74009173AB613046FFF7BAFC2846FFF7FCFEBD
:102F8400E8E70446E6E7000000B583B000920023BA
:102F9400054AFFF7CFFF18B1836844F2ED125A6077
:102FA40003B05DF804FB00BF5C0700202DE9F0418D
:102FB4000D4614469846104600F004FF0646D5F820
:102FC400847001463846FFF7A9FD0146A8B18A6816
:102FD400C8F3080343F4004353602046FFF7A4FCFE
:102FE400B0B169693846FFF747FD014698B12046FC
:102FF40000F0AEFF0020BDE8F08132463946B86BE0
:10300400FFF7C2FF01460028E1D14FF0FF30F2E79D
:103014004FF0FF30EFE74FF0FF30ECE710B582B030
:10302400049C0094FFF786FF02B010BD2DE9F04325
:1030340083B00D4614469946104600F0C3FE06467A
:10304400D5F8848001464046FFF768FD0746A0B1E5
:10305400BB68C3F8049039462046FFF765FCD0B13D
:103064006969B868FFF708FD0146B8B1204600F069
:103074006FFF002003B0BDE8F083D8F83800009655
:103084000A23084A4146FFF7C9FF07460028DFD153
:103094004FF0FF30EEE74FF0FF30EBE74FF0FF303B
:1030A400E8E700BF5C07002038B50D461446836C82
:1030B4009269D3F88410D5F88400FFF7E5FE58B17F
:1030C40001462046FFF730FC6B692365A16C20465E
:1030D40000F03EFF002038BD6FF00B00FBE780B12D
:1030E40008B5D0F8840058B18369426953601A6006
:1030F4004FF4807343614FF49173836102F00EFFC8
:1031040008BD704738B50446006B02680B4B9A4201
:103114000ED10A220A49FFF779FC054658B1214627
:10312400FFF7AAFC044620B9284602F0F7FE00E0A7
:103134000024204638BD0446FBE700BF4E61BC00B6
:103144005C07002050B110B50446406918B1204610
:1031540002F0E4FE10BD02F0E1FEF8E77047000063
:10316400F8B5FFF739FD002849D006462549002067
:1031740000F08AFE0446D8B14FF44C61142002F0EA
:10318400C3FE0546D0B100214160736983601E4BC4
:10319400036060658068FFF76FFC0746A0B1A06418
:1031A4003046FFF707FDD8B1846120652046F8BD9D
:1031B4003046FFF7C7FF6FF00B04F7E7204602F035
:1031C400ADFE6FF00B04F1E7284602F0A7FE30468F
:1031D400FFF7B8FF204602F0A1FE6FF00B04E5E70D
:1031E400204602F09BFE284602F098FE384600F086
:1031F400E1FF3046FFF7A6FF6FF00B04D6E76FF050
:103204000B04D3E7C88300084E61BC0000230360AD
:10321400704700230360704708B5FFF7F7FF08BD48
:1032240008B5FFF7F6FF08BD064B0B6000204860A9
:1032340001238B60C860086180234B617F238B610D
:10324400704700BF4E61BC0011B110B141657047B9
:10325400084670474B6D92889B685A6000207047FF
:1032640008B500F0DEFF08BD08B50248FDF706FB0F
:10327400002008BD0084000808B50248FDF7FEFAE6
:10328400002008BD1484000808B50248FDF7F6FACA
:10329400002008BD2884000808B50248FDF7EEFAAE
:1032A400002008BD3C84000838B5044602F078FECE
:1032B40023682BB90125256002F06CFE284638BD31
:1032C40002F068FE0020FAE738B5044606E002F092
:1032D40053FE206038BD052002F07AFE2046FFF739
:1032E400E3FF0128F3D0256802F046FE8542F2D1BF
:1032F400F0E70000F8B50F4669B3054616464FF4EB
:103304004C61402002F000FE044610B3134B0360EE
:1033140086600761856348F2ED1343600023C36050
:103324002430FFF779FF04F114066661A66104F105
:103334001C03E36123622F1D3846FFF7C5FF05F127
:103344001802AB695E606361A261AE613846FFF743
:1033540067FF2046F8BD0C46FBE700BF4E61BC008A
:1033640010B5044658B1084600F006FF38B163684A
:1033740003802369C367024B0361C0F8844010BD16
:103384000808002038B54B685B6D002B31D014461B
:103394009B688BB35A68A2809A681205E261A361A4
:1033A400DB68A36000220023C4E90C2303F0DAFFE6
:1033B400134D2B68B0FBF3F0E06303F0D3FF2B68ED
:1033C400B0FBF3F203FB1200A06304F1400204F12A
:1033D400380393E8030082E8030004F1480293E809
:1033E400030082E803004FF48053E3600020A065EB
:1033F40038BD6FF00100FBE76FF00100F8E700BF94
:103404002C0A0020F8B5054620B30E46436803F4A1
:103414007043B3F5804F1FD100F124073846FFF7FE
:1034240053FFEC690C3C04F10C0305F11C029342BC
:103434000BD031466068FCF7C9FF10B1E4680C3C5E
:10344400F1E73846FFF7ECFE07E03846FFF7E8FE01
:10345400002402E0044600E000242046F8BD70B5D4
:1034640006460D468969D0F88400FFF7CBFF044671
:1034740078B101462846FFF7E7FE60B17169A0689C
:10348400FFF76EFF044620B10146284600F060FDB8
:103494000446204670BD0446FBE7000010B5044610
:1034A40040B1002000F0A2FE20B10463024B036788
:1034B400024B036110BD00BF8008002000090020FA
:1034C40038B54FF44C61202002F01EFD044620B3B1
:1034D400154B40F8043BFFF79FFE04F11803A3616A
:1034E400E361002211492046FFF704FF0546B0B10D
:1034F40044F2ED13436060610C4B036100F10C0373
:1035040053E8002F02F1010243E8002191F0000F7B
:10351400F6D100F11C03C3610362204638BD204686
:1035240002F0FCFC2C46F8E74E61BC005C0900206C
:1035340018B108B502F0F2FC08BD704761B338B5A4
:103544000D468B6893B1041D2046FFF7BDFEAB68A2
:103554000C3353E8002FA2F1010243E8002191F05B
:10356400000FF6D14AB12046FFF75AFE686802F010
:10357400D5FC284602F0D2FC38BDAB689A6959697B
:103584004A6011604FF480725A614FF491729A61EB
:10359400A868FFF7CDFFE6E7704708B5416D8B6873
:1035A400986BFFF7CBFF08BD38B505460C460846B7
:1035B400FFF7F3FF2146284600F00AFD38BD70B539
:1035C400054614460E4619B101F12400FFF77CFEAE
:1035D400A268536803F47043B3F5804F13D0236992
:1035E400E26853601A604FF48073E3604FF49173A0
:1035F40023611EB106F12400FFF712FE214628467E
:10360400FFF79CFF70BD02F11C01D3699942E6D01B
:10361400002EF7D006F12400FFF702FEF2E708B50A
:10362400D0F884304A6D1946986BFFF7C8FF002024
:1036340008BD00002DE9F0418046002847D00E4621
:103644001546002A45D0002945D04FF44C6114207A
:1036540002F05AFC044690B3204B036000234360FD
:103664002846FCF793FE4FF44C61013002F04CFC09
:103674000746606030B3294603F068FCA66004F195
:103684000C05E560256106F10C0151E8003F03F1EA
:10369400010341E8003292F0000FF6D108F124064C
:1036A4003046FFF711FE08F11C02D8F81C305D60AB
:1036B400E3602261C8F81C503046FFF7B1FD204694
:1036C400BDE8F081204602F029FC3C46F7E70446B9
:1036D400F5E71446F3E70C46F1E700BF4E61BC0082
:1036E40070B506460C4611461A46FFF703FE05461A
:1036F400E8B1049A01462046FFF79CFF044608B14E
:10370400204670BD04363046FFF7DEFDAB696A69BA
:1037140053601A604FF480736B614FF49173AB6123
:103724003046FFF77DFD2846FFF702FFE8E7044631
:10373400E6E7000000B583B000920023054AFFF7D6
:10374400CFFF18B1836844F2ED125A6003B05DF8FC
:1037540004FB00BF5C0900202DE9F0410D4614462E
:103764009846104600F02EFB0646D5F884700146B4
:103774003846FFF747FE0146A8B18A68C8F3080334
:1037840043F4004353602046FFF75EFDB0B169691E
:103794003846FFF7E5FD014698B1204600F0D8FB16
:1037A4000020BDE8F08132463946B86BFFF7C2FF0E
:1037B40001460028E1D14FF0FF30F2E74FF0FF302F
:1037C400EFE74FF0FF30ECE710B582B0049C0094B3
:1037D400FFF786FF02B010BD2DE9F04383B00D461C
:1037E40014469946104600F0EDFA0646D5F8847062
:1037F40001463846FFF706FE8046C8B1D8F80820CF
:10380400C9F3080343F40043536041462046FFF7DD
:103814001BFDD0B16969D8F80800FFF7A1FD014686
:10382400B0B1204600F094FB002003B0BDE8F08363
:10383400B86B00960A23084A3946FFF7C5FF80464D
:103844000028DBD14FF0FF30EFE74FF0FF30ECE71B
:103854004FF0FF30E9E700BF5C09002038B50D46A2
:103864001446836C9269D3F88410D5F88400FFF76A
:10387400E1FE58B101462046FFF7E6FC6B6923657B
:10388400A16C204600F064FB002038BD6FF00B00F3
:10389400FBE780B108B5D0F8840058B18369426968
:1038A40053601A604FF4807343614FF491738361E2
:1038B40002F034FB08BD704738B50446006B02685B
:1038C4000B4B9A420ED10A220A49FFF713FD054613
:1038D40058B12146FFF744FD044620B9284602F0BA
:1038E4001DFB00E00024204638BD0446FBE700BF72
:1038F4004E61BC005C09002050B110B5044640691B
:1039040018B1204602F00AFB10BD02F007FBF8E7ED
:1039140070470000F8B5FFF7D3FD002849D00646EC
:103924002549002000F0B0FA0446D8B14FF44C61A8
:10393400142002F0E9FA0546D0B100214160736910
:1039440083601E4B036060658068FFF709FD0746CE
:10395400A0B1A0643046FFF7A1FDD8B18461206511
:103964002046F8BD3046FFF7C7FF6FF00B04F7E7BA
:10397400204602F0D3FA6FF00B04F1E7284602F078
:10398400CDFA3046FFF7B8FF204602F0C7FA6FF0D1
:103994000B04E5E7204602F0C1FA284602F0BEFA1D
:1039A400384600F007FC3046FFF7A6FF6FF00B0423
:1039B400D6E76FF00B04D3E7C88300084E61BC0060
:1039C40010B4002301E0C4540133934202D2CC5C0E
:1039D400002CF8D10024C454934201D0CA5C1AB913
:1039E40018465DF8044B70474FF0FF30F9E70000CC
:1039F40040F2FF10B0F5C07F16DB01460C4BA3FB71
:103A04000023C21A03EB52039B09C3EBC313C31A6B
:103A1400084A52F8233023B15A68914202D01B68F5
:103A2400F9E770470138E5E76FF00F00704700BF12
:103A340011080402140C002084461548A0FB0C3025
:103A4400ACEB000300EB53008009C0EBC010ACEBFF
:103A54000000104B03EB8003186898B110B402E027
:103A64000346006840B144686445F9D184688C42D7
:103A7400F6D1C4689442F3D108B102681A605DF8C3
:103A8400044B704710B102681A607047704700BF5A
:103A940011080402140C00200161426100207047E7
:103AA4000246154BA3FB0203D01A03EB50039B09F8
:103AB400C3EBC313D31A114850F8230005E0036D78
:103AC40058685DF8044B70470068A0B1436893429E
:103AD400FAD183688B42F7D810B4C46823448B426C
:103AE400EDD800680028ECD043689342F9D183688C
:103AF4008B42F6D8F1E7704711080402140C002039
:103B040038B5054602F000FA04462A460021FCF7BF
:103B140094FC204638BD08B54FF44C611820FFF7DB
:103B2400EFFF034618B100F108028260C260184634
:103B340008BD0023036043608360C3600361436185
:103B440000F108038360C360416070472DE9F04FC2
:103B540083B004469946B0F5007F1ED20E46174640
:103B6400C1F58013934222D34FF44C615420FFF7E4
:103B7400C7FF804600286CD054B3374DA5FB0435ED
:103B8400631B05EB5305AD09C5EBC515651B334B2D
:103B940053F825A04FF0000B2DE040F2FF1302462E
:103BA40049462F4803F0A0FB6FF015080CE05318AA
:103BB4002C4A019200220092013B0A4649462A48B7
:103BC40003F092FB6FF01508404603B0BDE8F08F98
:103BD400FFF70EFF041ED0DA4946244803F084FBA5
:103BE40001E06FF00F04404602F098F9A046EBE7BD
:103BF400D346DAF800A0BAF1000F0ED0DAF8043098
:103C0400A342F5D309D8DAF80820DAF80C301344C3
:103C1400B342EDD9BB199A42E3D3C8F80440C8F8BB
:103C24000860C8F80C704022494608F11000FFF7FC
:103C3400C7FEBBF1000F06D0DBF80030C8F8003037
:103C4400CBF80080C0E7C8F800A0044B43F82580F7
:103C5400BAE76FF00B08B7E711080402140C002050
:103C640058840008FFFF0F009C84000804850008A6
:103C740010B504460020FFF769FF034610F5805F86
:103C840094BF0020012028B95A689B6843EA025374
:103C9400236010BD1846FCE72DE9F843054691461C
:103CA40000EB010804460AE04B463A1BC4F3130137
:103CB400FFF74CFF064610F5805F18D83C46444594
:103CC40007D2200D461C3705B8EB065FECD24746F9
:103CD400EAE700200EE0280D421C1705C5EB02524E
:103CE400C5F31301FFF7A8FE02F018F93D46AC42F4
:103CF400F1D83046BDE8F8832DE9F84380460E46F6
:103D04001746089DFFF722FF044610F5805F15D87B
:103D1400FFF701FF814698B12B6803604560616835
:103D24003A4646EA0151FFF7B7FE054650B9C4F8D2
:103D34005090B8F1000F0CD165680AE0054608E020
:103D44006FF00B053A4631466068FFF775FE02F0E6
:103D5400E5F82846BDE8F88338B50346451807E07A
:103D6400E21AC3F31301FFF767FE02F0D7F8234604
:103D7400AB4207D2180D421C1405B5EB025FEFD21B
:103D84002C46EDE738BD08B502F0C8F808BD10B5FB
:103D9400FFF752FE044618B1006D08B1FFF7F3FFB8
:103DA400204602F0BBF810BD0023036070470023D7
:103DB4000360704708B5FFF7F7FF08BD08B5FFF7C4
:103DC400F6FF08BD08B180697047704700F108022A
:103DD4000B68836033B110B45A600A60C1605DF847
:103DE400044B70470A60C160704778B32DE9F04115
:103DF4000C46054669B30846FCF7C8FA06464FF474
:103E04004C6102F081F8074630B3214603F09EF876
:103E1400A86905F11C0840450AD048B118B14045CD
:103E240001D002F07BF86E61AF610020BDE8F08143
:103E34002A2EF3DC384602F071F8C5F818802146C2
:103E4400404603F083F86E610020EFE74FF0FF3047
:103E540070474FF0FF30E9E76FF00B00E6E710B56D
:103E640004464268936E013B936600F11C0380692B
:103E7400834205D002F052F8204602F04FF810BDFC
:103E8400204602F04BF8FAE770B506460D464FF4AB
:103E94004C617C2002F038F8D8B104467C22002121
:103EA400FCF7CBFA29462046FFF79FFF00280ADBE0
:103EB40000232360A360E36004F16C00FFF77AFF42
:103EC4002665204670BD204602F028F86FF00B04EA
:103ED400F7E76FF00B04F4E738B5044602F060F836
:103EE40023682BB90125256002F054F8284638BD13
:103EF40002F050F80020FAE738B5044606E002F074
:103F04003BF8206038BD052002F062F82046FFF738
:103F1400E3FF0128F3D0256802F02EF88542F2D1A0
:103F2400F0E770B50446006DFFF7AEFF054668B1D3
:103F340004F16C063046FFF7DFFFA36E0133A3667E
:103F44006C60236D2B653046FFF738FF284670BD43
:103F540038B504460D464368986C5830FFF7CCFFDB
:103F6400A5646B69236561682046FFF72FFF6368CA
:103F7400986C5830FFF722FF204638BD40B110B589
:103F84000446483000F016F92046FFF768FF10BDDC
:103F9400704738B50D46046814B1083C00E0083C8D
:103FA40044B12946A069FCF711FA18B1A468002CA1
:103FB400F5D1F5E7204638BD8368C268136003B1C4
:103FC4005A604FF4807383604FF49173C3607047F9
:103FD400B9B138B504460D460A4803F085F91CB159
:103FE40004F15800FFF788FF2846FFF7E5FF28464D
:103FF400FFF7C4FF1CB104F15800FFF7DFFE0020F7
:1040040038BD7047E0850008074A01E003F11C024F
:1040140013682BB18342F9D1C36913600020704740
:104024006FF01500704700BF100E0020C8B138B5FE
:10403400054601680C4803F057F90C4C00E01C34A9
:10404400246844B129682068FCF7C0F90028F6D137
:104054006FF0100004E0054B1A68EA611D6000204F
:1040640038BD4FF0FF30704760860008100E002006
:1040740038B50546064B1C6800E0E4692CB12946B6
:104084002068FCF7A3F90028F7D1204638BD00BF0B
:10409400100E002000230360704700230360704764
:1040A40008B5FFF7F7FF08BD08B5FFF7F6FF08BD31
:1040B40038B5044601F074FF23682BB90125256047
:1040C40001F068FF284638BD01F064FF0020FAE7DC
:1040D40038B5044606E001F04FFF206038BD0520E6
:1040E40001F076FF2046FFF7E3FF0128F3D02568AF
:1040F40001F042FF8542F2D1F0E7F8B50546866C3F
:1041040006F158073846FFF7E3FF4FF44C6170207F
:1041140001F0FAFEB0B10446304600F022F8384609
:10412400FFF7C2FF702200212046FCF786F904F154
:104134005C00FFF7B5FFF36F6362E662AB69A363EC
:104144002046F8BD3846FFF7AFFF6FF00B04F7E7E2
:1041540010B50446C06A00F02DF8204601F0DEFEDA
:1041640010BD783050E8003F03F1010340E800320D
:1041740092F0000FF6D1704738B505464FF44C6104
:10418400882001F0C1FE044658B188220021FCF7C2
:1041940054F942F2FF13238003F0E4F8656101232C
:1041A400A367204638BD18B108B501F0B7FE08BDB5
:1041B40070470000B8B110B5044600F1780353E825
:1041C400002FA2F1010243E8002191F0000FF6D183
:1041D40012B1836F002B05DA034803F085F82046FB
:1041E400FFF7E1FF10BD7047C886000838B50546E3
:1041F4004FF44C61782001F087FE78B104467822B0
:104204000021FCF71AF924606460E56104F12803D5
:10421400A362E3624FF40073E36038BD6FF00B00F8
:10422400FBE718B108B501F079FE08BD704700231B
:104234000360704708B5FFF7FAFF08BD38B50446B8
:1042440001F0AEFE23682BB90125256001F0A2FE22
:10425400284638BD01F09EFE0020FAE738B5044632
:1042640006E001F089FE206038BD052001F0B0FEB3
:104274002046FFF7E3FF0128F3D0256801F07CFE18
:104284008542F2D1F0E7000070B50446204B1B6074
:104294005B60FFF7EDFE00282ED00546066900237B
:1042A4001A461946B047036D13F5805F94BF002585
:1042B400012525BB2BB39A6932B3164908685863A4
:1042C4000A7983F8382003F12800114A16687060CF
:1042D4009E62DA6210609A690F4802601365936CFB
:1042E40044F2ED121A800068FFF77FFD21460B4867
:1042F40002F0FAFF284670BD4FF0FF35FAE70025BB
:10430400F8E74FF0FF35F5E74FF0FF35F2E700BF70
:10431400140E0020C88300081C0E00202487000807
:104324002DE9F84F07460E4615461046FFF7A0FE46
:1043340000283ED081460021304600F011FA0446A0
:1043440010F5805F94BF4FF000084FF00108B8F1FA
:10435400000F31D1836C1B8803F47043B3F5804F95
:104364002DD100F16C0A5046FFF778FFD9F810B050
:104374000A9B3A4600214846D847036D13F5805FEF
:1043840094BF4FF000094FF00109B9F1000F19D1A2
:10439400D3B123659B699B6CA3645046FFF74AFF26
:1043A40033462A4639460A4802F09EFF4846BDE88D
:1043B400F88F6FF01209F9E76FF00109F6E76FF073
:1043C4001309F3E7C146F1E76FF00B09EEE700BF0D
:1043D4003887000800230360704708B5FFF7FAFF29
:1043E40008BD10B44FF0000C634602E0944507D0BA
:1043F4000133C45C74B12F2CF8D10CF1010CF5E736
:1044040001330022D418045D4CB18C542F2C06D0F7
:104414000132F7E74FF0FF305DF8044B704700209E
:104424008854F9E784460020034600E00133194626
:104434001CF803203AB12F2AF8D161444A78002AA3
:10444400F4D00130F2E7704738B504460D46FFF763
:10445400A0FD00B138BD29462046FFF762FD0546A0
:1044640078B1A06C03691B6800222946984710B1F3
:1044740010F5805FEED92846FFF7F1FC6FF00100DC
:10448400E8E76FF00B00E5E770B582B005460C462F
:1044940016460022FFF7D8FF10F5805F08D82146A2
:1044A4001A4802F021FF6FF01004204602B070BDDC
:1044B40021462846FFF735FD044618B3A96C0A695E
:1044C40055696DB106F47043B3F5004F0DD0B3F5E3
:1044D400804F11D1556A334602460020A84709E0AF
:1044E400FFF7BDFC6FF01D04DFE7002000903346AA
:1044F4002246A8470028D8DA2046FFF7B0FC6FF020
:104504000B04D2E76FF00B04CFE700BF508700081D
:1045140008B5024802F0E8FE08BD00BF6C87000839
:1045240010B310B50446036D9B69834216D0826CA8
:10453400138803F47043B3F5005F18D0B3F5C04F8C
:1045440018D01369DB6942680146906C9847636828
:104554002146986CFFF73CFD002010BD074802F08F
:10456400C3FE4FF0FF30F8E74FF0FF3070474FF0D5
:10457400FF30F2E74FF0FF30EFE700BF9487000809
:1045840038B5044601F00CFD23682BB901252560DC
:1045940001F000FD284638BD01F0FCFC0020FAE7DC
:1045A40038B5044606E001F0E7FC206038BD05207C
:1045B40001F00EFD2046FFF7E3FF0128F3D0256844
:1045C40001F0DAFC8542F2D1F0E72DE9F84350B36B
:1045D400884617461D46044600F15C063046FFF740
:1045E400DFFF636AE3B1E06A5830FFF7D9FF636A1B
:1045F400D3F80C90B9F1000F0FD02B463A46414640
:104604002046C8470546E06A5830FFF7E6FE3046C4
:10461400FFF7E3FE2846BDE8F8836FF00805F2E7EC
:104624006FF00805F3E74FF0FF35F3E72DE9F843A2
:1046340000283AD00D46914698460446036B13F081
:10464400030F2DD000F15C063046FFF7A9FF636A23
:1046540003B3E06A5830FFF7A3FF636A1F69434658
:104664004A4629462046B847074602F07BFEE36ADD
:104674000F4D2A68B0FBF2F0D86202F073FEE26AD2
:104684002B68B0FBF3F103FB11039363E06A58302A
:10469400FFF7A3FE3046FFF7A0FE3846BDE8F883D7
:1046A400FFF736FF6FF00807F7E74FF0FF37F4E73F
:1046B4002C0A0020F8B568B30F4615460446036B70
:1046C40013F0030F1BD000F15C063046FFF768FFC0
:1046D400636AE3B1E06A5830FFF762FF636A9B6A7A
:1046E40093B12A463946204698470546E06A583031
:1046F400FFF773FE3046FFF770FE2846F8BDFFF75C
:1047040007FF6FF00805F8E76FF00805EEE76FF0B4
:104714000805EFE74FF0FF35EFE7E8B138B5044699
:1047240000F15C052846FFF73BFF636A6BB1E06A62
:104734005830FFF735FF636ADB6B13B12146E06A3B
:104744009847E06A5830FFF748FE2846FFF745FED1
:104754002046FFF7FDFC38BD4FF0FF3070470000E6
:104764002DE9F041A0B0074638B30E4603782F2B4D
:104774001AD03846FFF756FE8046114B1C680125B7
:10478400A8EB0603AB4214DB2A4669463846FFF71A
:1047940028FE002269462046FFF756FE044610F51F
:1047A400805F06D80135EBE74378002BE1D1044B59
:1047B4001C68204620B0BDE8F0810446F9E700BF3C
:1047C4001C0E002010B50021FFF7CAFF10F5805F12
:1047D40094BF002401241CB9FFF7A2FE204610BD9B
:1047E4004FF0FF34FAE708B50021FFF7B9FF806CFA
:1047F400FDF70EFC08BD70B5A0B006460D460121BC
:10480400FFF7AEFF10F5805F19D80446836C1B8850
:1048140003F47043B3F5804F03D06FF0130020B05E
:1048240070BD3046FFF7FEFD024669463046FFF78D
:10483400D8FD2A4669462046FFF726FEEFE76FF0CB
:104844000100ECE708B50B4609B940F2ED13C3F3D8
:10485400080141F48041FFF7CEFF08BDF0B583B0F5
:104864001E48FFF711FD002832DB1D4F40F2ED1109
:104874003846FFF7E7FF40F2ED111A48FFF7E2FF71
:1048840040F2ED111848FFF7DDFF184D40F2ED112D
:104894002846FFF7D7FF164E00213046FFF7D2FF18
:1048A400002400942346134A39462046FFF738FD76
:1048B40000942346104A31462046FFF731FD009408
:1048C40023460E4A29462046FFF72AFD03B0F0BDD1
:1048D4000B4802F009FD4FF0FF30F7E7F4830008BE
:1048E400CC870008D4870008DC870008E487000828
:1048F400EC870008D0830008EC830008508400088B
:10490400B0870008F8B505460F46164601463648F6
:1049140002F0EAFC00212846FFF722FF044610F5C6
:10492400805F3AD82046FFF7E8FB044610F5805F25
:1049340094BF00250125002D52D10763066200F1C2
:104944005C063046FFF72CFE636A73B1E06A5830A8
:10495400FFF726FE636A5B6B1BB12146E06A98474A
:104964000546E06A5830FFF738FD3046FFF735FD5D
:10497400002D30DB02F0F6FCE36A1C4D2A68B0FB24
:10498400F2F0586302F0EEFCE26A2B68B0FBF3F13C
:1049940003FB110050632046F8BD154802F0A4FC47
:1049A40014F1020F02D06FF00104F4E717F0400F86
:1049B400F1D029460F4802F097FC46F400412846FE
:1049C400FFF719FF044610F5805FABD929460A4862
:1049D40002F08AFCDFE72046FFF7BAFB0024DAE79F
:1049E4006FF00B04D7E700BFF88700082C0A0020FB
:1049F4000888000818880008288800080023036035
:104A0400704708B5FFF7FAFF08BD00002DE9F04331
:104A140089B006460F4615464FF44C616C2001F0F0
:104A240073FA002859D004462946384600F0A4FBFE
:104A3400012858D001222946384600F05DFD814600
:104A440002222946384600F057FD804603222946B3
:104A5400384600F051FDC4F80090C4F80480B368EF
:104A6400A36002F07FFC2061F368E360B3695A1C21
:104A7400B261A36104F12400FFF7C3FF0027676359
:104A8400A763E764202219496846FBF7D6FCB1689E
:104A94000C31684602F05AFA6846FBF777FC431C6F
:104AA40000F120020DEB020010F8202C20336B449F
:104AB40003F8202C6846FBF769FC303500F120032D
:104AC4000DEB030000F8205C6A46B1682046FCF751
:104AD40047FB384609B0BDE8F083054802F004FC02
:104AE4006FF00B00F6E74FF0FF30F3E7407E00086D
:104AF400B088000870B5064600F020FB10F5805F12
:104B040094BF0024012424B90546094802F0ECFBB3
:104B140004E0084802F0E8FB09E00134032C06DC59
:104B2400224629463046FFF771FF0028F5DA70BDAA
:104B3400E4880008CC88000870B50546836BD3B1BF
:104B4400AC6BA5602B6CE36002F00CFC20612B685D
:104B5400A36104F12400FFF754FF00266663A663F3
:104B6400E664324629462046FCF7FAFA2046FFF767
:104B7400C1FF304670BD4FF44C616C2001F0C4F9A4
:104B840008B1A863DCE7034802F0AEFB6FF00B004A
:104B9400F0E700BFB088000800230360704708B541
:104BA400FFF7FAFF08BD2DE9F04780460D4617468A
:104BB400994604292CD801EB4106B60044364FF03F
:104BC400010A4946304601F09FF90446E8B13246ED
:104BD4000021FBF732FCBAF1000F1DD004F14403AD
:104BE400E363E586002323606360A360A3816374A9
:104BF40001226261A263A361E36123626362A3860B
:104C0400E3622363C4F80480A7602046BDE8F0870C
:104C14004FF0000A4426D4E705EB450049468000DE
:104C240001F072F90646E06308B1E586DAE720464A
:104C340001F074F93446E8E7C0B110B5044600F158
:104C4400380353E8002FA2F1010243E8002191F058
:104C5400000FF6D14AB9C06B04F14403984201D065
:104C640001F05CF9204601F059F910BD704738B5E0
:104C7400044601F095F923682BB90125256001F05C
:104C840089F9284638BD01F085F90020FAE738B5DE
:104C9400044606E001F070F9206038BD052001F0FB
:104CA40097F92046FFF7E3FF0128F3D0256801F0C8
:104CB40063F98542F2D1F0E770B504464368DD68D4
:104CC40086683DB101224FF44C61284600F036FC61
:104CD40005464660A369626812681344EB61214685
:104CE400284600F01DFC6368D8680830FFF7CFFF42
:104CF40063682946D86800F04EFC6368D8680830B9
:104D0400FFF74DFF6368D868D0F8D8309847E36A56
:104D14000BB12046984770BD08B5FFF7CDFF08BD1D
:104D24000CB42DE9F041A4B005460E462AAC54F863
:104D3400047B002001F00CF903940DF110082346C4
:104D44003A468021404602F0FBFC00270197CDF84B
:104D54000080082332464FF40051284601F086FAB9
:104D64000446384601F0FEF8204624B0BDE8F04180
:104D740002B0704708B501460023024A0248FFF713
:104D8400CFFF08BD0C890008BD4C000848B3844619
:104D940051B3B3F5805F34BF0020012038BB30B578
:104DA400BCF834E0BCF83640A64523D2DCF81C40FD
:104DB4001444B4F5801F20D8DCF83C500EEB4E0EA2
:104DC40005EB8E0445F82E10A3606260DCF81C30FD
:104DD4001344CCF81C30BCF834300133ACF8343014
:104DE40030BD6FF00B0070476FF00B0070476FF031
:104DF4000B0070476FF00B00F2E76FF00B00EFE76A
:104E040008B5FFF7C3FF08BD70B505460E464FF45D
:104E14004C61742001F078F8F0B104462DB9104AC1
:104E240013780133DBB213700360256000256560DD
:104E3400A6600C4E33780C4A202104F10C0002F0D9
:104E440043FE337801333370A564E5642566A566B3
:104E54000123E366204670BD6FF00B04FAE700BF40
:104E6400E4090020E50900207889000808B501F06C
:104E740055F808BD08B5FFF7DFFE08BD08B50146C3
:104E8400202001F041F8034620B100220260826133
:104E9400C2614260184608BD2DE9F04383B006465E
:104EA400884617461D464FF44C60FFF7E7FF48B3AA
:104EB40081464560174B00934FF44C630A9A0121D5
:104EC4003046FFF770FE0446838923F40062828132
:104ED4004268964202D023F4046383816660C4F876
:104EE40018800D4BE36200233A4649462046FFF7FB
:104EF40087FF002809DB2046FFF7DEFE284603B0C3
:104F0400BDE8F0836FF00B09D4E72046FFF794FE69
:104F14000020F4E7200E0020794E000870B582B01E
:104F240006460D4614460021117000912B464FF49D
:104F34000072FFF7B1FF90F8FE31552B15D0002316
:104F440000932B464FF4007201213046FFF7A4FF73
:104F540008220B49FBF72DFA20B92378012B0BD03B
:104F640002232370002002B070BD90F8FF31AA2BF9
:104F7400E5D101232370E2E703232370F2E700BFA6
:104F8400E80900202DE9F04182B004460F46164698
:104F94001D469DF82080CDF800800B4802F0A4F94E
:104FA4002770202363702123A3700023E37084F807
:104FB4000480FE2363713F23A3710123E371A66080
:104FC400E56002B0BDE8F0818089000800B5D0F842
:104FD40000E0D0F804C08268C368C1F800E0C1F8FA
:104FE40004C08A60CB600023036043608360C360B5
:104FF4005DF804FB002846D070B582B00C46064626
:10500400002943D04FF44C614FF4007000F07CFF52
:105014000546F0B10021009103464FF4007230467A
:10502400FFF73AFFE8B105F5DF7304F5797105F58B
:10503400FF7ED3F800C05C689868DA68C1F800C0E5
:105044004C608860CA60103310317345F1D100237D
:1050540011E04FF400710F4802F046F94FF0FF30B1
:105064000FE00D4802F040F9284600F057FF4FF0DA
:10507400FF3006E00133032BFCDD284600F04EFF31
:10508400002002B070BD4FF0FF3070474FF0FF308A
:10509400F7E700BFD8890008F0890008002844D049
:1050A40070B582B00C460646002941D04FF44C61DD
:1050B4004FF4007000F028FF0546E0B3002300E041
:1050C4000133032BFCDD04F5797305F5DF7204F27B
:1050D4002444D3F800E0D3F804C09868D968C2F82F
:1050E40000E0C2F804C09060D16010331032A342D3
:1050F400EFD1552385F8FE31AA2385F8FF3101232A
:1051040000932B464FF4007200213046FFF7C4FE93
:1051140028B9284600F002FF002002B070BD2846DE
:1051240000F0FCFE4FF0FF30F7E74FF0FF30704720
:105134004FF0FF30F1E74FF0FF30EEE738B50546AA
:10514400A8B14FF44C6140F2244000F0DDFE044667
:1051540078B101462846FFF74DFF002801DB2046C1
:1051640038BD204600F0DAFE6FF00404F7E7044689
:10517400F5E76FF00B04F2E73E3100EB0110043069
:1051840000230F2B03D8C25C1AB90133F9E70120BD
:10519400704700207047F0B583B0064600240BE04A
:1051A40021463046FFF7E8FFC0F1010304F108028D
:1051B4006A4402F8043C0134032CF1DD00272BE09F
:1051C4000134022C27DC04F108036B4413F8043C7B
:1051D400002BF5D104F109036B4413F8043C012BB3
:1051E400EED104F13E0106EB011104F13F0006EBA0
:1051F400001004310430FFF7E9FE012204F1080332
:105204006B4403F8042C04F109030DEB030500239C
:1052140005F8043CD4E70137022F01DC0024D0E771
:1052240003B0F0BD2DE9F04148B30C461546804665
:1052340029B3012B01D0032B27D1032D2BD82146D1
:105244004046FFF7D7FE002831DB05F13E0604EBAC
:105254000616371D29462046FFF78EFF012820D069
:10526400002575607D60BD60FD602046FFF793FFFB
:1052740021464046FFF712FF2846BDE8F0810D485D
:1052840002F032F84FF0FF30F7E70B4802F02CF849
:105294004FF0FF30F1E7094802F026F84FF0FF30F5
:1052A400EBE7074802F020F84FF0FF30E5E74FF056
:1052B400FF30E2E70C8A0008288A0008408A0008C8
:1052C400648A000870B505460E460024032C0CDCE5
:1052D40021462846FFF750FF08B90134F6E7346049
:1052E4003E3405EB0410043000E0002070BD0329B7
:1052F4000BD838B504460D46FFF73EFF012807D00A
:1053040004EB0514D4F8F00338BD4FF0FF307047B8
:105314004FF0FF30F8E70000032911D838B50446F0
:105324000D46FFF729FF012804D004EB0514D4F837
:10533400EC0338BD044801F0D7FF4FF0FF30F8E725
:105344004FF0FF30704700BF648A00082DE9F04732
:1053540084B060B30E4615469946804639B3FFF7CC
:1053640049FE002829DB25F007050023039303A940
:105374003046FFF7A7FF824628B30399002928DDAA
:1053840001393046FFF7C8FF044601463E4801F0A4
:10539400ABFFB4F1FF3F1FD0039901393046FFF74B
:1053A400A6FF01460444394801F09EFF21E0384835
:1053B40001F09AFF4FF0FF303DE0364801F094FFD2
:1053C4004FF0FF3037E0344801F08EFF4FF0FF30EC
:1053D40031E0324801F088FF314801F085FFD8F808
:1053E4000430B3F5006F29D32E4801F07DFF4FF44C
:1053F400006414F0070F02D024F007040834039962
:10540400022921DDD8F80470223FBC4225D8631953
:10541400BB4228D28DB3CDF800902B462246002102
:105424005046FFF7AFFD3046FFF7B5FE3146404624
:10543400FFF734FE002004B0BDE8F0871A4801F0FD
:1054440053FF4FF0FF30F6E701314046FFF764FFAA
:105454000746B0F1FF3FD8D1D4E7144801F044FF28
:105464004FF0FF30E7E72946114801F03DFF3D1BAF
:105474002946104801F038FFCCE729460E4801F0D0
:1054840033FF4FF0FF30D6E7088B0008B88B0008D5
:105494008C8A0008A88A0008C48A0008388B00088F
:1054A400488B0008808B0008648B0008D88B0008A8
:1054B400148C0008588C0008708C000800B5ADF2FC
:1054C4002C4D13460A4601A9FFF740FF0DF22C4D5F
:1054D4005DF804FB03290BD838B505460C46FFF7E5
:1054E4004BFE012806D03E3405EB0415287A38BD5E
:1054F400FF207047FF20FAE780B108B5012A04D0E5
:10550400022A05D0032A06D008BDFFF705FFFBE7F2
:10551400FFF7EDFEF8E7FFF7DDFFF5E70020704742
:1055240000230B60036A33B1436A196041628369E3
:1055340001338361704701624162F8E770B5064642
:105544000D4611465C2000F0DFFC04465C2200217D
:10555400FAF773FF2660656004F12803A362E3622F
:105564000123236401F0FEFE60630023A36323632D
:105574004FF47A736361204670BD00230360704763
:1055840000230360704708B5FFF7F7FF08BD08B5AF
:10559400FFF7F6FF08BD10B401F1280200F1CC04B6
:1055A400D0F8D030C0F8D0208C62CB621A605DF89D
:1055B400044B7047F8B505460E464FF44C61E020A5
:1055C40000F0A2FC0446C8B1002707604760083019
:1055D400FFF7D9FFA761E6618023E36320236364B7
:1055E400C4F8C4504FF47A73C4F8C83004F1CC033F
:1055F400C4F8CC30C4F8D030C4F8D4702046F8BD18
:1056040038B5044600F0CCFC23682BB9012525608D
:1056140000F0C0FC284638BD00F0BCFC0020FAE7CE
:1056240038B5044606E000F0A7FC206038BD05202C
:1056340000F0CEFC2046FFF7E3FF0128F3D02568F5
:1056440000F09AFC8542F2D1F0E738B50C4600F13F
:1056540008052846FFF7E4FF04F12803A26A9342F1
:1056640008D0E26AA16A4A601160A362E36220463C
:1056740000F054FC2846FFF78AFF38BD38B50446CD
:1056840000F108052846FFF7CBFF04F1CC02D4F85B
:10569400CC309A4212D0D4F8CC30A3F128045A6802
:1056A40019684A6011604FF480721A604FF4917265
:1056B4005A602846FFF76BFF204638BD0024F8E700
:1056C400F8B5074600F108063046FFF7A9FFD7F8FA
:1056D400CC4054F82859283D1AE0E36AA26A536082
:1056E4001A604FF48073A3624FF49173E3623046FF
:1056F400FFF74DFF21460B4801F0F6FD204600F070
:105704000DFC3046FFF78CFFAB6A2C46A3F128054D
:1057140004F1280307F1CC029342DED13046FFF7AF
:1057240036FFF8BD4C8D000818B108B500F0F6FB43
:1057340008BD704710B5044C02E054F8043B984788
:10574400024B9C42F9D110BD809B0008809B00084D
:1057540010B5044C02E054F8043B9847024B9C42B9
:10576400F9D110BD809B0008809B000810B5044C43
:1057740002E054F8043B9847024B9C42F9D110BD17
:10578400809B0008849B000810B5044C02E054F888
:10579400043B9847024B9C42F9D110BD849B0008FE
:1057A400889B000810B5044C02E054F8043B984769
:1057B400024B9C42F9D110BD889B0008889B0008CD
:1057C40010B5044C02E054F8043B9847024B9C4249
:1057D400F9D110BD889B00088C9B000810B5044CBF
:1057E40002E054F8043B9847024B9C42F9D110BDA7
:1057F4008C9B00088C9B000810B5044C02E054F804
:10580400043B9847024B9C42F9D110BD8C9B000885
:105814008C9B000810B5044C02E054F8043B9847F4
:10582400024B9C42F9D110BD8C9B00088C9B000854
:1058340010B5044C02E054F8043B9847024B9C42D8
:10584400F9D110BD8C9B00088C9B000810B5044C4A
:1058540002E054F8043B9847024B9C42F9D110BD36
:105864008C9B00089C9B000810B5044C02E054F883
:10587400043B9847024B9C42F9D110BD9C9B000805
:105884009C9B000810B5044C02E054F8043B984774
:10589400024B9C42F9D110BD9C9B0008A09B0008C0
:1058A40010B5044C02E054F8043B9847024B9C4268
:1058B400F9D110BDA09B0008A89B000810B5044CAA
:1058C40002E054F8043B9847024B9C42F9D110BDC6
:1058D400A89B0008AC9B000810B5044C02E054F8E7
:1058E400043B9847024B9C42F9D110BDAC9B000885
:1058F400AC9B000810B5044C02E054F8043B9847F4
:10590400024B9C42F9D110BDAC9B0008AC9B000833
:1059140008B5FFF763FFFFF76FFFFFF77BFFFFF7A4
:1059240087FFFFF7BDFFFFF7C9FFFFF7D5FFFFF7BD
:10593400E1FF00F0C9FA810A014801F0D5FC08BD75
:10594400D48D000808B5054A054B9A4203D0104689
:1059540000F0AEFD00B1FEE708BD00BFB09B00083B
:105964007B9E000808B500F08BFA00F097FA08BD9A
:1059740008B501F097FC024801F0B6FC08BD00BF71
:10598400F48D00080CB42DE9F041A4B005460E4690
:105994002AAC54F8047B002000F0DAFA03940DF1E9
:1059A400100823463A468021404601F0C9FE0027EC
:1059B4000197CDF80080082332464FF40051284661
:1059C40000F054FC0446384600F0CCFA204624B0DB
:1059D400BDE8F04102B0704700B583B0084B0093B6
:1059E400012302220D21074801F07EFC064801F044
:1059F4007BFC064801F078FC03B05DF804FB00BFB3
:105A04002C8E0008048E00083C8E00084C8E000882
:105A140008B5FAF771FDFFF78DFEFFF799FEFFF762
:105A240091FFFFF79FFFFAF725FFFFF7D5FFFBF77D
:105A340009FB00F049FA810A0E4801F055FCFFF712
:105A440005FFFFF711FFFFF71DFF02F08DF8FFF7C9
:105A54008FFFFFF78BFEFFF797FE074A00210748E9
:105A6400FFF790FF064801F03FFCFFF79BFEFFF7AE
:105A7400A7FEFEE7D48D0008648E000815590008BF
:105A8400708E000800230360704700230360704792
:105A940008B5FFF7F7FF08BD08B5FFF7F6FF08BD27
:105AA4000378C94349B20B400370704703780B4332
:105AB4000370704703780B4201D001207047002027
:105AC4007047C068704700697047806870478446B3
