:020000041010DA
:100000000000082041031010C9031010B50410109F
:10001000D9031010E90310109102101009041010F8
:100020000904101009041010090410102D031010F9
:10003000F9031010090410100D01101041081010E0
:100040008102101081021010810210108102101024
:100050008102101081021010810210108102101014
:100060008102101081021010810210108102101004
:1000700081021010810210108102101081021010F4
:1000800081021010810210108102101081021010E4
:1000900081021010810210108102101081021010D4
:1000A00081021010810210108102101081021010C4
:1000B00081021010810210108102101081021010B4
:1000C00081021010810210108102101081021010A4
:1000D0008102101081021010810210108102101094
:1000E0008102101081021010810210108102101084
:1000F0008102101081021010810210108102101074
:0C0100008102101081021010810210100A
:10010C0000B5EFF3098020E9F00F05F01DFCB0E815
:10011C00F00F80F309885DF804EB7047EFF308806B
:10012C00A0F1400020F0070080F30988EFF3148061
:10013C0040F0020080F31488EFF3148040F00100CB
:10014C0080F314887047BFF34F8F03484FF08051F2
:10015C00BFF36F8F0160704704ED00E010B54FEAFC
:10016C00D20C034623E091F800E083F800E091F80C
:10017C0001E083F801E091F802E083F802E091F8E5
:10018C0003E083F803E091F804E083F804E091F8CD
:10019C0005E083F805E091F806E083F806E091F8B5
:1001AC0007E083F807E00CF1FF3C08310833BCF1A1
:1001BC00000FD8DC12F0040F09D00C781C704C78AE
:1001CC005C708C789C70CC78DC700431043312F049
:1001DC00020F09D08E461EF8024B9C460CF8024BBF
:1001EC00497859707146634612F0010F01D00A78B4
:1001FC001A7010BD034600E001331A78002AFBD1B7
:10020C00181A7047034601E0013311464A1E11B11A
:10021C0019780029F8D1181A7047034602440020B7
:10022C00934206D213F8010B11F801CBB0EB0C0082
:10023C00F6D0704784469CF800200CF1010C0B782A
:10024C000131D01A01D1002AF5D170470378CAB216
:10025C00934204D00130002BF8D100207047704736
:10026C00034602E003F8011B624602F1FF3C002A40
:10027C00F8D1704708B5EFF30580A0F1100006F037
:10028C0023F908BD08B505F077FB08BD8446F0B12D
:10029C00836D23F00703803B4FF08072DA63C26DED
:1002AC009A630B4A5A6300221A63DA629A626FF0FD
:1002BC0002005862DCF860001862DA619A615961D8
:1002CC001A61DA609A605A601B60CCF85030704743
:1002DC00815E101010B485B00446084611461A46CB
:1002EC00069B0093079B0193089B029303946B4618
:1002FC0000DF05B05DF8044B704710B584B00446C0
:10030C00C368D8681A6859689B6802930191009277
:10031C00A3686268216806F08FFA206004B010BDF3
:10032C001EF0040F0CBFEFF30880EFF30980FFF70A
:10033C00E4BF704710B50C46DFF87CD0154B164A5D
:10034C00A3EB020C4FEAAC0C002306E0134A52F864
:10035C002310114A42F8231001336345F6D3104B96
:10036C00104AA3EB020C4FEAAC0C002304E00D4A3C
:10037C00002142F8231001336345F8D30A4B18606F
:10038C000A4B1C600A4805F0A1FD0A4B186004F0EA
:10039C0003FFFEE7CC8800200080002060C1101015
:1003AC00F89B0720CC880020D0880020CC88002027
:1003BC00287E1010D48800200000082008B50249BF
:1003CC00062006F0CDFDFEE7307E101008B5024980
:1003DC00062006F0C5FDFEE7507E101008B5024958
:1003EC00062006F0BDFDFEE7747E101008B502492C
:1003FC00062006F0B5FDFEE7987E101008B5024900
:10040C00062006F0ADFDFEE7BC7E10100B68036005
:10041C004B6843608B688360CB68C3600B69036176
:10042C004B6943618B698361CB69C361EFF30883CB
:10043C000362EFF3098343627047000000B58DB08F
:10044C00014602A8FFF7E2FF1249032006F088FDDF
:10045C00049B0093039B029A0F49032006F080FD36
:10046C00079B0093069B059A0C49032006F078FD28
:10047C00099B089A0A49032006F072FD0B9B0A9A05
:10048C000849032006F06CFD05F088FA0DB05DF804
:10049C0004FB00BFD07E1010E87E1010107F1010EF
:1004AC00387F1010547F10101EF0040F0CBFEFF3A8
:1004BC000880EFF30980FFF7C1BF4FF05043186875
:1004CC00704780F310887047EFF3108072B6704756
:1004DC0008B5FFF7F2FF08BD10B5FFF7EEFF40B906
:1004EC00094C0A4A23681BB1012B05D9013B236037
:1004FC0010BD074C074AF5E752F82300FFF7E1FF60
:10050C002368013B2360F3E7DC880020E4880020AB
:10051C00D8880020E088002038B5FFF7CEFF30B92E
:10052C00084C094D23682BB10133236038BD074CAF
:10053C00074DF7E7FFF7C8FF2860236801332360F6
:10054C00F4E700BFDC880020E4880020D888002075
:10055C00E088002038B504460D460C4B1B6883B16F
:10056C000120984701462368AB420CD0256000243B
:10057C00064B1B681BB1064B1B6801209847204695
:10058C0038BD0021EFE74FF0FF34F1E7EC88002095
:10059C00E888002008B5044B1B680BB1984708BDD0
:1005AC004FF0FF30FBE700BFF088002010B582B0A1
:1005BC000C49062006F0D4FC0020FFF7EBFF0446A4
:1005CC0002460949062006F0CBFC00220092074B9C
:1005DC000749204605F094FF0121204600F08CF8D5
:1005EC0002B010BD707F1010807F1010947F10101F
:1005FC004106101008B5054B1B680BB1984708BD98
:10060C000349032006F0ACFCF9E700BF0089002089
:10061C00A47F101008B5024B1B6803B1984708BDA6
:10062C00F888002008B5024B1B6803B1984708BD39
:10063C00F488002008B50020FFF7F4FF05F0B2F8AD
:10064C0008BD08B510B1012803D008BD05F0AAF803
:10065C00FBE70020FFF7DEFFF7E7000008B51549C0
:10066C00062006F07DFC144805F030FC134B186096
:10067C00134805F02BFC134B1860134805F026FCAF
:10068C00124B1860124805F021FC124B18601248EE
:10069C0005F01CFC114B18601148FFF7ABFF11481B
:1006AC00FFF7A8FF002300E001330F4A9342FBDB66
:1006BC0008BD00BFD87F1010E87F1010FC88002008
:1006CC0008801010F88800202C801010F48800206E
:1006DC0054801010F08800207080101000890020C9
:1006EC00B9051010B95810108096980008B500F094
:1006FC00A1F8012008BD0000430900F01F000122F1
:10070C00824031B19B0003F1604303F561431A60F1
:10071C007047024941F82320704700BF80E100E098
:10072C00430900F01F00012282409B0003F160434B
:10073C0003F561431B681A4214BF01200020704767
:10074C00012800DC704710B5044602460849062013
:10075C0006F006FC00212046FFF7CEFF04F01F0236
:10076C006409012393406034024A42F8243010BDDE
:10077C009080101000E100E02DE9F04385B0744644
:10078C00EFF30885EFF30988EFF314891B4EB76874
:10079C001B49062006F0E4FB0294CDF80490009768
:1007AC0043462A461749062006F0DAFB164D6B68BD
:1007BC002A681649062006F0D3FB1920FFF7B0FF74
:1007CC00044600211920FFF797FF4FF48872294641
:1007DC003846FFF7C3FC21461920FFF78DFFB2689E
:1007EC000B49062006F0BCFB00220092094B0A497B
:1007FC00012005F085FE05B0BDE8F08300ED00E0BA
:10080C00A0801010B4801010000010100081101087
:10081C004881101070811010F90610104FF0E02371
:10082C00034A5A6100229A6107221A61704700BF7D
:10083C00EF49020008B506F027FE08BD044B5A6AC2
:10084C00986A5B6A9342F9D120239A40104370470F
:10085C0000000B4008B5FFF7F1FF08BD0CB430B534
:10086C00B3B005460C46369A12B337AB0193402110
:10087C0022A806F0F7FF22AB104A802102A807F04D
:10088C00B5F902AA0E49062006F06AFB48F2ED11F2
:10089C0002A803F064FB10F5805F04D82268294697
:1008AC00806C00F01FFF33B0BDE8304002B07047E1
:1008BC000C3122A806F084FCDDE700BF7C8110100F
:1008CC00AC81101000207047704708B14068704729
:1008DC00704710B582B00446436B984706238DF8D9
:1008EC000730E36A01220DF1070120469847A36BFC
:1008FC002046984702B010BD10B582B00446436B39
:10090C0098474FF60573ADF80430FF238DF805308A
:10091C00E36A022201A920469847236B022201A90F
:10092C00204698479DF8053013F0010FEDD1A36BCD
:10093C002046984702B010BD30B583B004460D0375
:10094C00FFF7C7FF636B2046984720238DF80430D0
:10095C002B0C8DF805302B0A8DF806308DF80750CE
:10096C00E36A04220DEB020120469847A36B204654
:10097C00984703B030BDF0B583B004460E4615461B
:10098C001F46FFF7B9FF2046FFF7A3FF636B204616
:10099C00984702238DF804302B0C8DF805302B0A68
:1009AC008DF806308DF80750E36A04220DEB020136
:1009BC0020469847E36A3A46314620469847A36B4F
:1009CC002046984703B0F0BDF0B583B004460E4600
:1009DC0015461F46FFF790FF636B2046984703238D
:1009EC008DF804302B0C8DF805302B0A8DF8063061
:1009FC008DF80750E36A04220DEB0201204698475C
:100A0C00236B3A46314620469847A36B20469847BD
:100A1C0003B0F0BD2DE9F8430746884691461D46C4
:100A2C001946FFF789FF4E46B9F1000F03DB36126A
:100A3C002D0300240DE009F1FF06F8E74FF4807355
:100A4C002A4608EB04213846FFF795FF05F580751B
:100A5C000134B442F2DB4846BDE8F88310B51446C5
:100A6C001A46A3B25202FFF7AFFF204610BD00009A
:100A7C0001230B7000204860034B1B689B6A5B0AC8
:100A8C004B704880704700BF2089002030B587B07C
:100A9C0004469F238DF817300025ADF814508DF8BF
:100AAC001650436B9847E36A01220DF1170120465B
:100ABC009847236B032205A920469847A36B204631
:100ACC009847A5629DF81620A2F11003DBB2152BF6
:100ADC0002D801239340A362A36A13B3190D0291A8
:100AEC009B0A019300929DF815309DF814200E4935
:100AFC00062006F035FA90230493636B2046984742
:100B0C00E36A042204A920469847236B022204F1CD
:100B1C00240120469847A36B20469847002007B035
:100B2C0030BD4FF0FF30FAE7D481101008B5024900
:100B3C00062006F015FA08BD2082101008B50349EE
:100B4C00062006F00DFA002008BD00BF40821010F0
:100B5C0008B5002301220649806803F093F80028A9
:100B6C0000DB08BD0349062006F0FAF9F9E700BFDF
:100B7C00608210106482101008B50023012206490F
:100B8C00806803F07FF8002800DB08BD03490620CD
:100B9C0006F0E6F9F9E700BF788210107C8210109D
:100BAC0008B50023C3600161426100F10C02012110
:100BBC00406803F0AFF808BD08B5C16000230361BD
:100BCC00426100F10C020121406803F0A3F808BD5A
:100BDC0070B5B2F1FF3F2FD00646084615460022ED
:100BEC00022103F047FA0446B06010F5805F94BF11
:100BFC000024012494B92A461049062006F0B0F9C5
:100C0C002A464021B06803F085F800280DDB00224D
:100C1C000221B06803F07EF8204670BD084906201A
:100C2C0006F09EF94FF0FF34F6E70649062006F071
:100C3C0097F94FF0FF34EFE70024EDE7A482101092
:100C4C0090821010BC82101038B504461546002254
:100C5C0002210D4803F00EFA606010F5805F94BF1E
:100C6C000020012048B9A561012363610023A383FF
:100C7C000822A27784F8233038BD0449062006F0F8
:100C8C006FF94FF0FF30F7E7D482101090821010FC
:100C9C0038B504460D461149FFF79AFF206000282D
:100CAC0009DB0F4A29462046FFF7CEFF20600028BB
:100CBC0008DB002038BD0B49062006F051F94FF037
:100CCC00FF30F7E70849062006F04AF90021A06832
:100CDC0003F053F84FF0FF30ECE700BFE482101044
:100CEC0040420F00F08210100883101070B110B544
:100CFC000446826940F2D2439A4203D0204604F063
:100D0C0013FD10BD406804F00FFDF7E7704708B500
:100D1C00024658B100F11C0353E8001FA1F1010178
:100D2C0043E8001090F0000FF6D119B1D369002BF5
:100D3C0004DB08BD1046FFF7D9FFFAE70021104687
:100D4C00FFF7D4FFF5E70000002800F0BC802DE988
:100D5C00F04F85B0C3690193D0F820A00027D3468B
:100D6C00824699E04346019F3A465749062006F0D1
:100D7C00F7F83B464246314654480068FFF76EFE92
:100D8C0007462068FFF7C3FF0135DBF83C4005EB55
:100D9C00450304EB8304BBF83430AB4276DDD4F866
:100DAC0004802068FFF791FDA368C618DAF80430B8
:100DBC0013F00103D6D0002BE3D0019BDA0800928C
:100DCC001A4603F0070943464149062006F0C8F8C5
:100DDC00B9F1000F02D1B8F5805F4ED04FEA49232C
:100DEC00029308EB49230393009B4FF4805239493B
:100DFC00096836480068FFF731FE071E46DBC9F16B
:100E0C0008034FEA4329B8EB432F00D2C146314BBC
:100E1C001F684A46314602983844FFF79FF9009BF9
:100E2C004FF48052394629480068FFF7F3FD071E3E
:100E3C002CDB039BB3F5805FA3DD009B0133009398
:100E4C004FF480522349096820480068FFF706FEDA
:100E5C00071E1BDB1F4B1F68A8EB090206EB0901E1
:100E6C003846FFF77BF9009B4FF480523946174800
:100E7C000068FFF7CFFD074683E7009B42463146EB
:100E8C0012480068FFF7C6FD07467AE7DAF820300B
:100E9C00D3F800B0CAF820B0DAF820301BB1DBF878
:100EAC003C40002577E7002F07DB5146DAF80000BD
:100EBC0003F062FF05B0BDE8F08F5146DAF8000090
:100ECC0003F05AFFF6E770472483101020890020A6
:100EDC00448310101C89002010B5044603F065FFF4
:100EEC0004E0FFF731FF204603F05FFF0028F8D144
:100EFC0010BD08B503F0E8F908BD08B503F0AEFF66
:100F0C0008BD08B503F058FB08BD000070B50646D7
:100F1C000D464FF44C613C2004F0ECFB0446A8B1A8
:100F2C00114BC362114B0363114B4363114B83632E
:100F3C002A463146FFF7ACFE206000280BDB20462A
:100F4C00FFF7A4FD002806DB204670BD0A490620E9
:100F5C0006F006F8F8E70949032006F001F82046E8
:100F6C0004F0E2FB0024EFE7C50B1010AD0B1010E2
:100F7C00850B10105D0B101064831010748310100F
:100F8C000023036070470000064B0B600020486094
:100F9C0001238B60C860086180234B617F238B61C8
:100FAC00704700BF4E61BC0011B110B14165704774
:100FBC00084670474B6D92889B685A6000207047BA
:100FCC0008B502F096FC08BD08B5024805F082FF92
:100FDC00002008BD3884101008B5024805F07AFFCF
:100FEC00002008BD4C84101008B5024805F072FFB3
:100FFC00002008BD6084101008B5024805F06AFF97
:10100C00002008BD7484101008B505F04DFC08BD17
:10101C0008B505F05FFC08BDF8B50F4669B3054689
:10102C0016464FF44C613C2004F064FB044610B3AC
:10103C00134B036086600761856348F2ED134360D0
:10104C000023C3602430FFF79BFF04F11406666194
:10105C00A66104F11C03E36123622F1D3846FFF7E0
:10106C00D3FF05F11802AB695E606361A261AE61EA
:10107C003846FFF7CDFF2046F8BD0C46FBE700BF16
:10108C004E61BC0010B5044658B1084602F0DAFBBC
:10109C0038B1636803802369C367024B0361C0F8EE
:1010AC00844010BD7080002038B54B685B6D002B00
:1010BC0031D014469B688BB35A68A2809A6812058B
:1010CC00E261A361DB68A36000220023C4E90C2366
:1010DC00FFF7C0FB134D2B68B0FBF3F0E063FFF799
:1010EC00B9FB2B68B0FBF3F203FB1200A06304F115
:1010FC00400204F1380393E8030082E8030004F192
:10110C00480293E8030082E803004FF48053E36045
:10111C000020A06538BD6FF00100FBE76FF0010007
:10112C00F8E700BF00800020F8B5054620B30E4656
:10113C00436803F47043B3F5804F1FD100F12407CB
:10114C003846FFF761FFEC690C3C04F10C0305F128
:10115C001C0293420BD031466068FFF76BF810B15C
:10116C00E4680C3CF1E73846FFF752FF07E03846DD
:10117C00FFF74EFF002402E0044600E00024204666
:10118C00F8BD70B506460D468969D0F88400FFF7A6
:10119C00CBFF044678B101462846FFF705FF60B146
:1011AC007169A068FFF76EFF044620B1014628461E
:1011BC0002F057FA0446204670BD0446FBE70000D7
:1011CC0010B5044640B1002002F078FB20B1046356
:1011DC00024B0367024B036110BD00BF008100206E
:1011EC008081002038B54FF44C61202004F082FA45
:1011FC00044620B3154B40F8043BFFF7C1FE04F145
:10120C001803A361E361002211492046FFF704FF94
:10121C000546B0B144F2ED13436060610C4B0361C1
:10122C0000F10C0353E8002F02F1010243E8002106
:10123C0091F0000FF6D100F11C03C361036220464C
:10124C0038BD204604F070FA2C46F8E74E61BC001D
:10125C00DC81002018B108B504F066FA08BD7047AF
:10126C0061B338B50D468B6893B1041D2046FFF76A
:10127C00CBFEAB680C3353E8002FA2F1010243E81C
:10128C00002191F0000FF6D14AB12046FFF7C0FEC5
:10129C00686804F049FA284604F046FA38BDAB6891
:1012AC009A6959694A6011604FF480725A614FF41F
:1012BC0091729A61A868FFF7CDFFE6E7704708B511
:1012CC00416D8B68986BFFF7CBFF08BD38B50546B1
:1012DC000C460846FFF7F3FF2146284602F002FAB7
:1012EC0038BD70B5054614460E4619B101F12400FF
:1012FC00FFF78AFEA268536803F47043B3F5804F7E
:10130C0013D02369E26853601A604FF48073E36072
:10131C004FF4917323611EB106F12400FFF778FEA0
:10132C0021462846FFF79CFF70BD02F11C01D369D2
:10133C009942E6D0002EF7D006F12400FFF768FEA4
:10134C00F2E708B5D0F884304A6D1946986BFFF770
:10135C00C8FF002008BD00002DE9F04180460028A0
:10136C0047D00E461546002A45D0002945D04FF4EB
:10137C004C61142004F0BEF9044690B3204B03607A
:10138C00002343602846FEF735FF4FF44C610130D3
:10139C0004F0B0F90746606030B3294605F010FF41
:1013AC00A66004F10C05E560256106F10C0151E81D
:1013BC00003F03F1010341E8003292F0000FF6D137
:1013CC0008F124063046FFF71FFE08F11C02D8F87E
:1013DC001C305D60E3602261C8F81C503046FFF79A
:1013EC0017FE2046BDE8F081204604F09DF93C46EE
:1013FC00F7E70446F5E71446F3E70C46F1E700BFC0
:10140C004E61BC0070B506460C4611461A46FFF7F5
:10141C0003FE0546E8B1049A01462046FFF79CFFFF
:10142C00044608B1204670BD04363046FFF7ECFD8B
:10143C00AB696A6953601A604FF480736B614FF447
:10144C009173AB613046FFF7E3FD2846FFF702FFCF
:10145C00E8E70446E6E7000000B583B000920023FD
:10146C00054AFFF7CFFF18B1836844F2ED125A60BA
:10147C0003B05DF804FB00BFDC8100202DE9F041D6
:10148C000D4614469846104602F041F80646D5F82B
:10149C00847001463846FFF747FE0146A8B18A68BA
:1014AC00C8F3080343F4004353602046FFF77CFD68
:1014BC00B0B169693846FFF7E5FD014698B12046A1
:1014CC0002F0CFF80020BDE8F08132463946B86B07
:1014DC00FFF7C2FF01460028E1D14FF0FF30F2E7E1
:1014EC004FF0FF30EFE74FF0FF30ECE710B582B074
:1014FC00049C0094FFF786FF02B010BD2DE9F04369
:10150C0083B00D4614469946104602F000F8064684
:10151C00D5F8847001463846FFF706FE8046C8B100
:10152C00D8F80820C9F3080343F40043536041463C
:10153C002046FFF739FDD0B16969D8F80800FFF7EC
:10154C00A1FD0146B0B1204602F08BF8002003B09B
:10155C00BDE8F083B86B00960A23084A3946FFF7BA
:10156C00C5FF80460028DBD14FF0FF30EFE74FF08E
:10157C00FF30ECE74FF0FF30E9E700BFDC810020E3
:10158C0038B50D461446836C9269D3F88410D5F89F
:10159C008400FFF7E1FE58B101462046FFF704FD39
:1015AC006B692365A16C204602F05BF8002038BD06
:1015BC006FF00B00FBE780B108B5D0F8840058B190
:1015CC008369426953601A604FF4807343614FF42E
:1015DC009173836104F0A8F808BD704738B50446D0
:1015EC00006B02680B4B9A420ED10A220A49FFF794
:1015FC0013FD054658B12146FFF744FD044620B9BA
:10160C00284604F091F800E00024204638BD04463A
:10161C00FBE700BF4E61BC00DC81002050B110B56F
:10162C000446406918B1204604F07EF810BD04F061
:10163C007BF8F8E770470000F8B5FFF7D3FD0028FA
:10164C0049D006462549002001F0C3FF0446D8B115
:10165C004FF44C61142004F04DF80546D0B1002134
:10166C004160736983601E4B036060658068FFF79F
:10167C0009FD0746A0B1A0643046FFF7A1FDD8B123
:10168C00846120652046F8BD3046FFF7C7FF6FF038
:10169C000B04F7E7204604F047F86FF00B04F1E772
:1016AC00284604F041F83046FFF7B8FF204604F016
:1016BC003BF86FF00B04E5E7204604F035F82846BC
:1016CC0004F032F8384602F0DBF83046FFF7A6FF9C
:1016DC006FF00B04D6E76FF00B04D3E7888410107F
:1016EC004E61BC0010B4D0F8843009481C688442A8
:1016FC000BD19A6059635A68C2F3080242F4C04293
:10170C005A6000205DF8044B70474FF0FF30F9E74A
:10171C004E61BC00D0F88420536803F47043B3F5D9
:10172C00C04F01D1506B70470020704700230360FD
:10173C0070470000064B0B600020486001238B6053
:10174C00C860086180234B617F238B61704700BFA9
:10175C004E61BC0011B110B141657047084670472D
:10176C004B6D92889B685A600020704708B505F055
:10177C009BF808BD08B505F0ADF808BD08B502F03A
:10178C00B8F808BD08B50349062005F0E9FB0020B0
:10179C0008BD00BF9884101010B5D0F88440A36B1E
:1017AC000BB1002010BD4FF44C6140F21C4003F013
:1017BC00A1FFA06308B10020F4E74FF0FF30F1E780
:1017CC00F8B50F4671B3054616464FF44C613C20F4
:1017DC0003F090FF044618B3134B03608660076157
:1017EC00456348F2ED1343600027C7602430FFF7D0
:1017FC009DFF04F114066661A66104F11C03E3610C
:10180C002362A7632F1D3846FFF7B0FF05F11802BE
:10181C00AB695E606361A261AE613846FFF7AAFFF7
:10182C002046F8BD0C46FBE74E61BC0010B50446E3
:10183C0058B1084602F006F838B163680380236992
:10184C00C367024B0361C0F8844010BD888200203E
:10185C0038B54B685B6D002B31D014469B688BB34D
:10186C005A68A2809A681205E261A361DB68A360E2
:10187C0000220023C4E90C23FEF7ECFF134D2B6868
:10188C00B0FBF3F0E063FEF7E5FF2B68B0FBF3F27F
:10189C0003FB1200A06304F1400204F1380393E847
:1018AC00030082E8030004F1480293E8030082E895
:1018BC0003004FF48053E3600020A06538BD6FF047
:1018CC000100FBE76FF00100F8E700BF008000208B
:1018DC00F8B5054620B30E46436803F47043B3F5E0
:1018EC00804F1FD100F124073846FFF73FFFEC690A
:1018FC000C3C04F10C0305F11C0293420BD0314655
:10190C006068FEF797FC10B1E4680C3CF1E73846D0
:10191C00FFF730FF07E03846FFF72CFF002402E00A
:10192C00044600E000242046F8BD70B506460D467E
:10193C008969D0F88400FFF7CBFF044678B10146E3
:10194C002846FFF707FF60B17169A068FFF76EFFCB
:10195C00044620B10146284601F083FE0446204689
:10196C0070BD0446FBE7000010B5044640B10020F2
:10197C0001F0A4FF20B10463024B0367024B036127
:10198C0010BD00BF008300208083002038B54FF4C9
:10199C004C61202003F0AEFE044620B3154B40F8FA
:1019AC00043BFFF7C3FE04F11803A361E3610022BB
:1019BC0011492046FFF704FF0546B0B144F2ED1380
:1019CC00436060610C4B036100F10C0353E8002F82
:1019DC0002F1010243E8002191F0000FF6D100F171
:1019EC001C03C3610362204638BD204603F09CFEF5
:1019FC002C46F8E74E61BC00DC83002048B110B5E2
:101A0C000446806B08B103F08FFE204603F08CFE79
:101A1C0010BD704761B338B50D468B6893B1041D8A
:101A2C002046FFF7A3FEAB680C3353E8002FA2F15E
:101A3C00010243E8002191F0000FF6D14AB1204693
:101A4C00FFF798FE686803F06FFE284603F06CFE03
:101A5C0038BDAB689A6959694A6011604FF480725D
:101A6C005A614FF491729A61A868FFF7C7FFE6E7D5
:101A7C00704708B5416D8B68586BFFF7CBFF08BDFD
:101A8C0038B505460C460846FFF7F3FF21462846B5
:101A9C0001F028FE38BD70B5054614460E4619B146
:101AAC0001F12400FFF762FEA268536803F470434F
:101ABC00B3F5804F13D02369E26853601A604FF47A
:101ACC008073E3604FF4917323611EB106F124001F
:101ADC00FFF750FE21462846FFF79CFF70BD02F130
:101AEC001C01D3699942E6D0002EF7D006F12400F0
:101AFC00FFF740FEF2E708B5D0F884304A6D19467E
:101B0C00586BFFF7C8FF002008BD00002DE9F0411D
:101B1C008046002847D00E461546002A45D000299D
:101B2C0045D04FF44C61142003F0E4FD044690B30F
:101B3C00204B0360002343602846FEF75BFB4FF409
:101B4C004C61013003F0D6FD0746606030B3294686
:101B5C0005F036FBA66004F10C05E560256106F185
:101B6C000C0151E8003F03F1010341E8003292F00F
:101B7C00000FF6D108F124063046FFF7F7FD08F107
:101B8C001C02D8F81C305D60E3602261C8F81C5060
:101B9C003046FFF7EFFD2046BDE8F081204603F00C
:101BAC00C3FD3C46F7E70446F5E71446F3E70C465D
:101BBC00F1E700BF4E61BC0070B506460C461146FD
:101BCC001A46FFF7FDFD0546E8B1049A014620468A
:101BDC00FFF79CFF044608B1204670BD0436304622
:101BEC00FFF7C4FDAB696A6953601A604FF48073E8
:101BFC006B614FF49173AB613046FFF7BBFD284628
:101C0C00FFF7FCFEE8E70446E6E7000000B583B00A
:101C1C0000920023054AFFF7CFFF18B1836844F206
:101C2C00ED125A6003B05DF804FB00BFDC830020AA
:101C3C002DE9F0410D4614469846104601F067FC1C
:101C4C000646D5F8847001463846FFF741FE01463A
:101C5C00A8B18A68C8F3080343F4004353602046D4
:101C6C00FFF778FDB0B169693846FFF7DFFD014633
:101C7C0098B1204601F0F5FC0020BDE8F081324619
:101C8C003946786BFFF7C2FF01460028E1D14FF0CF
:101C9C00FF30F2E74FF0FF30EFE74FF0FF30ECE7AB
:101CAC0010B582B0049C0094FFF786FF02B010BD03
:101CBC002DE9F04383B00D4614469946104601F0C9
:101CCC0026FC0646D5F8847001463846FFF700FE20
:101CDC008046C8B1D8F80820C9F3080343F4004380
:101CEC00536041462046FFF735FDD0B16969D8F8FD
:101CFC000800FFF79BFD0146B0B1204601F0B1FC96
:101D0C00002003B0BDE8F083786B00960A23084AE4
:101D1C003946FFF7C5FF80460028DBD14FF0FF3076
:101D2C00EFE74FF0FF30ECE74FF0FF30E9E700BF93
:101D3C00DC83002038B50D461446836C9269D3F8C9
:101D4C008410D5F88400FFF7E1FE58B10146204617
:101D5C00FFF700FD6B692365A16C204601F081FC47
:101D6C00002038BD6FF00B00FBE780B108B5D0F850
:101D7C00840058B18369426953601A604FF48073D0
:101D8C0043614FF49173836103F0CEFC08BD70473F
:101D9C0038B50446006B02680B4B9A420ED10A22EE
:101DAC000A49FFF70DFD054658B12146FFF73EFDE8
:101DBC00044620B9284603F0B7FC00E00024204676
:101DCC0038BD0446FBE700BF4E61BC00DC8300203D
:101DDC0050B110B50446406918B1204603F0A4FC7C
:101DEC0010BD03F0A1FCF8E770470000F8B5FFF751
:101DFC00CDFD002849D006462549002001F0E9FB1D
:101E0C000446D8B14FF44C61142003F073FC054622
:101E1C00D0B100214160736983601E4B0360606523
:101E2C008068FFF703FD0746A0B1A0643046FFF7BA
:101E3C009BFDD8B1846120652046F8BD3046FFF784
:101E4C00C7FF6FF00B04F7E7204603F06DFC6FF053
:101E5C000B04F1E7284603F067FC3046FFF7B8FFA8
:101E6C00204603F061FC6FF00B04E5E7204603F01D
:101E7C005BFC284603F058FC384601F001FD304667
:101E8C00FFF7A6FF6FF00B04D6E76FF00B04D3E758
:101E9C00888410104E61BC0070B504460D4600F2EB
:101EAC000C463046FFF762FCD4F80424D4F808340E
:101EBC009A4211D0E35C2B70D4F808340133D4F877
:101ECC000024B3FBF2F102FB1133C4F808343046A2
:101EDC00FFF750FC002070BD3046FFF74BFC4FF075
:101EEC00FF30F8E72DE9F04106460D4690460027F5
:101EFC000CE0012003F07DFCF36AD3F8843029193F
:101F0C00986BFFF7C9FF0028F3DB01373C464745C8
:101F1C00F2D30020BDE8F08170B504460D4600F206
:101F2C000C463046FFF722FCD4F804144B1CD4F8B2
:101F3C000024B3FBF2F002FB1033D4F808249342D4
:101F4C0007D06554C4F804343046FFF713FC002066
:101F5C0070BD3046FFF70EFC4FF0FF30F8E72DE96F
:101F6C00F04106460D46904600270CE0012003F098
:101F7C0040FCF36AD3F88430295D986BFFF7CCFFF3
:101F8C000028F3DB01373C464745F2D30020BDE87F
:101F9C00F08100230360704708B1406870477047B8
:101FAC000020704700207047064B0B6000204860F3
:101FBC0001238B60C860086180234B617F238B6198
:101FCC00704700BF4E61BC0011B110B14165704744
:101FDC00084670474B6D92889B685A60002070478A
:101FEC0008B50146202003F085FB034620B10022F2
:101FFC0002608261C2614260184608BD08B501F0FA
:10200C0078FC08BD08B504F04FFC08BD08B504F019
:10201C0061FC08BD2DE9F04F87B0D0F828B0DBF893
:10202C00043003F47043B3F5804F45D10D460BF1EA
:10203C00240305931846FFF7E5FFDBF81C400C3C26
:10204C000023194615E008212B680391CDF8088070
:10205C000097019649462846984730B3AB68EA6822
:10206C00013342F10002AB60EA60E4680C3C434689
:10207C00514604F10C020BF11C00824215D013F1F5
:10208C00010841F1000AAF68EE68BB42B141ECDBDC
:10209C00D4F804904846FEF7ADF80246A3685B6896
:1020AC0013F4804FCFD00421CEE70598FFF7AEFF95
:1020BC00002007B0BDE8F08F6FF01300F9E70000C7
:1020CC00F8B50F46002931D0054616464FF44C6141
:1020DC00482003F00FFB044630B3154B03608660B9
:1020EC000761C56348F2ED13436000230364C360CA
:1020FC002430FFF74EFF04F114066661A66104F16B
:10210C001C03E3612362012384F834302F1D38460D
:10211C00FFF778FF05F11802AB695E606361A2619D
:10212C00AE613846FFF772FF2046F8BD0C46FBE760
:10213C004E61BC002DE9F04114461D46C36AD3F82C
:10214C008420106C20B388462F686B68391943F1D2
:10215C000003526C8A424FF000029A4112DBFFF7E7
:10216C001BFF0146B0B1224639444046FDF7F6FF4D
:10217C002A686B68A61843F100032E606B6020463A
:10218C00BDE8F0810549062004F0EAFE0020F7E7DF
:10219C000020F5E76FF00B00F2E700BFB4841010DD
:1021AC0010B5044678B1084601F04CFB58B1636891
:1021BC0003802369C367044B0361C0F88440636CDC
:1021CC0003620023436210BD8884002038B54B683D
:1021DC005B6D002B31D014469B688BB35A68A28080
:1021EC009A681205E261A361DB68A36000220023F8
:1021FC00C4E90C23FEF72EFB134D2B68B0FBF3F058
:10220C00E063FEF727FB2B68B0FBF3F203FB120035
:10221C00A06304F1400204F1380393E8030082E860
:10222C00030004F1480293E8030082E803004FF432
:10223C008053E3600020A06538BD6FF00100FBE720
:10224C006FF00100F8E700BF00800020F8B50546EC
:10225C0020B30E46436803F47043B3F5804F1FD18F
:10226C0000F124073846FFF7CDFEEC690C3C04F175
:10227C000C0305F11C0293420BD031466068FDF74C
:10228C00D9FF10B1E4680C3CF1E73846FFF7BEFE0D
:10229C0007E03846FFF7BAFE002402E0044600E0EF
:1022AC0000242046F8BD70B506460D468969D0F865
:1022BC008400FFF7CBFF044678B101462846FFF7B0
:1022CC0083FE60B17169A068FFF76AFF044620B114
:1022DC000146284601F0C5F90446204670BD044667
:1022EC00FBE7000010B5044640B1002001F0E6FA0F
:1022FC0020B10463024B0367024B036110BD00BFA6
:10230C00008500208085002038B54FF44C612020DA
:10231C0003F0F0F9044620B3154B40F8043BFFF7EB
:10232C0038FE04F11803A361E36100221149204631
:10233C00FFF7C6FE0546B0B144F2ED134360606191
:10234C000C4B036100F10C0353E8002F02F1010266
:10235C0043E8002191F0000FF6D100F11C03C3619A
:10236C000362204638BD204603F0DEF92C46F8E720
:10237C004E61BC00DC85002038B50446FFF730FE0A
:10238C0090B1054621464FF4805003F0B3F928B1C3
:10239C0040F2D242AA616860284638BD284603F054
:1023AC00C3F96FF00B05F7E76FF00B05F4E70000CE
:1023BC002DE9F8431D46C36AD3F8847097F834307E
:1023CC0093B10646884614463B6C9BB12E686B68ED
:1023DC00311943F1000341F20102914273F1000300
:1023EC002ADB0020BDE8F8831C49032004F0B8FD6B
:1023FC000020F7E700214FF44C60FFF7BDFF386475
:10240C0010F5805F13D84FF480537B64F26AA2F806
:10241C0040303B6C002BD9D01C3353E8002F02F119
:10242C00010243E8002191F0000FF6D1CEE7002322
:10243C003B646FF00B00D5E7386CFFF7ADFD22461F
:10244C0041463044FDF78AFE2B686A68E31842F176
:10245C0000022B606A602046C4E700BFC8841010DD
:10246C0070B110B50446826940F2D2439A4203D04F
:10247C00204603F059F910BD406803F055F9F7E711
:10248C00704708B5024658B100F11C0353E8001F11
:10249C00A1F1010143E8001090F0000FF6D119B141
:1024AC00D369002B04DB08BD1046FFF7D9FFFAE710
:1024BC0000211046FFF7D4FFF5E748B110B50446EC
:1024CC00006C08B1FFF7DDFF204603F02DF910BDBD
:1024DC00704761B338B50D468B6893B1041D204627
:1024EC00FFF790FDAB680C3353E8002FA2F101020B
:1024FC0043E8002191F0000FF6D14AB12046FFF7D6
:10250C0085FD686803F010F9284603F00DF938BD15
:10251C00AB689A6959694A6011604FF480725A61CC
:10252C004FF491729A61A868FFF7C7FFE6E770470E
:10253C0008B5416D8B68D86BFFF7CBFF08BD38B57C
:10254C0005460C460846FFF7F3FF2146284601F0E6
:10255C00C9F838BD70B5054614460E4619B101F1DF
:10256C002400FFF74FFDA268536803F47043B3F5E2
:10257C00804F13D02369E26853601A604FF4807364
:10258C00E3604FF4917323611EB106F12400FFF751
:10259C003DFD21462846FFF79CFF70BD02F11C0152
:1025AC00D3699942E6D0002EF7D006F12400FFF74C
:1025BC002DFDF2E708B5D0F884304A6D1946D86B7A
:1025CC00FFF7C8FF002008BD2DE9F0418046002828
:1025DC0047D00E461546002A45D0002945D04FF469
:1025EC004C61142003F086F8044690B3204B036032
:1025FC00002343602846FDF7FDFD4FF44C6101308C
:10260C0003F078F80746606030B3294604F0D8FD33
:10261C00A66004F10C05E560256106F10C0151E89A
:10262C00003F03F1010341E8003292F0000FF6D1B4
:10263C0008F124063046FFF7E5FC08F11C02D8F837
:10264C001C305D60E3602261C8F81C503046FFF717
:10265C00DDFC2046BDE8F081204603F065F83C46E1
:10266C00F7E70446F5E71446F3E70C46F1E700BF3D
:10267C004E61BC0070B506460C4611461A46FFF773
:10268C001FFD0546E8B1049A01462046FFF79CFF62
:10269C00044608B1204670BD04363046FFF7B2FC44
:1026AC00AB696A6953601A604FF480736B614FF4C5
:1026BC009173AB613046FFF7A9FC2846FFF7FDFE8E
:1026CC00E8E70446E6E7000000B583B0009200237B
:1026DC00054AFFF7CFFF18B1836844F2ED125A6038
:1026EC0003B05DF804FB00BFDC8500202DE9F04150
:1026FC000D4614469846104600F009FF0646D5F8DC
:10270C00847001463846FFF7A1FD0146A8B18A68DE
:10271C00C8F3080343F4004353602046FFF754FC0E
:10272C00B0B169693846FFF73BFD014698B12046C8
:10273C0000F097FF0020BDE8F08132463946F86B77
:10274C00FFF7C2FF01460028E1D14FF0FF30F2E75E
:10275C004FF0FF30EFE74FF0FF30ECE710B582B0F1
:10276C00049C0094FFF786FF02B010BD2DE9F043E6
:10277C0083B00D4614469946104600F0C8FE064636
:10278C00D5F8848001464046FFF760FD0746A0B1AE
:10279C00BB68C3F8049039462046FFF715FCD0B14E
:1027AC006969B868FFF7FCFC0146B8B1204600F037
:1027BC0058FF002003B0BDE8F083D8F83C00009629
:1027CC000A23084A4146FFF7C9FF07460028DFD114
:1027DC004FF0FF30EEE74FF0FF30EBE74FF0FF30FC
:1027EC00E8E700BFDC85002038B50D461446836C45
:1027FC009269D3F88410D5F88400FFF7E5FE58B140
:10280C0001462046FFF7E0FB6B692365A16C20466F
:10281C0000F027FF002038BD6FF00B00FBE780B104
:10282C0008B5D0F8840058B18369426953601A60C6
:10283C004FF4807343614FF49173836102F074FF22
:10284C0008BD704738B50446006B02680B4B9A42C2
:10285C000ED10A220A49FFF733FC054658B121462E
:10286C00FFF79EFC044620B9284602F05DFF00E00D
:10287C000024204638BD0446FBE700BF4E61BC0077
:10288C00DC85002050B110B50446406918B12046D3
:10289C0002F04AFF10BD02F047FFF8E77047000056
:1028AC00F8B5FFF731FD002849D006462549002030
:1028BC0000F08FFE0446D8B14FF44C61142002F0A6
:1028CC0019FF0546D0B100214160736983601E4B2E
:1028DC00036060658068FFF763FC0746A0B1A064E5
:1028EC003046FFF7FFFCD8B1846120652046F8BD67
:1028FC003046FFF7C7FF6FF00B04F7E7204602F0F6
:10290C0013FF6FF00B04F1E7284602F00DFF304681
:10291C00FFF7B8FF204602F007FF6FF00B04E5E766
:10292C00204602F001FF284602F0FEFE384600F079
:10293C00A7FF3046FFF7A6FF6FF00B04D6E76FF04A
:10294C000B04D3E7888410104E61BC0070B50D46A3
:10295C00D0F884301B6C2BB10A681449062004F0A3
:10296C00FFFA70BD04468E684FF44C60FFF738FBDD
:10297C000246C0B1466002F11C0353E8001F01F18E
:10298C00010143E8001090F0000FF6D1D4F8843028
:10299C001A646A685A64002283F834206B68DA1768
:1029AC0023626262DDE76FF00B02E4E7E084101053
:1029BC000023036070470000064B0B60002048604A
:1029CC0001238B60C860086180234B617F238B617E
:1029DC00704700BF4E61BC0011B110B1416570472A
:1029EC00084670474B6D92889B685A600020704770
:1029FC0008B500F07EFF08BD08B5024804F06AFA7D
:102A0C00002008BD1485101008B5024804F062FAC5
:102A1C00002008BD2885101008B5024804F05AFAA9
:102A2C00002008BD3C85101008B5024804F052FA8D
:102A3C00002008BD5085101008B503F035FF08BD07
:102A4C0008B503F047FF08BDF8B50F4669B3054656
:102A5C0016464FF44C61402002F04CFE044610B375
:102A6C00134B036086600761856348F2ED13436086
:102A7C000023C3602430FFF79BFF04F1140666614A
:102A8C00A66104F11C03E36123622F1D3846FFF796
:102A9C00D3FF05F11802AB695E606361A261AE61A0
:102AAC003846FFF7CDFF2046F8BD0C46FBE700BFCC
:102ABC004E61BC0010B5044658B1084600F0C2FE89
:102ACC0038B1636803802369C367024B0361C0F8A4
:102ADC00844010BD8886002038B54B685B6D002B98
:102AEC0031D014469B688BB35A68A2809A68120541
:102AFC00E261A361DB68A36000220023C4E90C231C
:102B0C00FDF7A8FE134D2B68B0FBF3F0E063FDF767
:102B1C00A1FE2B68B0FBF3F203FB1200A06304F1DF
:102B2C00400204F1380393E8030082E8030004F147
:102B3C00480293E8030082E803004FF48053E360FB
:102B4C000020A06538BD6FF00100FBE76FF00100BD
:102B5C00F8E700BF00800020F8B5054620B30E460C
:102B6C00436803F47043B3F5804F1FD100F1240781
:102B7C003846FFF761FFEC690C3C04F10C0305F1DE
:102B8C001C0293420BD031466068FDF753FB10B129
:102B9C00E4680C3CF1E73846FFF752FF07E0384693
:102BAC00FFF74EFF002402E0044600E0002420461C
:102BBC00F8BD70B506460D468969D0F88400FFF75C
:102BCC00CBFF044678B101462846FFF705FF60B1FC
:102BDC007169A068FFF76EFF044620B101462846D4
:102BEC0000F03FFD0446204670BD0446FBE70000A4
:102BFC0010B5044640B1002000F060FE20B1046323
:102C0C00024B0367024B036110BD00BF008700201D
:102C1C008087002038B54FF44C61202002F06AFD0B
:102C2C00044620B3154B40F8043BFFF7C1FE04F1FA
:102C3C001803A361E361002211492046FFF704FF4A
:102C4C000546B0B144F2ED13436060610C4B036177
:102C5C0000F10C0353E8002F02F1010243E80021BC
:102C6C0091F0000FF6D100F11C03C3610362204602
:102C7C0038BD204602F058FD2C46F8E74E61BC00EA
:102C8C00DC87002018B108B502F04EFD08BD704776
:102C9C0061B338B50D468B6893B1041D2046FFF720
:102CAC00CBFEAB680C3353E8002FA2F1010243E8D2
:102CBC00002191F0000FF6D14AB12046FFF7C0FE7B
:102CCC00686802F031FD284602F02EFD38BDAB6875
:102CDC009A6959694A6011604FF480725A614FF4D5
:102CEC0091729A61A868FFF7CDFFE6E7704708B5C7
:102CFC00416D8B68986BFFF7CBFF08BD38B5054667
:102D0C000C460846FFF7F3FF2146284600F0EAFC84
:102D1C0038BD70B5054614460E4619B101F12400B4
:102D2C00FFF78AFEA268536803F47043B3F5804F33
:102D3C0013D02369E26853601A604FF48073E36028
:102D4C004FF4917323611EB106F12400FFF778FE56
:102D5C0021462846FFF79CFF70BD02F11C01D36988
:102D6C009942E6D0002EF7D006F12400FFF768FE5A
:102D7C00F2E708B5D0F884304A6D1946986BFFF726
:102D8C00C8FF002008BD00002DE9F0418046002856
:102D9C0047D00E461546002A45D0002945D04FF4A1
:102DAC004C61142002F0A6FC044690B3204B036047
:102DBC00002343602846FDF71DFA4FF44C610130A7
:102DCC0002F098FC0746606030B3294604F0F8F92D
:102DDC00A66004F10C05E560256106F10C0151E8D3
:102DEC00003F03F1010341E8003292F0000FF6D1ED
:102DFC0008F124063046FFF71FFE08F11C02D8F834
:102E0C001C305D60E3602261C8F81C503046FFF74F
:102E1C0017FE2046BDE8F081204602F085FC3C46BA
:102E2C00F7E70446F5E71446F3E70C46F1E700BF75
:102E3C004E61BC0070B506460C4611461A46FFF7AB
:102E4C0003FE0546E8B1049A01462046FFF79CFFB5
:102E5C00044608B1204670BD04363046FFF7ECFD41
:102E6C00AB696A6953601A604FF480736B614FF4FD
:102E7C009173AB613046FFF7E3FD2846FFF702FF85
:102E8C00E8E70446E6E7000000B583B000920023B3
:102E9C00054AFFF7CFFF18B1836844F2ED125A6070
:102EAC0003B05DF804FB00BFDC8700202DE9F04186
:102EBC000D4614469846104600F029FB0646D5F8F8
:102ECC00847001463846FFF747FE0146A8B18A6870
:102EDC00C8F3080343F4004353602046FFF77CFD1E
:102EEC00B0B169693846FFF7E5FD014698B1204657
:102EFC0000F0B7FB0020BDE8F08132463946B86BD4
:102F0C00FFF7C2FF01460028E1D14FF0FF30F2E796
:102F1C004FF0FF30EFE74FF0FF30ECE710B582B029
:102F2C00049C0094FFF786FF02B010BD2DE9F0431E
:102F3C0083B00D4614469946104600F0E8FA064652
:102F4C00D5F8847001463846FFF706FE8046C8B1B6
:102F5C00D8F80820C9F3080343F4004353604146F2
:102F6C002046FFF739FDD0B16969D8F80800FFF7A2
:102F7C00A1FD0146B0B1204600F073FB002003B068
:102F8C00BDE8F083B86B00960A23084A3946FFF770
:102F9C00C5FF80460028DBD14FF0FF30EFE74FF044
:102FAC00FF30ECE74FF0FF30E9E700BFDC87002093
:102FBC0038B50D461446836C9269D3F88410D5F855
:102FCC008400FFF7E1FE58B101462046FFF704FDEF
:102FDC006B692365A16C204600F043FB002038BDD3
:102FEC006FF00B00FBE780B108B5D0F8840058B146
:102FFC008369426953601A604FF4807343614FF4E4
:10300C009173836102F090FB08BD704738B504469C
:10301C00006B02680B4B9A420ED10A220A49FFF749
:10302C0013FD054658B12146FFF744FD044620B96F
:10303C00284602F079FB00E00024204638BD044607
:10304C00FBE700BF4E61BC00DC87002050B110B51F
:10305C000446406918B1204602F066FB10BD02F030
:10306C0063FBF8E770470000F8B5FFF7D3FD0028C5
:10307C0049D006462549002000F0ABFA0446D8B1E9
:10308C004FF44C61142002F035FB0546D0B1002101
:10309C004160736983601E4B036060658068FFF755
:1030AC0009FD0746A0B1A0643046FFF7A1FDD8B1D9
:1030BC00846120652046F8BD3046FFF7C7FF6FF0EE
:1030CC000B04F7E7204602F02FFB6FF00B04F1E73F
:1030DC00284602F029FB3046FFF7B8FF204602F0E5
:1030EC0023FB6FF00B04E5E7204602F01DFB28469E
:1030FC0002F01AFB384600F0C3FB3046FFF7A6FF80
:10310C006FF00B04D6E76FF00B04D3E78884101034
:10311C004E61BC0010B4002301E0C454013393424F
:10312C0002D2CC5C002CF8D10024C454934201D0C0
:10313C00CA5C1AB918465DF8044B70474FF0FF3063
:10314C00F9E7000040F2FF10B0F5C07F16DB014636
:10315C000C4BA3FB0023C21A03EB52039B09C3EBDA
:10316C00C313C31A084A52F8233023B15A68914248
:10317C0002D01B68F9E770470138E5E76FF00F00E4
:10318C00704700BF110804022489002084461548AA
:10319C00A0FB0C30ACEB000300EB53008009C0EB40
:1031AC00C010ACEB0000104B03EB8003186898B117
:1031BC0010B402E00346006840B144686445F9D19C
:1031CC0084688C42F6D1C4689442F3D108B1026889
:1031DC001A605DF8044B704710B102681A607047B2
:1031EC00704700BF1108040224890020016142616C
:1031FC00002070470246154BA3FB0203D01A03EBC9
:10320C0050039B09C3EBC313D31A114850F8230086
:10321C0005E0036D58685DF8044B70470068A0B179
:10322C0043689342FAD183688B42F7D810B4C468D0
:10323C0023448B42EDD800680028ECD043689342BD
:10324C00F9D183688B42F6D8F1E770471108040274
:10325C002489002038B5054602F04CFA04462A466B
:10326C000021FCF7FDFF204638BD08B54FF44C613A
:10327C001820FFF7EFFF034618B100F10802826037
:10328C00C260184608BD0023036043608360C360BE
:10329C000361436100F108038360C36041607047C0
:1032AC002DE9F04F85B004469946B0F5007F1ED24B
:1032BC000F461646C1F58013934224D34FF44C614C
:1032CC005420FFF7C7FF8046002871D074B33A4DE5
:1032DC00A5FB0435631B05EB5305AD09C5EBC51503
:1032EC00651B364B53F825A04FF0000B32E040F233
:1032FC00FF13009303464A463149032003F030FE86
:10330C006FF015080EE00E442E4B02930023019330
:10331C00013E00960B464A462B49032003F020FE43
:10332C006FF01508404605B0BDE8F08FFFF70AFFB7
:10333C00041ECCDA4A462549032003F011FE01E0B5
:10334C006FF00F04404602F0EFF9A046EAE7D346CF
:10335C00DAF800A0BAF1000F0ED0DAF80430A3426C
:10336C00F5D309D8DAF80820DAF80C301344BB424C
:10337C00EDD9F3199A42E3D3C8F80440C8F80870A1
:10338C00C8F80C604022494608F11000FFF7C2FE55
:10339C00BBF1000F06D0DBF80030C8F80030CBF8DA
:1033AC000080BFE7C8F800A0044B43F82580B9E7BC
:1033BC006FF00B08B6E700BF110804022489002047
:1033CC006C851010FFFF0F00B085101018861010C0
:1033DC0010B504460020FFF763FF034610F5805F2D
:1033EC0094BF0020012028B95A689B6843EA025315
:1033FC00236010BD1846FCE72DE9F84305469146BD
:10340C0000EB010804460AE04B463A1BC4F31301D7
:10341C00FFF746FF064610F5805F18D83C4644453A
:10342C0007D2200D461C3705B8EB065FECD2474699
:10343C00EAE700200EE0280D421C1705C5EB0252EE
:10344C00C5F31301FFF7A2FE02F06EF93D46AC4244
:10345C00F1D83046BDE8F8832DE9F84380460E4696
:10346C001746089DFFF71CFF044610F5805F15D822
:10347C00FFF7FBFE814698B12B68036045606168DD
:10348C003A4646EA0151FFF7B1FE054650B9C4F879
:10349C005090B8F1000F0CD165680AE0054608E0C1
:1034AC006FF00B053A4631466068FFF76FFE02F08D
:1034BC003BF92846BDE8F88338B50346451807E0C4
:1034CC00E21AC3F31301FFF761FE02F02DF9234654
:1034DC00AB4207D2180D421C1405B5EB025FEFD2BC
:1034EC002C46EDE738BD08B502F01EF908BD10B545
:1034FC00FFF74CFE044618B1006D08B1FFF7F3FF5F
:10350C00204602F011F910BD00230360704708B18A
:10351C0080697047704700F108020B68836033B113
:10352C0010B45A600A60C1605DF8044B70470A60C1
:10353C00C160704778B32DE9F0410C46054669B37C
:10354C000846FCF757FE06464FF44C6102F0D2F8E1
:10355C00074630B3214603F033FEA86905F11C0879
:10356C0040450AD048B118B1404501D002F0DCF812
:10357C006E61AF610020BDE8F0812A2EF3DC384685
:10358C0002F0D2F8C5F818802146404603F018FE28
:10359C006E610020EFE74FF0FF3070474FF0FF30C7
:1035AC00E9E76FF00B00E6E710B504464268936E4E
:1035BC00013B936600F11C038069834205D002F045
:1035CC00B3F8204602F0B0F810BD204602F0ACF87B
:1035DC00FAE770B506460D464FF44C617C2002F0BC
:1035EC0089F8E0B104467C220021FCF739FE29461B
:1035FC002046FFF79FFF10F5805F0AD80023236059
:10360C00A360E36004F16C00FFF77EFF26652046A3
:10361C0070BD204602F088F86FF00B04F7E76FF0EE
:10362C000B04F4E708B503F03FF908BD08B503F047
:10363C0051F908BD70B50446006DFFF7CAFF054689
:10364C0068B104F16C063046FFF7ECFFA36E013352
:10365C00A3666C60236D2B653046FFF7E7FF2846A9
:10366C0070BD38B504460D464368986C5830FFF76A
:10367C00D9FFA5646B69236561682046FFF74BFF92
:10368C006368986C5830FFF7D1FF204638BD40B1C5
:10369C0010B50446483000F0F3F82046FFF784FFDD
:1036AC0010BD704738B50D46046814B1083C00E0F5
:1036BC00083C44B12946A069FCF7BCFD18B1A468CC
:1036CC00002CF5D1F5E7204638BD8368C26813603D
:1036DC0003B15A604FF4807383604FF49173C360ED
:1036EC0070470000C1B138B504460D460B490620A1
:1036FC0003F036FC1CB104F15800FFF793FF284689
:10370C00FFF7E3FF2846FFF7C2FF1CB104F1580096
:10371C00FFF78CFF002038BD704700BFF4861010F7
:10372C00074A01E003F11C0213682BB18342F9D163
:10373C00C3691360002070476FF01500704700BF1D
:10374C00208B0020D0B138B5054602680D49062003
:10375C0003F006FC0C4C00E01C34246844B12968CE
:10376C002068FCF767FD0028F6D16FF0100004E02C
:10377C00054B1A68EA611D60002038BD4FF0FF3020
:10378C00704700BF74871010208B002038B5054699
:10379C00064B1C6800E0E4692CB129462068FCF754
:1037AC0049FD0028F7D1204638BD00BF208B0020F2
:1037BC0000230360704708B503F076F808BD08B520
:1037CC0003F088F808BDF8B50546866C06F1580775
:1037DC003846FFF7F0FF4FF44C61702001F08AFF80
:1037EC00B0B10446304600F022F83846FFF7E7FF48
:1037FC00702200212046FCF733FD04F15C00FFF73A
:10380C00D7FFF36F6362E662AB69A3632046F8BD32
:10381C003846FFF7D4FF6FF00B04F7E710B50446FA
:10382C00C06A00F02DF8204601F07EFF10BD783004
:10383C0050E8003F03F1010340E8003292F0000F22
:10384C00F6D1704738B505464FF44C61882001F02D
:10385C0051FF044658B188220021FCF701FD42F2C9
:10386C00FF132380FCF7F6FF65610123A367204655
:10387C0038BD18B108B501F057FF08BD70470000FE
:10388C00C0B110B5044600F1780353E8002FA2F143
:10389C00010243E8002191F0000FF6D112B1836FC1
:1038AC00002B06DA0449062003F05AFB2046FFF7EA
:1038BC00E0FF10BD704700BFDC87101038B505461F
:1038CC004FF44C61782001F015FF78B10446782252
:1038DC000021FCF7C5FC24606460E56104F1280359
:1038EC00A362E3624FF40073E36038BD6FF00B002A
:1038FC00FBE718B108B501F017FF08BD704708B514
:10390C0002F0D2FF08BD08B502F0E4FF08BD0000CC
:10391C0070B50446204B1B605B60FFF737FF002837
:10392C002FD00546066900231A461946B047036D89
:10393C0013F5805F94BF002501252DBB33B39A6925
:10394C003AB31649086858630A7983F8382003F1AA
:10395C002800114A166870609E62DA6210609A69DB
:10396C000F4802601365936C44F2ED121A800068E4
:10397C00FFF7E0FD22460B49062003F0F1FA28463A
:10398C0070BD4FF0FF35FAE70025F8E74FF0FF3533
:10399C00F5E74FF0FF35F2E7248B002088841010F8
:1039AC002C8B0020388810102DE9F04F83B0054681
:1039BC000F4616461046FFF7E9FE002843D0814615
:1039CC000021384600F080FA044610F5805F94BF61
:1039DC004FF000084FF00108B8F1000F36D1836C9E
:1039EC001B8803F47043B3F5804F32D100F16C0A9D
:1039FC005046FFF784FFD9F810B00C9B2A460021E3
:103A0C004846D847036D13F5805F94BF4FF000090B
:103A1C004FF00109B9F1000F1ED1FBB123659B6971
:103A2C009B6CA3645046FFF76EFF55B1009733466D
:103A3C002A460C49062003F093FA484603B0BDE829
:103A4C00F08F094DF2E76FF01209F6E76FF00109FC
:103A5C00F3E76FF01309F0E7C146EEE76FF00B09DF
:103A6C00EBE700BF508810104C88101010B44FF0CA
:103A7C00000C634602E0944507D00133C45C74B17A
:103A8C002F2CF8D10CF1010CF5E701330022D418DE
:103A9C00045D4CB18C542F2C06D00132F7E74FF05B
:103AAC00FF305DF8044B704700208854F9E78446DA
:103ABC000020034600E0013319461CF803203AB1FC
:103ACC002F2AF8D161444A78002AF4D00130F2E769
:103ADC00704738B504460D46FFF7E4FD00B138BD1C
:103AEC0029462046FFF7A6FD054610F5805F0FD846
:103AFC00A06C03691B6800222946984710B110F589
:103B0C00805FECD92846FFF74FFD6FF00100E6E728
:103B1C006FF00B00E3E7000070B582B005460C4671
:103B2C0016460022FFF7D5FF10F5805F09D8224614
:103B3C001A49062003F014FA6FF01004204602B064
:103B4C0070BD21462846FFF775FD044618B3A96CD5
:103B5C000A6955696DB106F47043B3F5004F0DD089
:103B6C00B3F5804F11D1556A334602460020A84761
:103B7C0009E0FFF719FD6FF01D04DFE7002000904E
:103B8C0033462246A8470028D8DA2046FFF70CFD1A
:103B9C006FF00B04D2E76FF00B04CFE76C881010BA
:103BAC0008B50249062003F0DBF908BD888810101F
:103BBC0018B310B50446036D9B69834216D0826C12
:103BCC00138803F47043B3F5005F19D0B3F5C04FFD
:103BDC0019D01369DB6942680146906C9847636899
:103BEC002146986CFFF77EFD002010BD074904208C
:103BFC0003F0B6F94FF0FF30F7E74FF0FF307047A6
:103C0C004FF0FF30F1E74FF0FF30EEE7B0881010C7
:103C1C0008B502F049FE08BD08B502F05BFE08BD10
:103C2C002DE9F84350B3884617461D46044600F16B
:103C3C005C063046FFF7ECFF636AE3B1E06A58308C
:103C4C00FFF7E6FF636AD3F80C90B9F1000F0FD0C1
:103C5C002B463A4641462046C8470546E06A58304E
:103C6C00FFF7DAFF3046FFF7D7FF2846BDE8F883A9
:103C7C006FF00805F2E76FF00805F3E74FF0FF353A
:103C8C00F3E700002DE9F84300283ED0884617469C
:103C9C001D460446036B13F0030F2ED000F15C0697
:103CAC003046FFF7B5FF636A63B3E06A5830FFF73D
:103CBC00AFFF636AD3F810902B463A464146204634
:103CCC00C8470546FCF7C6FDE26A114F3B68B0FBDE
:103CDC00F3F3D362FCF7BEFDE26A3B68B0FBF3F191
:103CEC0003FB11039363E06A5830FFF795FF3046EE
:103CFC00FFF792FF2846BDE8F883FFF751FF6FF0FE
:103D0C000805F7E76FF00805F1E74FF0FF35F1E72D
:103D1C0000800020F8B568B30F4615460446036BC7
:103D2C0013F0030F1BD000F15C063046FFF770FF59
:103D3C00636AE3B1E06A5830FFF76AFF636A9B6A13
:103D4C0093B12A463946204698470546E06A5830D2
:103D5C00FFF762FF3046FFF75FFF2846F8BDFFF71D
:103D6C001FFF6FF00805F8E76FF00805EEE76FF03E
:103D7C000805EFE74FF0FF35EFE7F0B138B5044633
:103D8C0000F15C052846FFF743FF636A6BB1E06AFC
:103D9C005830FFF73DFF636ADB6B13B12146E06AD5
:103DAC009847E06A5830FFF737FF2846FFF734FF93
:103DBC002046FFF733FD002038BD4FF0FF30704731
:103DCC002DE9F041C0B02C4B1F6803782F2B48D144
:103DDC008846451C08E0A36C1B8803F47043B3F5BC
:103DEC00804F46D1751C27462F212846FCF72EFA0A
:103DFC00064620B3741BFE2C38D82246294668464A
:103E0C0003F0E8F900220DF8042069463846FFF764
:103E1C0060FE044610F5805FDDD944F2ED12694670
:103E2C003846FFF779FE044610F5805FD3D9034678
:103E3C006A461249032003F093F8274612E02B78C8
:103E4C0083B1424629463846FFF766FE074610F511
:103E5C00805F07D903462A460949032003F080F8FE
:103E6C0000E00027384640B0BDE8F0816FF03E0717
:103E7C00F8E76FF01307F5E72C8B0020CC881010B7
:103E8C00F488101010B5044648F2ED110068FFF7E5
:103E9C0097FF28B12146806CFEF758FD002010BD1D
:103EAC004FF0FF30FBE7000010B5054C03E0204657
:103EBC00FFF7E8FF1034034B9C42F8D110BD00BF54
:103ECC00E8D0101038D110102DE9F041A0B0074601
:103EDC0038B30E4603782F2B1AD03846FFF7E7FD80
:103EEC008046114B1C680125A8EB0603AB4214DB82
:103EFC002A4669463846FFF7B9FD00226946204636
:103F0C00FFF7E7FD044610F5805F06D80135EBE7B7
:103F1C004378002BE1D1044B1C68204620B0BDE84F
:103F2C00F0810446F9E700BF2C8B002010B500216E
:103F3C00FFF7CAFF10F5805F94BF002401241CB961
:103F4C00FFF736FE204610BD4FF0FF34FAE708B5F8
:103F5C000021FFF7B9FF806CFDF7DCFB08BD70B5E5
:103F6C00A0B006460D460121FFF7AEFF10F5805FAD
:103F7C0019D80446836C1B8803F47043B3F5804F47
:103F8C0003D06FF0130020B070BD3046FFF78FFDEB
:103F9C00024669463046FFF769FD2A4669462046C7
:103FAC00FFF7BAFDEFE76FF00100ECE708B50B4641
:103FBC0009B940F2ED13C3F3080141F48041FFF756
:103FCC00CEFF08BDF0B583B02048FFF7A1FC002858
:103FDC0035DBFFF769FF1E4F40F2ED113846FFF756
:103FEC00E5FF40F2ED111B48FFF7E0FF40F2ED1149
:103FFC001948FFF7DBFF194D40F2ED112846FFF78A
:10400C00D5FF174E00213046FFF7D0FF0024009457
:10401C002346144A39462046FFF7C6FC0094234633
:10402C00114A31462046FFF7BFFC009423460F4A45
:10403C0029462046FFF7B8FC204603B0F0BD0C49DA
:10404C00062002F08DFF4FF0FF30F6E708851010C8
:10405C00348910103C891010448910104C891010B0
:10406C005489101090841010AC84101064851010BA
:10407C0018891010F8B505460E46174602463E49FB
:10408C00072002F06DFF00212846FFF71DFF0446B4
:10409C0010F5805F41D82046FFF795FB044610F5DC
:1040AC00805F94BF00250125002D61D1C36A1B8858
:1040BC0003F47043B3F5804F50D02663276204F1AC
:1040CC005C063046FFF7A4FD636A73B1E06A5830B2
:1040DC00FFF79EFD636A5B6B1BB12146E06A984754
:1040EC000546E06A5830FFF797FD3046FFF794FD20
:1040FC00002D38DBFCF7AEFBE36A204D2A68B0FBE1
:10410C00F2F05863FCF7A6FBE26A2B68B0FBF3F104
:10411C0003FB110050632046F8BD1949062002F03C
:10412C001FFF14F1020F02D06FF00104F3E716F039
:10413C00400FF0D02A461349062002F011FF47F435
:10414C0000412846FFF70BFF044610F5805FA2D90B
:10415C002A460D49062002F003FFDCE7002200236B
:10416C00C0E91423A9E72046FFF758FB0024D2E747
:10417C006FF00B04CFE700BF6089101000800020A7
:10418C007089101080891010908910100023036022
:10419C00704700002DE9F04389B006460F461546DE
:1041AC004FF44C616C2001F0A5FA002859D004465C
:1041BC002946384600F08CFB012859D001222946AB
:1041CC00384600F057FD814602222946384600F059
:1041DC0051FD804603222946384600F04BFDC4F8B9
:1041EC000090C4F80480B368A360FCF733FB206133
:1041FC00F368E360B3695A1CB261A36104F1240053
:10420C00FFF7C4FF00276763A763E76420221A49FE
:10421C006846FCF725F8B1680C31684602F0D0FF0F
:10422C006846FBF7E7FF431C00F120020DEB020090
:10423C0010F8202C20336B4403F8202C6846FBF735
:10424C00D9FF303500F120030DEB030000F8205CA2
:10425C006A46B1682046FCF701FB384609B0BDE858
:10426C00F0830649062002F07BFE6FF00B00F5E7A9
:10427C004FF0FF30F2E700BF247E1010108A1010B0
:10428C0070B5064600F006FB10F5805F94BF002465
:10429C0001242CB905460A49062002F061FE05E00E
:1042AC000849062002F05CFE09E00134032C06DC10
:1042BC00224629463046FFF76DFF0028F5DA70BD1F
:1042CC00448A10102C8A101070B50546836BD3B13C
:1042DC00AC6BA5602B6CE360FCF7BCFA20612B681F
:1042EC00A36104F12400FFF751FF00266663A66367
:1042FC00E664324629462046FCF7B0FA2046FFF722
:10430C00BFFF304670BD4FF44C616C2001F0F2F9E8
:10431C0008B1A863DCE70349062002F021FE6FF028
:10432C000B00EFE7108A10102DE9F04780460D4680
:10433C001746994604292CD801EB4106B6004436A1
:10434C004FF0010A4946304601F0D4F90446E8B171
:10435C0032460021FBF784FFBAF1000F1DD004F1A7
:10436C004403E363E586002323606360A360A381B9
:10437C00637401226261A263A361E36123626362DD
:10438C00A386E3622363C4F80480A7602046BDE8DB
:10439C00F0874FF0000A4426D4E705EB4500494668
:1043AC00800001F0A7F90646E06308B1E586DAE77C
:1043BC00204601F0B9F93446E8E7C0B110B504461F
:1043CC0000F1380353E8002FA2F1010243E8002169
:1043DC0091F0000FF6D14AB9C06B04F14403984236
:1043EC0001D001F0A1F9204601F09EF910BD7047F3
:1043FC0008B502F059FA08BD08B502F06BFA08BD11
:10440C0070B504464368DD6886683DB101224FF4FF
:10441C004C61284600F051FC05464660A369626871
:10442C0012681344EB612146284600F038FC63689F
:10443C00D8680830FFF7DCFF63682946D86800F0BD
:10444C005EFC6368D8680830FFF7D6FF6368D868ED
:10445C00D0F8D8309847E36A0BB12046984770BD26
:10446C0008B5FFF7CDFF08BD0CB42DE9F041A6B09F
:10447C0006460F462CAC54F8045B002001F06EF994
:10448C0005940DF1180823462A468021404603F076
:10449C00E9F9002502950195CDF8008008233A46EC
:1044AC004FF40051304601F0ADFB0446284601F0B4
:1044BC005FF9204626B0BDE8F04102B0704700001D
:1044CC0008B501460023024A0248FFF7CDFF08BD9C
:1044DC006C8A10100D44101048B3844651B3B3F5D8
:1044EC00805F34BF0020012038BB30B5BCF834E00D
:1044FC00BCF83640A64523D2DCF81C401444B4F575
:10450C00801F20D8DCF83C500EEB4E0E05EB8E04D1
:10451C0045F82E10A3606260DCF81C301344CCF814
:10452C001C30BCF834300133ACF8343030BD6FF093
:10453C000B0070476FF00B0070476FF00B0070476B
:10454C006FF00B00F2E76FF00B00EFE708B5FFF729
:10455C00C3FF08BD70B505460E464FF44C61742080
:10456C0001F0C8F8F0B104462DB9104A13780133A4
:10457C00DBB213700360256000256560A6600C4EED
:10458C0033780C4A202104F10C0003F02FFB337814
:10459C0001333370A564E5642566A5660123E366E3
:1045AC00204670BD6FF00B04FAE700BF6488002052
:1045BC0065880020D88A101008B501F0B5F808BD40
:1045CC0008B5FFF7FAFE08BD08B50146202001F03A
:1045DC0091F8034620B1002202608261C261426000
:1045EC00184608BD2DE9F04383B0064688461746A9
:1045FC001D464FF44C60FFF7E7FF48B3814645601A
:10460C00174B00934FF44C630A9A01213046FFF785
:10461C008BFE0446838923F40062828142689642B1
:10462C0002D023F4046383816660C4F818800D4BB8
:10463C00E36200233A4649462046FFF787FF0028ED
:10464C0009DB2046FFF7DCFE284603B0BDE8F0830B
:10465C006FF00B09D4E72046FFF7AFFE0020F4E71C
:10466C00308B0020CD45101070B582B006460D463B
:10467C0014460021117000912B464FF40072FFF785
:10468C00B1FF90F8FE31552B15D0002300932B462B
:10469C004FF4007201213046FFF7A4FF08220B49AA
:1046AC00FBF7BBFD20B92378012B0BD00223237021
:1046BC00002002B070BD90F8FF31AA2BE5D1012388
:1046CC002370E2E703232370F2E700BF6888002021
:1046DC002DE9F04182B004460F4616461D469DF862
:1046EC002080CDF80480009313460A460B4906201F
:1046FC0002F036FC2770202363702123A370002363
:10470C00E37084F80480FE2363713F23A3710123BB
:10471C00E371A660E56002B0BDE8F081E08A10109C
:10472C0000B5D0F800E0D0F804C08268C368C1F8C6
:10473C0000E0C1F804C08A60CB60002303604360D2
:10474C008360C3605DF804FB002848D070B582B06C
:10475C000C460646002945D04FF44C614FF40070CE
:10476C0000F0C8FF0546F0B10021009103464FF45C
:10477C0000723046FFF736FFF0B105F5DF7304F534
:10478C00797105F5FF7ED3F800C05C689868DA682B
:10479C00C1F800C04C608860CA601033103173459A
:1047AC00F1D1002313E04FF400721049062002F0FF
:1047BC00D7FB4FF0FF3010E00D49062002F0D0FB84
:1047CC00284600F0B1FF4FF0FF3006E00133032B19
:1047DC00FCDD284600F0A8FF002002B070BD4FF0B1
:1047EC00FF3070474FF0FF30F7E700BF388B1010E9
:1047FC00508B1010002844D070B582B00C46064681
:10480C00002941D04FF44C614FF4007000F072FF5E
:10481C000546E0B3002300E00133032BFCDD04F577
:10482C00797305F5DF7204F22444D3F800E0D3F871
:10483C0004C09868D968C2F800E0C2F804C090605F
:10484C00D16010331032A342EFD1552385F8FE31DD
:10485C00AA2385F8FF31012300932B464FF40072F5
:10486C0000213046FFF7BEFE28B9284600F05CFF59
:10487C00002002B070BD284600F056FF4FF0FF300C
:10488C00F7E74FF0FF3070474FF0FF30F1E74FF094
:10489C00FF30EEE738B50546A8B14FF44C6140F255
:1048AC00244000F027FF044678B101462846FFF764
:1048BC004BFF002801DB204638BD204600F034FFBA
:1048CC006FF00404F7E70446F5E76FF00B04F2E72A
:1048DC003E3100EB0110043000230F2B03D8C25CD7
:1048EC001AB90133F9E70120704700207047F0B581
:1048FC0083B0064600240BE021463046FFF7E8FF64
:10490C00C0F1010304F108026A4402F8043C0134CA
:10491C00032CF1DD00272BE00134022C27DC04F101
:10492C0008036B4413F8043C002BF5D104F1090384
:10493C006B4413F8043C012BEED104F13E0106EB61
:10494C00011104F13F0006EB001004310430FFF7B5
:10495C00E7FE012204F108036B4403F8042C04F174
:10496C0009030DEB0305002305F8043CD4E70137DC
:10497C00022F01DC0024D0E703B0F0BD2DE9F0419B
:10498C0048B30C461546804629B3012B01D0032BA6
:10499C0028D1032D2DD821464046FFF7D5FE0028FF
:1049AC0035DB05F13E0604EB0616371D294620467D
:1049BC00FFF78EFF012823D0002575607D60BD6058
:1049CC00FD602046FFF793FF21464046FFF712FF9C
:1049DC002846BDE8F0810F49062002F0C1FA4FF0DD
:1049EC00FF30F6E70C49062002F0BAFA4FF0FF3020
:1049FC00EFE70A49062002F0B3FA4FF0FF30E8E780
:104A0C000749062002F0ACFA4FF0FF30E1E74FF017
:104A1C00FF30DEE76C8B1010888B1010A08B101001
:104A2C00C48B101070B505460E460024032C0CDC0C
:104A3C0021462846FFF74CFF08B90134F6E73460ED
:104A4C003E3405EB0410043000E0002070BD032957
:104A5C000BD838B504460D46FFF73AFF012807D0AE
:104A6C0004EB0514D4F8F00338BD4FF0FF30704759
:104A7C004FF0FF30F8E70000032912D838B5044690
:104A8C000D46FFF725FF012804D004EB0514D4F8DC
:104A9C00EC0338BD0449062002F062FA4FF0FF30F7
:104AAC00F7E74FF0FF307047C48B10102DE9F0473B
:104ABC0084B070B30E4615469946804649B3FFF74D
:104ACC0043FE00282CDB25F007050023039303A9E4
:104ADC003046FFF7A7FF824648B3039900292DDD26
:104AEC0001393046FFF7C8FF044602464549062007
:104AFC0002F036FAB4F1FF3F24D003990139304665
:104B0C00FFF7A5FF024604443F49062002F028FAAD
:104B1C0027E03E49062002F023FA4FF0FF3042E036
:104B2C003B49062002F01CFA4FF0FF303BE03949BC
:104B3C00062002F015FA4FF0FF3034E0364906201B
:104B4C0002F00EFA3549062002F00AFAD8F80430C1
:104B5C00B3F5006F2AD33249062002F001FA4FF464
:104B6C00006414F0070F02D024F0070408340399F2
:104B7C00022922DDD8F80470223FBC4226D86319E2
:104B8C00BB422AD2ADB3CDF800902B462246002171
:104B9C005046FFF79DFD3046FFF7A9FE31464046D3
:104BAC00FFF728FE002004B0BDE8F0871D49062061
:104BBC0002F0D6F94FF0FF30F5E701314046FFF730
:104BCC005BFF0746B0F1FF3FD7D1D3E7164906206C
:104BDC0002F0C6F94FF0FF30E5E72A4613490620EC
:104BEC0002F0BEF93D1B2A461149062002F0B8F925
:104BFC00C8E72A460F49062002F0B2F94FF0FF3001
:104C0C00D1E700BF688C1010188D1010EC8B1010B1
:104C1C00088C1010248C1010988C1010A88C10106C
:104C2C00E08C1010C48C1010388D1010748D101076
:104C3C00B88D1010D08D101000B5ADF22C4D134660
:104C4C000A4601A9FFF732FF0DF22C4D5DF804FB6B
:104C5C0003290BD838B505460C46FFF739FE012859
:104C6C0006D03E3405EB0415287A38BDFF2070477A
:104C7C00FF20FAE788B108B5012A05D0022A06D030
:104C8C00032A07D0002008BDFFF7F6FEFBE7FFF76D
:104C9C00DEFEF8E7FFF7DCFFF5E7002070470023A6
:104CAC000B60036A33B1436A196041628369013353
:104CBC008361704701624162F8E770B506460D46A4
:104CCC0011465C2000F016FD04465C220021FBF727
:104CDC00C7FA2660656004F12803A362E36201232E
:104CEC002364FBF7B7FD60630023A36323634FF4D6
:104CFC007A736361204670BD00230360704710B463
:104D0C0001F1280200F1CC04D0F8D030C0F8D0204A
:104D1C008C62CB621A605DF8044B7047F8B505469F
:104D2C000E464FF44C61E02000F0E4FC0446C8B1A0
:104D3C000027076047600830FFF7DEFFA761E661D8
:104D4C008023E36320236364C4F8C4504FF47A7364
:104D5C00C4F8C83004F1CC03C4F8CC30C4F8D0305B
:104D6C00C4F8D4702046F8BD08B501F09DFD08BD0F
:104D7C0008B501F0AFFD08BD38B50C4600F10805CB
:104D8C002846FFF7F1FF04F12803A26A934208D0EA
:104D9C00E26AA16A4A601160A362E362204600F0F5
:104DAC00C3FC2846FFF7E4FF38BD38B5044600F1D4
:104DBC0008052846FFF7D8FF04F1CC02D4F8CC3014
:104DCC009A4212D0D4F8CC30A3F128045A6819684E
:104DDC004A6011604FF480721A604FF491725A60FD
:104DEC002846FFF7C5FF204638BD0024F8E7000031
:104DFC00F8B5074600F108063046FFF7B5FFD7F8BF
:104E0C00CC4054F82859283D1BE0E36AA26A536051
:104E1C001A604FF48073A3624FF49173E3623046CF
:104E2C00FFF7A6FF22460C49062002F099F820460F
:104E3C0000F07AFC3046FFF797FFAB6A2C46A3F1E3
:104E4C00280504F1280307F1CC029342DDD130464A
:104E5C00FFF78EFFF8BD00BFAC8E101018B108B56F
:104E6C0000F062FC08BD704710B5044C02E054F829
:104E7C00043B9847024B9C42F9D110BD2CCA101030
:104E8C002CCA101010B5044C02E054F8043B98479F
:104E9C00024B9C42F9D110BD2CCA10102CCA101018
:104EAC0010B5044C02E054F8043B9847024B9C426A
:104EBC00F9D110BD2CCA101038CA101010B5044C02
:104ECC0002E054F8043B9847024B9C42F9D110BDC8
:104EDC0038CA10103CCA101010B5044C02E054F83B
:104EEC00043B9847024B9C42F9D110BD3CCA1010B0
:104EFC003CCA101010B5044C02E054F8043B98471F
:104F0C00024B9C42F9D110BD3CCA101040CA101083
:104F1C0010B5044C02E054F8043B9847024B9C42F9
:104F2C00F9D110BD40CA101040CA101010B5044C75
:104F3C0002E054F8043B9847024B9C42F9D110BD57
:104F4C0040CA101040CA101010B5044C02E054F8BE
:104F5C00043B9847024B9C42F9D110BD40CA10103B
:104F6C0040CA101010B5044C02E054F8043B9847AA
:104F7C00024B9C42F9D110BD40CA101040CA10100F
:104F8C0010B5044C02E054F8043B9847024B9C4289
:104F9C00F9D110BD40CA101050CA101010B5044CF5
:104FAC0002E054F8043B9847024B9C42F9D110BDE7
:104FBC0050CA101050CA101010B5044C02E054F82E
:104FCC00043B9847024B9C42F9D110BD50CA1010BB
:104FDC0054CA101010B5044C02E054F8043B984726
:104FEC00024B9C42F9D110BD54CA101054CA101077
:104FFC0010B5044C02E054F8043B9847024B9C4219
:10500C00F9D110BD54CA101058CA101010B5044C68
:10501C0002E054F8043B9847024B9C42F9D110BD76
:10502C0058CA10105CCA101010B5044C02E054F8A9
:10503C00043B9847024B9C42F9D110BD5CCA10103E
:10504C005CCA101008B5FFF763FFFFF76FFFFFF79F
:10505C007BFFFFF787FFFFF7BDFFFFF7C9FFFFF7E8
:10506C00D5FFFFF7E1FF002008BD08B5FBF754FAA8
:10507C0008BD000008B5054A054B9A4203D01046FE
:10508C0001F06AFC00B1FEE708BD00BF60CA101059
:10509C00AFCC101008B500F0AFFA00F0BBFA08BDA9
:1050AC0008B5FBF719FA08BD08B501F0A1FF0249D4
:1050BC00062001F055FF08BD348F10100CB42DE9FB
:1050CC00F041A6B006460F462CAC54F8045B002009
:1050DC0000F044FB05940DF1180823462A46802164
:1050EC00404602F0BFFB002502950195CDF80080EB
:1050FC0008233A464FF40051304600F083FD044635
:10510C00284600F035FB204626B0BDE8F04102B041
:10511C007047000000B589B0144B0693144B0593EF
:10512C00144B0493144B0393144B0293144B0193A1
:10513C000123009302230D221249062001F010FFD7
:10514C004FF082530193A3F5401300930E4B0F4A7B
:10515C000F49062001F004FFFBF7BAF902460D498E
:10516C00062001F0FDFE09B05DF804FB7C8F1010E9
:10517C008C8F1010948F10109C8F1010B08F1010FB
:10518C00C08F1010448F10100000082000800020E9
:10519C00D08F1010FC8F101008B5FFF766FFFFF7CB
:1051AC00B9FF01F0C5F9FFF75FFEFFF76BFEFFF7E4
:1051BC0061FFFFF76FFFFBF7DFFAFFF771FFFBF7FC
:1051CC0083FBFBF72BFBFFF7DBFEFFF7E7FEFFF79D
:1051DC00F3FEFBF777FBFFF767FFFFF761FEFFF7C7
:1051EC006DFE064A00210648FFF768FFFFF774FEC4
:1051FC00FBF734FAFFF77EFE002008BD1490101068
:10520C00515010100023036070470378C94349B212
:10521C000B400370704703780B430370704703789F
:10522C000B4201D00120704700207047C0687047C6
:10523C000069704780687047844648B181681431B2
:10524C00002303E000220CF8032001338B42F9DB2E
:10525C0070472DE9F0410546132A1AD90C4616461B
:10526C009846A2F114038B604AF6CD334B80012192
:10527C002046FFF7CAFF00272761E7606C602846CD
:10528C0000F8088BFFF7BEFFAE61EC613846BDE855
:10529C00F081002383610370C36143604FF0FF30E2
:1052AC00F5E7F8B5044608B30D4601B301F1140750
:1052BC00FFF7C0FF87421CD801212046FFF7AFFF44
:1052CC00012818D0E619A368DB1BB360A560012187
:1052DC003046FFF79AFFE368F3604AF6CD337380EC
:1052EC00E36803B11E61E66034612046F8BD00201E
:1052FC00FCE70020FAE70020F8E770B50446B0B1EF
:10530C00FFF796FF05462046FFF790FF0646012162
:10531C002046FFF77AFF25B101212846FFF77FFFD2
:10532C0038B126B101213046FFF779FF70B1204624
:10533C0070BDAB68A26813441433AB60EE6006B169
:10534C0035612046FFF778FF2C46F0E7A368B2687A
:10535C0013441433A360F368E36003B11C6130465B
:10536C00FFF76AFFE3E751B110B50846002302E0EE
:10537C00FFF7C3FF234684689C42F9D110BD7047E8
:10538C00F8B5074658B10E461546C46954B13CB140
:10539C002A4621463846B04710B1E468F7E705467F
:1053AC002846F8BD2546FBE738B50C4669B11546CD
:1053BC0001212046FFF733FF48B92046FFF73AFF9B
:1053CC002B6803442B60012002E0084600E001201A
:1053DC0038BD000058B100B583B00022019201AA7B
:1053EC000449FFF7CDFF019803B05DF804FB0020E2
:1053FC00704700BFB5531010084649B101F11403B2
:10540C0011688B4201D0012070475060002070471A
:10541C00002070471368012B0AD049884AF6CD3317
:10542C00994201D10120704701231360002070477D
:10543C000020704758B100B583B00022019201AA38
:10544C000449FFF79DFF019803B05DF804FB0020B1
:10545C00704700BF2154101008B501F025FA08BDA3
:10546C0008B501F037FA08BD70B560B30D4661B3ED
:10547C00C46900F108063046FFF7EEFF00E0E4686F
:10548C0044B101212046FFF7CAFE0028F7D1A368DA
:10549C00AB42F4D374B1A26805F114039A420DD255
:1054AC0001212046FFF7B7FE3046FFF7D9FF143431
:1054BC00204670BD3046FFF7D3FFF9E7294620465A
:1054CC00FFF7EFFEECE70446F2E70024F0E7F8B54F
:1054DC00A8B30E46A9B3C46900F108073846FFF714
:1054EC00BBFF002501E02546E4687CB10121204684
:1054FC00FFF795FE0028F7D1A368B342F4D3002D33
:10550C00F1D0AA689342EFD82546EDE775B1AA68A9
:10551C0006F11C039A420DD201212846FFF77BFEAF
:10552C003846FFF79DFF14352846F8BD3846FFF77F
:10553C0097FFF9E731462846FFF7B3FEECE705463F
:10554C00F2E70025F0E7000038B598B105460735BD
:10555C0025F007050024062C09DC2946064B53F8D8
:10556C002400FFF7B4FF034610B90134F3E700231E
:10557C00184638BD0023FBE77088002009B330B50E
:10558C0083B0044600B300910023019300F1080599
:10559C002846FFF761FF6A460D492046FFF7F0FEEB
:1055AC00019941B12046FFF7DEFE2846FFF758FF70
:1055BC00002003B030BD2846FFF752FF4FF0FF30FC
:1055CC00F7E74FF0FF3070474FF0FF30F1E700BFC7
:1055DC000554101038B50546002400E00134062CA3
:1055EC0007DC2946034B53F82400FFF7C7FF0028BC
:1055FC00F4DD38BD7088002008B500234FF4E1229B
:10560C0002490348FFF725FE08BD00BF7C8C002033
:10561C005C8C002008B500231A464FF080511148CD
:10562C00FFF717FE00231A464FF0E0410E48FFF734
:10563C0010FE00231A4619460C48FFF70AFE0023F9
:10564C001A4619460A48FFF704FE00231A46194663
:10565C000848FFF7FEFD00231A4619460648FFF7D7
:10566C00F8FD08BD3C8C00201C8C0020FC8B00201D
:10567C00DC8B0020BC8B00209C8B002038B50024D8
:10568C00254600E00134062C0DDC084B53F82400B1
:10569C00FFF7D0FE05440028F4DD22460449032020
:1056AC0001F05EFCEEE7284638BD00BF7088002094
:1056BC001C90101038B50024254606E0054B53F815
:1056CC002400FFF787FE05440134062CF6DD28463E
:1056DC0038BD00BF7088002040B108B501460331C9
:1056EC0021F003010248FFF7BFFE08BD0020704700
:1056FC005C8C002010B5B1F5205F07D0FFF724FFBC
:10570C000446074B9C4205D0204610BDFFF7E4FF32
:10571C000446F6E70349062001F022FCF4E700BF3B
:10572C00CC8F00243090101008B5FFF753FF08BD44
:10573C0008B5FAF7CDFE08BD10B584B0089C0294EC
:10574C00079C0194069C0094FAF7C4FD04B010BDAC
:10575C0008B5FFF7EDFF00F0BBF808BD08B5034630
:10576C0010B100221A7508BDFFF7F2FF0346F8E7E7
:10577C0008B5034610B101221A7508BDFFF7E8FF02
:10578C000346F8E708B5FFF7D3FF00F0A1F88069EE
:10579C0008BD0000024A136801331360704700BF54
:1057AC007C94072008B5094B1B78012B07D1084BBB
:1057BC001B68022B06D1FAF7C6FC002008BD4FF07F
:1057CC00FF30FBE74FF0FF30F8E700BF8C8800207C
:1057DC007C94072000B587B00021059102910191BE
:1057EC0000910B460A469E20FFF7A6FF07B05DF816
:1057FC0004FB10B50446FFF7C5FF8467032380F84C
:10580C006430FFF7E7FF10BD01657047006D70470E
:10581C0008B5FAF75DFE08BD10B582B00023019300
:10582C0011E0019B013301930132084B9A42F8DDE0
:10583C00FFF740FF0446FAF74BFE0346A20A044961
:10584C00072001F08DFB0022EFE700BF7FF0FA028A
:10585C0058901010F8B504460D461646084600F050
:10586C0033FA88B10746036920469847A06010F5C3
:10587C00805F0FD800232360094A62602375A361FF
:10588C00FB682361E660F8BD2A460649032001F057
:10589C0067FBFEE70449032001F062FBFEE700BF53
:1058AC005634120080901010A090101010B5FFF715
:1058BC004FFF0446C2680549062001F051FBFAF778
:1058CC002DFC01232375FFF765FFFEE7C090101038
:1058DC00012805D8C0EBC000024B03EB80007047D9
:1058EC00002070478094072010B584B0002415E088
:1058FC002046FFF7EDFF22460A4B53F82410FFF722
:10590C00A9FF002302930194074B009301230A2261
:10591C004FF40071054800F075F90134012CE7DDF6
:10592C0004B010BDC49B1010D89010102558101046
:10593C0008B50449062001F013FB00F01FFAFFF72D
:10594C00D3FF08BDEC90101038B50546FFF700FFEB
:10595C00037D73B10446806910B12946FFF754FFEB
:10596C0023691B6820469847A06110B1FFF74EFFD2
:10597C000546284638BD000010B5FFF703FF044666
:10598C0000F10C020449032001F0EAFA072384F821
:10599C006430FAF7D8FB10BD0891101070B5FFF702
:1059AC0037FF044602463949032001F0D9FA384939
:1059BC00032001F0D5FAFFF761FEB8B10246354974
:1059CC00032001F0CDFAC4EBC403334D05EB830582
:1059DC006A68324B9A4211D022463149032001F0B9
:1059EC00BFFA3049032001F0BBFAFEE7FFF762FE75
:1059FC00820A2D49072001F0B3FAE4E722462B492D
:105A0C00032001F0ADFAC4EBC402234B03EB820379
:105A1C009E6946B13268264B9A420BD02549032029
:105A2C0001F09EFADDE72449032001F099FAFFF713
:105A3C00B9FE24E006F10C022049032001F090FA93
:105A4C00C4EBC402144B03EB82031B69DB682846CE
:105A5C009847002814DB072386F864300E4BC4EB00
:105A6C00C40203EB82020021916113699B682946F1
:105A7C0030469847304600F0AFF8FFF793FE70BD04
:105A8C000F49032001F06CFAABE700BF3491101002
:105A9C005091101070911010809407205634120001
:105AAC00A49110109092101084911010E491101089
:105ABC0040E2010024921010089210104092101035
:105ACC006C92101008B5FAF7E1FB08BD2DE9F84609
