:020000040800F2
:1000000000000220358700087D87000819050008D8
:100010007D8700087D870008750400080000000047
:10002000000000000000000000000000770500084C
:100030007D870008000000000D020008D5100008B0
:10004000110400081104000811040008110400083C
:10005000110400081104000811040008110400082C
:10006000110400081104000811040008110400081C
:10007000110400081104000811040008110400080C
:1000800011040008110400081104000811040008FC
:1000900011040008110400081104000811040008EC
:1000A00011040008110400081104000811040008DC
:1000B00011040008110400081104000811040008CC
:1000C00011040008110400081104000811040008BC
:1000D00011040008110400081104000811040008AC
:1000E000110400081104000811040008110400089C
:1000F000110400081104000811040008110400088C
:10010000110400081104000811040008110400087B
:10011000110400081104000811040008110400086B
:10012000110400081104000811040008110400085B
:10013000110400081104000811040008110400084B
:10014000110400081104000811040008110400083B
:10015000110400081104000811040008110400082B
:10016000110400081104000811040008110400081B
:10017000110400081104000811040008110400080B
:04018000110400085E
:100184000348044B834202D0034B03B11847704722
:10019400480A0020480A0020000000000548064BD9
:1001A4001B1AD90F01EBA301491002D0034B03B171
:1001B40018477047480A0020480A00200000000041
:1001C40010B5064C237843B9FFF7DAFF044B13B19B
:1001D4000448AFF300800123237010BD480A0020B7
:1001E400000000009487000808B5044B1BB10449C3
:1001F4000448AFF30080BDE80840CFE700000000EA
:100204004C0A00209487000800B5EFF3098020E928
:10021400F00F06F0EFF9B0E8F00F80F309885DF80D
:1002240004EB7047EFF3088080F30988EFF3148040
:1002340040F0020080F31488EFF3148040F00100D2
:1002440080F314887047BFF34F8F03484FF08051F9
:10025400BFF36F8F0160704704ED00E00023014697
:100264001A46184600F014B838B5074D074C2C1B35
:10027400A41005D0013C55F8043D9847002CF9D151
:10028400BDE8384008F08ABAF4CC0008F0CC000885
:1002940070B4164D2C681CB365681F2D23DC38B967
:1002A400AB1C0135656044F82310002070BC704716
:1002B40004EB850C0228CCF88820D4F888614FF030
:1002C400010202FA05F246EA0206C4F88861CCF893
:1002D4000831E5D1D4F88C311343C4F88C31DFE70D
:1002E400034C2C60D8E74FF0FF30DFE7F40B00201D
:1002F400640A002010B54FEAD20C034623E091F8BB
:1003040000E083F800E091F801E083F801E091F85F
:1003140002E083F802E091F803E083F803E091F847
:1003240004E083F804E091F805E083F805E091F82F
:1003340006E083F806E091F807E083F807E00CF1A3
:10034400FF3C08310833BCF1000FD8DC12F0040F75
:1003540009D00C781C704C785C708C789C70CC78CC
:10036400DC700431043312F0020F09D08E461EF8FB
:10037400024B9C460CF8024B49785970714663460F
:1003840012F0010F01D00A781A7010BD034600E084
:1003940001331A78002AFBD1181A7047034601E08A
:1003A400013311464A1E11B119780029F8D1181ADF
:1003B4007047034602440020934206D213F8010B0F
:1003C40011F801CBB0EB0C00F6D0704784469CF8D2
:1003D40000200CF1010C0B780131D01A01D1002A54
:1003E400F5D170470378CAB2934204D00130002B90
:1003F400F8D1002070477047034602E003F8011B60
:10040400624602F1FF3C002AF8D1704708B5EFF3C9
:100414000580A0F1100006F0EFFD08BD62B670473C
:1004240072B670478446F0B1436D23F00703403B36
:100434004FF08072DA63826D9A630B4A5A6300222A
:100444001A63DA629A626FF002005862DCF85C00A8
:100454001862DA619A6159611A61DA609A605A60C5
:100464001B60CCF84C307047A96800080020704726
:1004740008B506F0D7F808BD0B6803604B68436005
:100484008B688360CB68C3600B6903614B6943610C
:100494008B698361CB69C361EFF308830362EFF374
:1004A400098343627047000000B58DB0014602A87D
:1004B400FFF7E2FF1249032007F0F8FC049B0093C6
:1004C400039B029A0F49032007F0F0FC079B00935B
:1004D400069B059A0C49032007F0E8FC099B089A3F
:1004E4000A49032007F0E2FC0B9B0A9A08490320FF
:1004F40007F0DCFC06F0A8F80DB05DF804FB00BFC3
:10050400BC8A0008D48A0008FC8A0008248B0008EE
:10051400408B00081EF0040F0CBFEFF30880EFF3CC
:100524000980FFF7C1BF10B485B0044608461146E0
:100534001A46069B0093079B0193089B029303941E
:100544006B4600DF05B05DF8044B704710B584B00E
:100554000446C368D8681A6859689B680293019175
:100564000092A3686268216806F0FEFE206004B071
:1005740010BD1EF0040F0CBFEFF30880EFF30980E9
:10058400FFF7E4BF704700002A4A136843F00103F1
:100594001360284B1B6813F0020FFAD0264B1A681D
:1005A40042F005021A601A6842F480721A601A68EE
:1005B40042F400721A601A6842F480621A601D4A9A
:1005C400136823F0807313601A4B1B6813F0007FC9
:1005D400FAD1184B194A5A601A6842F080721A60AC
:1005E400144B1B6813F0007FFAD0124B9A6822F068
:1005F400F0029A609A6822F4E0529A609A6842F48F
:10060400A0529A609A6822F460429A609A6842F40E
:1006140000429A609A6822F003029A609A6842F053
:1006240002029A60034B9B6803F00C03082BF9D178
:10063400704700BF00380240003C024010540007DD
:10064400034B1B6813F0800FFAD0014B58607047BE
:10065400001001401A4B1B6813F0200F19D0184BDF
:100664005968C9B21A6822F020021A60154B18881A
:10067400431C5A42C3F30903C2F3090258BF53424D
:100684009BB2114A12889A4205D0104A11540D4A5D
:1006940013800120704710B40132D2F1000CC2F370
:1006A4000902CCF3090C58BFCCF10002064C22809D
:1006B400064A1154034A138001205DF8044B704725
:1006C40000100140F80B0020FA0B0020FC0B002066
:1006D400044B1A88044B1B889A4201D100207047AE
:1006E40001207047FA0B0020F80B0020064801880F
:1006F4004B1C5A42C3F30903C2F3090258BF5342C5
:100704000380024B585C7047FA0B0020FC0B00205E
:100714000020704770B50D461646002400E00134F1
:10072400B44209D2285DFFF78BFF2B5D0A2BF6D16B
:100734000D20FFF785FFF2E7304670BD00207047BB
:1007440008B5FFF76DFE08BD08B5FFF767FE08BDE5
:1007540010B50446FFF7F4FFFFF7BAFF012806D1EE
:10076400FFF7C4FF2070FFF7EFFF002010BDFFF775
:10077400EBFF4FF0FF30F9E770B50E461546002445
:1007840000E00134AC4204D23019FFF7E1FF002845
:10079400F7DA204670BD0000374925230B60374B3C
:1007A400D3F8302842F00102C3F83028D3F84428A3
:1007B40042F01002C3F84428A3F540531A6822F407
:1007C40070121A601A6842F420121A605A6A22F4EB
:1007D4007F625A625A6A42F4EE625A629A6842F43A
:1007E40070129A60DA6822F47012DA60DA6842F4FD
:1007F400A012DA605A6822F4C0625A60A3F570430A
:100804000022DA6040F2D9229A60DA6842F00C02DF
:10081400DA60DA6842F02002DA60DA6842F4005200
:10082400DA600B681F2B12D84FF0E020D0F80021BB
:10083400012101FA03F31343C0F800310E4B1B6886
:1008440003F1604303F5644330221A7070474FF09C
:10085400E022D2F80401203B012101FA03F303430F
:10086400C2F80431D2F88433034800682038814048
:100874000B43C2F88433E1E7FC0F00200030024050
:1008840008B5FFF789FF08BD0FB410B5C2B044AB7B
:1008940053F8042B01934FF4807102A807F076FDFE
:1008A400002400E0013402AB185D48B1FFF7C8FE34
:1008B40002AB1B5D0A2BF5D10D20FFF7C1FEF1E75A
:1008C40042B0BDE8104004B07047002300E001339B
:1008D40041FA03FCBCF1010FF9D1072B0ED8016AD0
:1008E4009B004FF00F0C0CFA03FC21EA0C0101628F
:1008F400016A02FA03F30B4303627047416A083B3F
:100904009B004FF00F0C0CFA03FC21EA0C0141622E
:10091400416A9A400A4342627047F8B505460E465A
:1009240000240CE0EA681040E860EA68308900FAC4
:1009340001F10A43EA607288022A2FD001340F2C95
:1009440032D80123A340328833EA0202F6D12F6859
:10095400610003228A40D04327EA02022A602A68FF
:10096400B6F802C00CFA01FC42EA0C022A60728852
:10097400013A92B2012AD5D86A6822EA03026A606F
:100984006A68F788A7403A436A60AA680240AA6086
:10099400AA68B7888F403A43AA60C3E7B27A99B28B
:1009A4002846FFF792FFC9E7F8BD81617047090443
:1009B400816170470369194214BF01200020704708
:1009C40031B1074AD2F830380343C2F8303870479F
:1009D400034AD2F8303823EA0003C2F830387047AB
:1009E4000030024000F00F00014B33F81000704754
:1009F400A4A600080309AF2803D8034A52F8230029
:100A040070470020704700BF78A60008234B984227
:100A14002AD003F58063984228D003F58063984276
:100A240026D003F58063984224D003F5806398426E
:100A340022D003F58063984220D003F58063984266
:100A44001ED003F5806398421CD003F5806398425E
:100A54001AD003F58063984219D003F58063984255
:100A640018D04FF0FF3070470120704702207047C4
:100A740004207047082070471020704720207047DA
:100A840040207047802070474FF4807070474FF4C7
:100A9400007070474FF48060704700BF0000024050
:100AA400002300E0013341FA03F2012AFAD1072BB3
:100AB40005D8006A9B00D84000F00F007047406AD8
:100AC400083B9B00D84000F00F00704710B5144657
:100AD4000A78836A19884FF6FF70814208D0302A59
:100AE4000DD0312A0FD15868FFF75FFF204610BDA3
:100AF4000849062007F0DAF96FF01500F7E758689F
:100B0400FFF755FFF2E70449062007F0CFF96FF02D
:100B14001500ECE7C48B0008F08B000808B5886A60
:100B240005F068FC002008BD38B50D464FF44C6153
:100B3400142005F055FC58B14FF6FF7202800024D2
:100B44004460A8620449062007F0B0F9204638BD85
:100B54006FF00B00FBE700BF008C000838B50D46B2
:100B6400836A19884FF6FF7C61450CD01446586897
:100B7400FFF720FF70B930232B700A49062007F0D5
:100B840095F9204638BD0849062007F08FF96FF023
:100B94001500F7E731232B700449062007F086F986
:100BA400EFE700BF148C0008C48B00082C8C0008ED
:100BB40000B585B0431E13F4004F20D1002301E09B
:100BC4000133DBB24008FBD1002202928DF80C20E5
:100BD400092B0DD830338DF808300C4B009302AB41
:100BE4000B4A0C49062007F061F905B05DF804FBD7
:100BF40031228DF8082026338DF80930EDE7034BB8
:100C040002460549062007F051F9EEE75CA6000804
:100C140060A60008A08C0008A88C000800B583B06A
:100C240000F13F4000F57E00B0F5205F0ED8C0F320
:100C3400872000F14103084A0092DBB2074A0849C1
:100C4400062007F033F903B05DF804FB024A0549B6
:100C5400062007F02BF9F6E744A6000848A600088A
:100C6400C08C0008C88C00082DE9F8430C461546D2
:100C7400876A402904D03A884FF6FF739A4226D0F7
:100C8400AEB23046FFF7AEFE80463046FFF7B2FE06
:100C94000646FFF7BBFE8146202C1FD8002C00F02F
:100CA400A180013C1F2C00F2A080DFE804F0626AFE
:100CB4009E799E9E9E739E9E9E9E9E9E9E509E9EEE
:100CC4009E9E9E9E9E9E9E9E9E9E9E9E9E594B492D
:100CD400062007F0EBF86FF0150488E0B4F5807F88
:100CE40064D040F201139C4271D0402C40F08280C9
:100CF400FEB1B0F1FF3F23D04046FFF759FF304625
:100D0400FFF78CFF01214846FFF75AFEA7F8008041
:100D14007E60A7F8088001237B810024FC810223E4
:100D2400BB813C82BC7407F108013046FFF7F5FD36
:100D34005DE03349062007F0B9F86FF0150456E07A
:100D44003049062007F0B2F86FF015044FE0012394
:100D54003B8207F108013046FFF7DFFD002446E03F
:100D640002233B8207F108013046FFF7D6FD002439
:100D74003DE000247C8107F108013046FFF7CDFDFA
:100D840035E001237B8107F108013046FFF7C5FDFB
:100D940000242CE041463046FFF707FE002426E0FD
:100DA40041463046FFF703FE002420E0C5F3034527
:100DB40002237B81BD7407F108013046FFF7ADFDC6
:100DC4002A461149062007F071F800240FE0414635
:100DD4003046FFF765FE024604460C49062007F03C
:100DE40065F804E06FF0150401E06FF01504204687
:100DF400BDE8F8836FF01504F9E700BFDC8C000848
:100E0400FC8C0008188D0008388D00084C8D0008F3
:100E1400284AD2F8303843F00103C2F83038264B60
:100E2400196821F47C411960196841F4284119605A
:100E3400596821F0E0015960996841F47C41996056
:100E4400D96821F47C41D960196AC1F3130119628C
:100E5400196A41F0AA4141F4A0011962D2F8443858
:100E640043F48053C2F84438D2F8243843F480530E
:100E7400C2F82438D2F8243823F48053C2F8243832
:100E84000E4B00221A601A6842F004021A601A68B3
:100E940042F002021A601A6842F001021A601A68EB
:100EA40042F440721A601A681A601A6842F04002EA
:100EB4001A607047003002400000024000300140D8
:100EC400044B1A6822F038021A601A6842EAC00217
:100ED4001A60704700300140074B9B6813F0020F03
:100EE400FAD0054BD860044B9B6813F0010FFAD07D
:100EF400014BD868C0B2704700300140F8B50E46C7
:100F0400154618B1074671B1002408E0F1B146B1A5
:100F1400002418E0385DFFF7DFFF30550134AC42A0
:100F2400F8DB2846F8BD0028F1D0002403E0385D42
:100F3400FFF7D2FF0134AC42F9DBF2E7FF20FFF701
:100F4400CBFF30550134AC42F8DBEAE74FF0FF3514
:100F5400E7E7000008B50349062006F0A7FF0020D4
:100F640008BD00BF648D000830B583B0FFF750FFA3
:100F7400174C184B009323464FF480720021084607
:100F840002F08EFF054602461349062006F08EFF46
:100F94002146002000F0A0F8044610F5805F0DD82B
:100FA4000B4B009300232A461946204600F0BCF858
:100FB40010F5805F07D8002003B030BD0749062034
:100FC40006F074FFECE70649062006F06FFFF2E72F
:100FD400748D0008140100207C8D0008948D000895
:100FE400B08D0008124B984213D8124B984212D875
:100FF400114B984211D2114B984210D8104B984281
:101004000FD8104B98420ED80F4B98420DD807209A
:10101400704700207047012070470220704703206A
:10102400704704207047052070470620704700BFB2
:101034007FDE80023F6F4001A037A000CF1B50002D
:10104400E70D2800F306140079030A0010B572B105
:101054001446012912D1D068FFF7C4FFC0B2FFF7CC
:101064002FFFA26861682068FFF748FF10BD05499B
:10107400062006F01BFF6FF01500F7E76FF0150070
:10108400F4E700BFCC8D00084FF0E02300221A6182
:101094000C4B1B6803B9FEE70B4AA2FB03239B0915
:1010A400013BB3F1807F01D36FF07F434FF0E02227
:1010B40053610023054981F82330936107231361A9
:1010C400704700BF000000201F85EB5100ED00E0D9
:1010D40008B506F073FF08BDF8B505460C460A4688
:1010E4001049062006F0E2FE4FF44C61082005F09A
:1010F40077F988B106462046FFF748F94FF44C616A
:10110400013005F06DF9074648B1214606F022FD8D
:10111400776035603046F8BD6FF00B06FAE76FF084
:101124000B06F7E7D88D00082DE9F041C2B006465A
:101134000F46154648AB53F8042B2193802122A86F
:1011440007F024F922AB174A802101A807F0E2FA3C
:1011540001AA1549062006F0A9FE48F2ED1101A8DE
:1011640003F0B3FC044610F5805F15D84FF44C61CE
:101174000C2005F035F9804680B1076046600021F7
:10118400284602F05BFD02462946A06C00F048FFA9
:10119400404642B0BDE8F0818046F9E76FF00B08A5
:1011A400F6E700BFF88D0008008E00080CB430B5D7
:1011B400B3B005460C46369A12B337AB01934021BF
:1011C40022A807F0E3F822AB104A802102A807F016
:1011D400A1FA02AA0E49062006F068FE48F2ED11B3
:1011E40002A803F072FC10F5805F04D82268294637
:1011F400806C00F02DFF33B0BDE8304002B0704782
:101204000C3122A806F0A6FCDDE700BFF88D00082B
:10121400288E000808B140687047704710B582B046
:101224000446436B984706238DF80730E36A01228E
:101234000DF1070120469847A36B2046984702B05A
:1012440010BD10B582B00446436B98474FF6057342
:10125400ADF80430FF238DF80530E36A022201A9BA
:1012640020469847236B022201A9204698479DF8FF
:10127400053013F0010FEDD1A36B2046984702B05F
:1012840010BD30B583B004460D03FFF7C7FF636B91
:101294002046984720238DF804302B0C8DF8053018
:1012A4002B0A8DF806308DF80750E36A04220DEB03
:1012B400020120469847A36B2046984703B030BDEF
:1012C400F0B583B004460E4615461F46FFF7B9FF36
:1012D4002046FFF7A3FF636B2046984702238DF84F
:1012E40004302B0C8DF805302B0A8DF806308DF860
:1012F4000750E36A04220DEB020120469847E36A93
:101304003A46314620469847A36B2046984703B097
:10131400F0BDF0B583B004460E4615461F46FFF7F0
:1013240090FF636B2046984703238DF804302B0C01
:101334008DF805302B0A8DF806308DF80750E36AD6
:1013440004220DEB020120469847236B3A463146AE
:1013540020469847A36B2046984703B0F0BD2DE97B
:10136400F8430746884691461D461946FFF789FF0C
:101374004E46B9F1000F03DB36122D0300240DE0B5
:1013840009F1FF06F8E74FF480732A4608EB0421BD
:101394003846FFF795FF05F580750134B442F2DB5A
:1013A4004846BDE8F88310B514461A46A3B2520263
:1013B400FFF7AFFF204610BD01230B7000204860EB
:1013C400034B1B689B6A5B0A4B704880704700BFE5
:1013D4002010002030B587B004469F238DF81730C5
:1013E4000025ADF814508DF81650436B9847E36A06
:1013F40001220DF1170120469847236B032205A90A
:1014040020469847A36B20469847A5629DF816206E
:10141400A2F11003DBB2152B02D801239340A3627F
:10142400A36A190D02919B0A019300929DF815304D
:101434009DF814200C49062006F038FD90230493EF
:10144400636B20469847E36A042204A92046984720
:10145400236B022204F1240120469847A36B204603
:101464009847002007B030BD508E000808B50249E7
:10147400062006F01BFD08BD9C8E000808B5034934
:10148400062006F013FD002008BD00BFBC8E000836
:1014940008B5002301220649806803F0A9F9002851
:1014A40000DB08BD0349062006F000FDF9E700BF94
:1014B400DC8E0008E08E000808B5002301220649EE
:1014C400806803F095F9002800DB08BD0349062075
:1014D40006F0ECFCF9E700BF688B0008F48E000806
:1014E40008B50023C3600161426100F10C020121CF
:1014F400406803F0C5F908BD08B5C1600023036165
:10150400426100F10C020121406803F0B9F908BD01
:1015140070B5B2F1FF3F2FD00646084615460022AB
:10152400022103F05DFB0446B06010F5805F94BFB8
:101534000024012494B92A461049062006F0B6FC7A
:101544002A464021B06803F09BF900280DDB0022F5
:101554000221B06803F094F9204670BD08490620C2
:1015640006F0A4FC4FF0FF34F6E70649062006F027
:101574009DFC4FF0FF34EFE70024EDE71C8F0008DB
:10158400088F0008348F000838B504461546002239
:1015940002210C4803F024FB606010F5805F09D839
:1015A400A561012363610023A3830822A27784F841
:1015B400233038BD0449062006F078FC4FF0FF3094
:1015C400F7E700BF4C8F0008088F000838B50446C1
:1015D4000D460649FFF79CFF2070054A2946204620
:1015E400FFF7D2FF2070002038BD00BF5C8F0008D9
:1015F40040420F0008B503F021FC08BD70B110B5DE
:101604000446826940F2D2439A4203D0204604F051
:10161400F1FE10BD406804F0EDFEF7E7704708B531
:10162400024658B100F11C0353E8001FA1F1010167
:1016340043E8001090F0000FF6D119B1D369002BE4
:1016440004DB08BD1046FFF7D9FFFAE70021104676
:10165400FFF7D4FFF5E70000002800F0BC802DE977
:10166400F04F85B0C3690193D0F820A00027D3467A
:10167400824699E04346019F3A465749062006F0C0
:1016840015FC3B464246314654480068FFF78BFE42
:1016940007462068FFF7C3FF0135DBF83C4005EB44
:1016A400450304EB8304BBF83430AB4276DDD4F855
:1016B40004802068FFF7AEFDA368C618DAF804308A
:1016C40013F00103D6D0002BE3D0019BDA0800927B
:1016D4001A4603F0070943464149062006F0E6FB93
:1016E400B9F1000F02D1B8F5805F4ED04FEA49231B
:1016F400029308EB49230393009B4FF4805239492A
:10170400096836480068FFF74EFE071E46DBC9F13C
:1017140008034FEA4329B8EB432F00D2C146314BAB
:101724001F684A46314602983844FEF7E3FD009BA1
:101734004FF48052394629480068FFF710FE071E0F
:101744002CDB039BB3F5805FA3DD009B0133009387
:101754004FF480522349096820480068FFF723FEAC
:10176400071E1BDB1F4B1F68A8EB090206EB0901D0
:101774003846FEF7BFFD009B4FF4805239461748A8
:101784000068FFF7ECFD074683E7009B42463146BD
:1017940012480068FFF7E3FD07467AE7DAF82030DD
:1017A400D3F800B0CAF820B0DAF820301BB1DBF867
:1017B4003C40002577E7002F07DB5146DAF80000AC
:1017C40004F0E0F805B0BDE8F08F5146DAF8000007
:1017D40004F0D8F8F6E77047688F0008201000205E
:1017E400888F00081C10002010B5044604F0E3F8AC
:1017F40004E0FFF731FF204604F0DDF80028F8D1BB
:1018040010BD08B504F030F908BD08B503F0B2FC0A
:1018140008BD000070B506460D464FF44C613C20EF
:1018240004F0DEFD044688B10B4BC3620B4B03632B
:101834000B4B43630B4B83632A463146FFF7C6FECB
:1018440020702046FFF7C6FD204670BD06490620DD
:1018540006F02CFBF8E700BFFD140008E5140008AF
:10186400BD14000895140008A88F00080023036025
:10187400704700230360704708B5FFF7F7FF08BD02
:1018840008B5FFF7F6FF08BD064B0B600020486063
:1018940001238B60C860086180234B617F238B61C7
:1018A400704700BF4E61BC0011B110B14165704773
:1018B400084670474B6D92889B685A6000207047B9
:1018C40008B502F088FD08BD08B50248FEF7DCFF44
:1018D400002008BD4490000808B50248FEF7D4FF74
:1018E400002008BD5890000808B50248FEF7CCFF58
:1018F400002008BD6C90000808B50248FEF7C4FF3C
:10190400002008BD8090000838B5044604F0B4FDFA
:1019140023682BB90125256004F0A8FD284638BDAD
:1019240004F0A4FD0020FAE738B5044606E004F00C
:101934008FFD206038BD052004F0C4FD2046FFF76C
:10194400E3FF0128F3D0256804F082FD8542F2D13B
:10195400F0E70000F8B50F4669B3054616464FF4A4
:101964004C613C2004F03CFD044610B3134B03606F
:1019740086600761856348F2ED1343600023C3600A
:101984002430FFF779FF04F114066661A66104F1BF
:101994001C03E36123622F1D3846FFF7C5FF05F1E1
:1019A4001802AB695E606361A261AE613846FFF7FD
:1019B40067FF2046F8BD0C46FBE700BF4E61BC0044
:1019C40010B5044658B1084602F0AEFC38B163685D
:1019D40003802369C367024B0361C0F8844010BDD0
:1019E4000802002038B54B685B6D002B31D01446DB
:1019F4009B688BB35A68A2809A681205E261A3615E
:101A0400DB68A36000220023C4E90C2306F0D0FAAB
:101A1400134D2B68B0FBF3F0E06306F0C9FA2B68B2
:101A2400B0FBF3F203FB1200A06304F1400204F1E3
:101A3400380393E8030082E8030004F1480293E8C2
:101A4400030082E803004FF48053E3600020A065A4
:101A540038BD6FF00100FBE76FF00100F8E700BF4D
:101A6400440A0020F8B5054620B30E46436803F443
:101A74007043B3F5804F1FD100F124073846FFF7B8
:101A840053FFEC690C3C04F10C0305F11C02934276
:101A94000BD031466068FEF799FC10B1E4680C3C49
:101AA400F1E73846FFF7ECFE07E03846FFF7E8FEBB
:101AB400002402E0044600E000242046F8BD70B58E
:101AC40006460D468969D0F88400FFF7CBFF04462B
:101AD40078B101462846FFF7E7FE60B17169A06856
:101AE400FFF76EFF044620B10146284602F004FBCE
:101AF4000446204670BD0446FBE7000010B50446CA
:101B040040B1002002F04CFC20B10463024B036797
:101B1400024B036110BD00BF8002002000030020BF
:101B240038B54FF44C61202004F05AFC044620B32D
:101B3400154B40F8043BFFF79FFE04F11803A36123
:101B4400E361002211492046FFF704FF0546B0B1C6
:101B540044F2ED13436060610C4B036100F10C032C
:101B640053E8002F02F1010243E8002191F0000F35
:101B7400F6D100F11C03C3610362204638BD204640
:101B840004F038FC2C46F8E74E61BC005C030020EE
:101B940018B108B504F02EFC08BD704761B338B520
:101BA4000D468B6893B1041D2046FFF7BDFEAB685C
:101BB4000C3353E8002FA2F1010243E8002191F015
:101BC400000FF6D14AB12046FFF75AFE686804F0C8
:101BD40011FC284604F00EFC38BDAB689A695969BB
:101BE4004A6011604FF480725A614FF491729A61A5
:101BF400A868FFF7CDFFE6E7704708B5416D8B682D
:101C0400986BFFF7CBFF08BD38B505460C46084670
:101C1400FFF7F3FF2146284602F0AEFA38BD70B54F
:101C2400054614460E4619B101F12400FFF77CFE67
:101C3400A268536803F47043B3F5804F13D023694B
:101C4400E26853601A604FF48073E3604FF4917359
:101C540023611EB106F12400FFF712FE2146284637
:101C6400FFF79CFF70BD02F11C01D3699942E6D0D5
:101C7400002EF7D006F12400FFF702FEF2E708B5C4
:101C8400D0F884304A6D1946986BFFF7C8FF0020DE
:101C940008BD00002DE9F0418046002847D00E46DB
:101CA4001546002A45D0002945D04FF44C61142034
:101CB40004F096FB044690B3204B0360002343607A
:101CC4002846FEF763FB4FF44C61013004F088FBB7
:101CD4000746606030B3294605F03CFFA66004F176
:101CE4000C05E560256106F10C0151E8003F03F1A4
:101CF400010341E8003292F0000FF6D108F1240606
:101D04003046FFF711FE08F11C02D8F81C305D6064
:101D1400E3602261C8F81C503046FFF7B1FD20464D
:101D2400BDE8F081204604F065FB3C46F7E7044635
:101D3400F5E71446F3E70C46F1E700BF4E61BC003B
:101D440070B506460C4611461A46FFF703FE0546D3
:101D5400E8B1049A01462046FFF79CFF044608B107
:101D6400204670BD04363046FFF7DEFDAB696A6974
:101D740053601A604FF480736B614FF49173AB61DD
:101D84003046FFF77DFD2846FFF702FFE8E70446EB
:101D9400E6E7000000B583B000920023054AFFF790
:101DA400CFFF18B1836844F2ED125A6003B05DF8B6
:101DB40004FB00BF5C0300202DE9F0410D461446EE
:101DC4009846104602F0D2F80646D5F884700146CB
:101DD4003846FFF747FE0146A8B18A68C8F30803EE
:101DE40043F4004353602046FFF75EFDB0B16969D8
:101DF4003846FFF7E5FD014698B1204602F07CF92C
:101E04000020BDE8F08132463946B86BFFF7C2FFC7
:101E140001460028E1D14FF0FF30F2E74FF0FF30E8
:101E2400EFE74FF0FF30ECE710B582B0049C00946C
:101E3400FFF786FF02B010BD2DE9F04383B00D46D5
:101E440014469946104602F091F80646D5F8847077
:101E540001463846FFF706FE8046C8B1D8F8082088
:101E6400C9F3080343F40043536041462046FFF797
:101E74001BFDD0B16969D8F80800FFF7A1FD014640
:101E8400B0B1204602F038F9002003B0BDE8F08379
:101E9400B86B00960A23084A3946FFF7C5FF804607
:101EA4000028DBD14FF0FF30EFE74FF0FF30ECE7D5
:101EB4004FF0FF30E9E700BF5C03002038B50D4662
:101EC4001446836C9269D3F88410D5F88400FFF724
:101ED400E1FE58B101462046FFF7E6FC6B69236535
:101EE400A16C204602F008F9002038BD6FF00B0009
:101EF400FBE780B108B5D0F8840058B18369426922
:101F040053601A604FF4807343614FF4917383619B
:101F140004F070FA08BD704738B50446006B0268D7
:101F24000B4B9A420ED10A220A49FFF713FD0546CC
:101F340058B12146FFF744FD044620B9284604F071
:101F440059FA00E00024204638BD0446FBE700BFF0
:101F54004E61BC005C03002050B110B504464069DA
:101F640018B1204604F046FA10BD04F043FAF8E72D
:101F740070470000F8B5FFF7D3FD002849D00646A6
:101F84002549002002F054F80446D8B14FF44C61BE
:101F9400142004F025FA0546D0B10021416073698C
:101FA40083601E4B036060658068FFF709FD074688
:101FB400A0B1A0643046FFF7A1FDD8B184612065CB
:101FC4002046F8BD3046FFF7C7FF6FF00B04F7E774
:101FD400204604F00FFA6FF00B04F1E7284604F0F2
:101FE40009FA3046FFF7B8FF204604F003FA6FF011
:101FF4000B04E5E7204604F0FDF9284604F0FAF95D
:10200400384602F0AFF93046FFF7A6FF6FF00B0435
:10201400D6E76FF00B04D3E7949000084E61BC0040
:1020240030B4D0F88430094C1D68A5420BD11A6134
:1020340099605968C1F3080141F400515960C267BD
:10204400002030BC70474FF0FF30FAE74E61BC000F
:1020540010B4D0F8843009481C6884420BD19A60CB
:1020640059635A68C2F3080242F4C0425A6000201D
:102074005DF8044B70474FF0FF30F9E74E61BC0048
:10208400D0F88420536803F47043B3F5C04F01D1F2
:10209400506B704700207047002303607047002393
:1020A4000360704708B5FFF7F7FF08BD08B5FFF7F1
:1020B400F6FF08BD064B0B600020486001238B60CF
:1020C400C860086180234B617F238B61704700BF28
:1020D4004E61BC0011B110B14165704708467047AC
:1020E4004B6D92889B685A600020704738B504464F
:1020F40004F0C2F923682BB90125256004F0B6F970
:10210400284638BD04F0B2F90020FAE738B5044691
:1021140006E004F09DF9206038BD052004F0D2F9F2
:102124002046FFF7E3FF0128F3D0256804F090F977
:102134008542F2D1F0E708B502F04DF908BD000080
:1021440008B50349062005F0B1FE002008BD00BF14
:10215400A490000810B5D0F88440A36B0BB1002004
:1021640010BD4FF44C6140F21C4004F039F9A063F7
:1021740008B10020F4E74FF0FF30F1E7F8B50F465F
:1021840071B3054616464FF44C613C2004F028F91F
:10219400044618B3134B036086600761456348F235
:1021A400ED1343600027C7602430FFF77BFF04F181
:1021B40014066661A66104F11C03E3612362A7634C
:1021C4002F1D3846FFF7A2FF05F11802AB695E60C8
:1021D4006361A261AE613846FFF768FF2046F8BD2F
:1021E4000C46FBE74E61BC0010B5044658B10846E6
:1021F40002F09AF838B1636803802369C367024B1D
:102204000361C0F8844010BD0804002038B54B6851
:102214005B6D002B31D014469B688BB35A68A28047
:102224009A681205E261A361DB68A36000220023BF
:10223400C4E90C2305F0BCFE134D2B68B0FBF3F08E
:10224400E06305F0B5FE2B68B0FBF3F203FB12006C
:10225400A06304F1400204F1380393E8030082E828
:10226400030004F1480293E8030082E803004FF4FA
:102274008053E3600020A06538BD6FF00100FBE7E8
:102284006FF00100F8E700BF440A0020F8B50546E6
:1022940020B30E46436803F47043B3F5804F1FD157
:1022A40000F124073846FFF731FFEC690C3C04F1D8
:1022B4000C0305F11C0293420BD031466068FEF713
:1022C40085F810B1E4680C3CF1E73846FFF7EEFE00
:1022D40007E03846FFF7EAFE002402E0044600E087
:1022E40000242046F8BD70B506460D468969D0F82D
:1022F4008400FFF7CBFF044678B101462846FFF778
:10230400E9FE60B17169A068FFF76EFF044620B171
:102314000146284601F0F0FE0446204670BD0446FE
:10232400FBE7000010B5044640B1002002F038F885
:1023340020B10463024B0367024B036110BD00BF6D
:10234400800400200005002038B54FF44C612020A3
:1023540004F046F8044620B3154B40F8043BFFF75D
:10236400A1FE04F11803A361E36100221149204690
:10237400FFF704FF0546B0B144F2ED13436060611A
:102384000C4B036100F10C0353E8002F02F101022E
:1023940043E8002191F0000FF6D100F11C03C36162
:1023A4000362204638BD204604F024F82C46F8E7A2
:1023B4004E61BC005C05002048B110B50446806B3A
:1023C40008B104F017F8204604F014F810BD704763
:1023D40061B338B50D468B6893B1041D2046FFF7F1
:1023E40095FEAB680C3353E8002FA2F1010243E8D9
:1023F400002191F0000FF6D14AB12046FFF756FEB6
:10240400686803F0F7FF284603F0F4FF38BDAB68B3
:102414009A6959694A6011604FF480725A614FF4A5
:1024240091729A61A868FFF7C7FFE6E7704708B59D
:10243400416D8B68586BFFF7CBFF08BD38B5054677
:102444000C460846FFF7F3FF2146284601F094FEA8
:1024540038BD70B5054614460E4619B101F1240085
:10246400FFF754FEA268536803F47043B3F5804F3A
:1024740013D02369E26853601A604FF48073E360F9
:102484004FF4917323611EB106F12400FFF70EFE91
:1024940021462846FFF79CFF70BD02F11C01D36959
:1024A4009942E6D0002EF7D006F12400FFF7FEFD96
:1024B400F2E708B5D0F884304A6D1946586BFFF737
:1024C400C8FF002008BD00002DE9F0418046002827
:1024D40047D00E461546002A45D0002945D04FF472
:1024E4004C61142003F07CFF044690B3204B03603E
:1024F400002343602846FDF749FF4FF44C61013047
:1025040003F06EFF0746606030B3294605F022FBF6
:10251400A66004F10C05E560256106F10C0151E8A3
:10252400003F03F1010341E8003292F0000FF6D1BD
:1025340008F124063046FFF7E9FD08F11C02D8F83B
:102544001C305D60E3602261C8F81C503046FFF720
:10255400ADFD2046BDE8F081204603F04BFF3C462C
:10256400F7E70446F5E71446F3E70C46F1E700BF46
:102574004E61BC0070B506460C4611461A46FFF77C
:10258400FDFD0546E8B1049A01462046FFF79CFF8D
:10259400044608B1204670BD04363046FFF7B6FD48
:1025A400AB696A6953601A604FF480736B614FF4CE
:1025B4009173AB613046FFF779FD2846FFF7FCFEC7
:1025C400E8E70446E6E7000000B583B00092002384
:1025D400054AFFF7CFFF18B1836844F2ED125A6041
:1025E40003B05DF804FB00BF5C0500202DE9F04159
:1025F4000D4614469846104601F0B8FC0646D5F838
:10260400847001463846FFF741FE0146A8B18A6846
:10261400C8F3080343F4004353602046FFF75AFD10
:10262400B0B169693846FFF7DFFD014698B120462D
:1026340001F062FD0020BDE8F08132463946786B36
:10264400FFF7C2FF01460028E1D14FF0FF30F2E767
:102654004FF0FF30EFE74FF0FF30ECE710B582B0FA
:10266400049C0094FFF786FF02B010BD2DE9F043EF
:1026740083B00D4614469946104601F077FC064691
:10268400D5F8847001463846FFF700FE8046C8B18D
:10269400D8F80820C9F3080343F4004353604146C3
:1026A4002046FFF717FDD0B16969D8F80800FFF795
:1026B4009BFD0146B0B1204601F01EFD002003B091
:1026C400BDE8F083786B00960A23084A3946FFF781
:1026D400C5FF80460028DBD14FF0FF30EFE74FF015
:1026E400FF30ECE74FF0FF30E9E700BF5C05002066
:1026F40038B50D461446836C9269D3F88410D5F826
:102704008400FFF7E1FE58B101462046FFF7E2FCE2
:102714006B692365A16C204601F0EEFC002038BDF6
:102724006FF00B00FBE780B108B5D0F8840058B116
:102734008369426953601A604FF4807343614FF4B4
:102744009173836103F056FE08BD704738B50446A3
:10275400006B02680B4B9A420ED10A220A49FFF71A
:102764000DFD054658B12146FFF73EFD044620B94C
:10277400284603F03FFE00E00024204638BD04460E
:10278400FBE700BF4E61BC005C05002050B110B5F2
:102794000446406918B1204603F02CFE10BD03F036
:1027A40029FEF8E770470000F8B5FFF7CDFD0028D3
:1027B40049D006462549002001F03AFC0446D8B128
:1027C4004FF44C61142003F00BFE0546D0B10021F8
:1027D4004160736983601E4B036060658068FFF726
:1027E40003FD0746A0B1A0643046FFF79BFDD8B1B6
:1027F400846120652046F8BD3046FFF7C7FF6FF0BF
:102804000B04F7E7204603F0F5FD6FF00B04F1E746
:10281400284603F0EFFD3046FFF7B8FF204603F0EB
:10282400E9FD6FF00B04E5E7204603F0E3FD2846DD
:1028340003F0E0FD384601F095FD3046FFF7A6FFB2
:102844006FF00B04D6E76FF00B04D3E79490000805
:102854004E61BC0070B504460D4600F20C4630468D
:10286400FFF754FCD4F80424D4F808349A4211D065
:10287400E35C2B70D4F808340133D4F80024B3FBA0
:10288400F2F102FB1133C4F808343046FFF70EFCB2
:10289400002070BD3046FFF709FC4FF0FF30F8E729
:1028A4002DE9F04106460D46904600270CE0012034
:1028B40003F008FEF36AD3F884302919986BFFF704
:1028C400C9FF0028F3DB01373C464745F2D300201B
:1028D400BDE8F08170B504460D4600F20C46304662
:1028E400FFF714FCD4F804144B1CD4F80024B3FBF5
:1028F400F2F002FB1033D4F80824934207D0655455
:10290400C4F804343046FFF7D1FB002070BD3046D4
:10291400FFF7CCFB4FF0FF30F8E72DE9F041064616
:102924000D46904600270CE0012003F0CBFDF36A2E
:10293400D3F88430295D986BFFF7CCFF0028F3DBD4
:1029440001373C464745F2D30020BDE8F08100231F
:102954000360704700230360704708B5FFF7F7FF73
:1029640008BD08B5FFF7F6FF08BD08B14068704719
:10297400704700207047002070470000064B0B6032
:102984000020486001238B60C860086180234B618C
:102994007F238B61704700BF4E61BC0011B110B141
:1029A40041657047084670474B6D92889B685A6032
:1029B4000020704708B50146202003F011FD0346AE
:1029C40020B1002202608261C2614260184608BDE3
:1029D40008B501F000FD08BD38B5044603F04CFD10
:1029E40023682BB90125256003F040FD284638BD36
:1029F40003F03CFD0020FAE738B5044606E003F096
:102A040027FD206038BD052003F05CFD2046FFF75C
:102A1400E3FF0128F3D0256803F01AFD8542F2D1C3
:102A2400F0E72DE9F04F87B0D0F828B0DBF8043098
:102A340003F47043B3F5804F45D10D460BF12403E5
:102A440005931846FFF7D8FFDBF81C400C3C002325
:102A5400194615E008212B680391CDF808800097EA
:102A6400019649462846984730B3AB68EA68013373
:102A740042F10002AB60EA60E4680C3C4346514614
:102A840004F10C020BF11C00824215D013F1010871
:102A940041F1000AAF68EE68BB42B141ECDBD4F807
:102AA40004904846FDF772FC0246A3685B6813F481
:102AB400804FCFD00421CEE70598FFF752FF0020C6
:102AC40007B0BDE8F08F6FF01300F9E7F8B50F46D3
:102AD400002931D0054616464FF44C61482003F0D6
:102AE4007FFC044630B3154B036086600761C56301
:102AF40048F2ED13436000230364C3602430FFF7FE
:102B04002CFF04F114066661A66104F11C03E36161
:102B14002362012384F834302F1D3846FFF76CFFFD
:102B240005F11802AB695E606361A261AE6138466B
:102B3400FFF717FF2046F8BD0C46FBE74E61BC00CB
:102B44002DE9F04114461D46C36AD3F88420106C65
:102B540020B388462F686B68391943F10003526C1F
:102B64008A424FF000029A4112DBFFF7FEFE014653
:102B7400B0B1224639444046FDF7BCFB2A686B6875
:102B8400A61843F100032E606B602046BDE8F08177
:102B94000549062005F08AF90020F7E70020F5E74B
:102BA4006FF00B00F2E700BFC090000810B50446B8
:102BB40078B1084601F0B8FB58B163680380236913
:102BC400C367044B0361C0F88440636C0362002351
:102BD400436210BD0806002038B54B685B6D002BBE
:102BE40031D014469B688BB35A68A2809A68120548
:102BF400E261A361DB68A36000220023C4E90C2323
:102C040005F0D6F9134D2B68B0FBF3F0E06305F043
:102C1400CFF92B68B0FBF3F203FB1200A06304F1BD
:102C2400400204F1380393E8030082E8030004F14E
:102C3400480293E8030082E803004FF48053E36002
:102C44000020A06538BD6FF00100FBE76FF00100C4
:102C5400F8E700BF440A0020F8B5054620B30E4645
:102C6400436803F47043B3F5804F1FD100F1240788
:102C74003846FFF7C1FEEC690C3C04F10C0305F186
:102C84001C0293420BD031466068FDF79FFB10B1E4
:102C9400E4680C3CF1E73846FFF763FE07E038468A
:102CA400FFF75FFE002402E0044600E00024204613
:102CB400F8BD70B506460D468969D0F88400FFF763
:102CC400CBFF044678B101462846FFF767FE60B1A2
:102CD4007169A068FFF76AFF044620B101462846DF
:102CE40001F00AFA0446204670BD0446FBE70000E2
:102CF40010B5044640B1002001F052FB20B104633A
:102D0400024B0367024B036110BD00BF8006002025
:102D14000007002038B54FF44C61202003F060FB1D
:102D2400044620B3154B40F8043BFFF716FE04F1AC
:102D34001803A361E361002211492046FFF7C6FE90
:102D44000546B0B144F2ED13436060610C4B03617E
:102D540000F10C0353E8002F02F1010243E80021C3
:102D640091F0000FF6D100F11C03C3610362204609
:102D740038BD204603F03EFB2C46F8E74E61BC000C
:102D84005C07002038B50446FFF714FE90B10546F1
:102D940021464FF4805003F023FB28B140F2D24285
:102DA400AA616860284638BD284603F023FB6FF00B
:102DB4000B05F7E76FF00B05F4E72DE9F8438846B8
:102DC40014461D46C36AD3F88470002387F8343050
:102DD4003B6C6BB12E686B68311943F1000341F20F
:102DE4000102914273F1000325DB0020BDE8F88362
:102DF400064600214FF44C60FFF7C4FF386410F519
:102E0400805F13D84FF480537B64F26AA2F8403099
:102E14003B6C002BDED01C3353E8002F02F101027F
:102E240043E8002191F0000FF6D1D3E700233B647F
:102E34006FF00B00DAE7386CFFF797FD2246414646
:102E44003044FDF757FA2B686A68E31842F1000230
:102E54002B606A602046C9E770B110B504468269E8
:102E640040F2D2439A4203D0204603F0C3FA10BD85
:102E7400406803F0BFFAF7E7704708B5024658B157
:102E840000F11C0353E8001FA1F1010143E8001005
:102E940090F0000FF6D119B1D369002B04DB08BD03
:102EA4001046FFF7D9FFFAE700211046FFF7D4FFD9
:102EB400F5E748B110B50446006C08B1FFF7DDFF33
:102EC400204603F097FA10BD704761B338B50D463C
:102ED4008B6893B1041D2046FFF78EFDAB680C335D
:102EE40053E8002FA2F1010243E8002191F0000F02
:102EF400F6D14AB12046FFF734FD686803F07AFA48
:102F0400284603F077FA38BDAB689A6959694A6074
:102F140011604FF480725A614FF491729A61A868FB
:102F2400FFF7C7FFE6E7704708B5416D8B68D86BBC
:102F3400FFF7CBFF08BD38B505460C460846FFF73A
:102F4400F3FF2146284601F017F938BD70B5054650
:102F540014460E4619B101F12400FFF74DFDA26895
:102F6400536803F47043B3F5804F13D02369E268C8
:102F740053601A604FF48073E3604FF491732361DC
:102F84001EB106F12400FFF7ECFC21462846FFF7AA
:102F94009CFF70BD02F11C01D3699942E6D0002E5A
:102FA400F7D006F12400FFF7DCFCF2E708B5D0F80F
:102FB40084304A6D1946D86BFFF7C8FF002008BD5E
:102FC4002DE9F0418046002847D00E461546002AD8
:102FD40045D0002945D04FF44C61142003F000FA89
:102FE400044690B3204B0360002343602846FDF75A
:102FF400CDF94FF44C61013003F0F2F907466060FB
:1030040030B3294604F0A6FDA66004F10C05E56082
:10301400256106F10C0151E8003F03F1010341E889
:10302400003292F0000FF6D108F124063046FFF783
:10303400E3FC08F11C02D8F81C305D60E3602261F7
:10304400C8F81C503046FFF78CFC2046BDE8F081E0
:10305400204603F0CFF93C46F7E70446F5E714466B
:10306400F3E70C46F1E700BF4E61BC0070B50646BD
:103074000C4611461A46FFF729FD0546E8B1049AA5
:1030840001462046FFF79CFF044608B1204670BD68
:1030940004363046FFF7B0FCAB696A6953601A60C6
:1030A4004FF480736B614FF49173AB613046FFF75B
:1030B40058FC2846FFF7FDFEE8E70446E6E7000073
:1030C40000B583B000920023054AFFF7CFFF18B183
:1030D400836844F2ED125A6003B05DF804FB00BF4C
:1030E4005C0700202DE9F0410D4614469846104631
:1030F40000F03CFF0646D5F8847001463846FFF7D9
:10310400ABFD0146A8B18A68C8F3080343F4004341
:1031140053602046FFF742FCB0B169693846FFF7B7
:1031240045FD014698B1204600F0E6FF0020BDE8C9
:10313400F08132463946F86BFFF7C2FF014600289A
:10314400E1D14FF0FF30F2E74FF0FF30EFE74FF0FF
:10315400FF30ECE710B582B0049C0094FFF786FFC3
:1031640002B010BD2DE9F04383B00D4614469946D4
:10317400104600F0FBFE0646D5F884800146404622
:10318400FFF76AFD0746A0B1BB68C3F8049039464F
:103194002046FFF703FCD0B16969B868FFF706FD64
:1031A4000146B8B1204600F0A7FF002003B0BDE8F7
:1031B400F083D8F83C0000960A23084A4146FFF7FA
:1031C400C9FF07460028DFD14FF0FF30EEE74FF08C
:1031D400FF30EBE74FF0FF30E8E700BF5C0700206B
:1031E40038B50D461446836C9269D3F88410D5F82B
:1031F4008400FFF7E5FE58B101462046FFF7CEFBF9
:103204006B692365A16C204600F076FF002038BD71
:103214006FF00B00FBE780B108B5D0F8840058B11B
:103224008369426953601A604FF4807343614FF4B9
:103234009173836103F0DEF808BD704738B5044626
:10324400006B02680B4B9A420ED10A220A49FFF71F
:103254003DFC054658B12146FFF7A8FC044620B9B9
:10326400284603F0C7F800E00024204638BD044691
:10327400FBE700BF4E61BC005C07002050B110B5F5
:103284000446406918B1204603F0B4F810BD03F0B9
:10329400B1F8F8E770470000F8B5FFF73BFD0028E8
:1032A40049D006462549002000F0C2FE0446D8B1A4
:1032B4004FF44C61142003F093F80546D0B100217B
:1032C4004160736983601E4B036060658068FFF72B
:1032D4006DFC0746A0B1A0643046FFF709FDD8B1E4
:1032E400846120652046F8BD3046FFF7C7FF6FF0C4
:1032F4000B04F7E7204603F07DF86FF00B04F1E7C9
:10330400284603F077F83046FFF7B8FF204603F06D
:1033140071F86FF00B04E5E7204603F06BF82846DC
:1033240003F068F8384601F01DF83046FFF7A6FFB1
:103334006FF00B04D6E76FF00B04D3E7949000080A
:103344004E61BC0070B50D46D0F884301B6C2BB1B7
:103354000A681449062004F0A9FD70BD04468E686D
:103364004FF44C60FFF726FB0246C0B1466002F101
:103374001C0353E8001F01F1010143E8001090F021
:10338400000FF6D1D4F884301A646A685A640022B3
:1033940083F834206B68DA1723626262DDE76FF02A
:1033A4000B02E4E7D4900008002303607047002375
:1033B4000360704708B5FFF7F7FF08BD08B5FFF7CE
:1033C400F6FF08BD064B0B600020486001238B60AC
:1033D400C860086180234B617F238B61704700BF05
:1033E4004E61BC0011B110B1416570470846704789
:1033F4004B6D92889B685A600020704708B500F0B6
:10340400EAFF08BD08B50248FDF73EFA002008BDF2
:103414000891000808B50248FDF736FA002008BDF7
:103424001C91000808B50248FDF72EFA002008BDDB
:103434003091000808B50248FDF726FA002008BDBF
:103444004491000838B5044603F016F823682BB9F4
:103454000125256003F00AF8284638BD03F006F874
:103464000020FAE738B5044606E002F0F1FF2060D8
:1034740038BD052003F026F82046FFF7E3FF0128B6
:10348400F3D0256802F0E4FF8542F2D1F0E70000B2
:10349400F8B50F4669B3054616464FF44C61402013
:1034A40002F09EFF044610B3134B0360866007616D
:1034B400856348F2ED1343600023C3602430FFF7B3
:1034C40079FF04F114066661A66104F11C03E3614B
:1034D40023622F1D3846FFF7C5FF05F11802AB69BB
:1034E4005E606361A261AE613846FFF767FF204604
:1034F400F8BD0C46FBE700BF4E61BC0010B50446A6
:1035040058B1084600F010FF38B16368038023699E
:10351400C367024B0361C0F8844010BD0808002053
:1035240038B54B685B6D002B31D014469B688BB368
:103534005A68A2809A681205E261A361DB68A360FD
:1035440000220023C4E90C2304F032FD134D2B6840
:10355400B0FBF3F0E06304F02BFD2B68B0FBF3F257
:1035640003FB1200A06304F1400204F1380393E862
:10357400030082E8030004F1480293E8030082E8B0
:1035840003004FF48053E3600020A06538BD6FF062
:103594000100FBE76FF00100F8E700BF440A0020D8
:1035A400F8B5054620B30E46436803F47043B3F5FB
:1035B400804F1FD100F124073846FFF753FFEC6911
:1035C4000C3C04F10C0305F11C0293420BD0314670
:1035D4006068FCF7FBFE10B1E4680C3CF1E7384688
:1035E400FFF7ECFE07E03846FFF7E8FE002402E0B0
:1035F400044600E000242046F8BD70B506460D469A
:103604008969D0F88400FFF7CBFF044678B10146FE
:103614002846FFF7E7FE60B17169A068FFF76EFF07
:10362400044620B10146284600F066FD04462046C3
:1036340070BD0446FBE7000010B5044640B100200D
:1036440000F0AEFE20B10463024B0367024B03613A
:1036540010BD00BF800800200009002038B54FF4D9
:103664004C61202002F0BCFE044620B3154B40F808
:10367400043BFFF79FFE04F11803A361E3610022FA
:1036840011492046FFF704FF0546B0B144F2ED139B
:10369400436060610C4B036100F10C0353E8002F9D
:1036A40002F1010243E8002191F0000FF6D100F18C
:1036B4001C03C3610362204638BD204602F09AFE13
:1036C4002C46F8E74E61BC005C09002018B108B52F
:1036D40002F090FE08BD704761B338B50D468B68A3
:1036E40093B1041D2046FFF7BDFEAB680C3353E8CD
:1036F400002FA2F1010243E8002191F0000FF6D15E
:103704004AB12046FFF75AFE686802F073FE284665
:1037140002F070FE38BDAB689A6959694A6011605D
:103724004FF480725A614FF491729A61A868FFF75E
:10373400CDFFE6E7704708B5416D8B68986BFFF7DE
:10374400CBFF08BD38B505460C460846FFF7F3FF26
:103754002146284600F010FD38BD70B505461446D4
:103764000E4619B101F12400FFF77CFEA2685368EC
:1037740003F47043B3F5804F13D02369E2685360B8
:103784001A604FF48073E3604FF4917323611EB1A8
:1037940006F12400FFF712FE21462846FFF79CFF9E
:1037A40070BD02F11C01D3699942E6D0002EF7D016
:1037B40006F12400FFF702FEF2E708B5D0F88430E2
:1037C4004A6D1946986BFFF7C8FF002008BD00003A
:1037D4002DE9F0418046002847D00E461546002AC0
:1037E40045D0002945D04FF44C61142002F0F8FD77
:1037F400044690B3204B0360002343602846FCF743
:10380400C5FD4FF44C61013002F0EAFD07466060EB
:1038140030B3294604F09EF9A66004F10C05E56076
:10382400256106F10C0151E8003F03F1010341E871
:10383400003292F0000FF6D108F124063046FFF76B
:1038440011FE08F11C02D8F81C305D60E3602261AF
:10385400C8F81C503046FFF7B1FD2046BDE8F081A2
:10386400204602F0C7FD3C46F7E70446F5E7144658
:10387400F3E70C46F1E700BF4E61BC0070B50646A5
:103884000C4611461A46FFF703FE0546E8B1049AB2
:1038940001462046FFF79CFF044608B1204670BD50
:1038A40004363046FFF7DEFDAB696A6953601A607F
:1038B4004FF480736B614FF49173AB613046FFF743
:1038C4007DFD2846FFF702FFE8E70446E6E700002F
:1038D40000B583B000920023054AFFF7CFFF18B16B
:1038E400836844F2ED125A6003B05DF804FB00BF34
:1038F4005C0900202DE9F0410D4614469846104617
:1039040000F034FB0646D5F8847001463846FFF7CC
:1039140047FE0146A8B18A68C8F3080343F400438C
:1039240053602046FFF75EFDB0B169693846FFF782
:10393400E5FD014698B1204600F0DEFB0020BDE81D
:10394400F08132463946B86BFFF7C2FF01460028C2
:10395400E1D14FF0FF30F2E74FF0FF30EFE74FF0E7
:10396400FF30ECE710B582B0049C0094FFF786FFAB
:1039740002B010BD2DE9F04383B00D4614469946BC
:10398400104600F0F3FA0646D5F88470014638462E
:10399400FFF706FE8046C8B1D8F80820C9F308032B
:1039A40043F40043536041462046FFF71BFDD0B16A
:1039B4006969D8F80800FFF7A1FD0146B0B12046B7
:1039C40000F09AFB002003B0BDE8F083B86B0096CA
:1039D4000A23084A3946FFF7C5FF80460028DBD191
:1039E4004FF0FF30EFE74FF0FF30ECE74FF0FF30E0
:1039F400E9E700BF5C09002038B50D461446836C26
:103A04009269D3F88410D5F88400FFF7E1FE58B129
:103A140001462046FFF7E6FC6B692365A16C20464E
:103A240000F06AFB002038BD6FF00B00FBE780B1AB
:103A340008B5D0F8840058B18369426953601A60AC
:103A44004FF4807343614FF49173836102F0D2FCAD
:103A540008BD704738B50446006B02680B4B9A42A8
:103A64000ED10A220A49FFF713FD054658B1214633
:103A7400FFF744FD044620B9284602F0BBFC00E0F1
:103A84000024204638BD0446FBE700BF4E61BC005D
:103A94005C09002050B110B50446406918B12046B5
:103AA40002F0A8FC10BD02F0A5FCF8E77047000086
:103AB400F8B5FFF7D3FD002849D006462549002074
:103AC40000F0B6FA0446D8B14FF44C61142002F069
:103AD40087FC0546D0B100214160736983601E4BA9
:103AE400036060658068FFF709FD0746A0B1A06424
:103AF4003046FFF7A1FDD8B1846120652046F8BDAA
:103B04003046FFF7C7FF6FF00B04F7E7204602F0DB
:103B140071FC6FF00B04F1E7284602F06BFC3046B1
:103B2400FFF7B8FF204602F065FC6FF00B04E5E7F1
:103B3400204602F05FFC284602F05CFC384600F0A8
:103B440011FC3046FFF7A6FF6FF00B04D6E76FF0C9
:103B54000B04D3E7949000084E61BC0010B400231A
:103B640001E0C4540133934202D2CC5C002CF8D15E
:103B74000024C454934201D0CA5C1AB918465DF8B3
:103B8400044B70474FF0FF30F9E7000040F2FF109C
:103B9400B0F5C07F16DB01460C4BA3FB0023C21A11
:103BA40003EB52039B09C3EBC313C31A084A52F82D
:103BB400233023B15A68914202D01B68F9E7704759
:103BC4000138E5E76FF00F00704700BF11080402E9
:103BD4002410002084461548A0FB0C30ACEB0003F5
:103BE40000EB53008009C0EBC010ACEB0000104B9D
:103BF40003EB8003186898B110B402E00346006830
:103C040040B144686445F9D184688C42F6D1C468F3
:103C14009442F3D108B102681A605DF8044B70470E
:103C240010B102681A607047704700BF110804029F
:103C34002410002001614261002070470246154BA8
:103C4400A3FB0203D01A03EB50039B09C3EBC3137A
:103C5400D31A114850F8230005E0036D58685DF845
:103C6400044B70470068A0B143689342FAD183685B
:103C74008B42F7D810B4C46823448B42EDD8006853
:103C84000028ECD043689342F9D183688B42F6D87C
:103C9400F1E77047110804022410002038B50546E6
:103CA40002F09EFB04462A460021FCF7A5FB2046B1
:103CB40038BD08B54FF44C611820FFF7EFFF0346F9
:103CC40018B100F108028260C260184608BD0023E2
:103CD400036043608360C3600361436100F10803D0
:103CE4008360C360416070472DE9F04F85B004469E
:103CF4009946B0F5007F1ED20F461646C1F58013D3
:103D0400934224D34FF44C615420FFF7C7FF8046FD
:103D1400002871D074B33A4DA5FB0435631B05EB41
:103D24005305AD09C5EBC515651B364B53F825A0E6
:103D34004FF0000B32E040F2FF13009303464A4673
:103D44003149032004F0B2F86FF015080EE00E4478
:103D54002E4B029300230193013E00960B464A46E4
:103D64002B49032004F0A2F86FF01508404605B073
:103D7400BDE8F08FFFF70AFF041ECCDA4A46254956
:103D8400032004F093F801E06FF00F04404602F0C2
:103D940031FBA046EAE7D346DAF800A0BAF1000FF7
:103DA4000ED0DAF80430A342F5D309D8DAF80820A3
:103DB400DAF80C301344BB42EDD9F3199A42E3D339
:103DC400C8F80440C8F80870C8F80C604022494696
:103DD40008F11000FFF7C2FEBBF1000F06D0DBF8BC
:103DE4000030C8F80030CBF80080BFE7C8F800A066
:103DF400044B43F82580B9E76FF00B08B6E700BF22
:103E0400110804022410002060910008FFFF0F0035
:103E1400A49100080C92000810B504460020FFF796
:103E240063FF034610F5805F94BF0020012028B98A
:103E34005A689B6843EA0253236010BD1846FCE7A6
:103E44002DE9F8430546914600EB010804460AE0D3
:103E54004B463A1BC4F31301FFF746FF064610F521
:103E6400805F18D83C46444507D2200D461C3705D0
:103E7400B8EB065FECD24746EAE700200EE0280DD7
:103E8400421C1705C5EB0252C5F31301FFF7A2FE4E
:103E940002F0B0FA3D46AC42F1D83046BDE8F883B2
:103EA4002DE9F84380460E461746089DFFF71CFF90
:103EB400044610F5805F15D8FFF7FBFE814698B1E4
:103EC4002B680360456061683A4646EA0151FFF792
:103ED400B1FE054650B9C4F85090B8F1000F0CD1AA
:103EE40065680AE0054608E06FF00B053A4631467E
:103EF4006068FFF76FFE02F07DFA2846BDE8F8839C
:103F040038B50346451807E0E21AC3F31301FFF777
:103F140061FE02F06FFA2346AB4207D2180D421C31
:103F24001405B5EB025FEFD22C46EDE738BD08B5BA
:103F340002F060FA08BD10B5FFF74CFE044618B154
:103F4400006D08B1FFF7F3FF204602F053FA10BDED
:103F540000230360704700230360704708B5FFF730
:103F6400F7FF08BD08B5FFF7F6FF08BD08B1806983
:103F74007047704700F108020B68836033B110B4D6
:103F84005A600A60C1605DF8044B70470A60C16002
:103F9400704778B32DE9F0410C46054669B30846ED
:103FA400FCF7F4F906464FF44C6102F019FA07469F
:103FB40030B3214603F0CEFDA86905F11C08404545
:103FC4000AD048B118B1404501D002F013FA6E612D
:103FD400AF610020BDE8F0812A2EF3DC384602F000
:103FE40009FAC5F818802146404603F0B3FD6E6116
:103FF4000020EFE74FF0FF3070474FF0FF30E9E764
:104004006FF00B00E6E710B504464268936E013B7F
:10401400936600F11C038069834205D002F0EAF93B
:10402400204602F0E7F910BD204602F0E3F9FAE772
:1040340070B506460D464FF44C617C2002F0D0F971
:10404400D8B104467C220021FCF7D6F92946204643
:10405400FFF79FFF00280ADB00232360A360E360CF
:1040640004F16C00FFF77AFF2665204670BD2046F8
:1040740002F0C0F96FF00B04F7E76FF00B04F4E7FC
:1040840038B5044602F0F8F923682BB901252560F8
:1040940002F0ECF9284638BD02F0E8F90020FAE70E
:1040A40038B5044606E002F0D3F9206038BD052097
:1040B40002F008FA2046FFF7E3FF0128F3D0256851
:1040C40002F0C6F98542F2D1F0E770B50446006DFE
:1040D400FFF7AEFF054668B104F16C063046FFF702
:1040E400DFFFA36E0133A3666C60236D2B6530463E
:1040F400FFF738FF284670BD38B504460D464368BF
:10410400986C5830FFF7CCFFA5646B692365616830
:104114002046FFF72FFF6368986C5830FFF722FFA3
:10412400204638BD40B110B50446483000F01AF9B5
:104134002046FFF768FF10BD704738B50D46046888
:1041440014B1083C00E0083C44B12946A069FCF7DE
:104154003DF918B1A468002CF5D1F5E7204638BD27
:104164008368C268136003B15A604FF4807383603C
:104174004FF49173C3607047C1B138B504460D461E
:104184000B49062003F092FE1CB104F15800FFF71E
:1041940087FF2846FFF7E4FF2846FFF7C3FF1CB15B
:1041A40004F15800FFF7DEFE002038BD704700BF61
:1041B400E8920008074A01E003F11C0213682BB1DE
:1041C4008342F9D1C3691360002070476FF0150072
:1041D400704700BF20120020D0B138B505460268F0
:1041E4000D49062003F062FE0C4C00E01C342468E8
:1041F40044B129682068FCF7E9F80028F6D16FF08B
:10420400100004E0054B1A68EA611D60002038BD07
:104214004FF0FF30704700BF689300082012002061
:1042240038B50546064B1C6800E0E4692CB1294604
:104234002068FCF7CBF80028F7D1204638BD00BF32
:10424400201200200023036070470023036070479E
:1042540008B5FFF7F7FF08BD08B5FFF7F6FF08BD7F
:1042640038B5044602F008F923682BB90125256006
:1042740002F0FCF8284638BD02F0F8F80020FAE70E
:1042840038B5044606E002F0E3F8206038BD0520A6
:1042940002F018F92046FFF7E3FF0128F3D0256860
:1042A40002F0D6F88542F2D1F0E7F8B50546866CFF
:1042B40006F158073846FFF7E3FF4FF44C617020CE
:1042C40002F08EF8B0B10446304600F022F83846C9
:1042D400FFF7C2FF702200212046FCF78DF804F19D
:1042E4005C00FFF7B5FFF36F6362E662AB69A3633B
:1042F4002046F8BD3846FFF7AFFF6FF00B04F7E731
:1043040010B50446C06A00F02DF8204602F072F899
:1043140010BD783050E8003F03F1010340E800325B
:1043240092F0000FF6D1704738B505464FF44C6152
:10433400882002F055F8044658B188220021FCF781
:104344005BF842F2FF13238003F032FE6561012320
:10435400A367204638BD18B108B502F04BF808BD74
:1043640070470000C0B110B5044600F1780353E86B
:10437400002FA2F1010243E8002191F0000FF6D1D1
:1043840012B1836F002B06DA0449062003F08EFD78
:104394002046FFF7E0FF10BD704700BFD093000830
:1043A40038B505464FF44C61782002F019F878B11D
:1043B400044678220021FCF71FF824606460E5615C
:1043C40004F12803A362E3624FF40073E36038BD91
:1043D4006FF00B00FBE718B108B502F00BF808BD4D
:1043E400704700230360704708B5FFF7FAFF08BD64
:1043F40038B5044602F040F823682BB9012525603E
:1044040002F034F8284638BD02F030F80020FAE70C
:1044140038B5044606E002F01BF8206038BD0520DC
:1044240002F050F82046FFF7E3FF0128F3D0256897
:1044340002F00EF88542F2D1F0E7000070B50446B0
:10444400204B1B605B60FFF7EBFE00282FD0054676
:10445400066900231A461946B047036D13F5805FB9
:1044640094BF002501252DBB33B39A693AB316498D
:10447400086858630A7983F8382003F12800114A40
:10448400166870609E62DA6210609A690F48026072
:104494001365936C44F2ED121A800068FFF779FDFE
:1044A40022460B49062003F001FD284670BD4FF05B
:1044B400FF35FAE70025F8E74FF0FF35F5E74FF051
:1044C400FF35F2E724120020949000082C120020FB
:1044D4002C9400082DE9F04F83B005460F4616468C
:1044E4001046FFF79DFE002843D081460021384640
:1044F40000F0A0FA044610F5805F94BF4FF0000866
:104504004FF00108B8F1000F36D1836C1B8803F417
:104514007043B3F5804F32D100F16C0A5046FFF777
:1045240077FFD9F810B00C9B2A4600214846D8479B
:10453400036D13F5805F94BF4FF000094FF001093C
:10454400B9F1000F1ED1FBB123659B699B6CA36479
:104554005046FFF749FF55B1009733462A460C49A8
:10456400062003F0A3FC484603B0BDE8F08F094DD4
:10457400F2E76FF01209F6E76FF00109F3E76FF065
:104584001309F0E7C146EEE76FF00B09EBE700BF54
:10459400449400084094000800230360704708B561
:1045A400FFF7FAFF08BD10B44FF0000C634602E0B9
:1045B400944507D00133C45C74B12F2CF8D10CF1AD
:1045C400010CF5E701330022D418045D4CB18C547E
:1045D4002F2C06D00132F7E74FF0FF305DF8044B83
:1045E400704700208854F9E784460020034600E021
:1045F400013319461CF803203AB12F2AF8D161443B
:104604004A78002AF4D00130F2E7704738B50446FE
:104614000D46FFF792FD00B138BD29462046FFF74D
:1046240054FD054678B1A06C03691B680022294635
:10463400984710B110F5805FEED92846FFF7E3FCE8
:104644006FF00100E8E76FF00B00E5E770B582B0AA
:1046540005460C4616460022FFF7D8FF10F5805F8A
:1046640009D822461A49062003F020FC6FF01004F2
:10467400204602B070BD21462846FFF726FD0446B9
:1046840018B3A96C0A6955696DB106F47043B3F5A2
:10469400004F0DD0B3F5804F11D1556A3346024611
:1046A4000020A84709E0FFF7AEFC6FF01D04DFE728
:1046B4000020009033462246A8470028D8DA204636
:1046C400FFF7A1FC6FF00B04D2E76FF00B04CFE708
:1046D4006094000808B50249062003F0E7FB08BD12
:1046E4007C94000818B310B50446036D9B6983429B
:1046F40016D0826C138803F47043B3F5005F19D0AD
:10470400B3F5C04F19D01369DB6942680146906C58
:10471400984763682146986CFFF72EFD002010BD72
:104724000749042003F0C2FB4FF0FF30F7E74FF0D6
:10473400FF3070474FF0FF30F1E74FF0FF30EEE706
:10474400A494000838B5044601F096FE23682BB9FA
:104754000125256001F08AFE284638BD01F086FE59
:104764000020FAE738B5044606E001F071FE206047
:1047740038BD052001F0A6FE2046FFF7E3FF01281F
:10478400F3D0256801F064FE8542F2D1F0E72DE90B
:10479400F84350B3884617461D46044600F15C06AC
:1047A4003046FFF7DFFF636AE3B1E06A5830FFF792
:1047B400D9FF636AD3F80C90B9F1000F0FD02B46E0
:1047C4003A4641462046C8470546E06A5830FFF756
:1047D400E6FE3046FFF7E3FE2846BDE8F8836FF0B7
:1047E4000805F2E76FF00805F3E74FF0FF35F3E74C
:1047F4002DE9F84300283ED0884617461D46044656
:10480400036B13F0030F2ED000F15C063046FFF764
:10481400A9FF636A63B3E06A5830FFF7A3FF636AD2
:10482400D3F810902B463A4641462046C8470546E1
:1048340003F0BEFBE26A114F3B68B0FBF3F3D362B3
:1048440003F0B6FBE26A3B68B0FBF3F103FB110330
:104854009363E06A5830FFF7A2FE3046FFF79FFEED
:104864002846BDE8F883FFF735FF6FF00805F7E742
:104874006FF00805F1E74FF0FF35F1E7440A002037
:10488400F8B568B30F4615460446036B13F0030FDF
:104894001BD000F15C063046FFF764FF636AE3B1A6
:1048A400E06A5830FFF75EFF636A9B6A93B12A4659
:1048B4003946204698470546E06A5830FFF76FFEB0
:1048C4003046FFF76CFE2846F8BDFFF703FF6FF094
:1048D4000805F8E76FF00805EEE76FF00805EFE765
:1048E4004FF0FF35EFE7F0B138B5044600F15C0551
:1048F4002846FFF737FF636A6BB1E06A5830FFF769
:1049040031FF636ADB6B13B12146E06A9847E06AC2
:104914005830FFF744FE2846FFF741FE2046FFF7D4
:10492400EFFC002038BD4FF0FF3070472DE9F04117
:10493400C0B02C4B1F6803782F2B48D18846451CE8
:1049440008E0A36C1B8803F47043B3F5804F46D191
:10495400751C27462F212846FBF744FD064620B345
:10496400741BFE2C38D822462946684603F0FCF80E
:1049740000220DF8042069463846FFF747FE044636
:1049840010F5805FDDD944F2ED1269463846FFF731
:104994005DFE044610F5805FD3D903466A4612498A
:1049A400032003F083FA274612E02B7883B14246B2
:1049B40029463846FFF74AFE074610F5805F07D9B7
:1049C40003462A460949032003F070FA00E0002751
:1049D400384640B0BDE8F0816FF03E07F8E76FF06D
:1049E4001307F5E72C120020C0940008E89400088F
:1049F40010B5044648F2ED110068FFF797FF28B19F
:104A04002146806CFEF79EFC002010BD4FF0FF3065
:104A1400FBE7000010B5054C03E02046FFF7E8FF74
:104A24001034034B9C42F8D110BD00BF00DE0008D7
:104A340050DE00082DE9F041A0B0074638B30E4619
:104A440003782F2B1AD03846FFF7CEFD8046114B42
:104A54001C680125A8EB0603AB4214DB2A46694611
:104A64003846FFF7A0FD002269462046FFF7CEFD39
:104A7400044610F5805F06D80135EBE74378002B38
:104A8400E1D1044B1C68204620B0BDE8F081044607
:104A9400F9E700BF2C12002010B50021FFF7CAFF70
:104AA40010F5805F94BF002401241CB9FFF71AFE9F
:104AB400204610BD4FF0FF34FAE708B50021FFF798
:104AC400B9FF806CFDF7DCFA08BD70B5A0B00646EE
:104AD4000D460121FFF7AEFF10F5805F19D804469B
:104AE400836C1B8803F47043B3F5804F03D06FF0DD
:104AF400130020B070BD3046FFF776FD02466946CC
:104B04003046FFF750FD2A4669462046FFF79EFDD2
:104B1400EFE76FF00100ECE708B50B4609B940F286
:104B2400ED13C3F3080141F48041FFF7CEFF08BD44
:104B3400F0B583B02048FFF781FC002835DBFFF790
:104B440069FF1E4F40F2ED113846FFF7E5FF40F2D2
:104B5400ED111B48FFF7E0FF40F2ED111948FFF794
:104B6400DBFF194D40F2ED112846FFF7D5FF174E34
:104B740000213046FFF7D0FF002400942346144A56
:104B840039462046FFF7A6FC00942346114A3146D5
:104B94002046FFF79FFC009423460F4A29462046EF
:104BA400FFF798FC204603B0F0BD0C49062003F043
:104BB4007DF94FF0FF30F6E7FC90000828950008D7
:104BC400309500083895000840950008489500087D
:104BD4009C900008B8900008589100080C950008B3
:104BE400F8B505460E46174602463E49072003F02F
:104BF4005DF900212846FFF71DFF044610F5805F8C
:104C040041D82046FFF751FB044610F5805F94BF5E
:104C140000250125002D61D1C36A1B8803F470436C
:104C2400B3F5804F50D02663276204F15C0630460A
:104C3400FFF798FD636A73B1E06A5830FFF792FD9D
:104C4400636A5B6B1BB12146E06A98470546E06ADC
:104C54005830FFF7A4FC3046FFF7A1FC002D38DBE9
:104C640003F0A6F9E36A204D2A68B0FBF2F058631A
:104C740003F09EF9E26A2B68B0FBF3F103FB110029
:104C840050632046F8BD1949062003F00FF914F1CA
:104C9400020F02D06FF00104F3E716F0400FF0D0DA
:104CA4002A461349062003F001F947F40041284637
:104CB400FFF70BFF044610F5805FA2D92A460D4981
:104CC400062003F0F3F8DCE700220023C0E91423F4
:104CD400A9E72046FFF714FB0024D2E76FF00B048A
:104CE400CFE700BF54950008440A002064950008EB
:104CF400749500088495000800230360704708B584
:104D0400FFF7FAFF08BD00002DE9F04389B006461D
:104D14000F4615464FF44C616C2001F061FB0028EE
:104D240059D004462946384600F0B0FB012859D032
:104D340001222946384600F07BFD8146022229469D
:104D4400384600F075FD804603222946384600F0B7
:104D54006FFDC4F80090C4F80480B368A36003F046
:104D640027F92061F368E360B3695A1CB261A36157
:104D740004F12400FFF7C3FF00276763A763E76418
:104D840020221A496846FBF737FBB1680C316846A4
:104D940002F0E0FE6846FBF7F9FA431C00F120023A
:104DA4000DEB020010F8202C20336B4403F8202C68
:104DB4006846FBF7EBFA303500F120030DEB0300F6
:104DC40000F8205C6A46B1682046FCF7EFF93846E3
:104DD40009B0BDE8F0830649062003F067F86FF0D8
:104DE4000B00F5E74FF0FF30F2E700BFB88A000888
:104DF4000496000870B5064600F02AFB10F5805FA3
:104E040094BF002401242CB905460A49062003F066
:104E14004DF805E00849062003F048F809E001349C
:104E2400032C06DC224629463046FFF76DFF002896
:104E3400F5DA70BD389600082096000870B505466E
:104E4400836BD3B1AC6BA5602B6CE36003F0B0F85B
:104E540020612B68A36104F12400FFF750FF0026B2
:104E64006663A663E664324629462046FCF79EF94B
:104E74002046FFF7BFFF304670BD4FF44C616C20F5
:104E840001F0AEFA08B1A863DCE70349062003F099
:104E94000DF86FF00B00EFE70496000800230360A1
:104EA400704708B5FFF7FAFF08BD2DE9F0478046C3
:104EB4000D461746994604292CD801EB4106B60045
:104EC40044364FF0010A4946304601F089FA044657
:104ED400E8B132460021FBF78FFABAF1000F1DD07A
:104EE40004F14403E363E586002323606360A36065
:104EF400A381637401226261A263A361E3612362FB
:104F04006362A386E3622363C4F80480A760204637
:104F1400BDE8F0874FF0000A4426D4E705EB4500CE
:104F24004946800001F05CFA0646E06308B1E58674
:104F3400DAE7204601F05EFA3446E8E7C0B110B57E
:104F4400044600F1380353E8002FA2F1010243E8BC
:104F5400002191F0000FF6D14AB9C06B04F144036B
:104F6400984201D001F046FA204601F043FA10BD00
:104F7400704738B5044601F07FFA23682BB9012540
:104F8400256001F073FA284638BD01F06FFA00205D
:104F9400FAE738B5044606E001F05AFA206038BD55
:104FA400052001F08FFA2046FFF7E3FF0128F3D034
:104FB400256801F04DFA8542F2D1F0E770B5044658
:104FC4004368DD6886683DB101224FF44C61284690
:104FD40000F051FC05464660A369626812681344F8
:104FE400EB612146284600F038FC6368D868083035
:104FF400FFF7CFFF63682946D86800F069FC63684F
:10500400D8680830FFF74DFF6368D868D0F8D83007
:105014009847E36A0BB12046984770BD08B5FFF77F
:10502400CDFF08BD0CB42DE9F041A6B006460F46ED
:105034002CAC54F8045B002001F0F6F905940DF152
:10504400180823462A468021404603F09FF900258C
:1050540002950195CDF8008008233A464FF480511B
:10506400304601F035FC0446284601F0E7F92046B5
:1050740026B0BDE8F04102B07047000008B5014613
:105084000023024A0248FFF7CDFF08BD60960008DE
:10509400C14F000848B3844651B3B3F5805F34BFB1
:1050A4000020012038BB30B5BCF834E0BCF83640F1
:1050B400A64523D2DCF81C401444B4F5801F20D844
:1050C400DCF83C500EEB4E0E05EB8E0445F82E102A
:1050D400A3606260DCF81C301344CCF81C30BCF8CC
:1050E40034300133ACF8343030BD6FF00B0070470E
:1050F4006FF00B0070476FF00B0070476FF00B0000
:10510400F2E76FF00B00EFE708B5FFF7C3FF08BD48
:1051140070B505460E464FF44C61742001F060F9F9
:10512400F0B104462DB9104A13780133DBB2137081
:105134000360256000256560A6600C4E33780C4A38
:10514400202104F10C0003F0E5FA337801333370C5
:10515400A564E5642566A5660123E366204670BD63
:105164006FF00B04FAE700BFE4090020E509002012
:10517400CC96000808B501F03DF908BD08B5FFF765
:10518400DDFE08BD08B50146202001F029F90346DB
:1051940020B1002202608261C2614260184608BDEB
:1051A4002DE9F04383B00646884617461D464FF462
:1051B4004C60FFF7E7FF48B381464560174B009307
:1051C4004FF44C630A9A01213046FFF76EFE044601
:1051D400838923F4006282814268964202D023F4D8
:1051E400046383816660C4F818800D4BE362002376
:1051F4003A4649462046FFF787FF002809DB204648
:10520400FFF7DCFE284603B0BDE8F0836FF00B091E
:10521400D4E72046FFF792FE0020F4E73012002086
:105224008151000870B582B006460D46144600212F
:10523400117000912B464FF40072FFF7B1FF90F804
:10524400FE31552B15D0002300932B464FF40072EA
:1052540001213046FFF7A4FF08220B49FBF7A9F808
:1052640020B92378012B0BD002232370002002B035
:1052740070BD90F8FF31AA2BE5D101232370E2E73A
:1052840003232370F2E700BFE80900202DE9F04171
:1052940082B004460F4616461D469DF82080CDF880
:1052A4000480009313460A460B49062002F0FEFDD3
:1052B4002770202363702123A3700023E37084F8F4
:1052C4000480FE2363713F23A3710123E371A6606D
:1052D400E56002B0BDE8F081D496000800B5D0F8CE
:1052E40000E0D0F804C08268C368C1F800E0C1F8E7
:1052F40004C08A60CB600023036043608360C360A2
:105304005DF804FB002848D070B582B00C46064610
:10531400002945D04FF44C614FF4007001F060F85F
:105324000546F0B10021009103464FF40072304667
:10533400FFF736FFF0B105F5DF7304F5797105F574
:10534400FF7ED3F800C05C689868DA68C1F800C0D2
:105354004C608860CA60103310317345F1D100236A
:1053640013E04FF400721049062002F09FFD4FF045
:10537400FF3010E00D49062002F098FD284601F0A8
:1053840039F84FF0FF3006E00133032BFCDD2846EB
:1053940001F030F8002002B070BD4FF0FF307047CC
:1053A4004FF0FF30F7E700BF2C9700084497000840
:1053B400002844D070B582B00C460646002941D07E
:1053C4004FF44C614FF4007001F00AF80546E0B365
:1053D400002300E00133032BFCDD04F5797305F5AC
:1053E400DF7204F22444D3F800E0D3F804C09868D0
:1053F400D968C2F800E0C2F804C09060D1601033EC
:105404001032A342EFD1552385F8FE31AA2385F843
:10541400FF31012300932B464FF4007200213046E4
:10542400FFF7BEFE28B9284600F0E4FF002002B0D2
:1054340070BD284600F0DEFF4FF0FF30F7E74FF075
:10544400FF3070474FF0FF30F1E74FF0FF30EEE7E9
:1054540038B50546A8B14FF44C6140F2244000F041
:10546400BFFF044678B101462846FFF74BFF0028EA
:1054740001DB204638BD204600F0BCFF6FF0040479
:10548400F7E70446F5E76FF00B04F2E73E3100EB73
:105494000110043000230F2B03D8C25C1AB9013366
:1054A400F9E70120704700207047F0B583B0064645
:1054B40000240BE021463046FFF7E8FFC0F101036A
:1054C40004F108026A4402F8043C0134032CF1DDBF
:1054D40000272BE00134022C27DC04F108036B4481
:1054E40013F8043C002BF5D104F109036B4413F8C1
:1054F400043C012BEED104F13E0106EB011104F151
:105504003F0006EB001004310430FFF7E7FE0122F0
:1055140004F108036B4403F8042C04F109030DEBB4
:105524000305002305F8043CD4E70137022F01DC0E
:105534000024D0E703B0F0BD2DE9F04148B30C4698
:105544001546804629B3012B01D0032B28D1032D06
:105554002DD821464046FFF7D5FE002835DB05F15E
:105564003E0604EB0616371D29462046FFF78EFF3C
:10557400012823D0002575607D60BD60FD60204654
:10558400FFF793FF21464046FFF712FF2846BDE888
:10559400F0810F49062002F089FC4FF0FF30F6E756
:1055A4000C49062002F082FC4FF0FF30EFE70A4975
:1055B400062002F07BFC4FF0FF30E8E707490620A5
:1055C40002F074FC4FF0FF30E1E74FF0FF30DEE70C
:1055D400609700087C97000894970008B897000823
:1055E40070B505460E460024032C0CDC21462846E3
:1055F400FFF74CFF08B90134F6E734603E3405EB9D
:105604000410043000E0002070BD03290BD838B525
:1056140004460D46FFF73AFF012807D004EB0514B2
:10562400D4F8F00338BD4FF0FF3070474FF0FF302F
:10563400F8E70000032912D838B504460D46FFF7F1
:1056440025FF012804D004EB0514D4F8EC0338BD7D
:105654000449062002F02AFC4FF0FF30F7E74FF030
:10566400FF307047B89700082DE9F04784B070B355
:105674000E4615469946804649B3FFF743FE002877
:105684002CDB25F007050023039303A93046FFF71D
:10569400A7FF824648B3039900292DDD013930461E
:1056A400FFF7C8FF044602464549062002F0FEFB08
:1056B400B4F1FF3F24D0039901393046FFF7A5FF29
:1056C400024604443F49062002F0F0FB27E03E492D
:1056D400062002F0EBFB4FF0FF3042E03B4906208E
:1056E40002F0E4FB4FF0FF303BE03949062002F0C2
:1056F400DDFB4FF0FF3034E03649062002F0D6FBE4
:105704003549062002F0D2FBD8F80430B3F5006F17
:105714002AD33249062002F0C9FB4FF4006414F086
:10572400070F02D024F0070408340399022922DD6C
:10573400D8F80470223FBC4226D86319BB422AD24F
:10574400ADB3CDF800902B46224600215046FFF71A
:105754009DFD3046FFF7A9FE31464046FFF728FE7F
:10576400002004B0BDE8F0871D49062002F09EFB2E
:105774004FF0FF30F5E701314046FFF75BFF074686
:10578400B0F1FF3FD7D1D3E71649062002F08EFBD4
:105794004FF0FF30E5E72A461349062002F086FB66
:1057A4003D1B2A461149062002F080FBC8E72A4621
:1057B4000F49062002F07AFB4FF0FF30D1E700BF1B
:1057C4005C9800080C990008E0970008FC97000812
:1057D400189800088C9800089C980008D498000831
:1057E400B89800082C99000868990008AC9900083A
:1057F400C499000800B5ADF22C4D13460A4601A920
:10580400FFF732FF0DF22C4D5DF804FB03290BD892
:1058140038B505460C46FFF739FE012806D03E345C
:1058240005EB0415287A38BDFF207047FF20FAE7FE
:1058340088B108B5012A05D0022A06D0032A07D068
:10584400002008BDFFF7F6FEFBE7FFF7DEFEF8E7F2
:10585400FFF7DCFFF5E70020704700230B60036AC5
:1058640033B1436A196041628369013383617047CC
:1058740001624162F8E770B506460D4611465C20A8
:1058840000F0AEFD04465C220021FAF7B5FD266067
:10589400656004F12803A362E3620123236402F038
:1058A40087FB60630023A36323634FF47A7363610C
:1058B400204670BD002303607047002303607047D7
:1058C40008B5FFF7F7FF08BD08B5FFF7F6FF08BDF9
:1058D40010B401F1280200F1CC04D0F8D030C0F8A3
:1058E400D0208C62CB621A605DF8044B7047F8B527
:1058F40005460E464FF44C61E02000F071FD04466D
:10590400C8B10027076047600830FFF7D9FFA761D7
:10591400E6618023E36320236364C4F8C4504FF436
:105924007A73C4F8C83004F1CC03C4F8CC30C4F89A
:10593400D030C4F8D4702046F8BD38B5044600F021
:105944009BFD23682BB90125256000F08FFD2846B7
:1059540038BD00F08BFD0020FAE738B5044606E0B8
:1059640000F076FD206038BD052000F0ABFD204638
:10597400FFF7E3FF0128F3D0256800F069FD8542B5
:10598400F2D1F0E738B50C4600F108052846FFF7D8
:10599400E4FF04F12803A26A934208D0E26AA16AF0
:1059A4004A601160A362E362204600F023FD2846AA
:1059B400FFF78AFF38BD38B5044600F108052846CC
:1059C400FFF7CBFF04F1CC02D4F8CC309A4212D0CA
:1059D400D4F8CC30A3F128045A6819684A601160DD
:1059E4004FF480721A604FF491725A602846FFF7A0
:1059F4006BFF204638BD0024F8E70000F8B50746E1
:105A040000F108063046FFF7A8FFD7F8CC4054F859
:105A14002859283D1BE0E36AA26A53601A604FF4D8
:105A24008073A3624FF49173E3623046FFF74CFF37
:105A340022460C49062002F039FA204600F0DAFC2E
:105A44003046FFF78AFFAB6A2C46A3F1280504F120
:105A5400280307F1CC029342DDD13046FFF734FF2F
:105A6400F8BD00BFA09A000818B108B500F0C2FC48
:105A740008BD704708B5054B1B6803FB00F0044BD9
:105A8400A3FB0030800900F01DFD08BD440A00207E
:105A9400D34D621010B51B49062002F007FA00220C
:105AA40002211948FFF79CF810F5805F1FD80446BF
:105AB40012224021FEF7E4FE00281DDB0022022111
:105AC4002046FEF7DDFE0023012210492046FEF7A2
