:020000040800F2
:1000000000000220896B0008D16B0008D16B00084A
:10001000D16B0008D16B0008D16B00080000000014
:10002000000000000000000000000000E9040008DB
:10003000D16B0008000000000D02000891100008BC
:10004000D26B0008D26B0008D26B0008D26B00089C
:10005000D26B0008D26B0008D26B0008D26B00088C
:10006000D26B0008D26B0008D26B0008D26B00087C
:10007000D26B0008D26B0008D26B0008D26B00086C
:10008000D26B0008D26B0008D26B0008D26B00085C
:10009000D26B0008D26B0008D26B0008D26B00084C
:1000A000D26B0008D26B0008D26B0008D26B00083C
:1000B000D26B0008D26B0008D26B0008D26B00082C
:1000C000D26B0008D26B0008D26B0008D26B00081C
:1000D000D26B0008D26B0008D26B0008D26B00080C
:1000E000D26B0008D26B0008D26B0008D26B0008FC
:1000F000D26B0008D26B0008D26B0008D26B0008EC
:10010000D26B0008D26B0008D26B0008D26B0008DB
:10011000D26B0008D26B0008D26B0008D26B0008CB
:10012000D26B0008D26B0008D26B0008D26B0008BB
:10013000D26B0008D26B0008D26B0008D26B0008AB
:10014000D26B0008D26B0008D26B0008D26B00089B
:10015000D26B0008D26B0008D26B0008D26B00088B
:10016000D26B0008D26B0008D26B0008D26B00087B
:10017000D26B0008D26B0008D26B0008D26B00086B
:04018000D26B000836
:100184000348044B834202D0034B03B11847704722
:100194002808002028080020000000000548064B1D
:1001A4001B1AD90F01EBA301491002D0034B03B171
:1001B4001847704728080020280800200000000085
:1001C40010B5064C237843B9FFF7DAFF044B13B19B
:1001D4000448AFF300800123237010BD28080020D9
:1001E40000000000F46B000808B5044B1BB104497F
:1001F4000448AFF30080BDE80840CFE700000000EA
:100204002C080020F46B000800B5EFF3098020E906
:10021400F00F04F0D3FFB0E8F00F80F309885DF825
:1002240004EB7047EFF3088080F30988EFF3148040
:1002340040F0020080F31488EFF3148040F00100D2
:1002440080F314887047BFF34F8F03484FF08051F9
:10025400BFF36F8F0160704704ED00E00023014697
:100264001A46184600F014B838B5074D074C2C1B35
:10027400A41005D0013C55F8043D9847002CF9D151
:10028400BDE8384006F0BABC7C7D0008787D0008E3
:1002940070B4164D2C681CB365681F2D23DC38B967
:1002A400AB1C0135656044F82310002070BC704716
:1002B40004EB850C0228CCF88820D4F888614FF030
:1002C400010202FA05F246EA0206C4F88861CCF893
:1002D4000831E5D1D4F88C311343C4F88C31DFE70D
:1002E400034C2C60D8E74FF0FF30DFE744080020D0
:1002F4004808002010B54FEAD20C034623E091F8D9
:1003040000E083F800E091F801E083F801E091F85F
:1003140002E083F802E091F803E083F803E091F847
:1003240004E083F804E091F805E083F805E091F82F
:1003340006E083F806E091F807E083F807E00CF1A3
:10034400FF3C08310833BCF1000FD8DC12F0040F75
:1003540009D00C781C704C785C708C789C70CC78CC
:10036400DC700431043312F0020F09D08E461EF8FB
:10037400024B9C460CF8024B49785970714663460F
:1003840012F0010F01D00A781A7010BD034600E084
:1003940001331A78002AFBD1181A7047034601E08A
:1003A400013311464A1E11B119780029F8D1181ADF
:1003B4007047034602440020934206D213F8010B0F
:1003C40011F801CBB0EB0C00F6D0704784469CF8D2
:1003D40000200CF1010C0B780131D01A01D1002A54
:1003E400F5D170471346013A73B100B5CBB28446D8
:1003F4001CF801EB734505D060461346013A002B07
:10040400F4D100205DF804FB002070470378CAB2E1
:10041400934204D00130002BF8D10020704770477C
:100424000346002001E0013332B11A785FFA81FCFF
:100434006245F8D11846F6E77047034602E003F830
:10044400011B624602F1FF3C002AF8D1704700000C
:100454000146E0B1036D23F00703403B4FF0807287
:10046400DA63426D9A630A4A5A6300221A63DA62B3
:100474009A626FF002005862886D1862DA619A61BC
:100484005A611A61DA609A605A601B608B64704723
:10049400E55200080020704710B485B004460846B1
:1004A40011461A46069B0093079B0193089B0293EF
:1004B40003946B4600DF05B05DF8044B704710B53C
:1004C40084B00446C368D8681A6859689B68029364
:1004D40001910092A3686268216804F085FF20609E
:1004E40004B010BD1EF0040F0CBFEFF30880EFF34F
:1004F4000980FFF7E4BF70472A4A136843F00103F9
:100504001360284B1B6813F0020FFAD0264B1A68AD
:1005140042F005021A601A6842F480721A601A687E
:1005240042F400721A601A6842F480621A601D4A2A
:10053400136823F0807313601A4B1B6813F0007F59
:10054400FAD1184B194A5A601A6842F080721A603C
:10055400144B1B6813F0007FFAD0124B9A6822F0F8
:10056400F0029A609A6822F4E0529A609A6842F41F
:10057400A0529A609A6822F460429A609A6842F49F
:1005840000429A609A6822F003029A609A6842F0E4
:1005940002029A60034B9B6803F00C03082BF9D109
:1005A400704700BF00380240003C0240105400076E
:1005B400034B1B6813F0800FFAD0014B586070474F
:1005C400001001400020704770B50D461646002407
:1005D40000E00134B44209D2285DFFF7E9FF2B5D46
:1005E4000A2BF6D10D20FFF7E3FFF2E7304670BD8A
:1005F4000020704748B330B583B015461C463AB363
:10060400002B28DD01AB0A464168006805F0AFFB0A
:10061400844618B3019BB3EB840F22DB00200FE068
:100624005CF82030C3F30721090441EA0361C3F3F2
:10063400074241EA022141EA136145F820100130E2
:10064400A042EDDB002003B030BD6FF01500704711
:100654006FF01500F7E76FF01500F4E76FF0150081
:10066400F1E76FF01500EEE7E8B110B582B014467B
:10067400E2B101AB0A464168006805F078FBC0B1FD
:10068400019B032B18DD0268C2F307231B0443EA12
:100694000263C2F3074143EA012343EA126323607E
:1006A400002002B010BD6FF0150070476FF0150008
:1006B400F7E76FF01500F4E76FF01500F1E70000BD
:1006C40038B51546C8B14468002221460D4805F0E6
:1006D40014F9041E14DB00230B4A2146094805F0D3
:1006E40046FB0028F0D02946FFF770FE0028EBD126
:1006F4000648044B0360446003E04FF0FF34E3E733
:10070400002038BDD0850008D46E0008E009002020
:1007140008B50146054805F0ABFB031E04DB04489D
:10072400024A0260436008BD0020FCE7D08500084F
:10073400D809002010B584B0002001904FF4E133B3
:100744000093444A0146FFF7BBFF0446002873D0D8
:10075400022302AA40492046FFF74CFF002872D129
:100764006A463E492046FFF77FFF029A3C49D1F88A
:10077400303843F00103C1F830383A4B186820F49C
:1007840070101860186840F420101860586A20F43B
:100794007F605862586A40F4EE605862986840F48A
:1007A40070109860D86820F47010D860D86840F44D
:1007B400A010D860586820F4C0605860D1F844385C
:1007C40043F01003C1F844380023D3600099264B4A
:1007D40003EB5103B3FBF1F39360D36843F00C03D1
:1007E400D360D36843F40053D360D36843F0200349
:1007F400D360019B1F2B0BD84FF0E020D0F80021D1
:1008040003F01F03012101FA03F31343C0F800317D
:10081400019BA3F12402032A0CD84FF0E020D0F866
:100824002425DB00A3F58D73032101FA03F313439D
:10083400C0F8243504B010BD0C48FFF769FF044626
:10084400002885D1F6E7012301AA09492046FFF7CC
:10085400D1FE85E7E06E0008086F0008186F0008F5
:10086400003002400000024000BD0105F06E0008A7
:100874000C6F000808B5FFF75DFF08BD0FB410B595
:10088400C2B044AB53F8042B01934FF4807102A817
:1008940005F0A6FF002400E0013402AB185D48B166
:1008A400FFF786FE02AB1B5D0A2BF5D10D20FFF787
:1008B4007FFEF1E742B0BDE8104004B0704700236A
:1008C40000E0013341FA03FCBCF1010FF9D1072B1D
:1008D4000ED8016A9B004FF00F0C0CFA03FC21EABE
:1008E4000C010162016A02FA03F30B4303627047CD
:1008F400416A083B9B004FF00F0C0CFA03FC21EA01
:100904000C014162416A9A400A4342627047F8B559
:1009140005460E4600240CE0EA681040E860EA68E8
:10092400308900FA01F10A43EA607288022A2FD062
:1009340001340F2C32D80123A340328833EA020257
:10094400F6D12F68610003228A40D04327EA0202CD
:100954002A602A68B6F802C00CFA01FC42EA0C02CA
:100964002A607288013A92B2012AD5D86A6822EACA
:1009740003026A606A68F788A7403A436A60AA6813
:100984000240AA60AA68B7888F403A43AA60C3E7C6
:10099400B27A99B22846FFF792FFC9E7F8BD8161A0
:1009A40070470904816170470369194214BF01202B
:1009B4000020704731B1074AD2F830380343C2F8F7
:1009C40030387047034AD2F8303823EA0003C2F8BB
:1009D400303870470030024000F00F00014B33F80C
:1009E40010007047407D00080309AF2803D8034A6C
:1009F40052F8230070470020704700BF147D0008A0
:100A0400234B98422AD003F58063984228D003F5FB
:100A14008063984226D003F58063984224D003F57E
:100A24008063984222D003F58063984220D003F576
:100A3400806398421ED003F5806398421CD003F56E
:100A4400806398421AD003F58063984219D003F565
:100A54008063984218D04FF0FF30704701207047F0
:100A64000220704704207047082070471020704708
:100A74002020704740207047802070474FF48070DA
:100A840070474FF4007070474FF48060704700BFA8
:100A940000000240002300E0013341FA03F2012A7E
:100AA400FAD1072B05D8006A9B00D84000F00F004C
:100AB4007047406A083B9B00D84000F00F00704725
:100AC40010B514460A78836A19884FF6FF7081427C
:100AD40008D0302A0CD0312A0ED15868FFF75FFFB6
:100AE400204610BD074805F04FFC6FF01500F8E7ED
:100AF4005868FFF756FFF3E7034805F045FC6FF02D
:100B04001500EEE7886F0008B46F000808B5886A1E
:100B140004F054FA002008BD38B50D464FF44C617A
:100B2400142004F041FA50B14FF6FF720280002401
:100B34004460A862034805F027FC204638BD6FF0E6
:100B44000B00FBE7C46F000838B50D46836A1988AB
:100B54004FF6FF7C61450BD014465868FFF724FF1D
:100B640060B930232B70084805F00EFC204638BDD0
:100B7400064805F009FC6FF01500F8E731232B70E7
:100B8400034805F001FCF1E7D86F0008886F0008FE
:100B9400F06F000800B583B0431E13F4004F1ED15C
:100BA400002301E00133DBB24008FBD100220092B4
:100BB4008DF80420092B0BD830338DF800300B4B03
:100BC4006A460B490B4805F0DFFB03B05DF804FBF4
:100BD40031228DF8002026338DF80130EFE7034AE7
:100BE4000146054805F0D0FBEFE700BFF87C00089C
:100BF400FC7C0008647000086C70000808B500F103
:100C04003F4000F57E00B0F5205F0AD8C0F387208E
:100C140000F14102054BD2B20549064805F0B4FB88
:100C240008BD0249044805F0AFFBF9E7E07C000881
:100C3400E47C0008847000088C7000082DE9F843F7
:100C44000C461546876A402904D03A884FF6FF734C
:100C54009A4226D0AEB23046FFF7BEFE80463046FA
:100C6400FFF7C2FE0646FFF7CBFE8146202C1ED8B6
:100C7400002C00F09B80013C1F2C00F29A80DFE8DE
:100C840004F05E6698759898986F989898989898D4
:100C9400984C98989898989898989898989898981C
:100CA4009855484805F070FB6FF0150483E0B4F5DF
:100CB400807F61D040F201139C426DD0402C7DD1E5
:100CC400FEB1B0F1FF3F22D04046FFF763FF30464C
:100CD400FFF794FF01214846FFF76CFEA7F8008058
:100CE4007E60A7F8088001237B810024FC81022315
:100CF400BB813C82BC7407F108013046FFF707FE54
:100D040059E0314805F040FB6FF0150453E02F48DB
:100D140005F03AFB6FF015044DE001233B8207F127
:100D240008013046FFF7F3FD002444E002233B8230
:100D340007F108013046FFF7EAFD00243BE00024F8
:100D44007C8107F108013046FFF7E1FD33E0012320
:100D54007B8107F108013046FFF7D9FD00242AE022
:100D640041463046FFF71BFE002424E0414630464E
:100D7400FFF717FE00241EE0C5F3034502237B8121
:100D8400BD7407F108013046FFF7C1FD294610483C
:100D940005F0FAFA00240EE041463046FFF77AFEE9
:100DA400014604460B4805F0EFFA04E06FF0150421
:100DB40001E06FF015042046BDE8F8836FF01504D8
:100DC400F9E700BFA0700008C0700008DC700008DC
:100DD400FC70000810710008284AD2F8303843F03B
:100DE4000103C2F83038264B196821F47C4119609C
:100DF400196841F428411960596821F0E0015960EB
:100E0400996841F47C419960D96821F47C41D960A6
:100E1400196AC1F313011962196A41F0AA4141F434
:100E2400A0011962D2F8443843F48053C2F844381C
:100E3400D2F8243843F48053C2F82438D2F8243842
:100E440023F48053C2F824380E4B00221A601A6827
:100E540042F004021A601A6842F002021A601A6828
:100E640042F001021A601A6842F440721A601A6869
:100E74001A601A6842F040021A607047003002405B
:100E84000000024000300140044B1A6822F038028E
:100E94001A601A6842EAC0021A60704700300140C2
:100EA400074B9B6813F0020FFAD0054BD860044B34
:100EB4009B6813F0010FFAD0014BD868C0B2704799
:100EC40000300140F8B50E46154618B1074671B119
:100ED400002408E0F1B146B1002418E0385DFFF7C2
:100EE400DFFF30550134AC42F8DB2846F8BD00285A
:100EF400F1D0002403E0385DFFF7D2FF0134AC42A7
:100F0400F9DBF2E7FF20FFF7CBFF30550134AC42A9
:100F1400F8DBEAE74FF0FF35E7E7000008B50248E1
:100F240005F032FA002008BD2871000830B583B0FE
:100F3400FFF752FF164C174B009323464FF4807271
:100F44000021084602F008FA05460146124805F059
:100F54001BFA2146002000F09DF8044610F5805F3E
:100F64000DD80B4B009300232A461946204600F067
:100F7400B7F810F5805F06D8002003B030BD0748ED
:100F840005F002FAEDE7064805F0FEF9F4E700BFC4
:100F940038710008140100204071000858710008DD
:100FA40074710008124B984213D8124B984212D80D
:100FB400114B984211D2114B984210D8104B9842C1
:100FC4000FD8104B98420ED80F4B98420DD80720DB
:100FD40070470020704701207047022070470320AB
:100FE400704704207047052070470620704700BFF3
:100FF4007FDE80023F6F4001A037A000CF1B50006E
:10100400E70D2800F306140079030A0010B572B145
:101014001446012911D1D068FFF7C4FFC0B2FFF70D
:1010240033FFA26861682068FFF74CFF10BD0448D5
:1010340005F0AAF96FF01500F8E76FF01500F5E771
:10104400907100084FF0E02300221A610C4B1B68DA
:1010540003B9FEE70B4AA2FB03239B09013BB3F14F
:10106400807F01D36FF07F434FF0E0225361002370
:10107400054981F82330936107231361704700BF4A
:10108400000000201F85EB5100ED00E008B505F0DD
:10109400BFF908BDF8B505460C46104805F074F9CB
:1010A4004FF44C61082003F07FFF88B106462046C8
:1010B400FFF76CF94FF44C61013003F075FF0746FC
:1010C40048B1214604F092FF776035603046F8BDA0
:1010D4006FF00B06FAE76FF00B06F7E79C71000858
:1010E4002DE9F041C2B006460F46154648AB53F809
:1010F400042B2193802122A805F072FB22AB164A0F
:10110400802101A805F030FD01A9144805F03CF93F
:1011140048F2ED1101A802F027FE044610F5805FA5
:1011240015D84FF44C610C2003F03EFF804680B18B
:10113400076046600021284601F0E2FF0246294686
:10114400A06C00F025FF404642B0BDE8F081804627
:10115400F9E76FF00B08F6E7BC710008C4710008EA
:101164000CB430B5B3B005460C46369A0AB337AB67
:101174000193402122A805F033FB22AB0F4A8021C2
:1011840002A805F0F1FC02A90D4805F0FDF848F2AB
:10119400ED1102A802F0E8FD10F5805F04D8226882
:1011A4002946806C00F00CFF33B0BDE8304002B03B
:1011B40070470C3122A804F019FFDEE7BC71000867
:1011C400EC710008024660B100F11C0353E8001FF3
:1011D40001F1010143E8001090F0000FF6D15068CE
:1011E4007047704710B582B00446436B9847062396
:1011F4008DF80730E36A01220DF107012046984774
:10120400A36B2046984702B010BD10B582B00446C7
:10121400436B98474FF60573ADF80430FF238DF800
:101224000530E36A022201A920469847236B022273
:1012340001A9204698479DF8053013F0010FEDD120
:10124400A36B2046984702B010BD30B583B0044666
:101254000D03FFF7C7FF636B2046984720238DF8E3
:1012640004302B0C8DF805302B0A8DF806308DF8E0
:101274000750E36A04220DEB020120469847A36B52
:101284002046984703B030BDF0B583B004460E46FF
:1012940015461F46FFF7B9FF2046FFF7A3FF636B10
:1012A4002046984702238DF804302B0C8DF8053026
:1012B4002B0A8DF806308DF80750E36A04220DEBF3
:1012C400020120469847E36A3A4631462046984749
:1012D400A36B2046984703B0F0BDF0B583B0044635
:1012E4000E4615461F46FFF790FF636B204698474E
:1012F40003238DF804302B0C8DF805302B0A8DF860
:1013040006308DF80750E36A04220DEB02012046F3
:101314009847236B3A46314620469847A36B2046AC
:10132400984703B0F0BD2DE9F84307468846914637
:101334001D461946FFF789FF4E46B9F1000F03DB3E
:1013440036122D0300240DE009F1FF06F8E74FF4EF
:1013540080732A4608EB04213846FFF795FF05F50C
:1013640080750134B442F2DB4846BDE8F88310B519
:1013740014461A46A3B25202FFF7AFFF204610BD2F
:1013840001230B7000204860034B1B689B6A5B0AB7
:101394004B704880704700BF080A002030B585B004
:1013A40004469F238DF80F300025ADF80C508DF8BE
:1013B4000E50436B9847E36A01220DF10F0120465A
:1013C4009847236B032203A920469847A36B204622
:1013D4009847A5629DF80E30A3F11002D2B2152AE7
:1013E40002D801229A40A262A26A110D0191920AC6
:1013F40000929DF80D209DF80C100C4804F0C4FFD9
:1014040090230293636B20469847E36A042202A95F
:1014140020469847236B022204F124012046984772
:10142400A36B20469847002005B030BD1472000815
:1014340008B5024804F0A8FF08BD00BF60720008A8
:1014440008B5024804F0A0FF002008BD807200081F
:1014540008B5002301220549806802F0CDFB00286D
:1014640000DB08BD024804F08FFFFAE7A072000811
:10147400A472000808B5002301220549806802F01F
:10148400BBFB002800DB08BD024804F07DFFFAE73F
:101494002C6F0008B872000808B50023C36001610E
:1014A400426100F10C020121406802F0D5FB08BD45
:1014B40008B5C16000230361426100F10C020121FF
:1014C400406802F0C9FB08BD70B5B2F1FF3F2CD0F3
:1014D4000646084615460022022102F079FC04461D
:1014E400B06010F5805F94BF002401248CB92946B4
:1014F4000F4804F049FF2A464021B06802F0ACFBD3
:1015040000280CDB00220221B06802F0A5FB204673
:1015140070BD084804F038FF4FF0FF34F7E7064881
:1015240004F032FF4FF0FF34F1E70024EFE700BF8F
:10153400E0720008CC720008F872000838B504465E
:101544001546002202210B4802F042FC606010F5AF
:10155400805F09D8A561012363610023A383082266
:10156400A27784F8233038BD034804F00DFF4FF010
:10157400FF30F8E710730008CC72000838B5044651
:101584000D460649FFF7A0FF2070054A294620466C
:10159400FFF7D4FF2070002038BD00BF207300087F
:1015A40040420F0008B502F075FD08BD90B108B5C2
:1015B400024600F11C0353E8001FA1F1010143E8B6
:1015C400001090F0000FF6D101B108BD104603F0F1
:1015D400F5FCFAE7704718B108B5FFF7E7FF08BD57
:1015E40070470000002800F0BA802DE9F04F85B064
:1015F400C3690193D0F820A00027D346824697E020
:101604004246019F3946564804F0BEFE3B464246D8
:10161400314654480068FFF7AAFE07462068FFF7E2
:10162400DAFF0135DBF83C4005EB450304EB8304AA
:10163400BBF83430AB4275DDD4F804802068FFF782
:10164400C1FDA368C618DAF8043013F00103D7D03B
:10165400002BE3D0019BDA08009203F0070942460D
:101664001946414804F090FEB9F1000F02D1B8F5D3
:10167400805F4ED04FEA4923029308EB492303933A
:10168400009B4FF480523949096836480068FFF7D7
:101694006EFE071E46DBC9F108034FEA4329B8EB87
:1016A400432F00D2C146314B1F684A463146029847
:1016B4003844FEF71FFE009B4FF4805239462948F8
:1016C4000068FFF730FE071E2CDB039BB3F5805F39
:1016D400A4DD009B013300934FF480522349096831
:1016E40020480068FFF743FE071E1BDB1F4B1F68E3
:1016F400A8EB090206EB09013846FEF7FBFD009B47
:101704004FF48052394617480068FFF70CFE07462D
:1017140084E7009B4246314612480068FFF703FE07
:1017240007467BE7DAF82030D3F800B0CAF820B0D7
:10173400DAF820301BB1DBF83C40002578E7002FB5
:1017440007DB5146DAF8000002F0CDFF05B0BDE832
:10175400F08F5146DAF8000002F0C5FFF6E7704753
:101764002C730008080A00204C730008040A0020A7
:1017740010B5044602F0D0FF04E0FFF733FF204623
:1017840002F0CAFF0028F8D110BD08B502F096FF98
:1017940008BD08B502F0DEFD08BD000070B50646C0
:1017A4000D464FF44C613C2003F0FEFB044688B127
:1017B4000A4BC3620A4B03630A4B43630A4B8363BA
:1017C4002A463146FFF7DAFE20702046FFF7E6FD91
:1017D400204670BD054804F0D7FDF9E7B5140008AC
:1017E4009D14000879140008551400086C7300084F
:1017F40000230360704700230360704708B5FFF7B8
:10180400F7FF08BD08B5FFF7F6FF08BD064B0B60F0
:101814000020486001238B60C860086180234B610D
:101824007F238B61704700BF4E61BC0011B110B1C2
:1018340041657047084670474B6D92889B685A60B3
:101844000020704708B502F004F808BD08B5024846
:10185400FFF714F8002008BD0874000808B5024812
:10186400FFF70CF8002008BD1C74000808B50248F6
:10187400FFF704F8002008BD3074000808B50248DA
:10188400FEF7FCFF002008BD4474000838B5044688
:1018940003F0D6FB23682BB90125256003F0CAFBAE
:1018A400284638BD03F0C6FB0020FAE738B50446E5
:1018B40006E003F0B1FB206038BD052003F0D8FB3F
:1018C4002046FFF7E3FF0128F3D0256803F0A4FBCB
:1018D4008542F2D1F0E70000F8B50F4669B305463A
:1018E40016464FF44C613C2003F05EFB044610B3F3
:1018F400134B036086600761856348F2ED13436010
:101904000023C3602430FFF779FF04F114066661F5
:10191400A66104F11C03E36123622F1D3846FFF71F
:10192400C5FF05F11802AB695E606361A261AE6137
:101934003846FFF767FF2046F8BD0C46FBE700BFBB
:101944004E61BC0010B5044650B1084601F03BFF9F
:1019540030B16368038023690365024B8360846547
:1019640010BD00BF0802002038B54B685B6D002B2A
:1019740031D014469B688BB35A68A2809A681205CA
:10198400E261A361DB68A36000220023C4E90C23A5
:1019940004F038FD134D2B68B0FBF3F0E06304F062
:1019A40031FD2B68B0FBF3F203FB1200A06304F1DA
:1019B400400204F1380393E8030082E8030004F1D1
:1019C400480293E8030082E803004FF48053E36085
:1019D4000020A06538BD6FF00100FBE76FF0010047
:1019E400F8E700BF24080020F8B5054620B30E46EA
:1019F400436803F47043B3F5804F1FD100F124070B
:101A04003846FFF753FFEC690C3C04F10C0305F175
:101A14001C0293420BD031466068FEF7D7FC10B12C
:101A2400E4680C3CF1E73846FFF7ECFE07E0384683
:101A3400FFF7E8FE002402E0044600E0002420460C
:101A4400F8BD70B506460D468969806DFFF7CCFF79
:101A5400044678B101462846FFF7E8FE60B1F16814
:101A6400A068FFF76FFF044620B10146284601F045
:101A7400E5FD0446204670BD0446FBE710B5044668
:101A840040B1002001F0CDFE20B1C462024BC36618
:101A9400024BC36010BD00BF800200200003002081
:101AA40038B54FF44C61202003F07EFA044620B38D
:101AB400154B40F8043BFFF7A1FE04F11803A361A2
:101AC400E361002211492046FFF706FF0546B0B145
:101AD40044F2ED13436060610C4B036100F10C03AD
:101AE40053E8002F02F1010243E8002191F0000FB6
:101AF400F6D100F11C03C3610362204638BD2046C1
:101B040003F05CFA2C46F8E74E61BC005C0300204D
:101B140018B108B503F052FA08BD704761B338B57F
:101B24000D468B6893B1041D2046FFF7BFFEAB68DA
:101B34000C3353E8002FA2F1010243E8002191F095
:101B4400000FF6D14AB12046FFF75CFE686803F047
:101B540035FA284603F032FA38BDAB689A695969F8
:101B64004A6011604FF480725A614FF491729A6125
:101B7400A868FFF7CDFFE6E7704708B5416D8B68AD
:101B8400986BFFF7CBFF08BD38B505460C460846F1
:101B9400FFF7F3FF2146284601F090FD38BD70B5EC
:101BA400054614460E4619B101F12400FFF77EFEE6
:101BB400A268536803F47043B3F5804F13D02369CC
:101BC400E26853601A604FF48073E3604FF49173DA
:101BD40023611EB106F12400FFF714FE21462846B6
:101BE400FFF79CFF70BD02F11C01D3699942E6D056
:101BF400002EF7D006F12400FFF704FEF2E708B543
:101C0400836D4A6D1946986BFFF7C9FF002008BD24
:101C14002DE9F0418046002847D00E461546002A9B
:101C240045D0002945D04FF44C61142003F0BCF991
:101C3400044690B3204B0360002343602846FEF71C
:101C4400A5FB4FF44C61013003F0AEF90746606028
:101C540030B3294604F0CAF9A66004F10C05E56026
:101C6400256106F10C0151E8003F03F1010341E84D
:101C7400003292F0000FF6D108F124063046FFF747
:101C840015FE08F11C02D8F81C305D60E360226187
:101C9400C8F81C503046FFF7B5FD2046BDE8F0817A
:101CA400204603F08BF93C46F7E70446F5E7144673
:101CB400F3E70C46F1E700BF4E61BC0070B5064681
:101CC4000C4611461A46FFF707FE0546E8B1049A8A
:101CD40001462046FFF79CFF044608B1204670BD2C
:101CE40004363046FFF7E2FDAB696A6953601A6057
:101CF4004FF480736B614FF49173AB613046FFF71F
:101D040081FD2846FFF704FFE8E70446E6E7000004
:101D140000B583B000920023054AFFF7CFFF18B146
:101D2400836844F2ED125A6003B05DF804FB00BF0F
:101D34005C0300202DE9F0410D46144698461046F8
:101D440001F0B6FB0646AF6D01463846FFF74CFE80
:101D54000146A8B18A68C8F3080343F400435360FA
:101D64002046FFF763FDB0B1E9683846FFF7EAFDA6
:101D7400014698B1204601F061FC0020BDE8F081E5
:101D840032463946B86BFFF7C3FF01460028E1D15C
:101D94004FF0FF30F2E74FF0FF30EFE74FF0FF3046
:101DA400ECE710B582B0049C0094FFF787FF02B003
:101DB40010BD00002DE9F04182B00D46144698464E
:101DC400104601F075FB0646AF6D01463846FFF735
:101DD4000BFE0146B0B18A68C8F3080343F400431C
:101DE40053602046FFF722FDC8B1E9683846FFF783
:101DF400A9FD0146B0B1204601F020FC002002B04C
:101E0400BDE8F081B86B00960A23084A3946FFF70B
:101E1400C8FF01460028DED14FF0FF30EFE74FF056
:101E2400FF30ECE74FF0FF30E9E700BF5C03002030
:101E340038B50D461446836C9269996DA86DFFF709
:101E4400E7FE58B101462046FFF7F0FCEB68236536
:101E5400A16C204601F0F2FB002038BD6FF00B00AE
:101E6400FBE778B108B5806D58B183694269536066
:101E74001A604FF4807343614FF49173836103F0EC
:101E84009DF808BD7047000038B50446C06A026872
:101E94000B4B9A420ED10A220A49FFF71DFD054653
:101EA40058B12146FFF74EFD044620B9284603F0F9
:101EB40085F800E00024204638BD0446FBE700BF57
:101EC4004E61BC005C03002050B110B5044640696B
:101ED40018B1204603F072F810BD03F06FF8F8E76C
:101EE40070470000F8B5FFF7DBFD002849D006462F
:101EF4002549002001F03EFB0446D8B14FF44C6163
:101F0400142003F051F80546D0B1002141607369F3
:101F140083601E4B036060658068FFF713FD07460E
:101F2400A0B1A0643046FFF7A9FDD8B14461206593
:101F34002046F8BD3046FFF7C7FF6FF00B04F7E704
:101F4400204603F03BF86FF00B04F1E7284603F05A
:101F540035F83046FFF7B8FF204603F02FF86FF04E
:101F64000B04E5E7204603F029F8284603F026F899
:101F7400384601F045FC3046FFF7A6FF6FF00B042E
:101F8400D6E76FF00B04D3E7587400084E61BC0029
:101F940030B4836D094C1D68A5420BD11A61996058
:101FA4005968C1F3080141F40051596002650020E9
:101FB40030BC70474FF0FF30FAE700BF4E61BC0001
:101FC40010B4836D09481C6884420BD19A6059632C
:101FD4005A68C2F3080242F4C0425A6000205DF815
:101FE400044B70474FF0FF30F9E700BF4E61BC006F
:101FF40000230360704700230360704708B5FFF7B0
:10200400F7FF08BD08B5FFF7F6FF08BD064B0B60E8
:102014000020486001238B60C860086180234B6105
:102024007F238B61704700BF4E61BC0011B110B1BA
:1020340041657047084670474B6D92889B685A60AB
:102044000020704738B5044602F0FAFF23682BB924
:102054000125256002F0EEFF284638BD02F0EAFFB4
:102064000020FAE738B5044606E002F0D5FF206008
:1020740038BD052002F0FCFF2046FFF7E3FF0128EE
:10208400F3D0256802F0C8FF8542F2D1F0E708B525
:1020940001F0DFFB08BD000008B5024804F074F944
:1020A400002008BD6874000810B5846DA36B0BB1E3
:1020B400002010BD4FF44C6140F21C4002F074FF4C
:1020C400A06308B10020F4E74FF0FF30F1E700000F
:1020D400F8B50F4671B3054616464FF44C613C20E3
:1020E40002F062FF044618B3134B03608660076175
:1020F400456348F2ED1343600027C7602430FFF7BF
:102104007DFF04F114066661A66104F11C03E3611A
:102114002362A7632F1D3846FFF7A4FF05F11802B9
:10212400AB695E606361A261AE613846FFF76AFF26
:102134002046F8BD0C46FBE74E61BC0010B50446D2
:1021440050B1084601F03FFB30B163680380236956
:102154000365024B8360846510BD00BF0804002042
:1021640038B54B685B6D002B31D014469B688BB33C
:102174005A68A2809A681205E261A361DB68A360D1
:1021840000220023C4E90C2304F03CF9134D2B680E
:10219400B0FBF3F0E06304F035F92B68B0FBF3F225
:1021A40003FB1200A06304F1400204F1380393E836
:1021B400030082E8030004F1480293E8030082E884
:1021C40003004FF48053E3600020A06538BD6FF036
:1021D4000100FBE76FF00100F8E700BF24080020CE
:1021E400F8B5054620B30E46436803F47043B3F5CF
:1021F400804F1FD100F124073846FFF733FFEC6905
:102204000C3C04F10C0305F11C0293420BD0314643
:102214006068FEF7DBF810B1E4680C3CF1E738467F
:10222400FFF7F0FE07E03846FFF7ECFE002402E07B
:10223400044600E000242046F8BD70B506460D466D
:102244008969806DFFF7CCFF044678B101462846C2
:10225400FFF7ECFE60B1F168A068FFF76FFF04467A
:1022640020B10146284601F0E9F90446204670BD34
:102274000446FBE710B5044640B1002001F0D1FA52
:1022840020B1C462024BC366024BC36010BD00BFE1
:10229400800400200005002038B54FF44C61202054
:1022A40002F082FE044620B3154B40F8043BFFF7CE
:1022B400A5FE04F11803A361E3610022114920463D
:1022C400FFF706FF0546B0B144F2ED1343606061C9
:1022D4000C4B036100F10C0353E8002F02F10102DF
:1022E40043E8002191F0000FF6D100F11C03C36113
:1022F4000362204638BD204602F060FE2C46F8E713
:102304004E61BC005C05002018B108B502F056FE11
:1023140008BD704761B338B50D468B6893B1041D91
:102324002046FFF79FFEAB680C3353E8002FA2F161
:10233400010243E8002191F0000FF6D14AB1204692
:10234400FFF760FE686802F039FE284602F036FEA8
:1023540038BDAB689A6959694A6011604FF480725C
:102364005A614FF491729A61A868FFF7CDFFE6E7CE
:10237400704708B5416D8B68586BFFF7CBFF08BDFC
:1023840038B505460C460846FFF7F3FF21462846B4
:1023940001F094F938BD70B5054614460E4619B1DE
:1023A40001F12400FFF75EFEA268536803F4704352
:1023B400B3F5804F13D02369E26853601A604FF479
:1023C4008073E3604FF4917323611EB106F124001E
:1023D400FFF718FE21462846FFF79CFF70BD02F167
:1023E4001C01D3699942E6D0002EF7D006F12400EF
:1023F400FFF708FEF2E708B5836D4A6D1946586B7E
:10240400FFF7C9FF002008BD2DE9F04180460028F0
:1024140047D00E461546002A45D0002945D04FF432
:102424004C61142002F0C0FD044690B3204B0360BD
:10243400002343602846FDF7A9FF4FF44C610130A7
:1024440002F0B2FD0746606030B3294603F0CEFDCA
:10245400A66004F10C05E560256106F10C0151E864
:10246400003F03F1010341E8003292F0000FF6D17E
:1024740008F124063046FFF7F5FD08F11C02D8F8F0
:102484001C305D60E3602261C8F81C503046FFF7E1
:10249400B9FD2046BDE8F081204602F08FFD3C46A0
:1024A400F7E70446F5E71446F3E70C46F1E700BF07
:1024B4004E61BC0070B506460C4611461A46FFF73D
:1024C40007FE0546E8B1049A01462046FFF79CFF43
:1024D400044608B1204670BD04363046FFF7C2FDFD
:1024E400AB696A6953601A604FF480736B614FF48F
:1024F4009173AB613046FFF785FD2846FFF704FF73
:10250400E8E70446E6E7000000B583B00092002344
:10251400054AFFF7CFFF18B1836844F2ED125A6001
:1025240003B05DF804FB00BF5C0500202DE9F04119
:102534000D4614469846104600F0BAFF0646AF6DA5
:1025440001463846FFF74CFE0146A8B18A68C8F335
:10255400080343F4004353602046FFF767FDB0B11E
:10256400E9683846FFF7EAFD014698B1204601F0D4
:1025740065F80020BDE8F08132463946786BFFF7F4
:10258400C3FF01460028E1D14FF0FF30F2E74FF0DE
:10259400FF30EFE74FF0FF30ECE710B582B0049C5A
:1025A4000094FFF787FF02B010BD00002DE9F04151
:1025B40082B00D4614469846104600F079FF064650
:1025C400AF6D01463846FFF70BFE0146B0B18A688D
:1025D400C8F3080343F4004353602046FFF726FD85
:1025E400C8B1E9683846FFF7A9FD0146B0B12046F5
:1025F40001F024F8002002B0BDE8F081786B009669
:102604000A23084A3946FFF7C8FF01460028DED1ED
:102614004FF0FF30EFE74FF0FF30ECE74FF0FF30C3
:10262400E9E700BF5C05002038B50D461446836C0D
:102634009269996DA86DFFF7E7FE58B101462046EF
:10264400FFF7F4FCEB682365A16C204600F0F6FF6D
:10265400002038BD6FF00B00FBE778B108B5806D42
:1026640058B18369426953601A604FF480734361BF
:102674004FF49173836102F0A1FC08BD7047000020
:1026840038B50446C06A02680B4B9A420ED10A223E
:102694000A49FFF71DFD054658B12146FFF74EFDD7
:1026A400044620B9284602F089FC00E000242046B4
:1026B40038BD0446FBE700BF4E61BC005C0500204A
:1026C40050B110B50446406918B1204602F076FCBA
:1026D40010BD02F073FCF8E770470000F8B5FFF78F
:1026E400DBFD002849D006462549002000F042FFC2
:1026F4000446D8B14FF44C61142002F055FC054651
:10270400D0B100214160736983601E4B0360606532
:102714008068FFF713FD0746A0B1A0643046FFF7B9
:10272400A9FDD8B1446120652046F8BD3046FFF7C5
:10273400C7FF6FF00B04F7E7204602F03FFC6FF091
:102744000B04F1E7284602F039FC3046FFF7B8FFE6
:10275400204602F033FC6FF00B04E5E7204602F05C
:102764002DFC284602F02AFC384601F049F8304690
:10277400FFF7A6FF6FF00B04D6E76FF00B04D3E767
:10278400587400084E61BC0070B504460D4600F252
:102794000C463046FFF766FCD4F80424D4F8083419
:1027A4009A4211D0E35C2B70D4F808340133D4F886
:1027B4000024B3FBF2F102FB1133C4F808343046B1
:1027C400FFF720FC002070BD3046FFF71BFC4FF0E4
:1027D400FF30F8E72DE9F04106460D469046002704
:1027E4000BE0012002F044FCF36A9B6D2919986BFD
:1027F400FFF7CAFF0028F4DB01373C464745F3D313
:102804000020BDE8F08170B504460D4600F20C4688
:102814003046FFF727FCD4F804144B1CD4F80024EA
:10282400B3FBF2F002FB1033D4F80824934207D030
:102834006554C4F804343046FFF7E4FB002070BD4F
:102844003046FFF7DFFB4FF0FF30F8E72DE9F041AA
:1028540006460D46904600270BE0012002F008FCD6
:10286400F36A9B6D295D986BFFF7CDFF0028F4DBBD
:1028740001373C464745F3D30020BDE8F0810023EF
:102884000360704700230360704708B5FFF7F7FF44
:1028940008BD08B5FFF7F6FF08BD0000064B0B6046
:1028A4000020486001238B60C860086180234B616D
:1028B4007F238B61704700BF4E61BC0011B110B122
:1028C40041657047084670474B6D92889B685A6013
:1028D4000020704708B500F0BCFF08BD08B50248E9
:1028E400FDF7CCFF002008BD8474000808B5024839
:1028F400FDF7C4FF002008BD9C74000808B5024819
:10290400FDF7BCFF002008BDB474000808B50248F8
:10291400FDF7B4FF002008BDCC74000838B50446A8
:1029240002F08EFB23682BB90125256002F082FB9F
:10293400284638BD02F07EFB0020FAE738B504468D
:1029440006E002F069FB206038BD052002F090FB30
:102954002046FFF7E3FF0128F3D0256802F05CFB73
:102964008542F2D1F0E70000F8B50F4669B3054699
:1029740016464FF44C613C2002F016FB044610B39B
:10298400134B036086600761856348F2ED1343606F
:102994000023C3602430FFF778FF04F11406666156
:1029A400A66104F11C03E36123622F1D3846FFF77F
:1029B400C5FF05F11802AB695E606361A261AE6197
:1029C4003846FFF766FF2046F8BD0C46FBE700BF1C
:1029D4004E61BC0010B5044650B1084600F0F3FE49
:1029E40030B16368038023690365024B83608465A7
:1029F40010BD00BF0806002038B54B685B6D002B86
:102A040031D014469B688BB35A68A2809A68120529
:102A1400E261A361DB68A36000220023C4E90C2304
:102A240003F0F0FC134D2B68B0FBF3F0E06303F00C
:102A3400E9FC2B68B0FBF3F203FB1200A06304F182
:102A4400400204F1380393E8030082E8030004F130
:102A5400480293E8030082E803004FF48053E360E4
:102A64000020A06538BD6FF00100FBE76FF00100A6
:102A7400F8E700BF24080020F8B5054620B30E4649
:102A8400436803F47043B3F5804F1FD100F124076A
:102A94003846FFF753FFEC690C3C04F10C0305F1D5
:102AA4001C0293420BD031466068FDF78FFC10B1D5
:102AB400E4680C3CF1E73846FFF7EBFE07E03846E4
:102AC400FFF7E7FE002402E0044600E0002420466D
:102AD400F8BD70B506460D468969806DFFF7CCFFD9
:102AE400044678B101462846FFF7E8FE60B1F16874
:102AF400A068FFF76FFF044620B10146284600F0A6
:102B04009DFD0446204670BD0446FBE710B504460F
:102B140040B1002000F085FE20B1C462024BC366C0
:102B2400024BC36010BD00BF8006002000070020D8
:102B340038B54FF44C61202002F036FA044620B335
:102B4400154B40F8043BFFF7A0FE04F11803A36102
:102B5400E361002211492046FFF706FF0546B0B1A4
:102B640044F2ED13436060610C4B036100F10C030C
:102B740053E8002F02F1010243E8002191F0000F15
:102B8400F6D100F11C03C3610362204638BD204620
:102B940002F014FA2C46F8E74E61BC005C070020F2
:102BA40018B108B502F00AFA08BD704761B338B528
:102BB4000D468B6893B1041D2046FFF7BFFEAB683A
:102BC4000C3353E8002FA2F1010243E8002191F0F5
:102BD400000FF6D14AB12046FFF75BFE686802F0A9
:102BE400EDF9284602F0EAF938BDAB689A695969EB
:102BF4004A6011604FF480725A614FF491729A6185
:102C0400A868FFF7CDFFE6E7704708B5416D8B680C
:102C1400986BFFF7CBFF08BD38B505460C46084650
:102C2400FFF7F3FF2146284600F048FD38BD70B594
:102C3400054614460E4619B101F12400FFF77EFE45
:102C4400A268536803F47043B3F5804F13D023692B
:102C5400E26853601A604FF48073E3604FF4917339
:102C640023611EB106F12400FFF713FE2146284616
:102C7400FFF79CFF70BD02F11C01D3699942E6D0B5
:102C8400002EF7D006F12400FFF703FEF2E708B5A3
:102C9400836D4A6D1946986BFFF7C9FF002008BD84
:102CA4002DE9F0418046002847D00E461546002AFB
:102CB40045D0002945D04FF44C61142002F074F93A
:102CC400044690B3204B0360002343602846FDF77D
:102CD4005DFB4FF44C61013002F066F90746606019
:102CE40030B3294603F082F9A66004F10C05E560CF
:102CF400256106F10C0151E8003F03F1010341E8AD
:102D0400003292F0000FF6D108F124063046FFF7A6
:102D140015FE08F11C02D8F81C305D60E3602261E6
:102D2400C8F81C503046FFF7B4FD2046BDE8F081DA
:102D3400204602F043F93C46F7E70446F5E714461B
:102D4400F3E70C46F1E700BF4E61BC0070B50646E0
:102D54000C4611461A46FFF707FE0546E8B1049AE9
:102D640001462046FFF79CFF044608B1204670BD8B
:102D740004363046FFF7E2FDAB696A6953601A60B6
:102D84004FF480736B614FF49173AB613046FFF77E
:102D940080FD2846FFF704FFE8E70446E6E7000065
:102DA40000B583B000920023054AFFF7CFFF18B1A6
:102DB400836844F2ED125A6003B05DF804FB00BF6F
:102DC4005C0700202DE9F0410D4614469846104654
:102DD40000F06EFB0646AF6D01463846FFF74CFE29
:102DE4000146A8B18A68C8F3080343F4004353605A
:102DF4002046FFF763FDB0B1E9683846FFF7EAFD06
:102E0400014698B1204600F019FC0020BDE8F0818D
:102E140032463946B86BFFF7C3FF01460028E1D1BB
:102E24004FF0FF30F2E74FF0FF30EFE74FF0FF30A5
:102E3400ECE710B582B0049C0094FFF787FF02B062
:102E440010BD00002DE9F04182B00D4614469846AD
:102E5400104600F02DFB0646AF6D01463846FFF7DD
:102E64000BFE0146B0B18A68C8F3080343F400437B
:102E740053602046FFF722FDC8B1E9683846FFF7E2
:102E8400A9FD0146B0B1204600F0D8FB002002B0F5
:102E9400BDE8F081B86B00960A23084A3946FFF76B
:102EA400C8FF01460028DED14FF0FF30EFE74FF0B6
:102EB400FF30ECE74FF0FF30E9E700BF5C0700208C
:102EC40038B50D461446836C9269996DA86DFFF769
:102ED400E7FE58B101462046FFF7F0FCEB68236596
:102EE400A16C204600F0AAFB002038BD6FF00B0057
:102EF400FBE778B108B5806D58B1836942695360C6
:102F04001A604FF4807343614FF49173836102F04C
:102F140055F808BD7047000038B50446C06A026819
:102F24000B4B9A420ED10A220A49FFF71DFD0546B2
:102F340058B12146FFF74EFD044620B9284602F059
:102F44003DF800E00024204638BD0446FBE700BFFE
:102F54004E61BC005C07002050B110B504464069C6
:102F640018B1204602F02AF810BD02F027F8F8E75D
:102F740070470000F8B5FFF7DBFD002849D006468E
:102F84002549002000F0F6FA0446D8B14FF44C610C
:102F9400142002F009F80546D0B10021416073699C
:102FA40083601E4B036060658068FFF713FD07466E
:102FB400A0B1A0643046FFF7A9FDD8B144612065F3
:102FC4002046F8BD3046FFF7C7FF6FF00B04F7E764
:102FD400204601F0F3FF6FF00B04F1E7284601F0FF
:102FE400EDFF3046FFF7B8FF204601F0E7FF6FF032
:102FF4000B04E5E7204601F0E1FF284601F0DEFF7F
:10300400384600F0FDFB3046FFF7A6FF6FF00B04D7
:10301400D6E76FF00B04D3E7587400084E61BC0088
:1030240010B4002301E0C4540133934202D2CC5CB7
:10303400002CF8D10024C454934201D0CA5C1AB9BC
:1030440018465DF8044B70474FF0FF30F9E7000075
:1030540040F2FF10B0F5C07F16DB01460C4BA3FB1A
:103064000023C21A03EB52039B09C3EBC313C31A15
:10307400084A52F8233023B15A68914202D01B689F
:10308400F9E770470138E5E76FF00F00704700BFBC
:10309400110804020C0A002084461548A0FB0C30D9
:1030A400ACEB000300EB53008009C0EBC010ACEBA9
:1030B4000000104B03EB8003186898B110B402E0D1
:1030C4000346006840B144686445F9D184688C4281
:1030D400F6D1C4689442F3D108B102681A605DF86D
:1030E400044B704710B102681A607047704700BF04
:1030F400110804020C0A002001614261002070479B
:103104000246154BA3FB0203D01A03EB50039B09A1
:10311400C3EBC313D31A114850F8230005E0036D21
:1031240058685DF8044B70470068A0B14368934247
:10313400FAD183688B42F7D810B4C46823448B4215
:10314400EDD800680028ECD043689342F9D1836835
:103154008B42F6D8F1E77047110804020C0A0020EC
:1031640038B5054601F020FF04462A460021FDF744
:1031740064F9204638BD08B54FF44C611820FFF7B8
:10318400EFFF034618B100F108028260C2601846DE
:1031940008BD0023036043608360C360036143612F
:1031A40000F108038360C360416070472DE9F04F6C
:1031B40083B004469946B0F5007F1ED20E461746EA
:1031C400C1F58013934222D34FF44C615420FFF78E
:1031D400C7FF804600286CD054B3374DA5FB043597
:1031E400631B05EB5305AD09C5EBC515651B334BD7
:1031F40053F825A04FF0000B2DE040F2FF130246D8
:1032040049462F4803F0C0F86FF015080CE0531836
:103214002C4A019200220092013B0A4649462A4860
:1032240003F0B2F86FF01508404603B0BDE8F08F24
:10323400FFF70EFF041ED0DA4946244803F0A4F831
:1032440001E06FF00F04404601F0B8FEA046EBE742
:10325400D346DAF800A0BAF1000F0ED0DAF8043041
:10326400A342F5D309D8DAF80820DAF80C3013446D
:10327400B342EDD9BB199A42E3D3C8F80440C8F865
:103284000860C8F80C704022494608F11000FFF7A6
:10329400C7FEBBF1000F06D0DBF80030C8F80030E1
:1032A400CBF80080C0E7C8F800A0044B43F82580A1
:1032B400BAE76FF00B08B7E7110804020C0A002004
:1032C400F0740008FFFF0F00347500089C750008B7
:1032D40010B504460020FFF769FF034610F5805F30
:1032E40094BF0020012028B95A689B6843EA02531E
:1032F400236010BD1846FCE72DE9F84305469146C6
:1033040000EB010804460AE04B463A1BC4F31301E0
:10331400FFF74CFF064610F5805F18D83C4644453D
:1033240007D2200D461C3705B8EB065FECD24746A2
:10333400EAE700200EE0280D421C1705C5EB0252F7
:10334400C5F31301FFF7A8FE01F038FE3D46AC4279
:10335400F1D83046BDE8F8832DE9F84380460E469F
:103364001746089DFFF722FF044610F5805F15D825
:10337400FFF701FF814698B12B68036045606168DF
:103384003A4646EA0151FFF7B7FE054650B9C4F87C
:103394005090B8F1000F0CD165680AE0054608E0CA
:1033A4006FF00B053A4631466068FFF775FE01F091
:1033B40005FE2846BDE8F88338B50346451807E0FE
:1033C400E21AC3F31301FFF767FE01F0F7FD23468A
:1033D400AB4207D2180D421C1405B5EB025FEFD2C5
:1033E4002C46EDE738BD08B501F0E8FD08BD10B581
:1033F400FFF752FE044618B1006D08B1FFF7F3FF62
:10340400204601F0DBFD10BD074A01E003F11C0278
:1034140013682BB18342F9D1C3691360002070474C
:103424006FF01500704700BF080C0020C8B138B514
:10343400054601680C4802F0A7FF0C4C00E01C3460
:10344400246844B129682068FCF7C0FF0028F6D13D
:103454006FF0100004E0054B1A68EA611D6000205B
:1034640038BD4FF0FF30704778760008080C002014
:1034740038B50546064B1C6800E0E4692CB12946C2
:103484002068FCF7A3FF0028F7D1204638BD00BF11
:10349400080C00200023036070470023036070477A
:1034A40008B5FFF7F7FF08BD08B5FFF7F6FF08BD3D
:1034B40008B180697047704700F108020B688360A7
:1034C40033B110B45A600A60C1605DF8044B7047B0
:1034D4000A60C160704778B32DE9F0410C46054697
:1034E40069B30846FCF752FF06464FF44C6101F0FD
:1034F4005BFD074630B3214602F078FDA86905F16B
:103504001C0840450AD048B118B1404501D001F02B
:1035140055FD6E61AF610020BDE8F0812A2EF3DC19
:10352400384601F04BFDC5F818802146404602F0AC
:103534005DFD6E610020EFE74FF0FF3070474FF004
:10354400FF30E9E76FF00B00E6E710B50446426888
:10355400936E013B936600F11C038069834205D09E
:1035640001F02CFD204601F029FD10BD204601F09C
:1035740025FDFAE770B506460D464FF44C617C20F4
:1035840001F012FDD8B104467C220021FCF755FF5E
:1035940029462046FFF79FFF00280ADB002323600B
:1035A400A360E36004F16C00FFF77AFF2665204610
:1035B40070BD204601F002FD6FF00B04F7E76FF0D9
:1035C4000B04F4E738B5044601F03AFD23682BB93F
:1035D4000125256001F02EFD284638BD01F02AFDA5
:1035E4000020FAE738B5044606E001F015FD206036
:1035F40038BD052001F03CFD2046FFF7E3FF01281C
:10360400F3D0256801F008FD8542F2D1F0E770B5EA
:103614000446006DFFF7AEFF054668B104F16C0681
:103624003046FFF7DFFFA36E0133A3666C60236DA2
:103634002B653046FFF738FF284670BD38B5044681
:103644000D464368986C2C30FFF7CCFFA564EB68FB
:10365400236561682046FFF72FFF6368986C2C3060
:10366400FFF722FF204638BD40B110B5044648306C
:1036740000F0C6F82046FFF768FF10BD704738B564
:103684000D46046814B1083C00E0083C44B12946E6
:10369400A069FCF79BFE18B1A468002CF5D1F5E7EE
:1036A400204638BD8368C268136003B15A604FF482
:1036B400807383604FF49173C360704738B50C46D0
:1036C400054610B12C30FFF78DFF2046FFF7EAFFC7
:1036D4002046FFF7C9FF1DB105F12C00FFF7E4FEFA
:1036E40038BD00230360704700230360704708B5AA
:1036F400FFF7F7FF08BD08B5FFF7F6FF08BD38B5BB
:10370400044601F09DFC23682BB90125256001F0D6
:1037140091FC284638BD01F08DFC0020FAE738B54D
:10372400044606E001F078FC206038BD052001F075
:103734009FFC2046FFF7E3FF0128F3D0256801F042
:103744006BFC8542F2D1F0E7F8B50546866C06F1CC
:103754002C073846FFF7E3FF4FF44C61702001F06B
:1037640023FCB0B10446304600F022F83846FFF797
:10377400C2FF702200212046FCF75FFE04F15C00CA
:10378400FFF7B5FF336D6362E662AB69A36320465E
:10379400F8BD3846FFF7AFFF6FF00B04F7E710B53D
:1037A4000446C06A00F02CF8204601F007FC10BD66
:1037B4004C3050E8003F03F1010340E8003292F03E
:1037C400000FF6D1704738B505464FF44C615C20C4
:1037D40001F0EAFB044658B15C220021FCF72DFEFF
:1037E40042F2FF13238002F00DFEE5600123E3643F
:1037F400204638BD18B108B501F0E0FB08BD70479C
:1038040008B500F14C0353E8002FA2F1010243E88C
:10381400002191F0000FF6D102B108BDFFF7EAFFD5
:10382400FBE738B505464FF44C61742001F0BCFB4E
:1038340060B1044674220021FCF7FFFD246064603B
:10384400A56104F124036362A36238BD6FF00B0029
:10385400FBE718B108B501F0B1FB08BD70470023C0
:103864000360704708B5FFF7FAFF08BD38B5044692
:1038740001F0E6FB23682BB90125256001F0DAFB92
:10388400284638BD01F0D6FB0020FAE738B50446D7
:1038940006E001F0C1FB206038BD052001F0E8FB23
:1038A4002046FFF7E3FF0128F3D0256801F0B4FBBD
:1038B4008542F2D1F0E7000070B50446204B1B604E
:1038C4005B60FFF7D5FD00282ED00546066900236E
:1038D4001A461946B047036D13F5805F94BF00255F
:1038E400012525BB2BB35A6932B3164908681863FE
:1038F4000A7983F8342003F12400114A16687060B1
:103904005E629A6210605A690F4802601365936C94
:1039140044F2ED121A800068FFF7DDFD21460B48E2
:1039240002F032FD284670BD4FF0FF35FAE700255E
:10393400F8E74FF0FF35F5E74FF0FF35F2E700BF4A
:103944000C0C002058740008140C00209C7700080C
:103954002DE9F84F07460E4615461046FFF788FD39
:1039640000283ED081460021304600F0CBF90446C1
:1039740010F5805F94BF4FF000084FF00108B8F1D4
:10398400000F31D1836C1B8803F47043B3F5804F6F
:103994002DD100F16C0A5046FFF778FFD9F810B02A
:1039A4000A9B3A4600214846D847036D13F5805FC9
:1039B40094BF4FF000094FF00109B9F1000F19D17C
:1039C400D3B123655B699B6CA3645046FFF74AFF40
:1039D40033462A4639460A4802F0D6FC4846BDE832
:1039E400F88F6FF01209F9E76FF00109F6E76FF04D
:1039F4001309F3E7C146F1E76FF00B09EEE700BFE7
:103A0400B077000800230360704708B5FFF7FAFF9A
:103A140008BD10B44FF0000C634602E0944507D093
:103A24000133C45C74B12F2CF8D10CF1010CF5E70F
:103A340001330022D418045D4CB18C542F2C06D0D1
:103A44000132F7E74FF0FF305DF8044B7047002078
:103A54008854F9E784460020034600E00133194600
:103A64001CF803203AB12F2AF8D161444A78002A7D
:103A7400F4D00130F2E7704738B504460D46FFF73D
:103A8400FEFD00B138BD29462046FFF7C0FD0546BE
:103A940068B1A06C83681B680022294698470028F7
:103AA400F0D12846FFF751FD6FF00100EAE76FF00F
:103AB4000B00E7E770B582B005460C4616460022B7
:103AC400FFF7DAFF10F5805F08D821461A4802F0A4
:103AD4005BFC6FF01004204602B070BD21462846FE
:103AE400FFF795FD044618B3A96C8A6855696DB152
:103AF40006F47043B3F5004F0DD0B3F5804F11D1E8
:103B0400556A334602460020A84709E0FFF71DFD29
:103B14006FF01D04DFE70020009033462246A847DB
:103B24000028D8DA2046FFF710FD6FF00B04D2E727
:103B34006FF00B04CFE700BFC877000808B5024850
:103B440002F022FC08BD00BFE477000838B5044643
:103B540001F076FA23682BB90125256001F06AFA91
:103B6400284638BD01F066FA0020FAE738B5044665
:103B740006E001F051FA206038BD052001F078FA22
:103B84002046FFF7E3FF0128F3D0256801F044FA4B
:103B94008542F2D1F0E72DE9F84350B38846174641
:103BA4001D46044600F15C063046FFF7DFFF636AFA
:103BB400E3B1E06A2C30FFF7D9FF636AD3F80C90C5
:103BC400B9F1000F0FD02B463A4641462046C8476C
:103BD4000546E06A2C30FFF718FF3046FFF715FF63
:103BE4002846BDE8F8836FF00805F2E76FF0080592
:103BF400F3E74FF0FF35F3E72DE9F04748B30D46FF
:103C040091461F460446036B13F0030F1CD000F1CA
:103C14005C063046FFF7AAFF636A7BB1E06A2C308A
:103C2400FFF7A4FF636AD3F810A03B464A4629462F
:103C34002046D047E06A2C30FFF7E7FE3046FFF716
:103C4400E4FE4046BDE8F087FFF778FF6FF0080810
:103C5400F7E74FF0FF38F4E7F8B568B30F461546B9
:103C64000446036B13F0030F1BD000F15C063046CF
:103C7400FFF77CFF636AE3B1E06A2C30FFF776FF5D
:103C8400636A9B6A93B12A4639462046984705469B
:103C9400E06A2C30FFF7B9FE3046FFF7B6FE28463F
:103CA400F8BDFFF74BFF6FF00805F8E76FF0080564
:103CB400EEE76FF00805EFE74FF0FF35EFE7E8B107
:103CC40038B5044600F15C052846FFF74FFF636AE8
:103CD4006BB1E06A2C30FFF749FF636ADB6B13B109
:103CE4002146E06A9847E06A2C30FFF78EFE2846AA
:103CF400FFF78BFE2046FFF752FD38BD4FF0FF3033
:103D0400704700002DE9F041A0B0074638B30E46D5
:103D140003782F2B1AD03846FFF79CFE8046114BB0
:103D24001C680125A8EB0603AB4214DB2A4669464E
:103D34003846FFF76EFE002269462046FFF79CFED8
:103D4400044610F5805F06D80135EBE74378002B75
:103D5400E1D1044B1C68204620B0BDE8F081044644
:103D6400F9E700BF140C002070B5A0B006460D465C
:103D74000121FFF7C7FF044610F5805F0ED8836C5E
:103D84001B8803F47043B3F5804F0ED081690E484D
:103D940002F0FAFA6FF0130020B070BD01460B4830
:103DA40002F0F2FA6FF00100F6E73046FFF752FE38
:103DB400024669463046FFF72CFE2A4669462046ED
:103DC400FFF778FEE8E700BF2C7800080C780008BD
:103DD400F8B505460F46164601462A4802F0D4FABD
:103DE40000212846FFF78EFF044610F5805F29D88E
:103DF4002046FFF7A9FC044610F5805F94BF002518
:103E04000125002D3BD10763066200F15C063046B4
:103E1400FFF7ACFE636A73B1E06A2C30FFF7A6FECD
:103E2400636A5B6B1BB12146E06A98470546E06A0A
:103E34002C30FFF7EAFD3046FFF7E7FD002D19DBD4
:103E44002046F8BD10F1020FFAD117F0400FF7D059
:103E540029460D4802F098FA46F400412846FFF737
:103E640083FF044610F5805FC2D92946074802F053
:103E74008BFAE5E72046FFF792FC0024E0E76FF0B9
:103E84000B04DDE7507800086078000880780008AB
:103E940008B50B4609B940F2ED13C3F3080141F428
:103EA4008041FFF761FF08BD70B582B01648FFF787
:103EB40003FD002822DB154E00213046FFF7E8FF02
:103EC40000211348FFF7E4FF00211248FFF7E0FF49
:103ED400114D00212846FFF7DBFF00240094234600
:103EE4000E4A31462046FFF733FD009423460C4A20
:103EF40029462046FFF72CFD02B070BD094802F0A8
:103F040043FA4FF0FF30F7E7E4740008B87800088C
:103F1400C0780008C8780008D078000860740008E9
:103F24007C7400089C78000810B582B0074C00210E
:103F34002046FFF7ADFF064B00930023054A2146B8
:103F44001846FFF705FD02B010BD00BFDC7800087D
:103F5400F4780008EC78000800230360704708B583
:103F6400FFF7FAFF08BD00002DE9F04389B00646CB
:103F74000F4615464FF44C616C2001F015F80028EB
:103F840059D004462946384600F090FA012858D002
:103F940001222946384600F0F7FA814602222946D2
:103FA400384600F0F1FA804603222946384600F0EC
:103FB400EBFAC4F80090C4F80480B368A36002F07C
:103FC40021FA2061F368E360B3695A1CB261A3610A
:103FD40004F12400FFF7C3FF00276763A763E764C6
:103FE400202219496846FCF728FAB1680C31684662
:103FF40001F0FCFF6846FCF7C9F9431C00F12002FC
:104004000DEB020010F8202C20336B4403F8202C15
:104014006846FCF7BBF9303500F120030DEB0300D3
:1040240000F8205C6A46B1682046FDF799F83846E6
:1040340009B0BDE8F083054802F0A6F96FF00B0063
:10404400F6E74FF0FF30F3E7D06E00084079000840
:1040540070B5064600F07AFA10F5805F94BF00242C
:10406400012424B90546094802F08EF904E0084801
:1040740002F08AF909E00134032C06DC22462946C1
:104084003046FFF771FF0028F5DA70BD7479000837
:104094005C79000870B50546836BD3B1AC6BA56041
:1040A4002B6CE36002F0AEF920612B68A36104F18C
:1040B4002400FFF754FF00266663A663E6643246D5
:1040C40029462046FDF74CF82046FFF7C1FF30464D
:1040D40070BD4FF44C616C2000F066FF08B1A8631A
:1040E400DCE7034802F050F96FF00B00F0E700BF83
:1040F4004079000800230360704708B5FFF7FAFF12
:1041040008BD38B5044600F09BFF23682BB9012590
:10411400256000F08FFF284638BD00F08BFF00209B
:10412400FAE738B5044606E000F076FF206038BDB3
:10413400052000F09DFF2046FFF7E3FF0128F3D0A0
:10414400256800F069FF8542F2D1F0E770B50446B6
:104154004368DD6886683DB101224FF44C6128460E
:1041640000F026FA05464660A369626812681344A3
:10417400EB612146284600F03AFA6368D8680830B3
:10418400FFF7CFFF63682946D86800F09DFA63689B
:10419400D8680830FFF7B1FF6368D868D0F8D83022
:1041A4009847E36A0BB12046984770BD2DE9F04764
:1041B40080460D461746994604292CD801EB410642
:1041C400B60044364FF0010A4946304600F0ECFE92
:1041D4000446E8B132460021FCF72FF9BAF1000F8A
:1041E4001DD004F14403E363E58600232360636088
:1041F400A360A381637401226261A263A361E3618A
:1042040023626362A386E3622363C4F80480A76025
:104214002046BDE8F0874FF0000A4426D4E705EBBA
:1042240045004946800000F0BFFE0646E06308B141
:10423400E586DAE7204600F0C1FE3446E8E7C0B17F
:1042440010B5044600F1380353E8002FA2F101022F
:1042540043E8002191F0000FF6D14AB9C06B04F194
:104264004403984201D000F0A9FE204600F0A6FEC7
:1042740010BD704748B3844651B3B3F5805F34BF73
:104284000020012038BB30B5BCF834E0BCF836401F
:10429400A64523D2DCF81C401444B4F5801F20D872
:1042A400DCF83C500EEB4E0E05EB8E0445F82E1058
:1042B400A3606260DCF81C301344CCF81C30BCF8FA
:1042C40034300133ACF8343030BD6FF00B0070473C
:1042D4006FF00B0070476FF00B0070476FF00B002E
:1042E400F2E76FF00B00EFE708B5FFF7C3FF08BD77
:1042F40070B505460E464FF44C61742000F054FE30
:10430400F0B104462DB9104A13780133DBB21370AF
:104314000360256000256560A6600C4E33780C4A66
:10432400202104F10C0002F01FFC337801333370B8
:10433400A564E5642566A5660123E366204670BD91
:104344006FF00B04FAE700BFE4070020E507002044
:104354009079000808B500F031FE08BD08B50146A3
:10436400202000F021FE034620B100220260826179
:10437400C2614260184608BD08B5FFF760FF08BD7A
:104384002DE9F04383B00646884617461D464FF490
:104394004C60FFF7E3FF48B381464560174B009339
:1043A4004FF44C630A9A01213046FFF7FFFE04469E
:1043B400838923F4006282814268964202D023F406
:1043C400046383816660C4F818800D4BE3620023A4
:1043D4003A4649462046FFF787FF002809DB204676
:1043E400FFF7B4FE284603B0BDE8F0836FF00B0975
:1043F400D4E72046FFF723FF0020F4E7180C002041
:104404007D430008002846D070B582B00C460646AD
:10441400002943D04FF44C614FF4007000F0C4FD08
:104424000546F0B10021009103464FF40072304676
:10443400FFF7A6FFE8B105F5DF7304F5797105F51B
:10444400FF7ED3F800C05C689868DA68C1F800C0E1
:104454004C608860CA60103310317345F1D1002379
:1044640011E04FF400710F4801F08EFF4FF0FF3060
:104474000FE00D4801F088FF284600F09FFD4FF043
:10448400FF3006E00133032BFCDD284600F096FDE7
:10449400002002B070BD4FF0FF3070474FF0FF3086
:1044A400F7E700BF98790008B07900083E3100EBC7
:1044B4000110043000230F2B03D8C25C1AB9013356
:1044C400F9E701207047002070470000032911D844
:1044D40038B504460D46FFF7E9FF012804D004EB84
:1044E4000514D4F8EC0338BD044801F04DFF4FF037
:1044F400FF30F8E74FF0FF30704700BFCC79000879
:1045040003290BD838B504460D46FFF7CFFF012821
:1045140007D004EB0514D4F8F00338BD4FF0FF3096
:1045240070474FF0FF30F8E703290BD838B505463C
:104534000C46FFF7BBFF012806D03E3405EB0415FB
:10454400287A38BDFF207047FF20FAE738B50546C2
:10455400A8B14FF44C6140F2244000F025FD04461C
:1045640078B101462846FFF74DFF002801DB2046BD
:1045740038BD204600F022FD6FF00404F7E704463E
:10458400F5E76FF00B04F2E780B108B5012A04D017
:10459400022A05D0032A06D008BDFFF797FFFBE7E0
:1045A400FFF7AEFFF8E7FFF7BFFFF5E7002070471E
:1045B40070B506460D4611465C2000F0F5FC044635
:1045C4005C220021FBF739FF2660656004F12803B3
:1045D400A362E3620123236401F014FF60630023F8
:1045E400A36323634FF47A736361204670BD002391
:1045F4000B60036A33B1436A196041628369013312
:104604008361704701624162F8E7002303607047E9
:1046140000230360704708B5FFF7F7FF08BD08B52E
:10462400FFF7F6FF08BD38B5044600F009FD23681E
:104634002BB90125256000F0FDFC284638BD00F0AB
:10464400F9FC0020FAE738B5044606E000F0E4FC83
:10465400206038BD052000F00BFD2046FFF7E3FF86
:104664000128F3D0256800F0D7FC8542F2D1F0E7A9
:10467400F8B505460E464FF44C61E02000F094FC7A
:104684000446C8B10027076047600830FFF7C3FF3E
:10469400A761E6618023E36320236364C4F8C45004
:1046A4004FF47A73C4F8C83004F1CC03C4F8CC30A6
:1046B400C4F8D030C4F8D4702046F8BD18B108B599
:1046C40000F07CFC08BD704710B401F1280200F131
:1046D400CC04D0F8D030C0F8D0208C62CB621A6001
:1046E4005DF8044B704738B50C4600F108052846C0
:1046F400FFF7A9FF04F12803A26A934208D0E26AF3
:10470400A16A4A601160A362E362204600F056FC8D
:104714002846FFF784FF38BD38B5044600F1080584
:104724002846FFF790FF04F1CC02D4F8CC309A422B
:1047340012D0D4F8CC30A3F128045A6819684A601E
:1047440011604FF480721A604FF491725A602846D7
:10475400FFF765FF204638BD0024F8E710B5044C88
:1047640002E054F8043B9847024B9C42F9D110BD37
:10477400A4850008A485000810B5044C02E054F890
:10478400043B9847024B9C42F9D110BDA485000814
:10479400A485000810B5044C02E054F8043B984783
:1047A400024B9C42F9D110BDA4850008A8850008DD
:1047B40010B5044C02E054F8043B9847024B9C4269
:1047C400F9D110BDA8850008AC85000810B5044CCB
:1047D40002E054F8043B9847024B9C42F9D110BDC7
:1047E400AC850008AC85000810B5044C02E054F810
:1047F400043B9847024B9C42F9D110BDAC8500089C
:10480400B085000810B5044C02E054F8043B984706
:10481400024B9C42F9D110BDB0850008B085000858
:1048240010B5044C02E054F8043B9847024B9C42F8
:10483400F9D110BDB0850008B085000810B5044C4E
:1048440002E054F8043B9847024B9C42F9D110BD56
:10485400B0850008B085000810B5044C02E054F897
:10486400043B9847024B9C42F9D110BDB085000827
:10487400B085000810B5044C02E054F8043B984796
:10488400024B9C42F9D110BDB0850008BC850008DC
:1048940010B5044C02E054F8043B9847024B9C4288
:1048A400F9D110BDBC850008BC85000810B5044CC6
:1048B40002E054F8043B9847024B9C42F9D110BDE6
:1048C400BC850008C085000810B5044C02E054F80B
:1048D400043B9847024B9C42F9D110BDC0850008A7
:1048E400C885000810B5044C02E054F8043B98470E
:1048F400024B9C42F9D110BDC8850008D085000840
:1049040010B5044C02E054F8043B9847024B9C4217
:10491400F9D110BDD0850008D085000810B5044C2D
:1049240002E054F8043B9847024B9C42F9D110BD75
:10493400D0850008D085000808B5054A054B9A4281
:1049440003D0104600F004FE00B1FEE708BD00BF2E
:10495400D08500089B88000808B500F0E1FA00F053
:10496400EDFA08BD08B501F0EDFC024801F00CFDBC
:1049740008BD00BFF47900080CB42DE9F041A4B0DF
:1049840005460E462AAC54F8047B002000F030FBA8
:1049940003940DF1100823463A468021404601F065
:1049A4001FFF00270197CDF80080082332464FF4FB
:1049B4000051284600F0AAFC0446384600F022FBC9
:1049C400204624B0BDE8F04102B0704700B583B082
:1049D400084B0093012302220D21074801F0D4FC67
:1049E400064801F0D1FC064801F0CEFC03B05DF8A6
:1049F40004FB00BF2C7A0008047A00083C7A000803
:104A04004C7A000810B5164801F0BEFC00220221C1
:104A14001448FFF7DDF910F5805F18D80446122218
:104A24004021FFF719F9002815DB00220221204656
:104A3400FFF712F9002301220B492046FFF7DCF8A7
:104A44000023012209492046FFF7D6F8F2E7084877
:104A540001F09AFC02E0074801F096FC10BD00BF8B
:104A6400647A000820730008A07200082C6F000804
:104A7400CC720008F872000808B5FFF7C3FEFFF710
:104A8400CFFEFFF7DBFEFFF7E7FEFFF71DFFFFF7A3
:104A940029FFFFF735FFFFF741FFFFF7B3FF00F0F2
:104AA40063FA810A014801F06FFC08BD707A0008BE
:104AB40008B5FBF721FDFFF751FEFFF75DFEFFF799
:104AC4003BFFFFF749FFFBF7D5FEFFF77FFFFCF73E
:104AD400B9FA00F049FA810A0E4801F055FCFFF7D3
:104AE400C9FEFFF7D5FEFFF7E1FE02F08DF8FFF7F0
:104AF40039FFFFF74FFEFFF75BFE074A0021074827
:104B0400FFF73AFF064801F03FFCFFF75FFEFFF7AF
:104B14006BFEFEE7707A0008907A00087D4A000870
:104B24009C7A0008002303607047002303607047E9
:104B340008B5FFF7F7FF08BD08B5FFF7F6FF08BD96
:104B44000378C94349B20B400370704703780B43A1
:104B54000370704703780B4201D001207047002096
:104B64007047C06870470069704780687047844622
:104B740048B181681431002303E000220CF80320BB
:104B840001338B42F9DB70472DE9F0410546132AC6
:104B94001AD90C4616469846A2F114038B604AF6BD
:104BA400CD334B8001212046FFF7CAFF0027276140
:104BB400E7606C60284600F8088BFFF7B9FFAE6128
:104BC400EC613846BDE8F081002383610370C36162
:104BD40043604FF0FF30F5E7F8B5044608B30D46DF
:104BE40001B301F11407FFF7C0FF87421CD801216C
:104BF4002046FFF7AFFF012818D0E619A368DB1B96
:104C0400B360A56001213046FFF79AFFE368F360C3
:104C14004AF6CD337380E36803B11E61E660346104
:104C24002046F8BD0020FCE70020FAE70020F8E762
:104C340070B50446B0B1FFF796FF05462046FFF76E
:104C440090FF064601212046FFF77AFF25B1012196
:104C54002846FFF77FFF38B126B101213046FFF720
:104C640079FF70B1204670BDAB68A2681344143359
:104C7400AB60EE6006B135612046FFF778FF2C4645
:104C8400F0E7A368B26813441433A360F368E360E5
:104C940003B11C613046FFF76AFFE3E751B110B579
:104CA4000846002302E0FFF7C3FF234684689C42C2
:104CB400F9D110BD7047F8B5074658B10E461546F0
:104CC400C46954B13CB12A4621463846B04710B1B4
:104CD400E468F7E705462846F8BD2546FBE738B5FE
:104CE4000C4669B1154601212046FFF733FF48B948
:104CF4002046FFF73AFF2B6803442B60012002E0B3
:104D0400084600E0012038BD58B100B583B0002248
:104D1400019201AA0449FFF7CEFF019803B05DF8A0
:104D240004FB0020704700BFE34C0008084649B16B
:104D340001F1140311688B4201D0012070475060C7
:104D4400002070470020704738B5044600F078F919
:104D540023682BB90125256000F06CF9284638BD7D
:104D640000F068F90020FAE738B5044606E000F0E0
:104D740053F9206038BD052000F07AF92046FFF78A
:104D8400E3FF0128F3D0256800F046F98542F2D10B
:104D9400F0E770B560B30D4661B3C46900F108066D
:104DA4003046FFF7E1FF00E0E46844B1012120460A
:104DB400FFF7D0FE0028F7D1A368AB42F4D374B157
:104DC400A26805F114039A420DD201212046FFF78F
:104DD400BDFE3046FFF7B0FE1434204670BD3046A9
:104DE400FFF7AAFEF9E729462046FFF7F5FEECE7B0
:104DF4000446F2E70024F0E7F8B5A8B30E46A9B3D9
:104E0400C46900F108073846FFF7AEFF002501E04A
:104E14002546E4687CB101212046FFF79BFE00286B
:104E2400F7D1A368B342F4D3002DF1D0AA6893421A
:104E3400EFD82546EDE775B1AA6806F11C039A423E
:104E44000DD201212846FFF781FE3846FFF774FE94
:104E540014352846F8BD3846FFF76EFEF9E73146AB
:104E64002846FFF7B9FEECE70546F2E70025F0E730
:104E740038B598B10546033525F003050024022C06
:104E840009DC2946064B53F82400FFF7B5FF034617
:104E940010B90134F3E70023184638BD0023FBE7BB
:104EA400E807002009B330B583B0044600B300918D
:104EB4000023019300F108052846FFF755FF6A46D1
:104EC4000D492046FFF7F7FE019941B12046FFF74F
:104ED400E5FE2846FFF730FE002003B030BD28462B
:104EE400FFF72AFE4FF0FF30F7E74FF0FF3070472F
:104EF4004FF0FF30F1E700BF314D000838B50546EB
:104F0400002400E00134022C07DC2946034B53F84B
:104F14002400FFF7C7FF0028F4DD38BDE8070020B0
:104F240008B500234FF4F03202490348FFF72CFE82
:104F340008BD00BFE40C0020C40C002008B5002309
:104F44004FF480324FF080510548FFF71DFE0023D7
:104F54001A464FF0E0410348FFF716FE08BD00BFB4
:104F6400A40C0020840C002038B50024254606E05B
:104F7400054B53F82400FFF7C7FE05440134022C07
:104F8400F6DD284638BD00BFE807002040B108B56B
:104F94000146033121F003010248FFF7FAFE08BD80
:104FA40000207047C40C002008B5B1F5205F02D082
:104FB400FFF75EFF08BDFFF7E9FFFBE708B5FFF762
:104FC4009DFF08BD08B5FBF765FA08BD10B584B0B0
:104FD400089C0294079C0194069C0094FBF75CFADD
:104FE40004B010BD08B5FFF7EDFF00F0B1F808BD3F
:104FF40008B5034610B100221A7308BDFFF7F2FF8B
:105004000346F8E708B5034610B101221A7308BD38
:10501400FFF7E8FF0346F8E708B5FFF7D3FF00F012
:1050240097F8006908BD0000014B01221A7070470F
:10503400E4EC0120014B01221A707047F4070020B0
:10504400014B00221A707047F407002008B5064B84
:105054001B78012B00D008BD044B1B78012BFAD11F
:10506400FBF7F1F8F7E700BFF4070020E4EC0120B8
:1050740010B584B00446FFF7CFFF0467032380F81C
:105084005C3000210291019100910B460A460120F7
:10509400FFF79CFF04B010BD81647047806C7047BB
:1050A40000B583B00023019309E0019B0133019310
:1050B4000132044B9A42F8DD034801F065F90022FD
:1050C400F7E700BFFF0D2707B87A000870B504465C
:1050D4000D46084600F072F970B106460369204691
:1050E4009847206010F5805F0BD8012323730023B9
:1050F4002361F368A36070BD2946044801F044F9B4
:10510400FEE7034801F040F9FEE700BFCC7A00084F
:10511400EC7A000810B584B0089C0294079C0194B2
:10512400069C0094FBF7B8F904B010BD00B585B037
:10513400FBF778F8FFF778FF0021029101910091C5
:105144000B460A460120FFF7E5FF05B05DF804FBB6
:1051540028B900EB8003034800EB8300704700206C
:10516400704700BFE8EC012010B582B00024002C89
:1051740001DD02B010BD2046FFF7EAFF0749FFF743
:10518400A5FF0194064B009301230A224FF40071FA
:10519400044800F0BBF80134E9E700BF0C7B0008C9
:1051A400187B0008A550000808B5034801F0ECF886
:1051B400FFF7DAFF08BD00BF2C7B000838B50546B1
:1051C400FFF710FF037B73B10446006910B1294651
:1051D400FFF762FFA3681B6820469847206110B15F
:1051E400FFF75CFF0546284638BD08B5FBF730F9E4
:1051F40008BD00002DE9F843089E60B390461F46A1
:10520400814646B301F2331121F07F054FF420515A
:105214002846FFF7C9FE044618B307B9082704F166
:105224007403E3647B232370244A1368591C1160BC
:105234006360C4F85490C4F85880676625442565B3
:105244003046FBF7A3F83F2811D8314604F1080093
:1052540000F0CCFE28E01A4801F096F84FF0FF3435
:1052640028E0184801F090F86FF00B0422E0334670
:1052740004F1080230361F685D689868D9681760C1
:1052840055609060D16010331032B342F3D11D6881
:105294005868996815605060916099899B7B9181E9
:1052A4009373002384F847302046FFF79EFF0223C0
:1052B40084F85C302046BDE8F88300BFF80700207E
:1052C400407B0008547B000818B108B5FFF776FE50
:1052D40008BD704708B58B685B68984708BD000037
:1052E40010B5FFF799FE044600F10801064801F0E5
:1052F4004BF8062384F85C300A20FFF7B9FE062336
:1053040084F85C30F8E700BF6C7B00082DE9F041BD
:1053140082B007460E4614461D460998FFF718FF4B
:105324008046A0B1089B00932B462246314638465E
:10533400FFF760FF044610F5805F12D84146FFF77F
:10534400C9FF002808DB204602B0BDE8F08106480A
:1053540001F01AF84446F6E72046FFF7B5FF0024AB
:10536400F1E70024EFE700BF847B000870B5064630
:105374000F4B1C6800E024680D4B9C420DD0B568AF
:105384002946A068FBF722F80028F4D129460948E9
:1053940000F0FAFF6FF0100009E05A685E603360B5
:1053A40072601660B168044800F0EEFF002070BD22
:1053B400FC070020947B0008B87B000838B505463C
:1053C400084B1C6800E02468064B9C4206D0294622
:1053D400A068FAF7FBFF0028F5D100E0002420467E
:1053E40038BD00BFFC07002008B530B101280AD041
:1053F4000146064800F0C8FF04E0054800F0C4FF79
:1054040040F29A2008BDFAF71EFFFBE7D47B0008A0
:10541400B87100087047824203D38A4203D900203E
:1054240070470020704701207047F8B506460F46C4
:1054340014461D46FFF7EFFF38B1621906D239460C
:105444003046FFF7E8FF00B10120F8BD0020FCE77B
:10545400034602794079000440EA02609A7940EAFE
:105464000220DA79104313F0070F3ED119785A78E5
:10547400120442EA0162997842EA0122D9780A4385
:1054840021498A4216D021498A4234D193F8241002
:1054940093F82520120442EA016293F8261042EAA6
:1054A400012293F827301A4328D06FF00043984222
:1054B40027D27047197D5A7D120442EA0162997D10
:1054C40042EA0122D97D0A43012A11D9197E5A7E62
:1054D400120442EA0162997E42EA0122DB7E13430E
:1054E400112BE2D96FF0090070476FF0120070477A
:1054F4006FF0090070476FF0080070476FF0060006
:1055040070476FF007007047EDFE0DD01201F22FC7
:10551400012807D9022807D9032807D9102807D852
:10552400242070471C207047202070472420704797
:105534002820704708B5027D437D1B0443EA0263BB
:10554400827D43EA0223C07D1843FFF7E1FF08BDD3
:1055540010F0070F40F09E80F8B5044602784378B7
:105564001B0443EA0263827843EA0223C2781343AA
:10557400574A934240F09180037D467D360446EAC3
:105584000366837D46EA0326C37D1E43012E40F253
:105594008780027E437E1B0443EA0263827E43EAE1
:1055A4000223C27E1343112B7DD89E427ED3FFF784
:1055B400C1FF0746237965792D0445EA0365A3797C
:1055C40045EA0325E3791D43A84272D8002D73DB15
:1055D400227C637C1B0443EA0263A27C43EA022329
:1055E400E27C1A432946FFF716FF002867D0102EE5
:1055F4002FD8227A637A1B0443EA0263A27A43EA2D
:105604000223E27A1A4329463846FFF704FF0028AA
:1056140058D0237B627B120442EA0362A37B42EAF2
:105624000322E17B94F8200094F821301B0443EA20
:10563400006394F8220043EA002394F82300034310
:105644000A4329463846FFF7F0FE00283DD00020E3
:10565400F8BD237A627A120442EA0362A37A42EA28
:105664000322E17A94F8240094F825301B0443EAD9
:10567400006394F8260043EA002394F827000343C8
:105684000A4329463846FFF7D0FE0028C1D16FF0FF
:105694000700DDE76FF0120070476FF00800D7E7EE
:1056A4006FF00900D4E76FF00900D1E76FF009004B
:1056B400CEE76FF00700CBE76FF00700C8E76FF0A5
:1056C4000700C5E76FF00700C2E76FF00700BFE708
:1056D400EDFE0DD090F808C0437A1B0443EA0C6336
:1056E40090F80AC043EA0C2390F80BC043EA0C0379
:1056F4000B44002938DB994238D810B513EB020E5D
:1057040036D2047990F805C04FEA0C4C4CEA046C8C
:1057140084794CEA042CC4794CEA040CE64529D873
:10572400047D90F815C04FEA0C4C4CEA046C847D5F
:105734004CEA042CC47D4CEA040CBCF1100F11D9C2
:105744008A1819D290F8244090F82510090441EAE7
:10575400046190F8264041EA042190F8274021434F
:105764008A420BD8184410BD0020704700207047AF
:105774000020F8E70020F6E70020F4E70020F2E735
:105784002DE9F8430746884616466FF00703136071
:105794000422FFF79FFF00286DD00368C3F307249A
:1057A400240444EA0364C3F3074244EA022444EAB7
:1057B400136408F104094D466FF00A033360631E55
:1057C400082B5AD8DFE803F0051221125959595908
:1057D40012002946012215443846FFF77BFF034691
:1057E40010B10278002AF4D1002B48D0A5EB0802AE
:1057F40041463846FFF76EFF002848D0033525F0B0
:10580400030535602046BDE8F8830422494638463E
:10581400FFF760FFA8B30268C2F307231B0443EA3F
:105824000263C2F3074143EA012343EA126309EB2B
:1058340003016FF00042914225D2894525D801F138
:105844000800054697F814C07A7D120442EA0C62F7
:1058540097F816C042EA0C2297F817C042EA0C02E5
:105864000F2AC3D8072BC1D9C01A10F0070FBDD017
:1058740001F10C05BAE70924C4E70924C2E70924A5
:10588400C0E70924BEE70924BCE70924BAE70924D0
:10589400B8E700B583B0019100290BDB11F0030FC9
:1058A4000BD101AAFFF76CFF012809D1019803B0BD
:1058B4005DF804FB6FF00300F9E76FF00300F6E70F
:1058C4006FF00300F3E700B583B0019100290BDB0F
:1058D40011F0030F0BD101AAFFF752FF032809D1DE
:1058E400019803B05DF804FB6FF00300F9E76FF073
:1058F4000300F6E76FF00300F3E770B582B00646E5
:1059040015460023019300290EDBFFF7C2FF04466E
:105914000190002808DA22E025B12B68013B2B60B6
:10592400002B13DB01281AD0019C01AA2146304622
:10593400FFF726FF0228EFD0092809D00128F1D16A
:10594400002DEFD02B6801332B60EBE7019C06E0C0
:10595400019C002C06DA14F1080F00D12DB1204669
:1059640002B070BD4FF0FF34F9E74FF0FF34F6E7B3
:1059740030B583B005460C4601AA21462846FFF7F8
:10598400FFFE03280DD0092805D10198002809DB62
:105994006FF00A0006E0019C0428EDD04FF0FF30C0
:1059A40000E0204603B030BD70B504460E461546EF
:1059B400FFF789FF00281ADB227A637A1B0443EA83
:1059C4000263A27A43EA0223E27A13431E44A01933
:1059D40065B14268C2F307231B0443EA0263C2F3BE
:1059E400074143EA012343EA12632B6070BD05B10A
:1059F40028600020FAE7000070B504460E461546FC
:105A0400FFF726FD002864DB227B637B1B0443EA4B
:105A14000263A27B43EA0223E27B134333449842AA
:105A240055D9C21A20786178090441EA0061A07846
:105A340041EA0021E07801433248814222D03248D1
:105A4400814251D17042002E51DA94F8206094F8CA
:105A54002110090441EA066194F8226041EA062112
:105A640094F823603143884244D882422DD81C44A0
:105A740000212046FAF7B6FC00283ED065B3031B8C
:105A84002B6029E0002E29DB207D617D090441EA99
:105A94000061A07D41EA0021E07D01431029E6D99F
:105AA40094F8200094F82110090441EA006194F864
:105AB400220041EA002194F8230001438E4210D2CF
:105AC400891B9142D3D20A46D1E70246CFE76FF051
