:020000040800F2
:100000000040002045580008792400087B2400089F
:100010007D2400087F2400088124000800000000DF
:100020000000000000000000000000008324000821
:1000300085240008000000008724000889240008A7
:1000400099580008995800089958000899580008CC
:1000500099580008995800089958000899580008BC
:1000600099580008995800089958000899580008AC
:10007000995800089958000899580008995800089C
:10008000995800089958000899580008995800088C
:10009000995800089958000899580008995800087C
:1000A000995800089958000899580008995800086C
:1000B000995800089958000899580008995800085C
:1000C000995800089958000899580008995800084C
:1000D000995800089958000899580008995800083C
:1000E0009958000899580008000000009958000825
:1000F000995800089958000899580008995800081C
:10010000995800089958000899580008995800080B
:1001100099580008995800089958000899580008FB
:1001200099580008995800089958000899580008EB
:1001300099580008995800089958000899580008DB
:1001400000000000000000000000000000000000AF
:1001500099580008995800089958000899580008BB
:1001600099580008995800089958000899580008AB
:100170009958000899580008995800080000000094
:10018000995800089958000899580008995800088B
:10019000995800089958000899580008995800087B
:1001A000995800089958000899580008995800086B
:1001B000995800089958000899580008995800085B
:1001C000995800089958000899580008995800084B
:1001D000995800089958000899580008995800083B
:1001E000995800089958000899580008995800082B
:1001F000995800089958000899580008995800081B
:10020000995800089958000899580008995800080A
:1002100099580008995800089958000899580008FA
:1002200099580008995800089958000800000000E3
:1002300099580008995800080000000099580008D3
:1002400099580008995800089958000899580008CA
:1002500099580008995800089958000899580008BA
:1002600099580008995800089958000899580008AA
:100270009958000899580008995800080000000093
:100280009958000899580008995800080000000083
:0802900000000000995800086D
:1002A0000348044B834202D0034B03B11847704705
:1002B0006C0000206C000020000000000548064B88
:1002C0001B1AD90F01EBA301491002D0034B03B154
:1002D000184770476C0000206C00002000000000F0
:1002E00010B5064C237843B9FFF7DAFF044B13B17E
:1002F0000448AFF300800123237010BD6C00002080
:10030000000000009C58000808B5044B1BB10449CC
:100310000448AFF30080BDE80840CFE700000000CC
:10032000700000209C58000870B50F4B0F4DAB4279
:10033000A3EB050607D0B610002455F8043B0134A2
:100340009847A642F9D805F0A9FA094D094B5E1B5A
:10035000AB424FEAA60606D0002455F8043B013410
:100360009847A642F9D870BD8C5B00088C5B0008EA
:100370008C5B0008905B0008036A2DE9F0418468FB
:1003800080460E46002B3BD0A3891B0717D5236957
:10039000ABB1013EA36816F8015F013BA360EDB16C
:1003A000002B07DAA7699F4222462946404610DC07
:1003B0000A2D0ED023685A1C22601D70EAE72146E0
:1003C000404600F08BFB0028E3D04FF0FF30BDE843
:1003D000F08100F033FE0130DCD1F6E7002B09DAC2
:1003E00022460A21404600F029FE0130EDD00A20C5
:1003F000BDE8F08123680A22591C21601A70F6E7D3
:1004000000F0F4F8C0E700BF024B01461868FFF7A0
:10041000B3BF00BF0C00002000207047024A034910
:10042000034800F039BB00BF0000002005080008A9
:10043000100000200C4B4168994210B5044601D0D1
:1004400000F0E0F9A168094B994202D0204600F083
:10045000D9F9E168064B994204D02046BDE8104026
:1004600000F0D0B910BD00BF88000020F0000020CF
:1004700058010020002070472DE9F8432A4C2B49F1
:10048000DFF8BC90DFF8BC80294FC4F83811002594
:1004900004230822294604F15C00264EE360C4E9E7
:1004A0000055C4E90455A5606566A56100F0C6F86D
:1004B000214B63670822294604F1C400C4E90849B6
:1004C000C4E90A87C4E91A55C4E91E552567C4F86A
:1004D000CC50C4F88050266300F0B0F8174BC4F835
:1004E000DC30294604F16803082204F59670C4F84C
:1004F0008830C4E92398C4E92576C4E93455C4E9B1
:100500003855C4F8D850C4F83451C4F8E85000F055
:1005100095F804F1D003C4E93D98C4E93F76C4F8E6
:10052000F030BDE8F88300BF880000201D040008FB
:10053000691100088D110008090001001200020075
:100540000111000829110008F8B5254BD3F83831FE
:100550000646002B3CD0234FD7E90134013B04D59C
:100560001DE05A1C04F1680419D0B4F90C50013B89
:10057000002DF6D11C4BE360C4E90155C4E90455D4
:1005800065662560A5610822294604F15C0000F03B
:1005900055F8C4E90D55C4E912552046F8BD3D682B
:1005A0000DB12F46D8E74FF4D671304600F096F9DA
:1005B000044680B10423C0E900530C302946A060F2
:1005C0004FF4D072254600F039F83C602F46C3E75F
:1005D000FFF752FFBFE70C2338603360DDE700BF51
:1005E00088000020000000200100FFFF036A03B123
:1005F0007047044B044AD3F838310262002BF7D11C
:100600003AE700BF8800002035040008704700BFAB
:10061000704700BF024A0349002000F03DBA00BF06
:100620000000002019040008024A0349002000F0DD
:1006300033BA00BF0000002075040008830730B5FE
:1006400047D0541E002A3ED0CAB2034601E0013C06
:1006500039D303F8012B9D07F9D1032C2CD9CDB246
:1006600005EB05250F2C05EB054535D9A4F1100246
:1006700022F00F0C03F1100EE6444FEA121C1A464A
:10068000C2E90055C2E9025510327245F8D10CF1A9
:10069000010214F00C0F03EB021204F00F0C13D044
:1006A000ACF1040323F003030433134442F8045B66
:1006B0009342FBD10CF003042CB1C9B21C4403F8E3
:1006C000011BA342FBD130BD64461346002CF4D17C
:1006D000F9E703461446C0E71A46A446E0E700BF20
:1006E000B1F90C302DE9F0411E070C4680463DD48F
:1006F0004A68002A56DDE56A002D34D00022D8F879
:100700000060C8F8002013F48052216A57D10123F9
:100710004046A847451C024666D0B4F90C30E56A4D
:10072000216A580705D56368D21A636B0BB1236C35
:10073000D21A00234046A847431C42D000236360DE
:1007400023692360A389DF0400D56065616BC8F865
:10075000006041B104F14403994202D0404600F0E8
:100760003DF9002363630020BDE8F0810E69002E8F
:10077000F9D09B070D6808BF4B690E6018BF0023B6
:10078000AD1B8B600BE02B463246216AA76A4046C0
:10079000B847B0F1000CA5EB0C05664406DD002D52
:1007A000F1DCE0E70A6C002AA5DCDCE7B4F90C30E8
:1007B00043F04003A3814FF0FF30BDE8F081626D4C
:1007C000AFE7D8F80010B4F90C301D29F0D80C4A66
:1007D000CA40D507ECD52269226000226260DA04A3
:1007E000B4D50029B1D0B1E7D8F80030002B94D0AF
:1007F0001D2B01D0162BD9D1C8F80060B3E700BF7C
:10080000010040200B69B3B110B5044682B008B1B5
:10081000036A5BB1B1F90C3013B9002002B010BD0E
:10082000204602B0BDE81040FFF75ABF0191FFF724
:10083000DDFE0199EEE70020704700BFB8B138B582
:100840000D4A0369156804462BB10DB12B6A53B1EB
:10085000B4F90C300BB9002038BD21462846BDE85C
:100860003840FFF73DBF2846FFF7C0FEF0E7034AD8
:100870000349044800F010B90C00002000000020DB
:100880000508000810000020014B1868704700BFE1
:100890000C00002070B5104E336805460C46B3B10D
:1008A0002146284600F01AFC431C0CD0C41C24F03E
:1008B0000304A04205D0211A284600F00FFC0130A5
:1008C00001D0204670BD4FF0FF34204670BD194660
:1008D00000F004FC3060E3E7C40100202DE9F84398
:1008E000CD1C25F0030508350C2D38BF0C25002D37
:1008F000064618DBA94216D8DFF8DC8000F050F974
:10090000D8F80420A2B1144603E0636822467BB104
:100910001C4623685B1BF8D40B2B1FD894426368DA
:1009200054D053600CE00C2333600020BDE8F88302
:1009300029463046FFF7AEFF431C044619D0056038
:10094000304600F02FF904F10B00231D20F00700C2
:10095000C21A1CBF1B1AA350BDE8F8836119944248
:10096000256014BF5160C8F80410635163684B6080
:10097000E6E7D8F804701FB33C467F68002FFBD130
:1009800023683946304604EB030900F0A7FB814594
:1009900016D12368ED1A29463046FFF77BFF013058
:1009A0000ED02368D8F804202B442360536883B109
:1009B000A34203D01A465B689C42FBD10023B0E7F8
:1009C0000C233360304600F0EDF8AEE7C8F8043091
:1009D000B6E7C8F80470B3E7C4010020002950D07E
:1009E00038B551F8043C0C1F002BB8BFE41805467D
:1009F00000F0D6F8274A13682BB1A3420CD921681E
:100A0000601883422CD0636028461460BDE83840EB
:100A100000F0C8B8A3420FD81A465B68002BF9D182
:100A200011685018844217D02CD363605460284654
:100A3000BDE8384000F0B6B811685018A04214D094
:100A400020D8216860188342EFD118685B68084499
:100A5000C4E900035460EAE723680B441360E6E747
:100A600018685B6808442060CDE72068014450188E
:100A700083421160DBD1D3E900040144C2E90014D0
:100A8000D5E770470C232B602846BDE8384000F0BE
:100A900089B800BFC80100202DE9F8430746884601
:100AA00016464FF00009D6E90154013D10D4A38940
:100AB000012B08D9B4F90E3001332146384602D053
:100AC000C04749EA0009013D6B1C04F16804EED1FE
:100AD0003668002EE7D14846BDE8F88338B52F4B7D
:100AE0001B6805460C4613B11A6A002A4BD0B4F9AC
:100AF0000C3018071CD5226922B313F0010107D06E
:100B0000616900204942A060A1613AB1002038BD6E
:100B1000980758BF6169A160002AF7D1190658BF2C
:100B20001046F4D543F04003A3814FF0FF3038BDA9
:100B3000D9062CD55A0712D4226943F00803A381A1
:100B4000002ADAD103F42071B1F5007FD5D0214617
:100B5000284600F029F8B4F90C302269CDE7616B22
:100B600051B104F14402914204D02846FFF736FF08
:100B7000B4F90C300022626322690021C4E900212B
:100B800023F02403D9E71846FFF730FDAFE7092229
:100B900043F040032A60A381C7E700BF0C00002098
:100BA000704700BF704700BF70B5B1F90C300C46FC
:100BB000990796B007D504F147030122C4E904322E
:100BC000236016B070BDB4F90E100029054629DB6C
:100BD0006A4600F0FBFF002822DB4FF480612846C4
:100BE000019EFFF77BFE88B3A389206043F080035A
:100BF00006F47046A381B6F5005F4FF48063C4E944
:100C00000403DED1B4F90E10284600F07BF800286A
:100C1000D7D0A38923F0030343F00103A381D0E7D6
:100C2000B4F90C3013F0800F14BF40264FF48066E7
:100C300031462846FFF752FE40B1A389206043F0B9
:100C40008003C4E90406A38116B070BDB4F90C306A
:100C50009A05B6D423F0030304F1470243F00203DC
:100C60000121C4E90421A3812260AAE770B50C46E2
:100C7000B1F90E10002996B015461E460FDB6A46E4
:100C800000F0A4FF00280ADB019B03F47043A3F5E6
:100C90000053B3FA83F34FF480625B0908E0A28942
:100CA00012F0800F4FF0000314BF40224FF4806217
:100CB000002033602A6016B070BD00BF0EB400B5CE
:100CC00082B003AB816853F8042B019300F072F8F3
:100CD00002B05DF804EB03B0704700BF0FB400B57D
:100CE000074983B004AB086853F8042B816801936B
:100CF00000F060F803B05DF804EB04B0704700BF8B
:100D00000C00002038B5074D0022044608462A6032
:100D100003F0E0FD431C00D038BD2B68002BFBD056
:100D2000236038BDCC0100209368013B002B936009
:100D300011DA10B49469A34209DB0A2907D01368B9
:100D4000581C1060197008465DF8044B70475DF838
:100D5000044B00F073B91368581C106019700846F2
:100D6000704700BF9BB1F8B5134406460F46541EAA
:100D70005D1E01E0AC4208D014F8011F3A4630462F
:100D8000FFF7D2FF431CF5D1F8BD0020F8BD0020CD
:100D9000704700BF936810B514461BB9184600236E
:100DA000636010BD00F0F6F90023A36000236360C8
:100DB00010BD00BF2DE9F04FA1B08B4691461C46F7
:100DC000049018B1036A002B00F01C81BBF80C30B2
:100DD000180740F19580DBF81030002B00F0908070
:100DE0000023CA460D9343F22003ADF839309AF838
:100DF0000030864E07940127002B79D0D14604E0BD
:100E000019F8013F002B00F08580252BF8D1B9EBB4
:100E10000A0840F0828099F80030002B68D0002347
:100E20004FF0FF32CDE9092309F1010908930B9333
:100E30008DF863301E9305E0089A07FA03F31A430E
:100E40000892A1464C46052214F8011B304600F0DA
:100E5000B7FBA246831B0028EED1089BD90644BFEE
:100E600020228DF8632099F800101A0744BF2B2226
:100E70008DF863202A2966D1079A11680432002967
:100E80000792C0F29A800B9199F801102E2970D028
:100E90005F4C0322204600F093FB38B1089B001BF7
:100EA0004022824013430AF1010A08931AF8011BF9
:100EB00058488DF83810062200F082FB002800F018
:100EC0008280554B002B69D007AA0092534B04989F
:100ED0005A4608A9AFF300800390039B013307D063
:100EE0000D9B039A13440D939AF80030002B85D183
:100EF000BBF80C305B060AD40D9821B0BDE8F08F2A
:100F000004985946FFF7EAFD00283FF469AF4FF017
:100F1000FF30F2E7B9EB0A08EAD00AF1FF35CDF865
:100F20001490A946049D01E0A0453ED94C465A467E
:100F300019F8011F2846FFF7F7FE02340130A4EB31
:100F40000A04F1D1D4E7A1F13002092A88BFCA46C8
:100F50009CD80B9B00E00134217803EB830302EB68
:100F60004303A1F13002092AF5D92E290B93A24699
:100F70008ED19AF801102A292FD1079B9AF80210D6
:100F80001A6809920433002A0AF102000793B8BFD5
:100F90004FF0FF338246B8BF099379E7079B0733C9
:100FA00023F00703083307939AE70D99DDF81490AF
:100FB000414499F800300D912FE7494243F0020374
:100FC0000B91089360E707AA0092144B04985A46C5
:100FD00008A900F0B9FC03907FE7A1F130020023DB
:100FE000092A09930AF1010A3FF652AF1AF8011FC4
:100FF00003EB830302EB4303A1F13002092AF5D985
:10100000099345E7FFF7F2FAE0E600BF485B000806
:10101000505B0008545B000800000000650D0008EC
:1010200010B4054C8446134620685DF8044B0A460C
:101030006146FFF7BFBE00BF0C000020F8B50D46AB
:101040001446064610B1036A002B37D0A389A26963
:10105000A2601A0719D52369BBB122686169D31A46
:10106000EDB299422F4620DD0133A1680139A1601C
:10107000511C2160157062699A420DD0A389DB076B
:1010800001D50A2D08D03846F8BD21463046FFF775
:1010900025FD38B92369E0E721463046FFF7B2FB6A
:1010A0000028F0D04FF0FF37EDE721463046FFF73C
:1010B000A9FB0028F6D122680123D6E7FFF796FAAC
:1010C000C4E700BF10B4044C03460A4620685DF82C
:1010D000044B1946FFF7B2BF0C00002038B5074D8E
:1010E0000022044608462A6003F0AAFB431C00D0F5
:1010F00038BD2B68002BFBD0236038BDCC0100200D
:1011000010B50C46B1F90E1000F044FB002803DBCB
:10111000636D0344636510BDA38923F48053A381E9
:1011200010BD00BF002070472DE9F0410C46B1F919
:101130000C101F46CB05054616460BD421F48051F2
:10114000A1813B46B4F90E1032462846BDE8F04175
:1011500000F068BDB4F90E100223002200F04CFD2F
:10116000B4F90C10EAE700BF10B50C46B1F90E1047
:1011700000F042FDB4F90C30421C0EBF23F4805342
:1011800043F480536065A38110BD00BFB1F90E1018
:1011900000F080B99368002B00F0F8802DE9F04F43
:1011A000B1F90CC01CF0080F83B0904681460C4684
:1011B00031D00B697BB31CF00207D8F8006038D03F
:1011C0000027D4F828B0216ADFF8C4A23D4655456F
:1011D0002B463A4628BF53464846C5B1D847002853
:1011E00040F3CA80D8F808301B1A07442D1AC8F8F3
:1011F0000830002B00F0B68055452B46D4F828B0B7
:10120000216A28BF53463A464846002DE6D1D6E922
:1012100000750836DBE721464846FFF75FFC0028EB
:1012200040F0AF80B4F90CC0D8F800601CF00207A1
:10123000C6D11CF0010A63D12368A168574618463D
:101240008B46002F58D01CF4007F00F0B580B942C7
:101250000A4600F2E1801CF4906F2FD02169626988
:101260005D1A02EB420202EBD2726B1C52103B443D
:10127000934292BF93469B461A461CF4806F00F03F
:10128000EA8011464846FFF729FB002800F0F98064
:101290002A462169009000F0E3F9A289009B22F41C
:1012A000906242F08002A2815819ABEB0505C4F8A8
:1012B00014B02361A5602060BB463A4651460092B7
:1012C00000F0FAF8A1682368009AA1EB0B011A4418
:1012D0003D46A16022600027D8F808305B1BAA4475
:1012E000C8F80830002B3DD02368A168B4F90CC0C1
:1012F00018468B46002FA6D1D6E900A708369EE7F0
:101300003846BB463D460097002D41D0002846D0C8
:10131000009A2068A168D4E90473AA4228BF2A462B
:10132000B84204D901EB030A524500F38580934289
:1013300075DC216AA76A5A464846B847B0F1000AE8
:101340001ADD009BB3EB0A0300930FD00120D8F8FD
:101350000830A3EB0A03D344A5EB0A05C8F808300C
:10136000002BD1D1002003B0BDE8F08F21464846C4
:10137000FFF748FA0028EAD0B4F90C3043F04003F4
:10138000A3814FF0FF3003B0BDE8F08F002070471D
:10139000756833460836002DFAD0D3F800B02A46D7
:1013A0000A21584600F00CF9002867D00130A0EB64
:1013B0000B0300931A46ACE722699A4214D3626980
:1013C000BA4211D86FF00043BB4228BF3B46A56A22
:1013D00093FBF2F3216A02FB03F348465246A84707
:1013E000051EC9DD7F1B77E7B94228BF39460D4688
:1013F00018460A46514600F05FF8A1682368491B69
:101400002B44A16023600029ECD121464846FFF718
:10141000F9F90028E6D0AFE7BB463A464EE7594611
:10142000019200F049F8019AA3689B1AA36023680F
:1014300013442360924684E75946524600F03CF834
:1014400023685344236021464846FFF7DBF9002810
:101450003FF477AF90E7484600F0B2F90346002822
:101460007FF422AF21694846FFF7B8FAB4F90C308F
:101470000C22C9F8002023F080037FE76A1C009249
:1014800047E70C22B4F90C30C9F8002076E700BF1A
:1014900000FCFF7F38B5074D0022044608462A604D
:1014A00003F010FA431C00D038BD2B68002BFBD092
:1014B000236038BDCC01002088420ED98B188342AE
:1014C0000BD900EB020C002A6ED0624613F801CD56
:1014D00002F801CD9942F9D170470F2A0FD803467F
:1014E00002F1FF3C002A5FD00CF1010C013B8C445F
:1014F00011F8012B03F8012F6145F9D1704740EA3B
:1015000001039B0751D1A2F1100370B501F1200C2A
:1015100023F00F0501F1100E00F11004AC441B097B
:101520005EF8105C44F8105C5EF80C5C44F80C5CEF
:101530005EF8085C44F8085C5EF8045C44F8045CFF
:101540000EF1100EE64504F11004E9D1013312F05A
:101550000C0F01EB031102F00F0400EB031328D072
:10156000043C24F003064FEA940C1E441C1F8E46D4
:101570005EF8045B44F8045FB442F9D10CF1010455
:1015800002F0030203EB840301EB840102F1FF3C50
:101590004AB10CF1010C013B8C4411F8012B03F80A
:1015A000012F6145F9D170BD704702F1FF3C034640
:1015B0009AE72246EAE700BF0000000000000000B2
:1015C00001F0FF01102A2BDB10F0070F08D010F8F4
:1015D000013B013A8B422DD010F0070F42B3F6D1F8
:1015E000F0B441EA012141EA014122F007047FF011
:1015F00000070023F0E80256083C85EA010586EA68
:10160000010685FA47F5A3FA87F586FA47F6A5FAA3
:1016100087F68EB9EED1F0BC01F0FF0102F00702AF
:1016200032B110F8013B013A83EA010313B1F8D15A
:101630000020704701387047002D06BF354603383B
:10164000073815F0010F07D1013015F4807F02BF74
:10165000013015F4C03F0130F0BC0138704700BFC5
:10166000844641EA000313F003036DD1403A41D3AD
:1016700051F8043B40F8043B51F8043B40F8043B6C
:1016800051F8043B40F8043B51F8043B40F8043B5C
:1016900051F8043B40F8043B51F8043B40F8043B4C
:1016A00051F8043B40F8043B51F8043B40F8043B3C
:1016B00051F8043B40F8043B51F8043B40F8043B2C
:1016C00051F8043B40F8043B51F8043B40F8043B1C
:1016D00051F8043B40F8043B51F8043B40F8043B0C
:1016E00051F8043B40F8043B51F8043B40F8043BFC
:1016F000403ABDD2303211D351F8043B40F8043B9C
:1017000051F8043B40F8043B51F8043B40F8043BDB
:1017100051F8043B40F8043B103AEDD20C3205D3AB
:1017200051F8043B40F8043B043AF9D2043208D0A3
:10173000D2071CBF11F8013B00F8013B01D30B8815
:1017400003806046704700BF082A13D38B078DD0F3
:1017500010F003038AD0C3F10403D21ADB071CBFC5
:1017600011F8013B00F8013B80D331F8023B20F82F
:10177000023B7BE7043AD9D3013A11F8013B00F868
:10178000013BF9D20B7803704B7843708B788370F0
:101790006046704738B50C46084D844611462046D1
:1017A0001A4600232B60644603F06EF8431C00D0F9
:1017B00038BD2B68002BFBD0236038BDCC01002046
:1017C0002DE9F041144641B30AB306460D4600F038
:1017D0003FFA8442074602D8B4EB500F13D8214693
:1017E0003046FFF77BF8804650B1BC42224629467E
:1017F00028BF3A46FFF734FF29463046FFF7EEF898
:101800004046BDE8F081A8464046BDE8F081A046CC
:10181000FFF7E4F84046BDE8F081BDE8F04111462D
:10182000FFF75CB82DE9F84F92461F460A698B68AE
:10183000DDF828909A42B8BF1A46CAF8002091F8FD
:1018400043300C46064613B10132CAF80020226824
:1018500091065FD5DAF800300233CAF8003022680A
:1018600012F0060F11461DD1E1689942D8BF11460A
:1018700018DD4FF0000804F1190B05E0E568DAF80F
:101880000030ED1A45450CDD01235A4639463046F5
:10189000C847013008F10108F0D14FF0FF30BDE832
:1018A000F88F216894F84330003B18BF01238A0663
:1018B0000AD5E1185A1C302081F84300224494F8DC
:1018C000451082F84310023304F143023946304692
:1018D000C8470130E1D02368DAF80050216903F0ED
:1018E0000603042BD4E902201BD08A4220DD4FF0EE
:1018F0000008521A90441A34002501E0454517DAD1
:101900000123224639463046C847013005F101051A
:10191000F4D1C2E712F0060F0DD0003B18BF01232F
:10192000D2E7401B8A4220EAE078E2DC0028E2DCD1
:101930000020BDE8F88FE168DAF800309942D8BF9E
:10194000114696DCAEE700BF2DE9F047174684B09C
:101950000A7E0C9D0C460646984601F1430C002A6F
:1019600035D0A2F15803D9B2202969D8202B67D8E5
:10197000DFE813F0E60066006600660066006600B9
:1019800066006600660066006600AC0070006600D7
:10199000660066006600700066006600660066000D
:1019A00021008300C60066006600B6006600830062
:1019B00066006600EC002B6822686169181D2860CB
:1019C00010061B6802D4520600F1E0801960002363
:1019D000E1462361CDF800803B4603AA214630460C
:1019E000FFF720FF013020D023694A4639463046B0
:1019F000C047013019D02368E068DDF80C909B07E0
:101A000018D5484516DD002504F1190A04E0E06800
:101A1000A0EB0903AB420DDD0123524639463046A7
:101A2000C047013005F10105F1D14FF0FF3004B09E
:101A3000BDE8F0874845B8BF484604B0BDE8F08728
:101A400084F84220012004F142090023206184F837
:101A50004330BFE72A682368111D1806296002D4A5
:101A6000590600F195801068014600286268C0F2AE
:101A7000938054484FF00A0E15E020682B6810F050
:101A8000800F53F8041B02D1400648BF89B26F2A69
:101A90004C482B6014BF4FF00A0E4FF0080E002385
:101AA000626884F84330002AA26051DB236823F087
:101AB0000403236000294BD1002A7BD1E146BEF10B
:101AC000080F56D0ACEB0903236183E72B681A6833
:101AD00004332B6004F1420984F842200120B4E76A
:101AE0002B686268191D2960D3F8009000214846D0
:101AF000FFF766FD002863D0A0EB09006060A4E753
:101B0000236843F02003236078222F4884F845207F
:101B10002A6813F0800F52F8041B03D113F0400F12
:101B200018BF89B22A60DA0744BF43F0200323605C
:101B300019B9236823F0200323604FF0100EAEE79D
:101B4000582384F845301F482368E1E72368DBE722
:101B50007546E146B1FBF5F305FB131A0A46AA42A6
:101B600010F80A1009F8011D1946F3D2BEF1080F4A
:101B7000A8D12368DD07A5D5626823699A42A1DC54
:101B8000302309F8013C09F1FF399BE719801EE772
:101B9000B2F90010084668E72D20002AA26084F8F8
:101BA000430002DB23F0040323600A250548494271
:101BB000AE46CEE7037884F8423004F142097EE76E
:101BC000606842E75C5B0008705B000870B50C461B
:101BD000084D03460026204611461C462E6002F0A2
:101BE00074FE431C00D070BD2B68002BFBD023601B
:101BF00070BD00BFCC01002038B50C46084D8446AE
:101C0000114620461A4600232B60644602F064FE0B
:101C1000431C00D038BD2B68002BFBD0236038BD9F
:101C2000CC01002038B50C46084D844611462046AC
:101C30001A4600232B60644602F036FE431C00D097
:101C400038BD2B68002BFBD0236038BDCC010020B1
:101C500051F8043C181F002BBCBF0B58C01870472C
:101C600053B94AB9002908BF00281CBF4FF0FF3103
:101C70004FF0FF3000F06AB9ADF1080C6DE904CE09
:101C800000F006F8DDF804E0DDE9022304B0704757
:101C90002DE9F047089D0E4604460F46002B4AD119
:101CA00094468C45B2FA82F260D942B1C2F1200367
:101CB000974020FA03F30CFA02FC1F4394404FEACA
:101CC0001C4E1FFA8CF6B7FBFEF1230C0EFB1177AE
:101CD00043EA074301FB06F098420AD91CEB0303D1
:101CE00001F1FF3780F01581984240F212810239EC
:101CF00063441B1AA4B2B3FBFEF00EFB103344EA9C
:101D0000034400FB06F6A6420AD91CEB040400F1CA
:101D1000FF3380F00081A64240F2FD806444023827
:101D200040EA0140A41B00211DB1D4400023C5E9B5
:101D30000043BDE8F0878B4205D90DB1C5E900012C
:101D400000210846F5E7B3FA83F1002946D1B342F2
:101D500002D3824200F2F580841A66EB030201206E
:101D60001746002DE5D0C5E90047E2E7002A40F01C
:101D70009380A1EB0C034FEA1C471FFA8CFE012154
:101D8000B3FBF7F607FB1630230C43EA00430EFBC8
:101D900006F0984208D91CEB030306F1FF3802D283
:101DA000984200F2D08046461B1AA4B2B3FBF7F06B
:101DB00007FB103344EA03440EFB00FEA64508D996
:101DC0001CEB040400F1FF3302D2A64500F2B680FA
:101DD0001846A4EB0E0440EA0640A5E7C1F120072F
:101DE0008B4022FA07FC4CEA030C06FA01FE20FAAB
:101DF00007F426FA07F344EA0E0400FA01F84FEA62
:101E00001C404FEA1449B3FBF0FE1FFA8CF600FBAE
:101E10001E3349EA03430EFB06F9994502FA01F223
:101E20000BD91CEB03030EF1FF3A80F08580994536
:101E300040F28280AEF1020E6344A3EB0909A4B222
:101E4000B9FBF0F300FB139944EA094403FB06F6DF
:101E5000A64208D91CEB040403F1FF3068D2A64265
:101E600066D9023B644443EA0E40A41BA0FB02E691
:101E7000B4427346B14652D34FD05DB1B8EB0302C2
:101E800064EB090404FA07F722FA01F31F43CC407C
:101E9000C5E9007400214CE7C2F1200120FA01F3EA
:101EA0000CFA02FC26FA01F1964033434FEA1C4734
:101EB0001FFA8CFEB1FBF7F007FB1016190C41EA74
:101EC000064100FB0EF68E4204FA02F408D91CEB20
:101ED000010100F1FF382DD28E422BD90238614426
:101EE000891B9BB2B1FBF7F607FB161143EA0143CE
:101EF00006FB0EF1994208D91CEB030306F1FF38EB
:101F000014D2994212D9023E63445B1A46EA004158
:101F100036E73946EDE6184602E7F045ADD2BEEBAE
:101F2000020366EB0C060138B146A6E74646ECE72D
:101F3000034698E74046D3E7D6467EE76444023836
:101F400047E708460DE7023E63442DE7704700BFB0
:101F500086B0254BD3F8E02042F01002C3F8E02011
:101F6000D3F8E02002F010020092009AD3F8E020AB
:101F700042F04002C3F8E020D3F8E02002F0400233
:101F80000192019AD3F8E02042F00802C3F8E02061
:101F9000D3F8E02002F008020292029AD3F8E0207F
:101FA00042F00102C3F8E020D3F8E02002F0010281
:101FB0000392039AD3F8E02042F02002C3F8E02015
:101FC000D3F8E02002F020020492049AD3F8E02033
:101FD00042F00402C3F8E020D3F8E03003F0040339
:101FE0000593059B06B0704700440258F0B58DB0CC
:101FF00000240794089409940A940B944B4BD3F84B
:10200000D42042F48052C3F8D420D3F8D42002F470
:1020100080520092009AD3F8E02042F00402C3F804
:10202000E020D3F8E02002F004020192019AD3F8F4
:10203000E02042F00802C3F8E020D3F8E02002F0EC
:1020400008020292029AD3F8E02042F01002C3F88C
:10205000E020D3F8E02002F010020392039AD3F8B4
:10206000E02042F02002C3F8E020D3F8E02002F0A4
:1020700020020492049AD3F8E02042F04002C3F810
:10208000E020D3F8E02002F040020592059AD3F850
:10209000E02042F08002C3F8E020D3F8E03003F003
:1020A00080030693069B4FF63F030793022708978A
:1020B00003260A960C250B9507A91D4802F07EF908
:1020C0000795089709940A960B9507A9194802F0F5
:1020D00075F948F237130793089709940A960B95F8
:1020E00007A9154802F06AF94FF68373079308971A
:1020F00009940A960B9507A9104802F05FF94CF273
:1021000003730793089709940A960B9507A90C483F
:1021100002F054F901230793089709940A960B9546
:1021200007A9084802F04AF90DB0F0BD0044025872
:1021300000140258001C02580018025800100258DF
:10214000000C02580008025800B583B001904FF609
:10215000FF73012201A9034802F0A2FF019803B016
:102160005DF804FB1402002000B583B08DF8070071
:102170004FF6FF7301220DF10701034802F090FFB3
:1021800003B05DF804FB00BF140200202DE9F0410C
:1021900082B005460C464FF00008CDF804800126B9
:1021A0000E6010274F608E60C1F80C804FF4805293
:1021B00003F00EFB304602F0A3FA022323606760AF
:1021C000A660C4F80C804FF480522146284603F0E4
:1021D000FFFA0323236067600823A360C4F80C8020
:1021E0004FF480522146284603F0F2FA40F23123A0
:1021F0000193042323606760A660019BE3604FF4B2
:1022000080522146284603F0E3FA40F296312846F0
:1022100003F0FFFA02B0BDE8F08172B6FEE70000FD
:1022200008B51548154B03604FF4E13343600023B4
:102230008360C36003610C2242618361C3610362F6
:102240004362836202F0F9FF70B900210A4803F08B
:102250006CF858B90021084803F08CF840B90648DA
:1022600003F044F830B908BDFFF7D7FFFFF7D5FFFB
:10227000FFF7D3FFFFF7D1FF140200200010014049
:1022800000B589B00023019302930393049305934F
:10229000069307931848194A02604360012282603E
:1022A0000822C26010220261402242614FF4C072D3
:1022B0008261C3614FF4006303624FF48053436251
:1022C0004FF40053836202230193072202920422F7
:1022D000039206220492032205920693079301A912
:1022E00003F04EFA30B906490348FFF74FFF09B033
:1022F0005DF804FBFFF791FFE00100204041005230
:10230000D001002000B59DB04C22002109A8FEF7A5
:1023100095F92022002101A8FEF790F9022002F091
:102320005DF900230093264B9A6942F440429A617A
:102330009B6903F440430093224BDA6A42F00102A6
:10234000DA62DB6A03F001030093009B1C4B9B697C
:1023500013F4005FFAD00223099301220C92402269
:102360000D92129300221392042114913C21159195
:102370001693179318930C2319931A921B9209A87A
:1023800000F0C8F9B8B93F23019303230293002357
:102390000393082304934023059306934FF480622C
:1023A0000792089304210DEB010000F007FE20B90D
:1023B0001DB05DF804FBFFF730FFFFF72EFF00BFF5
:1023C000004802580004005808B502F059F9294B9A
:1023D0005B6913F4003F13D1BFF34F8FBFF36F8FCF
:1023E000244B0022C3F85022BFF34F8FBFF36F8FEF
:1023F0005A6942F400325A61BFF34F8FBFF36F8FB7
:102400001C4B5B6913F4803F27D11A4B0022C3F8A1
:102410008420BFF34F8FD3F88040C4F34E3000E0E8
:102420001846C4F3C90243F6E07303EA401343EAD3
:1024300082731049C1F860321346013A002BF2D181
:10244000431E0028ECD1BFF34F8F4B6943F4803318
:102450004B61BFF34F8FBFF36F8FFFF753FFFFF752
:10246000C5FDFFF775FDFFF7DBFEFFF709FF03F082
:10247000B9F8FEE700ED00E0FEE7FEE7FEE7FEE765
:10248000FEE770477047704708B502F027F908BDAE
:10249000F0B5B9B000233393349335933693379323
:1024A000304B1B680BB139B0F0BD2E4B01221A60C6
:1024B000C022002102A8FEF7C1F84FF0807200236D
:1024C000CDE9022302A801F011F8002847D1264BDC
:1024D000D3F8D42042F48052C3F8D420D3F8D430B7
:1024E00003F480530193019B4FF6837333930227C8
:1024F000349700263596032536950C24379433A956
:102500001A4801F05BFF48F237133393349735963E
:102510003695379433A9164801F050FF4CF20373F7
:102520003393349735963695379433A9114801F093
:1025300045FF4FF63F0333933497359636953794DE
:1025400033A90D4801F03AFF0D23339334973596A4
:102550003695379433A9094801F030FFA3E7FFF718
:102560005CFEB4E7A80200200044025800100258A4
:1025700000180258000C02580014025800080258B3
:1025800082B0074BD3F8F42042F00202C3F8F420E3
:10259000D3F8F43003F002030193019B02B07047BB
:1025A0000044025810B5B8B004460021339134916C
:1025B000359136913791C02202A8FEF73FF8226884
:1025C0001B4B9A4201D038B010BD01220023CDE947
:1025D000022302A800F08AFF38BB164BD3F8F02084
:1025E00042F01002C3F8F020D3F8F02002F01002FD
:1025F0000092009AD3F8E02042F00102C3F8E020F4
:10260000D3F8E03003F001030193019B4FF4C06362
:102610003393022334930023359336930723379360
:1026200033A9054801F0CAFECDE7FFF7F6FDD4E770
:1026300000100140004402580000025808B5FFF79E
:1026400027FF08BD002804DB0901C9B2044B195457
:10265000704700F00F000901C9B2024B19547047CE
:1026600000E400E014ED00E000B500F00700C0F168
:10267000070CBCF1040F28BF4FF0040C031D062B00
:102680000FD9C31E4FF0FF3E0EFA0CF021EA0001F5
:1026900099400EFA03FE22EA0E0241EA02005DF8BA
:1026A00004FB0023EEE700000649CB6823F4E06357
:1026B0001B041B0C000200F4E0600343024A1A43AF
:1026C000CA60704700ED00E00000FA0510B504464E
:1026D000054BD868C0F30220FFF7C6FF014620462D
:1026E000FFF7B0FF10BD00BF00ED00E00138B0F112
:1026F000807F0BD24FF0E0235861054AF02182F829
:1027000023100020986107221A617047012070474A
:1027100000ED00E0002800F0398338B50446036876
:1027200013F0010F25D0944A136903F03803926A1D
:10273000102B15D0182B0FD06368B3F5803F3FD016
:10274000002B53D18C4B1A6822F480321A601A681D
:1027500022F480221A6038E002F00302022AEBD150
:10276000854B1B6813F4003F03D06368002B00F017
:102770000F83236813F0020F00F0A1807E4A1369D3
:10278000926A13F038035AD0182B55D0E368002B07
:1027900000F0DE8078490A6822F0190213430B60CA
:1027A00001F0A8FF0546744B1B6813F0040F40F0BE
:1027B000AD8001F09FFF401B0228F4D90320EEE218
:1027C0006D4A136843F48033136063682BB301F0E0
:1027D00091FF0546684B1B6813F4003FC9D101F017
:1027E00089FF401B6428F5D90320D8E2B3F5A02F58
:1027F00009D0614B1A6822F480321A601A6822F4F8
:1028000080221A60E1E75C4B1A6842F480221A6069
:102810001A6842F480321A60D7E701F06BFF054670
:10282000554B1B6813F4003FA3D001F063FF401B1E
:102830006428F5D90320B2E212F0030FA6D14E4B63
:102840001B6813F0040F03D0E368002B00F0A28292
:10285000494A136823F01903E1680B43136001F040
:1028600049FF0546444B1B6813F0040F06D101F0E5
:1028700041FF401B0228F5D9032090E201F054FFEC
:1028800041F20303984212D82269402A07D03A49FC
:102890004B6823F47C3343EA02334B600FE0364A43
:1028A000536823F47C3343F40033536007E0324A27
:1028B000536823F0FE43216943EA016353602368B0
:1028C00013F0100F00F088802B4A136903F03803CF
:1028D000926A082B56D0182B50D0E369002B00F0D9
:1028E000B880254A136843F08003136001F002FFAB
:1028F0000546214B1B6813F4807F40F0888001F06F
:10290000F9FE401B0228F4D9032048E201F00CFF35
:1029100041F20303984212D82269402A07D016498F
:102920004B6823F47C3343EA02334B60C7E7124A17
:10293000536823F47C3343F400335360BFE70E4AFB
:10294000536823F0FE43216943EA01635360B6E70D
:10295000094A136823F00103136001F0CBFE05461A
:10296000054B1B6813F0040FA9D001F0C3FE401BF8
:102970000228F5D9032012E20044025802F00302B3
:10298000012AAAD1A14B1B6813F4807F03D0E3690D
:10299000802B40F0018201F0C7FE41F20303984210
:1029A00012D8226A202A07D098494B6823F0F843AE
:1029B00043EA82634B600FE0944A536823F0F84384
:1029C00043F08043536007E0904AD36823F07C5380
:1029D000216A43EA0163D360236813F0080F60D0D3
:1029E0006369002B49D0894A536F43F00103536751
:1029F00001F080FE0546854B5B6F13F0020F50D14E
:102A000001F078FE401B0228F5D90320C7E101F050
:102A10008BFE41F20303984212D8226A202A07D083
:102A20007A494B6823F0F84343EA82634B60D3E76B
:102A3000764A536823F0F84343F080435360CBE772
:102A4000724AD36823F07C53216A43EA0163D3605E
:102A5000C2E76E4A136823F08003136001F04AFE58
:102A600005466A4B1B6813F4807FB5D001F042FE27
:102A7000401B0228F5D9032091E1644A536F23F0EB
:102A80000103536701F036FE0546604B5B6F13F0A0
:102A9000020F06D001F02EFE401B0228F5D90320BC
:102AA0007DE1236813F0200F29D0A3699BB1574A19
:102AB000136843F48053136001F01CFE0546534B2A
:102AC0001B6813F4005F1AD101F014FE401B0228AA
:102AD000F5D9032063E14D4A136823F48053136052
:102AE00001F008FE0546494B1B6813F4005F06D051
:102AF00001F000FE401B0228F5D903204FE12368B6
:102B000013F0040F21D1636A002B00F047813F4A84
:102B1000126902F03802182A00F0EE80022B79D0F8
:102B20003A4A136823F08073136001F0E3FD044612
:102B3000364B1B6813F0007F00F0DC8001F0DAFDFB
:102B4000001B0228F4D9032029E1314A136843F419
:102B50008073136001F0CEFD05462D4B1B6813F406
:102B6000807F06D101F0C6FD401B6428F5D9032003
:102B700015E1A368012B0AD00BBB244B1A6F22F07E
:102B800001021A671A6F22F004021A6704E01F4A52
:102B9000136F43F001031367A36833B301F0AAFD79
:102BA00005461A4B1B6F13F0020FACD101F0A2FDCA
:102BB000401B41F288339842F3D90320EFE0052B04
:102BC00009D0124B1A6F22F001021A671A6F22F015
:102BD00004021A67E0E70D4B1A6F42F004021A670D
:102BE0001A6F42F001021A67D6E701F083FD05462D
:102BF000064B1B6F13F0020F85D001F07BFD401BCD
:102C000041F288339842F3D90320C8E000440258C7
:102C100000480258694A136823F08073136001F07A
:102C200069FD0546654B1B6813F0007F06D001F077
:102C300061FD401B0228F5D90320B0E05F4B996A83
:102C40005F4A0A40A16AE06A41EA00110A439A62B7
:102C5000226B013AC2F30802616B0139490289B261
:102C60000A43A16B0139090401F4FE010A43E16B37
:102C70000139090601F0FE410A431A63DA6A22F0BB
:102C80000102DA625A6B6FF3CF02A16C42EAC10211
:102C90005A63DA6A22F00C02216C0A43DA62DA6AB9
:102CA00022F00202616C0A43DA62DA6A42F480328C
:102CB000DA62DA6A42F40032DA62DA6A42F48022D4
:102CC000DA62DA6A42F00102DA621A6842F080726D
:102CD0001A6001F00FFD0446384B1B6813F0007FAB
:102CE00006D101F007FD001B0228F5D9032056E0AC
:102CF000002054E0002052E0304A916A106B012B12
:102D00004ED001F00303A26A93424BD1C1F30511E7
:102D1000E36A994248D1C0F30802236B013B9A420F
:102D200044D1C0F34622636B013B9A4240D1C0F3C9
:102D30000642A36B013B9A423CD1C0F30660E36BB1
:102D4000013B984238D11D4B5B6BC3F3CC03A26CA3
:102D50009A4201D1002022E0184AD36A23F00103ED
:102D6000D36201F0C7FC054601F0C4FCA842FBD0C9
:102D7000124A536B6FF3CF03A16C43EAC103536351
:102D8000D36A43F00103D362002008E001207047BA
:102D9000012004E0012002E0012000E0002038BD15
:102DA0000120FCE70120FAE70120F8E70120F6E71F
:102DB0000120F4E70120F2E70120F0E70044025887
:102DC0000CFCFFFF754B1B6903F03803102B00F060
:102DD000DE80182B0FD0002B40F0DB806F4B1B6880
:102DE00013F0200F00F0D7806C4B1B68C3F3C103B6
:102DF0006B48D840704710B4684B9A6A02F00302DF
:102E00009C6AC4F30510D96A01F001015B6BC3F33E
:102E1000CC0301FB03F307EE903AF8EE677A14F463
:102E20007C7F77D0012A4AD0022A76D0002A40F04F
:102E300091805A4B1B6813F0200F23D057490A6822
:102E4000C2F3C102564BD34007EE103AF8EE476A80
:102E500007EE100AB8EE476A86EE867A0B6BC3F36C
:102E6000080306EE903AF8EE666A9FED4E6A67EE4A
:102E7000867A76EEA77AF7EE006A77EEA67A27EEE4
:102E8000277A38E007EE100AF8EE476A9FED466AA7
:102E900086EE267A414B1B6BC3F3080306EE903A8D
:102EA000F8EE666A9FED3F6A67EE867A76EEA77A5D
:102EB000F7EE006A77EEA67A27EE277A1BE007EE98
:102EC000100AF8EE476A9FED396A86EE267A334B90
:102ED0001B6BC3F3080306EE903AF8EE666A9FEDAB
:102EE000316A67EE867A76EEA77AF7EE006A77EEB9
:102EF000A67A27EE277A294B1B6BC3F346230133AF
:102F000007EE903AF8EE677AC7EE276AFCEEE67AAB
:102F100017EE900A5DF8044B704707EE100AF8EEC2
:102F2000476A9FED236A86EE267A1C4B1B6BC3F320
:102F3000080306EE903AF8EE666A9FED1A6A67EEAD
:102F4000867A76EEA77AF7EE006A77EEA67A27EE13
:102F5000277AD0E707EE100AF8EE476A9FED136A6A
:102F600086EE267A0D4B1B6BC3F3080306EE903AF0
:102F7000F8EE666A9FED0B6A67EE867A76EEA77AC0
:102F8000F7EE006A77EEA67A27EE277AB3E70948CC
:102F90007047094870470248704700BF0044025814
:102FA0000090D003000000390024744C0024744ABF
:102FB00020BCBE4B40787D0100093D00002800F098
:102FC000328170B50D4604469B4B1B6803F00F031E
:102FD0008B420BD2984A136823F00F030B43136004
:102FE000136803F00F038B4240F01F81236813F036
:102FF000040F0CD02269914B9B6903F070039A4235
:1030000005D98E498B6923F070031A438A612368BE
:1030100013F0080F0CD06269884BDB6903F0700372
:103020009A4205D98549CB6923F070031A43CA61D6
:10303000236813F0100F0CD0A269804BDB6903F4F6
:10304000E0639A4205D97D49CB6923F4E0631A43D2
:10305000CA61236813F0200F0CD0E269774B1B6A1A
:1030600003F070039A4205D974490B6A23F0700388
:103070001A430A62236813F0020F0CD0E2686F4B08
:103080009B6903F00F039A4205D96C498B6923F0C1
:103090000F031A438A61236813F0010F41D0674A76
:1030A000936923F47063A1680B4393616368022BF7
:1030B0000AD0032B27D0012B2CD0604A126812F0C3
:1030C000040F06D10120ADE0126812F4003F00F0B9
:1030D000AE805A490A6922F0070213430B6101F0DE
:1030E00009FB0646554B1B6903F038036268B3EBD6
:1030F000C20F16D001F0FEFA801B41F288339842CD
:10310000F0D903208EE04D4A126812F0007FE0D122
:10311000012087E0494A126812F4807FD9D101204A
:1031200080E0236813F0020F0CD0E268434B9B69E8
:1031300003F00F039A4205D240498B6923F00F0335
:103140001A438A613C4B1B6803F00F03AB420AD958
:10315000394A136823F00F032B431360136803F0FD
:103160000F03AB4265D1236813F0040F0CD0226922
:10317000324B9B6903F070039A4205D22F498B6949
:1031800023F070031A438A61236813F0080F0CD0F0
:1031900062692A4BDB6903F070039A4205D2274922
:1031A000CB6923F070031A43CA61236813F0100F30
:1031B0000CD0A269214BDB6903F4E0639A4205D28B
:1031C0001E49CB6923F4E0631A43CA61236813F0F4
:1031D000200F0CD0E269194B1B6A03F070039A426E
:1031E00005D216490B6A23F070031A430A62FFF7EF
:1031F000E9FD12498B69C3F30323114AD35C03F041
:103200001F03D8408B6903F00F03D35C03F01F0347
:1032100020FA03F30B4A13600B4B18600B4B186832
:1032200001F006FA70BD012070470120FAE7012085
:10323000F8E70120F6E700BF0020005200440258E2
:10324000B4580008640000206800002060000020DE
:1032500008B5FFF7B7FD0B4A9369C3F303230A4987
:10326000CB5C03F01F0320FA03F3926902F00F0214
:10327000885C00F01F0023FA00F0044A1060044A42
:10328000136008BD00440258B458000864000020D0
:103290006800002008B5FFF7DBFF054BDB69C3F3CF
:1032A0000213044AD35C03F01F03D84008BD00BFDB
:1032B00000440258B458000808B5FFF7C9FF054B91
:1032C000DB69C3F30223044AD35C03F01F03D84035
:1032D00008BD00BF00440258B4580008404B9B6A28
:1032E00003F00303032B79D070B505460E463C4A24
:1032F000136823F08063136001F0FCF90446384B37
:103300001B6813F0006F06D001F0F4F9031B022BC9
:10331000F5D9032070BD324B9A6A22F47C322968B9
:1033200042EA01329A626A68013AC2F30802A96865
:103330000139490289B20A43E9680139090401F4F3
:10334000FE010A4329690139090601F0FE410A43D9
:103350009A63DA6A22F0C00269690A43DA62DA6AB9
:1033600022F02002A9690A43DA62DA6A22F0100226
:10337000DA62DA6B6FF3CF02E96942EAC102DA631B
:10338000DA6A42F01002DA62C6B91A46DB6A43F41E
:103390000023D362124A136843F08063136001F084
:1033A000A9F904460E4B1B6813F0006F14D101F00D
:1033B000A1F9001B0228F5D90320ABE7012E05D0A7
:1033C000074AD36A43F40013D362E3E7044AD36A9B
:1033D00043F48013D362DDE700209BE701207047B0
:1033E00000440258404B9B6A03F00303032B79D03F
:1033F00070B505460E463C4A136823F080531360AF
:1034000001F078F90446384B1B6813F0005F06D0D2
:1034100001F070F9031B022BF5D9032070BD324B6C
:103420009A6A22F07C72296842EA01529A626A68BA
:10343000013AC2F30802A9680139490289B20A4374
:10344000E9680139090401F4FE010A4329690139D7
:10345000090601F0FE410A431A64DA6A22F4406266
:1034600069690A43DA62DA6A22F40072A9690A43D6
:10347000DA62DA6A22F48072DA625A6C6FF3CF028F
:10348000E96942EAC1025A64DA6A42F48072DA6295
:10349000C6B91A46DB6A43F48003D362124A136842
:1034A00043F08053136001F025F904460E4B1B686E
:1034B00013F0005F14D101F01DF9001B0228F5D9AB
:1034C0000320ABE7012E05D0074AD36A43F080738F
:1034D000D362E3E7044AD36A43F40003D362DDE72F
:1034E00000209BE70120704700440258F8B50446CD
:1034F000036813F0006F30D0836EB3F5001F26D041
:103500000ED8ABB1B3F5801F07D102210830FFF709
:10351000E5FE054695B12E4621E0012635461EE022
:10352000B3F5401F01D1002508E00126354616E01D
:10353000984AD36A43F40033D3620025954A136D49
:1035400023F44013A16E0B431365002607E002210C
:103550002830FFF747FF0546DCE70026354623689D
:1035600013F4807F14D0A36D042B31D8DFE803F06F
:10357000032229080800874AD36A43F40033D36240
:103580004DBB844A136D23F00703A16D0B431365F4
:10359000236813F4007F38D0E36D802B4AD01FD806
:1035A00033B3402B19D1002104F10800FFF796FE38
:1035B000054622E0002104F10800FFF78FFE0546D2
:1035C000DEE7002104F12800FFF70CFF0546D7E7EE
:1035D00001263546DCE72E46DAE70126354614E0BB
:1035E000C02B0AD0B3F5807F07D0012635460CE00A
:1035F000684AD36A43F40033D36215BB654A136D3E
:1036000023F4E073E16D0B431365236813F4806FBB
:103610003CD0D4F8A830B3F5800F2FD016D8F3B132
:10362000B3F5001F0FD1002104F10800FFF756FE8B
:10363000054619E0002104F12800FFF7D3FE0546F6
:10364000DBE72E46E1E7012635461FE0B3F5C00F64
:103650000AD0B3F5000F07D00126354616E04D4AD3
:10366000D36A43F40033D3627DB94A4A936D23F49D
:103670006003D4F8A8100B43936507E0002104F120
:103680002800FFF7AFFE0546EEE72E46236813F449
:10369000006F2BD0D4F8AC30B3F1007F53D00DD8ED
:1036A000ABB1B3F1807F06D1002104F10800FFF730
:1036B00015FE054610E00126354617E0B3F1407FC0
:1036C0000AD0B3F1806F07D0012635460EE0314AAB
:1036D000D36A43F40033D362002D3BD12D4A936D5E
:1036E00023F0E063D4F8AC100B439365236813F028
:1036F000007F13D0E36C202B36D030D833B1102BA1
:103700002AD1244AD36A43F40033D3629DBB214AB1
:10371000D36C23F03003E16C0B43D364236813F4C0
:10372000805F47D0236EB3F5005F00F08D8027D80F
:1037300093B3B3F5805F20D1002104F10800FFF7B7
:10374000CDFD05462DE0002104F12800FFF74AFEDB
:103750000546C1E72E46C9E701263546DEE7302B90
:10376000D4D001263546D9E7022104F10800FFF73D
:10377000B5FD0546CAE72E46D0E70126354619E0D5
:10378000B3F5405F0DD0B3F5804F0AD00126354622
:1037900010E000BF00440258774AD36A43F4003374
:1037A000D362002D57D1744A136D23F4E043216E88
:1037B0000B431365236813F4005F17D0636EB3F5F2
:1037C000003F59D04CD843B1B3F5803F45D10121DA
:1037D00004F10800FFF782FD0546002D53D1664A2B
:1037E000136D23F4E023616E0B431365236813F418
:1037F000804F19D0D4F8B030B3F1005F54D047D81F
:1038000043B1B3F1805F40D1012104F10800FFF71B
:1038100065FD0546002D4ED1574A936D23F0E043D8
:10382000D4F8B0100B439365236813F4004F51D0C4
:10383000236FB3F1805F40D0B3F1005F55D0002B10
:1038400040D00126354645E0002104F12800FFF76D
:10385000C9FD0546A5E72E46ACE701263546C5E776
:10386000B3F5802FB9D0B3F5A02FB6D0B3F5403F54
:10387000B3D001263546B9E7012104F12800FFF74E
:10388000B1FD0546A9E72E46B0E701263546CBE750
:10389000B3F1804FBED0B3F1A04FBBD0B3F1405FC6
:1038A000B8D001263546BFE7012104F12800FFF713
:1038B00099FD0546AEE72E46B6E72F4AD36A43F494
:1038C0000033D362C5B92C4A136D23F04053216FE6
:1038D0000B431365236813F0807F1CD0A36C032B6C
:1038E00044D8DFE803F0100B3C10012104F108007C
:1038F000FFF7F4FC0546E5E72E46EBE71E4AD36AE0
:1039000043F40033D362A5BB1B4AD36C23F00303FB
:10391000A16C0B43D364236813F4800F2ED123686A
:1039200013F0010F00F0A680E36F282B00F2A080B7
:10393000DFE803F08E9E9E9E9E9E9E9E889E9E9E8B
:103940009E9E9E9E979E9E9E9E9E9E9E8E9E9E9EAE
:103950009E9E9E9E8E9E9E9E9E9E9E9E8E0002215E
:1039600004F10800FFF7BAFC0546CCE7012635460E
:10397000D1E72E46CFE700BF00440258584A1368EB
:1039800043F48073136000F0B5FE0746544B1B6888
:1039900013F4807F05D100F0ADFEC01B6428F5D97B
:1039A0000325002D4AD14F4B1B6FD4F8B420534050
:1039B00013F4407F0CD04B4B1A6F22F44072196FF6
:1039C00041F480311967196F21F4803119671A6742
:1039D000D4F8B430B3F5807F15D08DBBD4F8B430B3
:1039E00003F44072B2F5407F1ED03E4A136923F4BF
:1039F0007C5313613B490B6FD4F8B420C2F30B0224
:103A000013430B678BE700F075FE0746354B1B6FC2
:103A100013F0020FE1D100F06DFEC01B41F28833BC
:103A20009842F3D90325D8E72E48026922F47C5244
:103A30002D4901EA131313430361DBE72E466EE7BA
:103A40002E466CE7012104F10800FFF747FC05460C
:103A5000E5B9244A536D23F03803E16F0B435365F6
:103A600008E0012104F12800FFF7BCFC0546EFE760
:103A700001263546236813F0020F17D0A36F052BDC
:103A800029D8DFE803F00B05210B0B0B2E46F1E7DD
:103A9000012104F10800FFF721FC0546F5B9114AA0
:103AA000536D23F00703A16F0B435365236813F095
:103AB000040F2CD0D4F89430052B00F2DC80DFE822
:103AC00003F01B15D31B1B1B012104F12800FFF77A
:103AD00089FC0546E2E701263546E7E72E46E5E79D
:103AE0000048025800440258CFFFFF00012104F1B2
:103AF0000800FFF7F3FB0546002D40F0BF80B34AF6
:103B0000936D23F00703D4F894100B439365236857
:103B100013F0200F1DD0D4F89030B3F1005F00F007
:103B2000C18000F2B0804BB1B3F1805F40F0A8805B
:103B3000002104F10800FFF7D1FB0546002D40F0FD
:103B4000B880A24A536D23F0E043D4F890100B43A1
:103B50005365236813F0400F1DD0D4F89C30B3F5A3
:103B6000006F00F0BA8000F2A9804BB1B3F5806F0E
:103B700040F0A180002104F10800FFF7AFFB0546EB
:103B8000002D40F0B180914A936D23F4E053D4F8B6
:103B90009C100B439365236813F0800F1DD0D4F85D
:103BA000A030B3F5804F00F0B38000F2A2804BB19B
:103BB000B3F5005F40F09A80002104F10800FFF7A0
:103BC0008DFB0546002D40F0AA80804A936D23F4BA
:103BD0006043D4F8A0100B439365236813F0080FDB
:103BE0000DD0D4F88430B3F5805F00F09A80774A26
:103BF000536D23F44053D4F884100B43536523686A
:103C000013F0100F0DD0D4F89830B3F5807F00F08A
:103C100092806E4A936D23F44073D4F898100B434E
:103C20009365236813F4002F00F09A80D4F8A43031
:103C3000B3F5803F00F08980B3F5003F08D0002B3A
:103C400040F08A80002104F10800FFF747FB054699
:103C5000002D40F084805D4A936D23F44033D4F806
:103C6000A4100B4393657BE0012104F12800FFF7CA
:103C7000B9FB054640E70126354648E72E4646E7AC
:103C80000126354665E7B3F1804F3FF457AFB3F1F6
:103C9000A04F3FF453AFB3F1405F3FF44FAF012665
:103CA000354656E7022104F12800FFF79BFB054645
:103CB00044E72E464DE7012635466CE7B3F5805FB5
:103CC0003FF45EAFB3F5A05F3FF45AAFB3F5406F7A
:103CD0003FF456AF012635465DE7022104F1280086
:103CE000FFF780FB05464BE72E4654E70126354695
:103CF00073E7B3F5004F3FF465AFB3F5204F3FF4E2
:103D000061AFB3F5C04F3FF45DAF0126354664E7C0
:103D1000022104F12800FFF765FB054652E72E4615
:103D20005BE7022104F12800FFF75CFB00283FF469
:103D30005EAF01265BE7022104F12800FFF752FB8A
:103D400000283FF466AF012663E7022104F1280052
:103D5000FFF748FB05467BE70126354600E02E4687
:103D6000236813F4802F18D0D4F88830B3F5001FDF
:103D70001FD0B3F5401F07D0B3F5801F20D1134AE1
:103D8000D36A43F40033D362EDB9104A536D23F480
:103D90004013D4F888100B435365236813F4803F15
:103DA0002CD0236DA3B1B3F5803F1FD0012635463B
:103DB00024E0012104F12800FFF714FB0546E3E7A6
:103DC00001263546E9E72E46E7E700BF00440258E2
:103DD000704AD36A43F40033D36275B96D4AD36C29
:103DE00023F48033216D0B43D36407E0022104F1F7
:103DF0000800FFF773FA0546EFE72E46236813F035
:103E0000005F11D1236813F4003F28D0D4F880302C
:103E1000B3F5807F14D010D9B3F5007F15D0B3F57A
:103E2000407F12D001261AE0022104F12800FFF79A
:103E3000D9FA0028E6D00126E4E733B101260EE0E6
:103E4000544AD36A43F40033D362002D69D1514AF6
:103E5000536D23F44073D4F880100B4353652368EB
:103E600013F4801F06D04B4A136D23F00043616F9B
:103E70000B431365236813F0805F07D0454A13692D
:103E800023F48043D4F8B8100B431361236813F470
:103E9000001F06D03F4A136D23F08073E16E0B4381
:103EA0001365236813F0804F09D03A4B1A6922F446
:103EB00000421A611A69D4F8BC100A431A612368D7
:103EC000002B06DA334AD36C23F04053616D0B4369
:103ED000D364236813F4000F07D02E4A536D23F4E4
:103EE0004003D4F88C100B435365636813F0010F43
:103EF00019D1636813F0020F1ED1636813F0040F29
:103F000023D1636813F0080F28D1636813F0100FF2
:103F10002DD1636813F0200F32D106B1012630464F
:103F2000F8BD2E469BE7002104F10800FFF7D6F903
:103F30000028DED00646DCE7012104F10800FFF787
:103F4000CDF90028D9D00646D7E7022104F10800B0
:103F5000FFF7C4F90028D4D00646D2E7002104F1C7
:103F60002800FFF73FFA0028CFD00646CDE7012111
:103F700004F12800FFF736FA0028CAD00646C8E741
:103F8000022104F12800FFF72DFA0028C5D00126F0
:103F9000C5E700BF0044025808B5FFF759F9054BC3
:103FA0001B6AC3F30213044AD35C03F01F03D84017
:103FB00008BD00BF00440258B458000810B4794B43
:103FC0009A6A9C6AC4F3053CD96AC1F30011DB6BA1
:103FD000C3F3CC0301FB03F314F47C3F00F0DD805A
:103FE00002F0030207EE903AF8EE677A012A4BD00E
:103FF000022A00F09880002A40F0B280694B1B68CA
:1040000013F0200F23D067490A68C2F3C102664B40
:10401000D34007EE103AF8EE476A07EE10CAB8EE42
:10402000476A86EE867A8B6BC3F3080306EE903AF6
:10403000F8EE666A9FED5D6A67EE867A76EEA77A9D
:10404000F7EE006A77EEA67A27EE277A38E007EED9
:1040500010CAF8EE476A9FED566A86EE267A514BF3
:104060009B6BC3F3080306EE903AF8EE666A9FED89
:104070004F6A67EE867A76EEA77AF7EE006A77EEF9
:10408000A67A27EE277A1BE007EE10CAF8EE476AF9
:104090009FED486A86EE267A424B9B6BC3F308037A
:1040A00006EE903AF8EE666A9FED406A67EE867A11
:1040B00076EEA77AF7EE006A77EEA67A27EE277AF1
:1040C000384A936BC3F3462307EE903AF8EE677ACB
:1040D000F7EE006A77EEA67A87EE276ABCEEC66A2C
:1040E00080ED006A936BC3F3064307EE903AF8EE57
:1040F000677A77EEA67A87EE276ABCEEC66A80ED0D
:10410000016A936BC3F3066307EE903AF8EE677AA1
:1041100077EEA67AC7EE276AFCEEE66AC0ED026A81
:104120005DF8044B704707EE10CAF8EE476A9FED42
:10413000226A86EE267A1B4B9B6BC3F3080306EEBE
:10414000903AF8EE666A9FED196A67EE867A76EE27
:10415000A77AF7EE006A77EEA67A27EE277AAFE71E
:1041600007EE10CAF8EE476A9FED126A86EE267ACD
:104170000C4B9B6BC3F3080306EE903AF8EE666AAD
:104180009FED0A6A67EE867A76EEA77AF7EE006A06
:1041900077EEA67A27EE277A92E700230360436042
:1041A0008360BDE7004402580090D003000000394E
:1041B0000024744C0024744A20BCBE4B10B4794BCC
:1041C0009A6A9C6AC4F3055CD96AC1F300215B6CEE
:1041D000C3F3CC0301FB03F314F07C7F00F0DD801C
:1041E00002F0030207EE903AF8EE677A012A4BD00C
:1041F000022A00F09880002A40F0B280694B1B68C8
:1042000013F0200F23D067490A68C2F3C102664B3E
:10421000D34007EE103AF8EE476A07EE10CAB8EE40
:10422000476A86EE867A0B6CC3F3080306EE903A73
:10423000F8EE666A9FED5D6A67EE867A76EEA77A9B
:10424000F7EE006A77EEA67A27EE277A38E007EED7
:1042500010CAF8EE476A9FED566A86EE267A514BF1
:104260001B6CC3F3080306EE903AF8EE666A9FED06
:104270004F6A67EE867A76EEA77AF7EE006A77EEF7
:10428000A67A27EE277A1BE007EE10CAF8EE476AF7
:104290009FED486A86EE267A424B1B6CC3F30803F7
:1042A00006EE903AF8EE666A9FED406A67EE867A0F
:1042B00076EEA77AF7EE006A77EEA67A27EE277AEF
:1042C000384A136CC3F3462307EE903AF8EE677A48
:1042D000F7EE006A77EEA67A87EE276ABCEEC66A2A
:1042E00080ED006A136CC3F3064307EE903AF8EED4
:1042F000677A77EEA67A87EE276ABCEEC66A80ED0B
:10430000016A136CC3F3066307EE903AF8EE677A1E
:1043100077EEA67AC7EE276AFCEEE66AC0ED026A7F
:104320005DF8044B704707EE10CAF8EE476A9FED40
:10433000226A86EE267A1B4B1B6CC3F3080306EE3B
:10434000903AF8EE666A9FED196A67EE867A76EE25
:10435000A77AF7EE006A77EEA67A27EE277AAFE71C
:1043600007EE10CAF8EE476A9FED126A86EE267ACB
:104370000C4B1B6CC3F3080306EE903AF8EE666A2A
:104380009FED0A6A67EE867A76EEA77AF7EE006A04
:1043900077EEA67A27EE277A92E700230360436040
:1043A0008360BDE7004402580090D003000000394C
:1043B0000024744C0024744A20BCBE4BF0B583B07A
:1043C00000236BE085685E000324B44025EA040501
:1043D000CC68B4402C438460456825EA0C054C68E1
:1043E000C4F300149C402C43446069E0DD080835A8
:1043F00050F8254003F0070C4FEA8C0C4FF00F0EDD
:104400000EFA0CFE24EA0E0E0C6904FA0CF444EACF
:104410000E0440F825406BE0092400E0002404FA73
:104420000EF42C430CF1020C694D45F82C404FF072
:10443000B0442568D44325EA02064F6817F4801F6C
:1044400001D042EA05064FF0B0452E606D6804EADF
:1044500005064F6817F4001F01D042EA05064FF029
:10446000B0456E60D5F8845004EA05064F6817F42D
:10447000003F01D042EA05064FF0B045C5F8846020
:10448000D5F880502C404E6816F4803F01D042EAA7
:1044900005044FF0B042C2F8804001330A6832FA96
:1044A00003F400F092804FF0010C0CFA03FC1CEABC
:1044B0000202F2D04C6804F00304013C012C81D9C3
:1044C0004C6804F00304032C0CD0C4685D004FF06A
:1044D000030C0CFA05FC24EA0C0C8C68AC4044EA92
:1044E0000C04C4604C6804F00304022C3FF47EAF5B
:1044F00004684FEA430E4FF0030C0CFA0EFC24EA5A
:104500000C0C4C6804F0030404FA0EF444EA0C04A6
:1045100004604C6814F4403FBFD02E4CD4F8F450E3
:1045200045F00205C4F8F450D4F8F44004F0020455
:104530000194019C4FEA930C0CF10205244C54F8B1
:10454000255003F0030E4FEA8E0E0F2404FA0EF4EA
:1045500025EA0405204CA0423FF460AF04F58064D6
:10456000A04222D004F58064A04220D004F58064EB
:10457000A0421ED004F58064A0421CD004F58064E3
:10458000A0421AD004F58064A04218D004F58064DB
:10459000A04216D004F58064A04214D004F58064D3
:1045A000A0423FF439AF0A2439E7012437E7022457
:1045B00035E7032433E7042431E705242FE70624F5
:1045C0002DE707242BE7082429E703B0F0BD00BF3F
:1045D000000400580044025800000258134BDB68E6
:1045E00013F0040F07D1114BDB6803F0070383427C
:1045F0001AD00120704710B50C4AD36823F0070386
:104600000343D36000F076F80446084B5B6813F46C
:10461000005F07D100F06EF8001BB0F57A7FF4D987
:10462000012000E0002010BD002070470048025823
:10463000104B1B780BB90120704710B504464FF49E
:104640007A70B0FBF3F30C4A1068B0FBF3F0FEF79E
:104650004DF868B90F2C01D901200AE0002221464B
:104660004FF0FF30FEF732F8044B1C60002000E0F2
:10467000012010BD5C0000206800002060000020C8
:1046800010B50320FEF710F8FEF79CFB0F498B696D
:10469000C3F303230E4AD35C03F01F03D8408B6996
:1046A00003F00F03D35C03F01F0320FA03F3094A5E
:1046B0001360094B18600F20FFF7BAFF10B10124F7
:1046C000204610BD0446FDF75BFFF9E700440258A1
:1046D000B45800086400002068000020034B1B78D9
:1046E000034A11680B441360704700BF5C00002050
:1046F000AC020020014B1868704700BFAC020020DC
:1047000038B50446FFF7F6FF0546B4F1FF3F02D087
:10471000044B1B781C44FFF7EDFF401BA042FAD36B
:1047200038BD00BF5C000020014B1868000C7047CA
:104730000010005C314AD2F8883043F47003C2F8AC
:1047400088302F4B1B6803F00F03062B06D82C4A2A
:10475000136823F00F0343F007031360294B1A6813
:1047600042F001021A6000221A611968264A0A40C2
:104770001A60234B1B6813F0080F06D0204A1368F9
:1047800023F00F0343F0070313601E4B00229A61CE
:10479000DA611A621D4999621D49D9621D4919637E
:1047A0005A639963DA6319645A64196821F48021A1
:1047B00019601A66184B1B686FF30F03B3F1005FA3
:1047C00003D2164B0122C3F808210E4BD3F8D43084
:1047D00013F4805F10D10B4BD3F8D42042F48052F5
:1047E000C3F8D4200E4A43F2D2011160D3F8D4208A
:1047F00022F48052C3F8D420704700BF00ED00E0DF
:1048000000200052004402587FEDF6EA0002020246
:104810000000FF01800201010010005C00800051D7
:1048200000400052054AD36843F00203D360034BB3
:104830005B6813F4005FFAD0704700BF004802586D
:1048400010B503460C4A0D490D48006840B10C48AC
:1048500000680344521A934206D8094A136010BDF7
:104860000748084C0460F2E7FCF70EF80C230360DD
:104870004FF0FF30F3E700BF0040002000040000CD
:10488000B0020020B802002070B50C461646002584
:1048900006E0AFF30080214601F8010B01350C461C
:1048A000B542F6DB304670BD70B50C4616460025A5
:1048B00004E014F8010BFDF747FC0135B542F8DBC5
:1048C000304670BD4FF0FF3070474FF400534B60DF
:1048D000002070470120704700207047026852E8AE
:1048E000003F23F4907342E800310029F6D10268BA
:1048F00002F1080353E8001F0D4B0B40083242E859
:1049000000310029F3D1C36E012B06D02023C0F85B
:104910008C300023C36643677047026852E8003F4B
:1049200023F0100342E800310029F6D1EEE700BF82
:10493000FEFFFFEF70B586B004468368026913433B
:1049400042691343C269134301680868884A0240F8
:104950001A430A602268536823F44053E1680B430A
:104960005360A1692268834B9A4201D0236A19439C
:104970009068814B03400B4393602268D36A23F015
:104980000F03616A0B43D36223687C4A934221D0B0
:104990007B4A934200F08C807A4A934200F0A280D6
:1049A000794A934200F0B580784A934200F0C8807B
:1049B000774A934200F0F480764A934200F01981DE
:1049C000754A934200F02C816A4A934200F03F817D
:1049D000802233E0714A526D02F03802282A65D8ED
:1049E000DFE812F0290064006400640064006400E1
:1049F000640064004D0164006400640064006400AD
:104A0000640064002B0064006400640064006400BF
:104A1000640064005E00640064006400640064007C
:104A2000640064006000640064006400640064006A
:104A3000640064006200012200E008224D498B42BC
:104A400000F02F81E069B0F5004F00F0AF81202A1F
:104A500000F20682202A00F25382DFE812F00802F8
:104A600022025102510225025102510251022A0230
:104A700051025102510251025102510251022F02C0
:104A8000510251025102510251025102510251028E
:104A900051025102510251025102510251023B0294
:104AA0001022CBE72022C9E74022C7E78022C5E7D2
:104AB0003A4A526D02F00702052A11D8DFE812F0D7
:104AC0000600E10008000A000C000E000022B5E715
:104AD0000822B3E71022B1E72022AFE74022ADE77A
:104AE0008022ABE72D4A526D02F00702052A0ED84C
:104AF000DFE802F003C90507090B00229EE7082240
:104B00009CE710229AE7202298E7402296E780222D
:104B100094E7224A526D02F00702052A0ED8DFE818
:104B200002F003B40507090B002287E7082285E796
:104B3000102283E7202281E740227FE780227DE761
:104B4000164A526D02F00702052A0ED8DFE802F07D
:104B5000039F0507090B002270E708226EE7102269
:104B60006CE720226AE7402268E7802266E700BF00
:104B7000F369FFCF000C0058FFF4FF110010014053
:104B80000044004000480040004C004000500040FD
:104B90000014014000780040007C004000440258AE
:104BA0007D4A526D02F03802282A20D8DFE802F050
:104BB000151F1F1F1F1F1F1F711F1F1F1F1F1F1FBD
:104BC000171F1F1F1F1F1F1F191F1F1F1F1F1F1F03
:104BD0001B1F1F1F1F1F1F1F1D0001222EE7082262
:104BE0002CE710222AE7202228E7402226E780220D
:104BF00024E7694A526D02F00702052A0ED8DFE861
:104C000002F0034A0507090B002217E7082215E7FF
:104C1000102213E7202211E740220FE780220DE740
:104C20005D4A526D02F00702052A0ED8DFE802F055
:104C300003350507090B002200E70822FEE61022D3
:104C4000FCE62022FAE64022F8E68022F6E602F5AB
:104C50000E32926D02F00702052A0ED8DFE802F04C
:104C6000031F0507090B0222E8E60822E6E61022E8
:104C7000E4E62022E2E64022E0E68022DEE60422AC
:104C8000DCE60422DAE60422D8E60422D6E6042290
:104C9000D4E60422D2E60422D0E60422CEE60422A0
:104CA000CCE6202A27D8022AC0F01881023A1E2A10
:104CB00000F21681DFE812F02600140156001401FC
:104CC000140114015B0014011401140114011401F6
:104CD00014011401600014011401140114011401E1
:104CE000140114011401140114011401140114011C
:104CF000140114016C00402A02D14FF4004006E078
:104D00000120FEE0FFF748F9002800F0EB80626A1E
:104D1000224B33F81220B0FBF2F3656805EB450136
:104D2000994200F2E180B3EB053F00F2DF800026FC
:104D300033463146FCF794FF090241EA1061000254
:104D40006B08C0182A46334641F10001FCF788FF82
:104D5000A0F54072124B9A4200F2CA802368D860D4
:104D60003046CEE003A8FFF729F90498CCE768465F
:104D7000FFF724FA0198C7E7074B1B6813F0200FD1
:104D800008D0054B1B68C3F3C1030648D840BEE7F3
:104D90000548BCE70348BAE700440258C458000875
:104DA000FFFC0F000090D00300093D00202A15D819
:104DB000202A00F29F80DFE802F015369D9D399D84
:104DC0009D9D3E9D9D9D9D9D9D9D439D9D9D9D9DCC
:104DD0009D9D9D9D9D9D9D9D9D9D4F00402A06D022
:104DE00001208EE0FEF756FA002800F08580626A06
:104DF0004B4B33F81230B0FBF3F06268530803EB0F
:104E00004003B3FBF2F3A3F110014FF6EF729142AE
:104E100074D89AB222F00F02C3F3420313432268FC
:104E2000D36000206DE0FEF747FADDE703A8FFF747
:104E3000C5F80498D8E76846FFF7C0F90198D3E7AA
:104E4000384B1B6813F0200F08D0364B1B68C3F398
:104E5000C1033548D840CAE73448C8E73248C6E7F6
:104E6000402A02D14FF4004005E0012049E0FEF75E
:104E700011FA00284FD0626A294B33F81230B0FB88
:104E8000F3F0636800EB5300B0FBF3F0A0F1100205
:104E90004FF6EF739A4240D8236880B2D860002062
:104EA0002FE0FEF709FAE4E703A8FFF787F8049874
:104EB000DFE76846FFF782F90198DAE7194B1B68CC
:104EC00013F0200F08D0174B1B68C3F3C10316481B
:104ED000D840D0E71548CEE71348CCE7012010E0D2
:104EE00001200EE000200CE001200AE0012008E093
:104EF000012006E0012004E0002002E0012000E0A3
:104F000001200123A4F86A30A4F868300023636705
:104F1000A36706B070BD0020F3E70120F1E700BFF2
:104F2000C4580008004402580090D00300093D0016
:104F3000836A13F0080F06D00268536823F4004315
:104F4000816B0B435360836A13F0010F06D0026834
:104F5000536823F40033C16A0B435360836A13F030
:104F6000020F06D00268536823F48033016B0B43B1
:104F70005360836A13F0040F06D00268536823F469
:104F80008023416B0B435360836A13F0100F06D0EC
:104F90000268936823F48053C16B0B439360836A68
:104FA00013F0200F06D00268936823F40053016CBD
:104FB0000B439360836A13F0400F0AD00268536872
:104FC00023F48013416C0B435360436CB3F5801F93
:104FD0000BD0836A13F0800F06D00268536823F465
:104FE0000023C16C0B43536070470268536823F47D
:104FF000C003816C0B435360EBE72DE9F843054692
:105000000E4617469946DDF820802B68DC6936EAA3
:1050100004040CBF01240024BC423AD1B8F1FF3F84
:10502000F3D0FFF767FBA0EB0900404534D8B8F197
:10503000000F33D02B681A6812F0040FE5D0B6F1D8
:10504000400218BF0122802EDFD0002ADDD0DA69AD
:1050500012F0080F11D1DA6912F4006FD5D04FF4B5
:1050600000621A622846FFF739FC2023C5F8903009
:10507000002385F8843003200CE008241C622846B5
:10508000FFF72CFCC5F89040002385F88430012000
:1050900000E00020BDE8F8830320FBE70320F9E7E8
:1050A0002DE9F04182B01E46D0F88830202B5BD12C
:1050B00004460D469046002A18BF002901D1012060
:1050C00053E00023C0F890302123C0F88830FFF768
:1050D00011FB0746A4F85480A4F85680A368B3F5E2
:1050E000805F02D04FF0000816E0236943B34FF011
:1050F000000811E02023C4F88830032035E038F898
:10510000023B2268C3F308039362B4F8562092B2BC
:10511000013A92B2A4F85620B4F856309BB293B13B
:1051200000963B46002280212046FFF766FF0028BC
:10513000E0D1002DE3D015F8012B23689A62E4E753
:10514000A8460025E8E700963B460022402120467D
:10515000FFF753FF18B92023C4F8883005E0202357
:10516000C4F88830032000E0022002B0BDE8F081DE
:1051700030B583B004460023C0F89030FFF7BAFA88
:1051800005462268126812F0080F10D123681B68C8
:1051900013F0040F28D12023C4F88830C4F88C30D1
:1051A0000020E066206784F8840003B030BD6FF013
:1051B0007E430093034600224FF400112046FFF780
:1051C0001CFF0028E2D0226852E8003F23F0800351
:1051D00042E800310029F6D12023C4F888300023AA
:1051E00084F884300320E0E76FF07E4300932B4681
:1051F00000224FF480012046FFF7FFFE0028CAD0AE
:10520000226852E8003F23F4907342E800310029FD
:10521000F6D1226802F1080353E8003F23F00103AE
:10522000083242E800310029F3D12023C4F88C3041
:10523000002384F884300320B7E778B310B5044620
:10524000D0F888300BB32423C4F888302268136860
:1052500023F001031360A36AE3B92046FFF76AFB5A
:10526000012811D02268536823F4904353602268C8
:10527000936823F02A0393602268136843F00103C4
:1052800013602046FFF774FF10BD80F88430FDF7EF
:1052900089F9D8E72046FFF74BFEDEE7012070478B
:1052A000436E2BB90123A0F86A30A0F8683070472C
:1052B00030B403689A68C2F342629968490F094D95
:1052C0006B5C1B01084C615C93FBF1F3A0F86A3046
:1052D000AB5C1B01A25C93FBF2F3A0F8683030BC1E
:1052E000704700BFE4580008DC58000890F884308C
:1052F000012B18D0012380F884302423C0F8883093
:1053000003681A68196821F00101196022F000523F
:105310000023436601680A602022C0F8882080F8D4
:105320008430184670470220704738B590F88430B2
:10533000012B1DD00446012380F884302423C0F8BB
:10534000883003681D681A6822F001021A6002683A
:10535000936823F0604319439160FFF7A1FF23682E
:105360001D602023C4F88830002084F8840038BDF4
:105370000220FCE738B590F88430012B1DD004469C
:10538000012380F884302423C0F8883003681D6826
:105390001A6822F001021A600268936823F06063C1
:1053A00019439160FFF77CFF23681D602023C4F838
:1053B0008830002084F8840038BD0220FCE700001B
:1053C000014B1868704700BF6800002070B50446A4
:1053D0000B4611469D0840F6A372934209D9144E1C
:1053E000A6FB0326360A9A0A1248FBF777FC00232D
:1053F00005E00126F7E7104A44F823200133AB42C9
:10540000F9D3002300E03344AB420CD204EB830118
:1054100054F82300084A9042F5D00848FBF75EFC98
:105420004FF0FF3003E00648FBF758FC002070BD4A
:10543000D34D6210EC58000866BB55AA0459000809
:105440001859000808B5FFF7BBFF264BA3FB003136
:10545000890C2548FBF742FC244B5B6913F4003FA1
:105460003BD023492348FBF739FC204B5B6913F4FD
:10547000803F34D01E492048FBF730FC1F48FAF724
:10548000C3FF1F48FAF7C0FF1E4A4FF480310020C7
:10549000FFF79CFF1C4A4FF4C0311C48FFF796FFF2
:1054A0001B4A4FF400214FF01050FFF78FFF194AAD
:1054B0004FF490214FF04050FFF788FF164A4FF409
:1054C00080314FF06050FFF781FF144A4FF00071B8
:1054D0004FF04040FFF77AFF08BD1149C2E710497D
:1054E000C9E700BF83DE1B433859000800ED00E028
:1054F00024590008545900086459000874590008D8
:105500007859000890590008985900080080002038
:10551000A0590008A8590008B0590008B859000857
:105520002C59000800B583B00D48FAF76DFF0D48FF
:10553000FAF76AFF0C48FAF767FF0C4B0093012358
:1055400002220D210A48FBF7C9FB0A48FAF75CFF63
:10555000094A0A490A48FBF7C1FB03B05DF804FB9E
:10556000C0590008C4590008E05900081C5A000836
:10557000085A00082C5A00084C5A0008585A0008CB
:10558000645A000870B504460668456801460E482E
:10559000FBF7A4FB29460D48FBF7A0FB31460C485E
:1055A000FBF79CFB0B48FAF72FFF72B60A4B9C6087
:1055B000BFF34F8FBFF36F8F86F308880748A84764
:1055C0000748FAF721FFFEE7785A0008985A0008C2
:1055D000B05A0008C85A000800ED00E06921000830
:1055E000E45A000808B5FFF79DFF0C4AD2F8FC30DA
:1055F00043F08073C2F8FC30094B00225A601A68ED
:1056000042F001021A60FFF71DFF4FF40441054804
:10561000FBF764FB0448FFF7B5FF00BF00ED00E0B7
:10562000001000E0285B00080000020810B40B68BE
:10563000CBB902686FF30E024B688C682343CC68C9
:1056400023430C6923434C6923438C692343CC696E
:1056500023430C6A2343496A0B431343036000202E
:105660005DF8044B7047036823F4F843CA690C6A79
:1056700022434C6A22431343036042686FF30E02D5
:105680004B688C682343CC6823430C6923434C69E3
:10569000234389690B4313434360E0E710B43ABBEB
:1056A000826802F070420B68013B4C6804F1FF3CD9
:1056B00043EA0C138C6804F1FF3C43EA0C23CC68EA
:1056C00004F1FF3C43EA0C330C6904F1FF3C43EA6C
:1056D0000C434C6904F1FF3C43EA0C5389690139DE
:1056E00043EA01631343836000205DF8044B704775
:1056F0008368134A1A40CB6803F1FF3C4B69013BB6
:105700001B0543EA0C331A438260C26802F0704200
:105710000B68013B4C6804F1FF3C43EA0C138C68B6
:1057200004F1FF3C43EA0C230C6904F1FF3C43EA1B
:105730000C438969013943EA01631343C360D3E72A
:10574000FF0F0FFF10B402696FF315020B684C686E
:1057500023438C6804F1FF3C43EA4C13C96843EAD5
:1057600041231343036100205DF8044B70474369F4
:105770006FF34D0343EA410343610020704700008B
:1057800008B338B50D46044690F82C30B3B1022367
:1057900084F82C30214651F8040BFFF747FF62686C
:1057A00029462068FFF77AFF084A136843F0004350
:1057B0001360012384F82C30002038BD80F82D3090
:1057C000FCF73CFFE3E70120704700BF00400052B8
:1057D00038B5044690F82C30D8B2022805D00D46D2
:1057E000052818BF012801D0012038BD022384F804
:1057F0002C302068FFF7A6FF2B68022B04D0012372
:1058000084F82C300020F0E7052384F82C300020A9
:10581000EBE710B5044690F82C30D8B2022805D03A
:1058200094F82C30DBB2012B01D0012010BD0223F3
:1058300084F82C302068FFF79AFF012384F82C307D
:105840000020F3E7DFF838D0FEF7ECFFFEF772FF39
:105850000C480D490D4A002302E0D458C4500433CB
:10586000C4188C42F9D30A4A0A4C002301E01360A1
:105870000432A242FBD3FAF757FDFCF7A5FD7047AF
:1058800000400020000000206C000020945B000815
:105890006C000020B4020020FEE70000F8B500BF55
:1058A000F8BC08BC9E467047F8B500BFF8BC08BC01
:0458B0009E46704759
:1058B40000000000010203040102030406070809B2
:1058C400010002000400060008000A000C00100099
:1058D40020004000800000010804020408010101C6
:1058E4000101010307010000436865636B696E678A
:1058F4002025732028256C75204B422920000000A8
:105904004641494C4544206174203078253038584C
:105914000D0A00003D3E204F4B200A0D0000000000
:10592400456E61626C65640044697361626C6564B0
:1059340000000000435055204672657175656E6322
:10594400793A20256C75204D487A0D0A0000000034
:105954002020492D43616368653A2025730D0A00B0
:105964002020442D43616368653A2025730D0A00A5
:105974000D0000002D2D2D204D656D6F7279205482
:1059840065737473202D2D2D0D0000004954434D73
:1059940052414D004454434D52414D0052414D5FDC
:1059A4004431000052414D5F4432000052414D5F8A
:1059B40044330000534452414D0000000D0A0D00D1
:1059C400426F6F746C6F6164657220666F722053EE
:1059D400544D3332483734330D0000002D2D2D2D16
:1059E4002D2D2D2D2D2D2D2D2D2D2D2D2D2D2D2DE3
:1059F4002D2D2D2D2D2D2D2D2D2D2D2D2D2D2D2DD3
:105A04002D2D0D004743432025642E25642E256447
:105A140020282573290D0A0031332E322E312032ED
:105A240030323331303039004172636869746563F0
:105A3400747572653A2033322D6269742074617210
:105A44006765740D0000000030303A32333A343167
:105A5400000000004A756E202033203230323500B9
:105A64004275696C6420446174653A20257320256D
:105A7400730D0A00426F6F74696E67206B65726EF6
:105A8400656C2066726F6D203078253038582E2E64
:105A94002E0D0A002020456E74727920506F696EB5
:105AA400743A203078253038580D0A002020496E89
:105AB400697469616C204D53503A20307825303830
:105AC400580D0A0052656C6F636174696E672074C7
:105AD4006F206B65726E656C2E2E2E0D000000001B
